:020000041000EA
:1000000000B5324B212058609868022188439860DF
:10001000D860186158612E4B002199600221596106
:100020000121F02299502B49196001219960352056
:1000300000F044F80222904214D00621196600F024
:1000400034F8196E01211966002018661A6600F04E
:100050002CF8196E196E196E052000F02FF8012189
:100060000842F9D1002199601B49196000215960AB
:100070001A491B48016001219960EB211966A021F2
:10008000196600F012F800219960164914480160C1
:100090000121996001BC002800D000471248134993
:1000A000086003C880F30888084703B5996A0420EC
:1000B0000142FBD001200142F8D103BD02B5186610
:1000C0001866FFF7F2FF186E186E02BD00000240BE
:1000D000000000180000070000035F00212200005C
:1000E000F4000018222000A00001001008ED00E03C
:1000F00000000000000000000000000074B24E7A12
:1001000000200420F7010010C3010010C5010010F9
:10011000C1010010C1010010C1010010C101001097
:10012000C1010010C1010010C1010010C701001081
:10013000C1010010C1010010C9010010CB01001065
:10014000CD010010CD010010CD010010CD01001037
:10015000CD010010CD010010CD010010CD01001027
:10016000CD010010CD010010CD010010CD01001017
:10017000CD010010CD010010CD010010CD01001007
:10018000CD010010CD010010CD010010CD010010F7
:10019000CD010010CD010010CD010010CD010010E7
:1001A000CD010010CD010010CD010010CD010010D7
:1001B000CD010010CD010010CD010010CD010010C7
:1001C00000BE00BE00BE00BE00BE00BEEFF3058054
:1001D000103800BEF2EB8871DC45051004460510AE
:1001E0003402001090A31AE700201F49086006C8D7
:1001F00081F3088810471D48006800282FD10DA4FE
:100200000ECC002902D000F012F8F9E71849194A7B
:10021000002000E001C19142FCD1174988471749ED
:1002200088471749884700BEFDE701C901C29A42C5
:10023000FBD3704704460510C000002020110020A9
:1002400064560510000004200000042064560510C8
:10025000001004200010042000000000704709482E
:1002600003F048FC0047000008ED00E0000000D06B
:1002700020110020FC5F0020652800107905001087
:10028000212800105756000006005250ABB36053AF
:10029000703E011006005250861C0302803E011081
:1002A000060052505422A29DB43E01100500525047
:1002B000DE65F46864560510F8B5C04610B5064C06
:1002C0002378002B07D1054B002B02D0044800E017
:1002D00000BF0123237010BD801200200000000029
:1002E00010250110044B10B5002B03D0034904481E
:1002F00000E000BF10BDC0460000000084120020D6
:100300001025011010B53022302101200AF0DAFF4B
:100310000AF0B0FF0248034B436007F0ADFC10BD8C
:100320003843002005050010F0B58BB0020008A886
:1003300004F0D6FE0FE0A300654A9958654804F022
:10034000C3F920E0FF2F00D0B8E00A2004F058F9EC
:1003500008A804F0DFFE08A804F0C7FE002800D1BA
:10036000B1E008A804F0E3FE0400070008A804F0C8
:10037000D8FE0190060008A804F0DEFE0500631E0A
:10038000DBB2192BD7D93D2FDCD863B2002B00D1BB
:1003900094E03D2F00D991E0A3004F4AD3589F46E7
:1003A0000134072CD1DC2B782341DB07F8D5A300DF
:1003B0004A4A99584A4804F087F9F1E70024F0E7DF
:1003C0002100280005F0ABFA0100464804F07CF952
:1003D0000234A642F4DCB8E70024FAE72100280042
:1003E00005F0A3FA0100404804F06EF90434A64277
:1003F000F4DCAAE70024FAE702A9280005F0CFFA06
:1004000002A805F021FB0100384804F05DF99CE7E3
:10041000285D04F0F5F80134A642F9DC95E70024E4
:10042000FAE700216956324804F04EF98DE70021C1
:10043000280005F074FA840024180221280005F031
:100440006EFA82001018C21703210A401218921087
:10045000E317194009198910264804F035F974E7A3
:100460000199280005F0CAFA6FE706A9280005F0EF
:100470009BFA06A805F038FB01001C4804F024F99B
:1004800063E70021280005F04AFA01001A4804F049
:100490001BF95AE70021280005F041FA81000818ED
:1004A000C317072119400918C910144804F00CF9A2
:1004B0004BE70199280005F0A1FA46E72100104812
:1004C00004F002F941E70A3004F09AF80BB0F0BDED
:1004D0007C2A011010250110A8250110E82A01101E
:1004E0001C250110242501102C250110585701103E
:1004F000342501103C2501106C25011074250110D4
:100500007C250110F0B5C64600B584B0140004285F
:1005100002D11378DA2B03D004B080BCB846F0BD0A
:10052000101D062202A905F02FFAA678E7780A2303
:10053000E3569846E57A0C3402A805F0D5FA030094
:100540000195424600923A003100064804F0BCF89A
:100550002900200005F052FA29002000FFF7E4FEF0
:10056000DAE7C046A026011010B5FFF7CBFE012048
:100570000AF00CFE002010BD10B504F0B1F800F038
:1005800025F8041E05D100F03DF805F071F92000B2
:1005900010BD01246442FAE700B583B0042802D1FB
:1005A0001378602B01D003B000BD9378022BFAD1F1
:1005B000684607F079FC684605F096FA01000248A3
:1005C00004F082F8EFE7C046082B011010B50BF0DD
:1005D00029FD041E0AD10848084B436007F04CFB74
:1005E00010F02AF804F0AEFD200010BD044804F01D
:1005F0003BF801246442F7E74043002099050010CE
:10060000282B011010B500210020FFF7ADFF10BD11
:1006100010B58300084A944663441C684022624037
:10062000C02414408022520113431C60C000034BBD
:100630009C466044416010BD04C001400040014040
:1006400080000B4B9C46604400290DD00823002AF3
:100650000CD004221343026853400C221340802222
:1006600052011043036070470023F0E70022F1E7D6
:1006700004C00140002909D08000094B9C46604419
:1006800080239B0118430223036070478000044BC2
:100690009C466044C0239B01184302230360F4E797
:1006A00004C0014070B5D0231B061B689D00094C97
:1006B0002C59204207D19B002043064C18510D2095
:1006C00000F0EAF970BD044B044ACC21044802F062
:1006D000ABF8C046BC5B0020482B0110202C011059
:1006E000742B011010B50400D0231B061B689B005F
:1006F0000A4A9B5818420BD00D2000F0E7FAD0238D
:100700001B061B6805499B005A58A2435A5010BD4E
:10071000034B044AD621044802F086F8BC5B002053
:10072000D02B0110FC2B0110742B01100723034068
:100730009B00C00899403C308000014BC15070477D
:1007400000400140F8B507000C0016001D00FFF73F
:10075000EDFFFB089B00ED18072038408000844027
:10076000002E04D080239B011D432C60F8BDC023C4
:100770009B011D432C60F9E710B5D0231B061B68B5
:10078000002B03D0024BFFF7DDFF10BD014BFAE752
:10079000304101400041014010B501238340D02287
:1007A0001206936293610521FFF732FF10BD00002E
:1007B000034B1B6802201840431E9841C0B270478B
:1007C00000C00640EFF3108072B6034B1B68002B8D
:1007D000FBD0BFF35F8F70472C0100D0BFF35F8F5A
:1007E000024B00221A6080F3108870472C0100D061
:1007F000F8B506000C001500FFF7E4FFE308F71852
:10080000F15C07222240012393400B4205D1DBB269
:100810000B433B70FFF7E2FFF8BD2100280002F018
:100820009DF8F0B583B00600019114001F00FFF79A
:10083000C9FF00E00134BC420CD8E308F518F35CB2
:100840000721214001228A401A42F3D1D2B21A4331
:100850002A7001E001246442FFF7C0FF002C02DB94
:10086000200003B0F0BD019B002BF9D0089802F0E6
:1008700075F8000070B505000C00FFF7A3FFE30852
:10088000EE18EA5C07210C400123A340134204D078
:100890009A433270FFF7A2FF70BD034B034A2C311D
:1008A000034801F0C1FFC046542C0110D42C0110A4
:1008B000742C0110002307E0054A9A189200BFF338
:1008C0005F8F0021116001331F2BF5D97047C0469F
:1008D0004000003410B51F2808D8074B9C466044E0
:1008E0008000BFF35F8F0023036010BD034B044AF9
:1008F0001921044801F098FF40000034E42C011055
:100900005C2D0110002D0110054A1078431CDBB24C
:100910001370172B02D9130010221A707047C046AB
:1009200058070020074B9B68103080001950BFF318
:100930005F8FBFF35F8F044B0021196082F3108833
:100940007047C04600ED00E0240100D01F23181AB4
:100950007047000010B5091A081F0A4B9C466144F5
:10096000094A914208D8C30706D440104005400DFB
:10097000064B184380B210BD054B064AA32106481A
:1009800001F052FFFC070000FE0F000000E0FFFF37
:100990006C2D0110F82F01109C2D011010B5091AB3
:1009A00004394C08090B08D14905490D064A114381
:1009B0000180064B2343438010BD054B054AAB2104
:1009C000054801F031FFC04600F0FFFF00F8FFFFCF
:1009D000F82D0110CC2F01109C2D01100123834014
:1009E000034A10681840431E9841C0B27047C04681
:1009F00000E100E0002904D0034B1860034B1860AD
:100A00007047034B1860FBE780E200E000E100E084
:100A100080E100E010B5012383401800FFF7EAFFF2
:100A200010BD000001238340014A13607047C04697
:100A300000E200E0024B9B6810308000C058704715
:100A400000ED00E070B504000D00EFF3108672B603
:100A50000C4B1B68002BFBD0BFF35F8F2000FFF710
:100A6000E9FF094B984201D0A84205D13200290084
:100A70002000FFF757FF70BD044B054A862105484B
:100A800001F0D2FE240100D0CD010010082E01108B
:100A90002C3001109C2D0110F0B5DE4657464E4615
:100AA0004546E0B589B0814601911500EFF3108A03
:100AB00072B6744B1B68002BFBD0BFF35F8F724B79
:100AC0000027DF57002F40DB7C00E419A4006F48AB
:100AD00024180622A2566C4B1A706D4B9A684B462E
:100AE00010339B00D35898461E001B1A2F2B38D961
:100AF000684B98452FD105AE674B33807B009B46F2
:100B0000D8198000614B9846404402306349FFF792
:100B100021FF7080624BB380FF23B371F571019B9D
:100B200007935F44BF0047440ECE0EC701231C430A
:100B3000A046524641464846FFF7F4FE09B0F0BCD5
:100B4000BB46B246A946A046F0BD564B564AD721F1
:100B5000564801F069FE564B534ADE21534801F0D6
:100B600063FEC04340440C2103F018F8002912D161
:100B700001239E43B34633000026DA79AA4211D9F5
:100B80000621595600290CDB4A00521892001E001B
:100B90003E4B9B18F1E7474B434AEA21434801F09B
:100BA00043FE1E00002E3AD005AB434A1A80813A1C
:100BB0005A800623F3560293002B17DA3F4805AB01
:100BC0009B469880029A9A71DD71019A0792301DB6
:100BD0002100FFF7BFFEB080B7717B00DB199B00DF
:100BE0002A4FFF185B4607CB07C7A2E77800C0195A
:100BF0008000264BC0180430321DB388D90A1C2946
:100C000007D15B055915023149005118FFF7A2FEC3
:100C1000D5E72B4B2B4AB121244801F005FE05AE48
:100C20001D4B33807B000293D8198000174A9046F1
:100C3000020042440392901C1849FFF78BFE70801B
:100C4000039A101D5946FFF785FEB0801E4B5A4689
:100C50004146521A524153431B0DB371F571019A2B
:100C60000792029B9C466744BF0047440ECE0EC7C6
:100C7000114B5A461380813B538001231C43A046ED
:100C800057E7C046240100D0F45F00205C07002035
:100C900000ED00E0CD01001000A1FFFF8C07002057
:100CA00001BDFFFF402E0110143001109C2D0110DA
:100CB000682E0110902E01100148000001BD0000B7
:100CC000042F011004300110AAAA0000F0B5CE468E
:100CD000474680B583B006000D00EFF3108872B66A
:100CE000564B1B68002BFBD0BFF35F8F544B9A68A9
:100CF00034001034A300D758524B9F4207D0AF4264
:100D000000D198E00197504BFB1A2F2B09D942468E
:100D100039003000FFF706FE03B0C0BCB946B0464C
:100D2000F0BD3000FFF75AFE814600213000FFF78A
:100D300071FEBFF35F8FEFF30581002901D08C4274
:100D400011D10123019C9C430022A368AB4212D025
:100D50000622A256002A0DDB53009B189B0022009E
:100D6000394CE418F1E73621384B394AFF3139481C
:100D700001F05AFD2200AB4256D106256557002DE1
:100D800038DB6B005B199A002F4B9B189A68A260A6
:100D9000DA79E27106229A56A2719B795BB2002B36
:100DA0000FDA2D48A0806B005B199B00264AD318F0
:100DB0002A4A11789971157049463000FFF72AFECA
:100DC000A5E7201D6B005B199B001F4A9B181A1D8D
:100DD0009B88D90A1C2907D15B055B150233590092
:100DE0005118FFF7B7FDDDE71D4B1E4AB121194829
:100DF00001F01AFD002912D1002A0ED0FF239371B1
:100E0000194B9380154A1378A371184B0E49641A35
:100E1000644163431B0D1370CEE70A4FF2E7201DB8
:100E20001349FFF7BBFDC7E76A21124B084AFF31A0
:100E3000084801F0F9FC034F69E7C046240100D0DF
:100E400000ED00E0CD0100105C0700201C2F011018
:100E5000E42F01109C2D011001BD0000F45F002063
:100E6000042F01100430011001BDFFFFAAAA0000E9
:100E700096070020502F011010B5032304009C4357
:100E8000064A9446644422681840C000FC338340FC
:100E90009A43130081400B43236010BD00E400E03F
:100EA00070B5012101432E4BCB1A2F2B28D8EFF31D
:100EB0000583002B2BD0EFF3108C72B6294A1268F1
:100EC000002AFBD0BFF35F8F274A0400244D641B28
:100ED00064416243120D54B2244A92689B00D25876
:100EE0008A421BD00022032A32D853009B189B0051
:100EF0001B49CB189B795BB2A3421FD00132F2E7AA
:100F0000C7211B4B1B4A49001B4801F08DFC922155
:100F10001A4B184AFF31184801F086FC134A9268B0
:100F20001749D150174B1A7882711C70BFF35F8F2D
:100F30000C4B00221A608CF3108870BD0D0053001A
:100F4000991889006918FF268E710F4A8A80E9E78F
:100F5000D1210E4B074A4900074801F065FCC04605
:100F60005C070020240100D0AAAA000000ED00E0E8
:100F7000582F0110B02F01109C2D0110802F01104F
:100F8000CD010010F45F002001BDFFFF8C2F011088
:100F90000022044B02E0044902C30132072AFAD9B5
:100FA0007047C04600E400E08080808010B5FFF705
:100FB000CDFC01000148FFF75DFC10BDF85F00208B
:100FC00000B583B00100064B0093052300220548BD
:100FD000FFF727FC002801DB1F23181A03B000BD10
:100FE000942F0110F85F002070B504000E0015006A
:100FF000FFF78AFC0100200000F006F8A680E580DB
:10100000BFF35F8F70BD0000024B9C4661448900B6
:10101000016070474000003410B50400FFF774FC15
:1010200001002000FFF7F0FFFF232371BFF35F8F64
:1010300010BD10B50400FFF767FC01002000FFF7AA
:10104000E3FFFF23237100236371BFF35F8F10BDA4
:1010500070B505000C00080000F000FF09492000F1
:1010600000F040FEFFF750FC074B9C4660448000B8
:1010700068602C75D0231B061B786B75A400034B8E
:10108000E55070BD9513001040000034AC5B0020AB
:101090000A4B1A68EFF3108172B61368002BFCD06C
:1010A000BFF35F8F054B1B68BFF35F8F00221A6091
:1010B00081F3108840BF0020002170479C5E002013
:1010C00010B5002922D003681B7B99421ED8174B0C
:1010D0009C466144090183689C4661440C684968E8
:1010E000002A19D003681B7B9A4215D883680F48E1
:1010F0008446624412019A18106853680200012065
:101100008B4201D80ED00020C0B210BD084B094A56
:101110003C21094801F088FB054B064A3C21064862
:1011200001F082FBA242EFD8EDE7C046FFFFFF0FC0
:1011300050320110D0340110FC31011010B50029DB
:101140001ED0037B99421BD84B005B18033B0468FD
:10115000A4466344002919D0002A1DD0914221D011
:10116000002A25D0047BA24222D8046850008018AF
:10117000033820188170197800291FD11A7010BD0A
:10118000104B114A6821114801F04EFB104B114AD7
:101190006F310E4801F048FB0F4B0E4A70210B488F
:1011A00001F042FB0D4B0B4A7121084801F03CFB5A
:1011B000044B054A6821054801F036FB41701A705E
:1011C000DDE7C046743201103C3501109032011049
:1011D000F8320110183501100433011010330110DA
:1011E00070B506000D001400002914D0002A14D098
:1011F000806873689847002806D0220029003000D4
:10120000FFF79CFF280007E02A0021003000FFF7CD
:1012100095FF200000E0100070BD0800FCE7000012
:10122000F0B583B00500009201930AAB1C780BABBC
:101230001F78002C26D003685A7B944207D10123E3
:10124000002B19D1002C3BD1200003B0F0BD002CA5
:101250000CD01A7B944209D81A6863001B19033B0F
:10126000D3189B78002BEBD00123E9E73E4B3F4A94
:1012700068213F4801F0D8FA3E4B3F4A67213F487A
:1012800001F0D2FA03689C7B002CDBD012D01A7BD1
:1012900094420FD862001219033A19688C466244CE
:1012A00051789973002900D1D9730023937053703A
:1012B0001370C7E72C4B2D4A68212D4801F0B4FA72
:1012C000002C3AD02B681B7B9C4236D82C4BE31861
:1012D0001B01AA6894466344009A1A60019A5A60F6
:1012E000089A9A60099ADA602E68002C2BD030D0C8
:1012F000337B9C422DD863001B19033B3268944614
:10130000634400229A705A701A70717B2200300078
:10131000FFF766FF7073844200D095E7287D009A3E
:10132000019B00F027FD061E01D0002F17D00C9B5B
:10133000002B00D188E71E7086E7124B124A3C2131
:101340000E4801F071FA114B114AA521084801F02D
:101350006BFA054B054A6821054801F065FA2868D3
:10136000210000F03FFFE2E7743201103C3501102C
:10137000903201102833011048350110FC31011062
:10138000FFFFFF0F50320110D0340110F83101106F
:101390002C350110F0B5DE4657464E464546E0B5C1
:1013A0008BB00990002308938200B54BD6583700C4
:1013B00052E0B44BB44A3F21B44801F035FAB44B83
:1013C000B44A3C21B44801F02FFA002901D1002889
:1013D00069D10021404600F0FBFEA04219D12A68E5
:1013E0006B6806920793AB689846EB689A4643464B
:1013F000002B14D0002C18D03B681B7B9C4214D8C7
:10140000631EFA68D35C08931B02184338610020FE
:1014100015E0A24BA24A8E219F4801F005FAA14B8C
:101420009F4A92219C4801F0FFF9994B9E4A412125
:10143000994801F0F9F900239A46984600207B6804
:10144000BFF35F8F00221A6086F310884346002B9B
:1014500032D1002800D10CE100F000FC02000B1E8C
:10146000A7DB00200021069007917868EFF3108633
:1014700072B601680029FCD0BFF35F8F39688846D7
:101480004C7B002CD7D09AD0097B8C4297D88749C7
:1014900065182D01B9688C46654428686968801A0A
:1014A0009941002991DD2A686B68099800F062FC77
:1014B00000239A469846C2E7089B1B02234399469D
:1014C00051461800C04705000E007A68EFF3108BF4
:1014D00072B6136859424B41D9B2002BF9D1BFF310
:1014E0005F8F002E1EDB002E46DD3B69002B47D0B0
:1014F0004B456DD100F0B2FB02000B1E6EDB5219A2
:101500007341002B70DB002B72DB00210491013151
:101510000391029451460191414600913800FFF732
:101520007FFE4CE03B69002BDDD04B4514D1069A81
:10153000079B521BB341002B14DB002B16DB002151
:101540000491013103910294514601914146009169
:101550003800FFF765FE32E0554B514AA1214E4855
:1015600001F062F901225242524BE6E7454B464AEE
:101570003F21464801F058F9002E01D1002DB4D189
:101580003B68002C50D05A7B944237D1012100296E
:101590004AD1DA7B002A4DD19A7B002A03D1DA7B2B
:1015A000002A5AD19C73DC73002C5CD03B681B7BF7
:1015B0009C4258D8FA68013C135D0133135500234F
:1015C0003B617A68BFF35F8F13608BF3108843E74A
:1015D000374B334AA421304801F026F9294B2A4AD7
:1015E0003F212A4801F020F901225242314B8AE77B
:1015F000244B254A3F21254801F016F9002C0DD037
:101600001A7B94420AD862001219033A1868844679
:1016100062449278002ABAD00121B8E7264B274AC3
:101620006821274801F000F9264B274AF621244873
:1016300001F0FAF8002A0AD0197B8A4207D8510033
:101640008A18033A19688C4662445470A4E71A4B0E
:101650001A4A68211A4801F0E7F81C4B1A4AFB2184
:10166000174801F0E1F80A4B0F4A41210A4801F0FE
:10167000DBF80BB0F0BCBB46B246A946A046F0BDB5
:10168000AC5B0020B83001109C340110D430011044
:1016900050320110D0340110FC31011050330110D0
:1016A000B434011068330110F4340110FFFFFF0F50
:1016B00074330110FFFFFF7F743201103C350110BD
:1016C00090320110B033011008350110D4330110ED
:1016D00010B50C4B5B68002B04D00A210A48FFF7B9
:1016E00093FC10BD074C2300084A1021206800F02D
:1016F0007FFC032000F0A6FA03212000FFF7A8FCDE
:10170000EBE7C046A40700209C5E0020C11000103B
:1017100010B5064B5B68002B01D0044810BD044B8C
:10172000044A5E21044801F07FF8C046A407002067
:10173000E8330110DC340110FC310110F0B5DE4655
:1017400057464E464546E0B58BB0804616001F0012
:10175000149B9A46159B994616AB1B789B461F23F4
:1017600002AA9446634400221A702BE0002809D094
:1017700042461268127B904204D8421E4146C96814
:101780008A5C41E0404B414A4121414801F04CF81C
:1017900007984CE0361BAF41002F07DB002F11DA12
:1017A0003C4B3D4A3F213D4801F03EF80126764240
:1017B0003B4FF3E7374B384A3F21384801F034F8C4
:1017C000002F4FDB43465A68EFF3108472B613685C
:1017D00059424B41D9B20791002BF8D1BFF35F8F2B
:1017E0001F3302AA94466344049300230393029395
:1017F0004B4601935346009332003B004046FFF7AF
:101800000FFD031EB2D1020041464968BFF35F8F4E
:1018100000250D6084F31088002B29D01F2302A916
:101820008C4663441B78002BB2D112021043002B6C
:1018300020D05B46002B1DD04946D04704000D0048
:1018400003000B431DD00029A4DB00F007FA0600BB
:101850000F1EAFDB36196F41002FB1DA0126764239
:101860000F4FADE70B4B0C4A3F210C4800F0DCFF5B
:10187000012040420BB0F0BCBB46B246A946A04690
:10188000F0BD0798F6E7C04650320110F43401105D
:10189000FC310110B83001109C340110D43001101B
:1018A000FFFFFF7FF8B50400002900D162E0426825
:1018B000EFF3108572B6136858424341D8B2002B3B
:1018C000F9D1BFF35F8FCBB22268567BB3421BD1F5
:1018D0000120002848D0206988422BD0090AC9B2CB
:1018E000002B2ED02068007B83422AD8581EE66841
:1018F000305C88422BD000206368BFF35F8F0022EA
:101900001A6085F31088F8BD002B0DD0167BB3420A
:101910000AD85E00F618033E1768BC466644B678DF
:10192000002ED6D00120D4E7134B144A6821144866
:1019300000F07AFF2C21134B134AFF31134800F0BB
:1019400073FF134B134A4121104800F06DFF19003B
:10195000100000F047FC0028CED199210E4B0A4A16
:1019600049000A4800F060FF23698B42C4D100237C
:101970002361C1E70020C6E7743201103C35011035
:10198000903201100C34011084340110FC3101102C
:1019900050320110F434011030340110407D704792
:1019A000F0B587B006000F00EFF30583002B1FD1C1
:1019B00006246442E517A4197D418D4202D803D163
:1019C000844201D900240025002D14DB04940595E0
:1019D00000F044F902000B1E13DBA41A9D41002DF8
:1019E00017DC14D03000390000F044F907B0F0BD26
:1019F000234800F0B3FF234B234A3F21234800F044
:101A000013FF204B204A3F21204800F00DFF002CFF
:101A1000E8D0FFF77DFE0023029301931C4B009357
:101A2000049A059BFFF78AFE002818DADAE70023FC
:101A300000E00023002BD5D1164B1A68EFF310817C
:101A400072B61368002BFCD0BFF35F8F114B1B687D
:101A5000BFF35F8F00221A6081F3108820BF0499C2
:101A6000059A0D4B5B6A9A42E3D80B48806A88421C
:101A700003D29A42DBD00123DCE70123DAE7C04638
:101A800034340110B83001109C340110D4300110EE
:101A9000911000109C5E00200040054070B50400CD
:101AA0000D0000F0DBF802000B1E0ADB200029000D
:101AB0008018594100290ADB00290CDBFFF770FF71
:101AC00070BD084B084A3F21084800F0ADFE0120D8
:101AD00040420749F0E7034B034A3F21034800F027
:101AE000A3FEC046B83001109C340110D430011060
:101AF000FFFFFF7F10B5FA2292000023002102F0C1
:101B0000E3FBFFF7CBFF10BD70B584B005000C0000
:101B1000EFF30583002B1ED1FFF7FAFD002302939C
:101B20000193224B00932A002300FFF707FE061EB5
:101B300023DD20BFFFF7ECFD3100FFF7B3FE1C4BA8
:101B40005B6A9C422DD81A4A926AAA422CD29C42C5
:101B500025D0012026E0164B5B6A994209D8144A29
:101B6000926A824207D2994201D001201AE00020F5
:101B700018E0002016E0012014E00D4B5B6A9C4247
:101B800009D80B4A926AAA4207D29C4201D001208E
:101B900008E0002006E0002004E0012002E0002030
:101BA00000E0002004B070BD0120FBE791100010A0
:101BB0000040054070B5EFF305801038EFF3108C4E
:101BC00072B61A4B1B68002BFBD0BFF35F8F01224C
:101BD0001300834016494B6316490B601649097878
:101BE0000C00C440224214D0114A546A8200134DA2
:101BF0005259944206D38200114C125999430E4B0C
:101C0000197007E00A4A031D9B0099589950002259
:101C100000E00022BFF35F8F044B002119608CF3BA
:101C20001088002A00D0904770BDC046280100D01F
:101C3000004005403C700540F75F0020C85E002072
:101C4000DC12002010B50100024A0348FEF7D0FD67
:101C500010BDC04668350110F05F0020044B5B6A80
:101C6000034A906A1900536A9942F9D17047C046F5
:101C700000400540084B5B6A01E0074B5B6A8B4202
:101C8000FBD301E0044B5B6A8B4203D1024B9B6A9E
:101C90008342F7D37047C0460040054070B504004A
:101CA0000D00FFF7DBFF02000B0020002900801869
:101CB00059418B4202D804D1824202D901204042CC
:101CC000C117002902DBFFF7D5FF70BD024B034AA5
:101CD0003F21034800F0A8FDB83001102C36011058
:101CE000D430011070B504000D00EFF3108672B609
:101CF0001B4B1B68002BFBD0BFF35F8F002D1CD04C
:101D00002000FEF797FE174B83420BD019002000EE
:101D1000FEF798FE01212000FEF77CFE0123A34080
:101D2000114A1360A400114BE550BFF35F8F0C4BB9
:101D300000221A6086F3108870BDA2000B4B0021B0
:101D4000D1500122A2400A490B7893430B700549F8
:101D50002000FEF7BBFF00212000FEF75BFEE4E75A
:101D6000280100D0B51B001038600540DC120020AF
:101D7000F75F0020F0B5DE4600B584B00400150022
:101D800001921E000293FFF769FF03958E4202D86D
:101D90004ED185424CD9EFF3108B72B6274B1B689E
:101DA000002BFBD0BFF35F8F254A17780125A54094
:101DB000EBB23B431370234B5D63221D92000199EC
:101DC000D150A2002049029850501B6A2B4212D1D8
:101DD0001C4B1B6C2B4208D00020BFF35F8F174BAE
:101DE00000221A608BF3108823E0184B184AC52193
:101DF000184800F019FDFFF731FF8E4214D802D1C8
:101E0000039B834210D80E4B1B78BB420ED00D4B68
:101E10001D625D631F2004400123A3400E4A13602E
:101E2000074B1F701E38D8E70020D6E70120D4E703
:101E3000012004B080BCBB46F0BDC046280100D0E4
:101E4000F75F002000400540C85E00208C3501107F
:101E500010360110B035011080E200E0EFF3108C75
:101E600072B60B4B1B68002BFBD0BFF35F8F0123B7
:101E70008340084A136208490A789A430A70BFF3FC
:101E80005F8F034B00221A608CF310887047C046A6
:101E9000280100D000400540F75F002010B5002960
:101EA0001ED0037B99421BD84B005B18033B046890
:101EB000A4466344002919D0002A1DD0914221D0A4
:101EC000002A25D0047BA24222D804685000801842
:101ED000033820188170197800291FD11A7010BD9D
:101EE000104B114A6821114800F09EFC104B114A1A
:101EF0006F310E4800F098FC0F4B0E4A70210B48D2
:101F000000F092FC0D4B0B4A7121084800F08CFC4C
:101F1000044B054A6821054800F086FC41701A70A0
:101F2000DDE7C046743201104C37011090320110C9
:101F3000F83201103837011004330110103301104A
:101F400070B506000D001400002914D0002A14D02A
:101F5000806873689847002806D022002900300066
:101F6000FFF79CFF280007E02A0021003000FFF760
:101F700095FF200000E0100070BD0800FCE70000A5
:101F800010B50023437301338373037BC3730123B1
:101F9000027B9A4214D9002B0CD0027B934209D8C1
:101FA0005A00D218033A01688C4662440133DBB20E
:101FB0005370EDE70B4B0C4A68210C4800F034FCE1
:101FC000002A09D0924207D8016853009A18033AB0
:101FD0008A180023537010BD024B034A682103483E
:101FE00000F022FC743201104C37011090320110C5
:101FF00010B5017342608360FFF7C2FF10BD00009F
:1020000070B50400081E00D170BD002934D0237BB8
:10201000994231D84B005B18033B226894466344D5
:102020005A78002AF0D02DD0237B9A422AD8530028
:102030009B18033B21688C4663445D7800215970EE
:10204000002825D0237B984222D843001B18033B4D
:1020500021688C4663440021597001002000FFF77D
:102060006FFF060029002000FFF7CAFF02003100C1
:102070002000FFF765FFC7E7084B094A68210948B8
:1020800000F0D2FB054B064A6821064800F0CCFB65
:10209000024B034A6821034800F0C6FB743201106A
:1020A0004C3701109032011070B505000C0016007D
:1020B00000292FD034D0037B994231D84B005B18D4
:1020C000033B0268944663445A78002A2ED19A78DA
:1020D000002A31D11978FFF793FF0300002E0AD0B0
:1020E000EA7B002A2ED1AA7B002A03D1EA7B002AB0
:1020F0003BD1AC73EC73002B3DD1002C4FD02B7B2C
:102100009C424CD82B6861000C19033C1C1900231D
:10211000637070BD254B264A3821264800F084FBA9
:10212000254B264A6821264800F07EFB254B204A95
:102130003A21204800F078FB234B1D4A3B211D48E3
:1021400000F072FB002A0AD0297B8A4207D851008E
:102150008A18033A29688C4662445470C3E7164BC8
:10216000164A6821164800F05FFB184B104A4221BE
:10217000104800F059FB002B0BD02A7B934208D863
:1021800043001B18033B2A689446634400229A705C
:10219000B3E7094B094A6821094800F045FB064BA3
:1021A000064A6821064800F03FFBC046443601104D
:1021B000243701104C360110743201104C370110D5
:1021C00090320110A0360110C8360110D43301102E
:1021D00070B504000A00457B2900FFF765FF6073B6
:1021E000280070BD70B50400002967D0437B8B4286
:1021F0000ED0002911D0037B99420ED84B005B18FA
:10220000033B0268D0188378002B0CD1002056E0E5
:102210000121FFF7DDFF012051E0294B294A682108
:10222000294800F001FB002B20D0227B93421DD8CF
:102230005A00D318033B2268D2182568EB5C8B4206
:102240001AD0002B1BD0227B934218D85A00D318E7
:10225000033B2268D21853788B4216D0002BF0D162
:102260001A4B1B4A6B211B4800F0DEFA144B154A2F
:102270006821154800F0D8FA4378137007E0104B36
:10228000104A6821104800F0CFFA437853700023B9
:102290008370437001222000FFF706FF0200617B7C
:1022A000814205D02000FFF74BFE6073012006E05D
:1022B000094B074A7121074800F0B6FA002070BDAB
:1022C000743201104C370110903201108C2F011024
:1022D0000C3701104C360110EC36011070B5046B50
:1022E000E30701D4200070BD02003032C0239B01FF
:1022F00013430A4A1A60456A826AAD01AD18AD02FD
:10230000062000F0BDF9064901F048FC0100280054
:1023100001F044FC0021FFF7C1FCE3E701030000EA
:102320004E0E000070B504000E001500FFF7D6FF3A
:1023300022002C32E16A4E40354080235B0113437A
:102340001D60206370BD000070B505000C00062004
:1023500000F096F9C000210001F020FCC60908D069
:102360000E4B9E4216D87F23184001303400460899
:1023700000E001246C62AE62002200212800FFF719
:10238000D1FF062000F07CF98000A101891901F03D
:1023900005FC70BD0026024CECE7C046FEFF0000C5
:1023A000FFFF000010B505394901013AD200114381
:1023B000002B09D002220A43012B07D00021114330
:1023C0006E22FFF7AFFF10BD0022F4E70421F6E70D
:1023D000002909D00A22064B9C46604443425841DA
:1023E0004000044BC252704780225200F3E7C046BF
:1023F0000080FCBFEC5E002070B505000C000620DC
:1024000000F03EF9061E27D0164B9D4226D08022B2
:10241000D203154B1A60154B1A60154B9B681100BF
:102420009943FAD100212800FFF7D2FF21002800AC
:10243000FFF78AFF06000023012208212800FFF78A
:10244000B1FF2A002C3280239B01134310221A6013
:10245000084B2B630323AB64300070BD8022120451
:10246000D7E7C0460080034000E0004000F0004095
:1024700000C0004001030000F8B5DE4657464E4656
:102480004546E0B505000F0092460A9A934250D3A4
:102490001A0E91461E020A9A00233000494601F0A6
:1024A000BBFB80466C006419A400304B9C4664441E
:1024B0006368834200D260602B1FDBB29B46012B16
:1024C0003DD9C0239B012343802212011A60AB0037
:1024D000274A9958002907D0506901F05FFB431C37
:1024E0005800C0180338FDD253465A0123685A4099
:1024F000E0231A4080235B0123431A605A46012AD5
:1025000028D980239B012343802212011A6043466D
:102510006360424600233000494601F07DFBAD0078
:10252000134B58510120F0BCBB46B246A946A04609
:10253000F8BD104B104A3321104800F075F9012FF7
:10254000BFD1C0239B01234303221A60A368DB078A
:10255000FCD5C9E72168794003220A401A60A268C5
:102560000123BB401342FAD0CBE7C04600800040B5
:10257000601C002058370110CC3701106C37011057
:1025800030B583B00C2000F011F9FEF711F90028E6
:102590000DD0002304E099002D4A2E4888500133C5
:1025A000092BF8D92A4B2C4A5A6203B030BD2B4B69
:1025B00000229A6700F002F9294B01221A60274B8A
:1025C0005B6C012BFBD1274B03221A60234B9B6BC7
:1025D000012BFBD1013300930433234A012123480B
:1025E00000F054F805230093214A0121214800F00E
:1025F0004DF8214B0093002202210420FFF73CFFFD
:102600001E4D00952B00002201210520FFF734FF0D
:10261000104C00942300002200210720FFF72CFF1C
:1026200000942300002200210820FFF725FF0A4B19
:1026300000932300002200210920FFF71DFF0095D1
:102640002B00002200210620FFF716FFADE7C04651
:10265000601C0020006CDC021BB700000080004002
:102660003CB0004030B00040002F6859008002406C
:10267000008C864700C00240001BB700405973071A
:102680008000014BC0587047601C0020F0B5C64662
:1026900000B504000E0017001D00374801F07EFA57
:1026A0008046364BFA18364B9A4239D8010038002A
:1026B00001F074FA0200103A98235B009A4235D870
:1026C0006B1E062B38D8069B013B062B34D83F09DE
:1026D000474537D32D04069B1A0315432368002B67
:1026E00036DB284B9C4244D080225201264B1A6094
:1026F000264B1A60264B9B6811009943FAD126603D
:10270000A060231DC02292011A4321231360236875
:10271000002BFCDAE5600823136080BCB846F0BDEE
:102720001C4B1D4A11211D4800F07EF81C4B1A4A13
:1027300019211A4800F078F81A4B174A1C2117483B
:1027400000F072F8184B144A2321144800F06CF87A
:1027500022683F231340B342C3D1A3681B051B0D5E
:102760008342BED1E368EE22D2021340AB42B8D11D
:10277000D3E780229201B9E7001BB70080E84BD372
:1027800080F8A93200C0024000E0004000F00040A4
:1027900000C00040DC3701101C3901103C3801102A
:1027A00098380110B43801100039011080239B00C3
:1027B0000343014AD362704700800540064BAA22BA
:1027C00012011A602F22DA60044B054A1A60024B8C
:1027D0005B68002BFBDA704700400240006002405B
:1027E00000B0FA0000BEFDE703000A4A1268002AA2
:1027F00008D0084A1068C318074A9A4206D3054A07
:1028000013607047034A05491160F2E70120404216
:10281000F7E7C0460052002000000420FC5F0020C3
:1028200010B5FFF7DFFF000010B582B00C001900F3
:10283000002A0CD0084B002A0BD0019200932300F1
:102840000200064801F040FF0120FFF7CBFF044BD8
:10285000F1E7034AF1E7C046283901103839011081
:102860005836051070B52B4B2B4A1A602B4B2C4A4F
:102870001A602C4B9A682A4B9343FAD12A4C01E0F8
:1028800008CC9847294B9C42FAD3FFF779FE234B9B
:10289000274A1A60234B9B68DB43DB01FAD1254BA7
:1028A00040229A675A671A67DA66234C09E0234B7D
:1028B000234A87212348FFF7B7FF2000FEF7ACFB30
:1028C0000834214B9C4209D22368002BF5D0012B00
:1028D000EDD12000FEF7ADFB0834F2E71B4CA168F8
:1028E0001B4DC022280001F089FDA560EFF3058390
:1028F000002B00D000BEFDF7DDFFFEF749FBFEF721
:10290000E7FE144C01E008CC9847134B9C42FAD3E5
:1029100070BDC04600E00040BFCDFBFE00F00040AF
:10292000FE7F3C0000C0004008110020181100206C
:10293000FFFFFF0100F00140001100206839011085
:10294000083A0110883901100811002000ED00E05C
:102950000000002018110020201100200FB400B545
:1029600083B0084801F080FE049B002B07D005A926
:102970000191180001F088FE034801F075FE012066
:10298000FFF730FFE8390110F812051010B50148C3
:10299000FFF7E4FFF8390110704710B5002802D0A6
:1029A0000B684968984710BD0100002007E08300CC
:1029B0001B185B00501C08601078C01830380A687B
:1029C0001378303BDBB2092BF1D97047F0B5DE4606
:1029D00057464E464546E0B583B093461F000C9BD4
:1029E0009A460D9C0E9B99460F9B9B0703D0B846B9
:1029F0000F00060022E00192A34688464E46B946E3
:102A00000700B44207D2551C4B4641462020B84728
:102A100001342A00F5E73D004F465C46019B9B468A
:102A2000B1464646B84637002E0007E0013C551C2B
:102A30005346185D43463900B0472A00002CF5D1B3
:102A400035003E0047460F9B9B0707D4100003B09C
:102A5000F0BCBB46B246A946A046F0BDB0464E46C5
:102A6000B9462F005D46531BB342EFD2541C4B4670
:102A700041462020B8472200F5E7F0B5CE4647464C
:102A800080B585B0944698460C9D0D9C0EAB1B7886
:102A90009946109A119B129EB7071CD4002B0CD09C
:102AA000F7070AD54F46002F02D10C37374204D022
:102AB000013B02E030272F550134944201D21F2CF4
:102AC000F8D9F70707D59C4205D21F2C03D8302729
:102AD0002F550134F5E7F70615D5770505D4002CF9
:102AE00003D0944224D09C4222D00F9A102A2BD09B
:102AF0000F9A102A30D00F9A022A35D01F2C02D8F4
:102B000030222A5501341F2C05D84A46002A31D0DC
:102B10002D222A55013403960293019400954346D1
:102B20006246FFF753FF05B0C0BCB946B046F0BDE2
:102B3000621E012C06D00F9F102F01D01400D4E785
:102B4000023CD2E71400D0E7B206D1D41F2CCFD874
:102B500078222A550134D1E7B206CCD51F2CCAD829
:102B600058222A550134C9E71F2CC7D860322A558C
:102B70000134C3E7720703D52B222A550134CAE773
:102B80003207C8D520222A550134C4E7F0B5DE4605
:102B900057464E464546E0B593B081468A46089270
:102BA00009931CAB10CB1B789B461E9D219B98461E
:102BB000002C03D1102342469A4390468023DB0029
:102BC00046461E4042461A4212D0002C22D0002611
:102BD0000EE03033D9B2771C0AAB9955290020009A
:102BE00000F0DCFFAC4216D31F2F14D83E000400C7
:102BF0002900200000F0D2FFCBB2092BE9D94246D0
:102C0000920605D54121C918C9B20A39C9B2E2E70D
:102C10006121F8E7270043460693209B05931F9BFD
:102C2000049303955B46029301970AAB0093099BBB
:102C3000089A51464846FFF720FF13B0F0BCBB4648
:102C4000B246A946A046F0BDF0B5DE4657464E4610
:102C50004546E0B595B0089009910A920B931E9EE7
:102C60001F9C20AB1B789B46229B9946239D269B4D
:102C70009A463300234303D1103352469A43924677
:102C80008023DB0057461F4052461A4219D03300BA
:102C900023432DD0002714E03033DAB27B1C984652
:102CA0000CABDA554A462B003000210000F0B4FF8F
:102CB000A5421FD819D043461F2B1BD847460600F4
:102CC0000C004A462B003000210000F0A5FFD3B2D3
:102CD000092BE1D95246920605D54122D218D2B22B
:102CE0000A3AD2B2DAE76122F8E7B145E3D901E066
:102CF0000023984653460693259B0593249B0493F3
:102D00004B4603935B460293434601930CAB0093FF
:102D10000B9B0A9A09990898FFF7AFFE15B0F0BC13
:102D2000BB46B246A946A046F0BD0000F0B5DE465F
:102D300057464E464546E0B591B083468A460C92CA
:102D400098461A9C08941B9D099522002B00200090
:102D5000290001F0DCF9002800D0E5E00122524210
:102D6000D74B2000290001F0CDF9002800D0DBE08E
:102D700001225242D34B2000290001F0ADF9002876
:102D800000D0D1E000220023089E3000099D2900D8
:102D900001F0A2F9002800D0DDE00898099906901A
:102DA00007918023DB001E9A1A400D921E9A1A4248
:102DB00001D106231C930698079904000D000A0010
:102DC0000600024300D1D1E0080D4005400DBE4C85
:102DD000A44660440A03120BBC4B13431F0001F0CE
:102DE000A9F9BB4ABB4B01F038F9BB4ABB4B01F018
:102DF00015F904000D000022B94B3000390001F034
:102E000008F9B84AB84B01F028F902000B0020007D
:102E1000290001F003F901F0A5F9814601F08AF9D2
:102E200004000D00B14AB24B01F017F90022B14B7A
:102E300001F0F4F801F096F90600AF4AAF4B20001C
:102E4000290001F00AF904000D00300001F072F9C8
:102E5000AB4AAC4B01F001F902000B002000290045
:102E600001F0D7F804000D0002000B0001F0F5F8A6
:102E70000A900B91A44BF31800261F0522002B008B
:102E80002000290001F0CAF80E900F9122002B00BB
:102E900000208021C90501F0BCF804000D000022CB
:102EA0009A4B0A980B9901F0BEF80022984B01F05A
:102EB000B5F802000B000A980B9901F0B4F8002253
:102EC000944B01F0ABF802000B000A980B9901F04B
:102ED000AAF802000B002000290001F09FF8020070
:102EE0000B000E980F9901F09EF80022774B01F02D
:102EF00095F832003B0001F0B0F806000F00040026
:102F00000D00069A079B01F0FDF8002830D0012340
:102F10005B429C46E14400227D4B3000390001F0C9
:102F200082F804000D0023E01E9B04931D9B039375
:102F30001C9B0293089A099B0092019343460C9AAA
:102F40005146584600F0FCF811B0F0BCBB46B24602
:102F5000A946A046F0BD00230024069307940696D8
:102F600080231B069C46654407951AE70023994673
:102F70004B466333C62B1ED804261E9B1B0526D545
:102F80002B0023430FD0644A644B0698079901F045
:102F9000B1F8002879D00022614B0698079901F01A
:102FA0009BF8002871D01C9B4B4506DD4A46981AB9
:102FB000431E1C9303E00526DFE700231C938023B8
:102FC000DB001E9A1A431E920026002399461D9B81
:102FD0009E4264D29F1B02231E9A1A400A921E9A96
:102FE000134202D0002E00D000274B46002B07D002
:102FF00022002B000698079901F015F8069007911A
:10300000002200230898099901F066F8002848D1A9
:10301000444B1E9A1340049303971C9B0293069BF8
:10302000079C0093019443460C9A5146584600F081
:1030300087F8002E00D187E71E9B9B063DD54525CE
:10304000441C4346020051462800D8474B46DA1735
:103050009B18534005220592013E049600220392DC
:103060000A3202924A46D00F019000934346220052
:1030700051465846FFF78AFD0A9B002B00D163E7B3
:1030800002005F460C9E1D9D54E01C9B002B9ED0B1
:103090000D9B002B9BD01C9B013B1C9397E70027AB
:1030A00099E7069C079D220029008020000684469F
:1030B00061440B0006920793AAE76525C0E7C04666
:1030C000FFFFEF7FFFFFEFFF01FCFFFF0000F03F7E
:1030D000FB799F501344D33FB3C8608B288AC63F07
:1030E0000000F83F61436F63A787D23F71A379095E
:1030F0004F930A400000E03F1655B5BBB16B02404C
:10310000EF39FAFE422EE63FFF03000000002C409C
:1031100000002440000018402D431CEBE2361A3F0B
:1031200080842E41FFF7FFFF541C43465146202068
:10313000B8472200931BAB42F6D3100004E7C04609
:10314000F0B5DE4657464E464546E0B595B006908A
:10315000079193469946209F1E9A1F9B10001900C5
:1031600000F0D5FF002831D101225242BF4B1E98FA
:103170001F9900F0B1FF002837D101225242BC4B09
:103180001E981F9900F0BEFF00283DD10022B94BC8
:103190001E981F9900F0B6FF002850D10022B64BB0
:1031A0001E981F9900F098FF002848D100220023A4
:1031B0001E981F9900F090FF002850D100239846D8
:1031C000229B5B0500D4B6E0002458E0229B0393C9
:1031D000219B029303230193A84B00934B465A462D
:1031E00007990698FFF7F2FB0EE1229B0393219BC0
:1031F000029304230193A24B00934B465A4607992E
:103200000698FFF7E3FBFFE00423229A1A40229975
:103210000B4210D09B4B002A0FD00422229903911D
:1032200021990291019200934B465A4607990698BC
:10323000FFF7CCFBE8E0944BEDE70322EEE7229B9F
:103240000493219B039302971E9B1F9C0093019460
:103250004B465A4607990698FFF768FDD4E01E9A38
:103260001F9B0020002100F0D4FE1E901F9101231F
:103270009846A5E70CAB30221A55013F01341F2CAC
:1032800001D8092FF6D81E981F9900F06BFF050092
:1032900000F050FF02000B001E981F9900F0B9FECD
:1032A000FA007A4B9B181A685B680A920B9300F03D
:1032B000D4FE0890099100F079FF060000F036FF77
:1032C00002000B000898099900F0A3FE08900991EC
:1032D00000226F4B00F016FF00282ED00136300080
:1032E00000F024FF02000B000A980B9900F0FAFE90
:1032F000002801D001350026002F2CD1280000F035
:1033000019FF02000B001E981F9900F082FE0600B4
:103310000F0000225E4B00F0DFFE002846D10022A5
:103320005B4B3000390000F0EDFE00283ED1EB078A
:103330003CD501353AE0062746E70022544B089871
:10334000099900F0C9FE0028D6D1002E01D0F3075C
:10335000D2D50136D0E7AA461F2C11D8013F0A2149
:10336000300000F01BFC651C30310CAB19550A21F4
:10337000300000F013FC092E0ED906002C00EBE7FC
:1033800055461F2C0CD87B1E002F09D00CAA3021CB
:1033900011551F000134F4E72B0055461C00F0E7DF
:1033A0001F2C03D80CAB2E221A5501341F2C10D819
:1033B0000A21280000F0CAFB661C30310CAB1955FD
:1033C0000A21280000F0C2FB051E01D03400EDE701
:1033D00034000323229A1340012B1CD01F2C06D843
:1033E0004346002B32D00CAB2D221A550134229BC0
:1033F0000393219B029301940CAB00934B465A46D6
:1034000007990698FFF7E2FA15B0F0BCBB46B24642
:10341000A946A046F0BD219B002B13D04346002BAC
:1034200002D10C3313420FD0219B013B2193190091
:1034300003E00CAB30221A5501348C42CED21F2C43
:10344000F7D9CBE72199F8E72199F6E7229B5B07AB
:1034500004D50CAB2B221A550134C8E7229B1B075D
:10346000C5D50CAB20221A550134C0E7FFFFEFFF92
:10347000FFFFEF7F65CDCD4165CDCDC1243A011071
:10348000283A01101C3A0110183A0110103C0110A2
:103490000000E03FF0B5DE4657464E464546E0B5F3
:1034A00093B082468B4690461193002900D1EBE2FF
:1034B00000275546119B1878002800D1E7E22528FF
:1034C00009D07C1C43463A005946A847119B01335A
:1034D00011932700EEE7013311930024119A11781C
:1034E0000B00203BD8B2102803D88300D048C35823
:1034F0009F460B00303BDBB2092B2CD92A292FD059
:1035000000230A93119B1A782E2A39D000239A4659
:10351000119A1378683BD9B2122976D88B00C54925
:10352000CB589F4601231C4301321192D6E7022358
:103530001C4301321192D1E704231C430132119242
:10354000CCE708231C4301321192C7E710231C4328
:1035500001321192C2E711A8FFF726FA0A90D1E7CB
:103560001C9B1A1D1C921868002804DB0A90119BF2
:1035700001331193C6E702231C4343420A93F6E743
:103580008022D20014435A1C11925A781300303B07
:10359000DBB2092B04D92A2A07D000239A46B7E7C1
:1035A00011A8FFF701FA8246B2E71C9B1A1D1C9274
:1035B0001868002804DB8246119B01331193A7E7AA
:1035C0000020F8E780235B002343511C11915278BF
:1035D0006C2A01D01C0018E0C0239B001C43013161
:1035E000119112E080232343511C11915278682AD3
:1035F00001D01C0009E0C0231C430131119104E0FB
:1036000080235B001C4301321192119B1878030048
:10361000253BDAB2532A00D92CE29300864AD358CC
:103620009F4680239B001C4301321192EDE78023CB
:103630005B001C4301321192E7E7782809D0582833
:1036400038D06F2838D0622838D010239C430A26FF
:1036500000E01026582833D0692803D0642801D010
:103660000C229443630501D50122944369282AD092
:10367000642828D0A30500D59FE0E30500D5B8E075
:10368000630600D4CAE01C9A111D1C911168FF2228
:103690000A4005940A9B0493534603930296002321
:1036A0000193009243463A0059462800FFF76EFA0C
:1036B000070027E01026CDE70826CBE70226C9E75A
:1036C00020221443C8E7A30520D4E30550D46306A1
:1036D00066D51C9A111D1C911168FF220A40D31750
:1036E000D118594005940A9B0493534603930296BC
:1036F000D20F0192009143463A0059462800FFF745
:1037000045FA0700119B01331193D3E61C9BDA1D88
:1037100007218A43110008311C91116853689C46A7
:10372000DB170C930D930C9A0D9B100048400E90E4
:10373000624653400F930E980F990C9A0D9B801A76
:1037400099410E900F9108940A9B07935346069354
:103750000496002305936346DA0F029200900191CC
:1037600043463A0059462800FFF76EFA0700C9E7BA
:103770001C9A111D1C911268D317D1185940059439
:103780000A9B0493534603930296D20F0192009131
:1037900043463A0059462800FFF7F8F90700B1E719
:1037A000230605D51C9A111D1C910023D25E96E7B5
:1037B0001C9A111D1C91126891E71C9BDA1D0721B0
:1037C0008A43110008311C9108940A9B07935346C1
:1037D000069304960023059302931368546800939C
:1037E000019443463A0059462800FFF72DFA070096
:1037F00088E71C9A111D1C9105940A9B049353465B
:1038000003930296002301931368009343463A0002
:1038100059462800FFF7BAF9070073E723060DD5CC
:103820001C9A111D1C9112681204120C31E7C0463B
:10383000303A0110743A0110C03A01101C9A111D5F
:103840001C91126825E746281AD01C9B07330722D3
:1038500093431A0008321C9204940A9A0392524627
:1038600002925C681B680093019443463A005946F3
:103870002800FFF765FC0700119B0133119319E63F
:1038800020231C43E1E7672801D0472802D1802389
:103890001B011C43452801D0472801D120231C438C
:1038A0001C9B0733072293431A0008321C9204948E
:1038B0000A9A0392524602925C681B680093019434
:1038C00043463A0059462800FFF730FA0700119B9B
:1038D00001331193EEE502231A002240924623425F
:1038E0001FD001241C9B1A1D1C927A1C914618782B
:1038F00043463A005946A8475346002B16D1119B20
:10390000013311934F46D5E5561C434659462020B6
:10391000B847230032005C1C9D42F5D83D001700DB
:10392000E0E701233A002F000A9DF4E74A46A94642
:103930000A9D06E0571C434659462020C8473400DC
:103940003A00661CA542F5D84D469146D7E71C9B28
:103950001A1D1C921B6899465346002B00D1013B4F
:103960004E4601E0013613003278002A02D05A1E7A
:10397000002BF7D14B46F21A10928023DB00260071
:103980001E401C4203D0524501D9534610930223D6
:103990001A0022400B92234205D03A0037004C46D1
:1039A000A946554620E03A00109B5F46B3462E00DC
:1039B00006E0551C434639002020B04723002A006A
:1039C0005C1C0A999942F4D835005E46BB461094B7
:1039D00037004C46A946554606E01D000134561CEA
:1039E00043465946C84732002078002804D0002FAB
:1039F000F4D06B1E002DF0D117004D460B9B002B11
:103A000003D1119B0133119354E50A9F109B06E0EB
:103A1000561C434659462020A847230032005C1C10
:103A20009F42F5D81700ECE721231C431C9B1A1D6D
:103A30001C921B6800930594082304935346039338
:103A4000102302930023019343463A00594628006D
:103A5000FFF79CF80700119B013311932AE57C1CAA
:103A600043463A0059462520A847119B013311933C
:103A700027001FE57C1C43463A005946A847119B86
:103A800001331193270015E50A4B9A4610E5AA4623
:103A9000474502D343465A1E00E03A004346594682
:103AA0000020D047380013B0F0BCBB46B246A94650
:103AB000A046F0BD9929001000B585B00290039191
:103AC0000121009313004A4202A90248FFF7E2FCD9
:103AD00005B000BD9B29001001480421014B184787
:103AE000D0070020153B0010014B9B6818470000D1
:103AF000D007002010B5010018231B88142210885D
:103B0000984710BD10B5010018231B881622108895
:103B1000984710BDF0B5C64600B507000E00002559
:103B20000123984600E00135B5420AD2AC003C19A9
:103B30002068FFF7DFFF20600028F4D100239846BB
:103B4000F1E7404680BCB846F0BD0000124A936FD2
:103B50009B0815D29066D166002905D0FFE7FFE7E4
:103B6000FFE7516F106F704704B580210906C21737
:103B70005140002800D0C8430EF09AFC002104BD3B
:103B8000F0B5146E556E576F166FFFF7E3FF1466AE
:103B9000556657671667F0BD000000D0114A936F55
:103BA0009B0813D210665166002905D0FFE7FFE796
:103BB000FFE7516F106F704704B5002801D0002057
:103BC000C0430EF075FC002104BDC046F0B5146E74
:103BD000556E576F166FFFF7E5FF1466556657670A
:103BE0001667F0BD000000D094464A4A926F9208D2
:103BF000624601D228E0C046F0B5464E346E756E7E
:103C0000776F366F00F020F89446424A1466556686
:103C1000576716676246F0BD94463E4A926F920817
:103C2000624601D254E0C046F0B53A4E346E756E2D
:103C3000776F366F00F04CF89446364A1466556636
:103C4000576716676246F0BD002B24DB11D00029B0
:103C50003EDA00B5C943404200D1013100F038F8E6
:103C6000C943404200D10131DB43524200D101330C
:103C700000BD002AEBD1002801D1002905D0002089
:103C8000C90FC90701D1C043410800B50EF0F8FBC8
:103C90000022002300BD00B500290ADBDB435242AD
:103CA00000D1013300F014F8C943404200D1013182
:103CB00000BDC943404200D10131DB43524200D133
:103CC000013300F005F8DB43524200D1013300BD5F
:103CD000002923D1002B18D1002A0CD0BC460D4F4F
:103CE00038667A6600210023FFE7FFE7FFE77A6F77
:103CF000386F67467047002801D00748010000B5BB
:103D00000EF0BEFB0022002300BD02000B000020CD
:103D100000217047000000D0FFFFFFFF002B00D004
:103D2000BFE0130C28D1002AE7D080B4114F3966C8
:103D30007A66FFE7FFE730B4040C7B6F396F1B0432
:103D400023433B667A66FFE7FFE7FFE7C04684B29E
:103D50007B6F3D6F1B0423433B667A66FFE7FFE7FB
:103D6000C04600232C042D0C7A6F386F001969416E
:103D7000B0BC7047000000D0F0B594460025140E8A
:103D800001D112020835140F01D112010435940F2C
:103D900001D192000235D40F01D152000135D40B6C
:103DA0000134254F7C66254C3C660E0C93B2FFE730
:103DB000FFE7FFE73C6F6643360C7703BE4673436D
:103DC000DF0B5B04C01AB941130C7343DB18C91A2B
:103DD000CE086643360CB64493B273431F0F1B01E3
:103DE000C01AB941130C73431F0B1B05C01AB9410C
:103DF000860D8F023E436643360C092D24DB520AA2
:103E00007243801A7703460A6643360C16235B1BFF
:103E1000DE40DF40BF1964466643821B70460435AE
:103E200006330100D940A840C01900D30131A24295
:103E300006D20023F0BD0000000000D0FFFFFFFF0E
:103E4000121B0130F3D3F1E709277F1BFE406446C4
:103E5000A2B27243801A00D20139220C7243130CB1
:103E60001204821A99410B00704604351337010081
:103E7000F940A840801900D30131002B02D1A242A1
:103E80000AD2F0BD013000D30131121BFAD2013B3E
:103E9000F8D1A24200D2F0BD013000D30131121B93
:103EA000F7E7F0B51C0C00D080E00CB400251C0A2C
:103EB00004D11B02160E3343120208351C0B04D129
:103EC0001B01160F3343120104359C0B04D19B00D8
:103ED000960F334392000235DC0B02D192185B41FE
:103EE00001351C00971864410134464F7C66464CEE
:103EF0003C660E0CFFE7FFE7FFE7C0463C6F6643FA
:103F0000360C7703BE4697B27743C01B00D2013907
:103F1000C01B00D201399FB27743C91BC91B170CC4
:103F200077437E04FF0B801BB941CE086643360CF5
:103F30000C2D33DBB644120B1F053A431B0B97B213
:103F40007743C01B00D201399FB27743C91B170CBE
:103F500077433E043F0C801BB941860D8F023E43E0
:103F6000664329277F1BFE400C3D7746AF40BF19B3
:103F700030BCA2B2ABB272437343801A9941220C97
:103F80007243130C1204801A994102000B0001378E
:103F9000001BA941F9D2781E0021F0BD0C277F1B20
:103FA000FE4077467F0BAF40FF19E0E700245D1C21
:103FB00007D0144F7D663966FFE7FFE7FFE7FFE7AD
:103FC0003C6F95B29EB265436643401BB141150CF0
:103FD0001E0C6543664336042F0C3E432D04401BE4
:103FE000B141994204D202000B0020000021F0BD33
:103FF00001D19042F7D3801A994101349942F2D30A
:10400000F6E70000000000D0FFFFFFFF48404140FE
:10401000484018B4134B5B68019308BD18B4114BAA
:104020001B68019308BD94460F4A926F920805D20F
:10403000624618B40B4BDB68019308BD0A4AF0B521
:10404000146E556E576F166F6246FFF7F2FF064A01
:104050001466556657671667F0BD18B4014B9B6828
:10406000019308BD505C0020000000D0FFB5504017
:104070004240504059404B40594000E0FFB5154F79
:104080004C00640D03D0BC4204D10C0314D80020B2
:10409000090D09055C00640D03D0BC4204D11C036A
:1040A0000AD800221B0D1B0501264B4009D44B40AA
:1040B00003D58B4200D18242FFBD9942FCD1904290
:1040C000FFBD0B43DB1803431343F5D0C943491825
:1040D000FFBD0000FF07000000B5FFF7CFFF8041E4
:1040E00000BDC04600B5FFF7C9FF01D9002000BDE3
:1040F000012000BD00B5FFF7B9FF01D9002000BDC8
:10410000012000BD00B5FFF7B1FF804100BD0120D7
:1041100040054A00121804D85A00121801D800208D
:1041200070470120704700207047000000210028E0
:1041300005D17047C1174840401AFAD0C90713B5D6
:10414000064B1B6898470CBC441CA2401005120B80
:104150000349091B09051943114310BD845D002063
:104160001F04000010B54C00620D8023D218DB0044
:10417000D21A5B057E2A10DD9E3A13DACC170903AA
:10418000490819435242D140640001341532202AB3
:1041900005DAD0400843604310BD002010BD08463A
:1041A000604310BDC80FC018013810BD18B4024BD1
:1041B0005B6A019308BD0000505C002010B5014807
:1041C000FEF7CCFB603C011070B513231C78012C6A
:1041D00014D0012C14DC022C02DC1F4A1F4B9A6401
:1041E0001F48FFF787FC1F4B186070BD99001E48E1
:1041F0001A4A885001331F2BF8D9EAE70023FAE75F
:104200001A48FFF77FFC05001948FFF77BFC0238CE
:1042100003789B007F2B19DD802229000F4800F0D6
:10422000EDF8022CD7D1134B1A88B5231B029A4202
:1042300009D1114B1A88114B9A4204D1104B1A889C
:10424000104B9A42C7D00020FEF788FB0E4B0F4A56
:1042500032210F48FEF7E8FA95420010505C00202A
:104260004C330000845D0020BD4100105344000029
:104270005346000054380000D8380000494600007A
:104280009C38000059460000783C0110303D011078
:10429000CC3C011007B56046002800D100BE018863
:1042A0000A0A0230DF2AFAD1C9B2820804D302888E
:1042B00040880004104300E00068024A5050039018
:1042C00007BD0000505C002051434343C9188C4691
:1042D000110C83B24B4310B4040C614392B280B210
:1042E000504362431C041B0C001910BC59411304B9
:1042F000120CC018514161447047000010B50148CC
:10430000FEF72CFB5836051070B513231E7818489D
:10431000FFF7F8FB0500012E11D0012E09DDAB1EC1
:104320001B789B007F2B1DDD80222900114800F0A7
:1043300065F81148FFF7DEFB104B186070BD542282
:1043400001000C4800F05AF8002300E001331F2B55
:10435000E3D89A00074C1259002AF7D19A0008486E
:104360001051F3E7074B084A42210848FEF75CFA70
:1043700053460000885D00204C330000845D00201F
:10438000FD420010443D0110DC3D0110783D01105C
:1043900010B504000DF04CFB002804D00419034BA9
:1043A0009C4200D810BD0248FEF7D8FA0000042055
:1043B000F03D011010B50C000DF0DAFA002804D021
:1043C0000419034B9C4200D810BD0248FEF7C6FA00
:1043D00000000420F03D011010B50DF033FB10BDBE
:1043E00001480421014B1847E0070020153B00104D
:1043F000014B1B6818470000E0070020014B5B6879
:1044000018470000E007002010B503000800110065
:104410001B68984710BD0000F8B507000D00160096
:10442000437D002B02D0002400200CE00368110023
:10443000280098472DE03B7D10E0022115483B689D
:104440009847601C0134B44214DA002CF3DD2B19B8
:10445000013B1B780D3B5A425341DBB22A5D0A2ACD
:10446000F0D1002BEED1A042E7DA211A28183B68E0
:104470009847E2E7B04203DA311A28183B689847B8
:10448000002E06DDAD19013D2B780D3B5A425341FC
:104490003B75F8BD083F011070B505000368002B9F
:1044A00016D00C4B1C6805E0290004C92000FFF75A
:1044B000B3FF2469002C09D02368002BF9D0064BE8
:1044C0001B68002BF0D0A342F3D1EDE700232B6053
:1044D00070BDC046D4250020EC25002070B5050035
:1044E0000C000B68802B05D021684B1C23606418DE
:1044F000257170BD0800FFF7CFFFF5E710B5FDF798
:10450000ADFB02000B1E0BDB0D48002112184B41C6
:10451000002B0BDB002B0DDB0A480DF0E1FF10BD7B
:10452000094B0A4A3F210A48FEF77EF9012252420E
:10453000084BEFE7044B054A3F210548FEF774F9A5
:1045400040420F0000110020B8300110F03E011071
:10455000D4300110FFFFFF7F10B502480DF088FF37
:1045600010BDC04600110020F0B5CE46474680B5CC
:1045700083B006000D0090461C00FFF7BFFF814688
:104580006B1C05D0002C08D0194F1A4B1C6807E093
:1045900030000DF0BFFD0500F4E7174FF5E7246983
:1045A000002C17D02368002BF9D0144B1B68002B6C
:1045B00001D0A342F3D12A0031002000B84743467E
:1045C000002BECD06B46D91D0A230B700122200072
:1045D000B847E4E74B46002B07D16B1E9D41E8B27C
:1045E00003B0C0BCB946B046F0BDFFF7B5FFF4E775
:1045F00009440010D425002019440010EC250020A7
:1046000010B582B004006B46D81D04700023002250
:104610000121FFF7A9FF200002B010BD094A01E007
:1046200010331A001368002B08D08342F8D10029F8
:1046300007D1036913600023036102E0002900D061
:1046400010607047D425002010B5064B1C6801E0AF
:1046500098472469002C03D06368002BF8D1F8E751
:1046600010BDC046D425002070B505000DF052FDE8
:1046700004000023012201002800FFF775FFFFF767
:10468000E3FF200070BD000070B5A2B004000E0072
:10469000FFF734FF0500002301933300220001A936
:1046A0000848FFF709FA040001A8FFF7F5FEFFF735
:1046B000CBFF002D02D1200022B070BDFFF74CFFD0
:1046C000F9E7C046DD4400100FB400B583B004A97B
:1046D00001C90191FFF7D8FF03B008BC04B0184727
:1046E00010B500F0F9F8012010BD0000F0B583B05E
:1046F00005000E0000240FE06B46D91D0D230B7042
:104700000020002816D193699B06FCD40B78136017
:1047100001300131F5E70134B44219DA0D4B1A6862
:104720002F5D0D4BD31859424B415B000B495B5E2B
:10473000BB42E1D06B46D91D0F7000200028EAD1A2
:1047400093699B06FCD40B78136001300131F5E7C7
:1047500003B0F0BDF05E00200080FCBFEC5E0020E6
:10476000F0B583B006000F00002504E06B46073368
:104770001B782B702500BD4215DA174B1A68936918
:104780001024210019401C420DD16C1C75196B4678
:10479000D81D0029EAD19369DB06FCD413680370A5
:1047A00001310130F5E70D4B1B68002B0CD00A4B93
:1047B0001A685023936311003431536B38221A4026
:1047C00080235B010B431A60002D02D0280003B048
:1047D000F0BD033DFAE7C046F05E0020581C002003
:1047E00010B5064B1B68002B06D0054A1268002145
:1047F0009163044A1068984710BDC046581C0020B9
:10480000F05E00205C1C002070B504000E001C4B04
:104810001B681C4A98184242504114300500002C75
:1048200003D0194A1268002A06D0002C19D0164B62
:104830001C60164B1E6070BD1549FCF703F9012181
:104840002800FCF7E7F80E4B1A6850239363110019
:104850003431536B38221A4080235B010B431A60BA
:10486000E5E7094A1268002AE1D000229A63002194
:104870002800FCF7CFF806492800FCF727FAD6E70E
:10488000F05E00200080FCBF581C00205C1C002053
:10489000E147001070B50D001C000D4B1860002A98
:1048A0000BDA002C0EDA0A4B18682900FDF7A4FD7C
:1048B00001210848FFF7B2FE70BD02211000FBF78E
:1048C000A7FEEEE702212000FBF7A2FEEBE7C046C1
:1048D000F05E0020F007002010B5064B1B78064B59
:1048E0001B78E1210123002249020448FFF7D2FF8F
:1048F00010BDC046FC4505100046051000400340B1
:1049000070B507F075F80100094D0022280000F08D
:1049100061FB0400290000F0E3FF290020000DF0F6
:104920001DF803F0B3F9290020000CF0C7FE70BD9C
:104930001C1C002010B5040000F0A4FC200007F0AF
:1049400055FA00F0ADFF0BF06FFD002103F0AAF95E
:10495000FFF7D6FF012010BD10B5002006F016FCB1
:1049600006F074FC00F0B6FF00F06AFC10BD10B554
:104970000C0003685B68406898470419013C40429A
:10498000204010BDC8680130431E9841C0B2704736
:10499000F0B5DE4657464E464546E0B585B00400C4
:1049A0008A46170098460E9E03685B6840689847E1
:1049B0008146451E3540731B9B46AE420BD0236893
:1049C0001E695B46009343463A0051466068B04713
:1049D000D8445F442E00002E06D105B0F0BCBB4683
:1049E000B246A946A046F0BD4A46FF2102A8FFF7FD
:1049F000FFFC2A00414602A8FFF700FD23681D695D
:104A000060684B46009302AB3A005146A847E4E782
:104A100030B585B002AB074C25680295A5889D800E
:104A2000A4799C71DA71082200920022FFF7B0FF8E
:104A300005B030BD4C3F0110F0B5DE4657464E463E
:104A40004546E0B585B004008A46914698460E9EDC
:104A500003685B68406898470500471E3740F31BB2
:104A60009B46BE420BD02368DE685B4600934346FC
:104A70004A4651466068B047D844D9443E00002EAB
:104A800011D02368DB689B466068009502AB4A46FC
:104A90005146D847E81B310000F098FF020002A9F8
:104AA0004046FFF7ABFC05B0F0BCBB46B246A9469A
:104AB000A046F0BD70B586B004000825009504AB93
:104AC00000220021FFF7B8FF009502AB0022012170
:104AD0002000FFF7B1FF1F4E0722310004A80DF0A0
:104AE0007DFA050043425841C4B20722310002A8B2
:104AF0000DF074FA030042425041C0B2002C06D1BE
:104B0000002804D101256D42280006B070BD002D9B
:104B100001D1002BF8D1002D01D0002B13D004AB14
:104B2000DB790322134002A9C9790A40501C0321F2
:104B30000140994209D0013303210B40934206D032
:104B400001256D42E0E70125DEE70025DCE70125D0
:104B5000DAE7C0464C3F0110F0B5C64600B58AB052
:104B600007008846140001920091E3231B4A1C4968
:104B7000012006F0C9FD3B681B687868984706006D
:104B80001022FF2102A8FFF733FC0FE0102500954B
:104B900006AB220041463800FFF74EFF2A0002A96B
:104BA00006A80DF01BFA002808D16419B44210D2EF
:104BB00023001033B342E9D3351BE8E765190195AB
:104BC0000094EC23054A0749012006F09DFD0020D2
:104BD00000E001200AB080BCB846F0BD543F01108F
:104BE000703F0110983F011030B583B005000C00F4
:104BF0000022FFF7B1FF002808D00094F9230A4AE9
:104C00000A49012006F080FD03B030BD0094FB236B
:104C1000054A0749012006F077FD2B689B68686804
:104C200021009847F0E7C046543F0110B43F0110FF
:104C3000D43F011070B584B004000D00467B4B6872
:104C40009C466644083603681B684068984786425D
:104C500004D301235B42EB6004B070BD08230093D2
:104C600002AB6A6829682000FFF7E6FE002102A86F
:104C700000F06DFEE860042102A800F068FE2861E3
:104C8000EAE770B505000C00160014220021200090
:104C9000FFF7AEFB2660082363602B681B6868681B
:104CA0009847A06021002800FFF7C4FF70BD70B5D1
:104CB00005000C000969FFF75AFE0300083362681B
:104CC000944663446360A268934205D301235B4228
:104CD000E3600023236170BD21002800FFF7AAFFD5
:104CE000F9E70000F0B58BB004000D001700029347
:104CF0000C22825605A9FFF7C4FF03E005A9200096
:104D0000FFF7D5FF05A92000FFF73CFE002811D0D2
:104D1000089BAB42F2D1069B03937623039A019240
:104D20000095FF33104A1149012006F0EDFC069E64
:104D3000099901E000210026002E13D0002F0FD08A
:104D4000029800F043FE0500320008320C21615643
:104D500000903B002000FFF76FFE28000BB0F0BD75
:104D60000D00FAE70025F8E7543F0110FC3F011061
:104D700070B588B004000D0016000C22825603A9FD
:104D8000FFF77FFF03E003A92000FFF790FF03A9CF
:104D90002000FFF7F7FD00281AD00498B04217D280
:104DA000069BAB42EFD1A923019000955B00094A15
:104DB0000949012006F0A8FC002302930C2161564A
:104DC0000433009302AB049A2000FFF7E1FDDAE719
:104DD00008B070BD543F01102440011010B5826826
:104DE000FFF7C6FF10BD0000F0B5CE46474680B5C0
:104DF00095B005000C22825601239B1A9946042384
:104E0000494601910092FF33394A3A49012006F0A0
:104E10007BFC49462800FFF7E7FE0C22AA560FA9A3
:104E20002800FFF72EFF08271CE02021300000F0AB
:104E3000CDFD04000C216956009006AB42462800C7
:104E4000FFF7FAFD009406AB3A0049462800FFF749
:104E50009FFDA0443F19361B002EE6D10FA9280064
:104E6000FFF725FF0FA92800FFF78CFD002824D0AD
:104E7000129A002AF2D0139E109C262303970296C2
:104E800001920094FF331A4A1B49012006F03CFCB2
:104E90000C21695608239846009304AB2200280091
:104EA000FFF7CAFD4346009304AB3A004946280089
:104EB000FFF76EFDA0440837CEE70C2169563B246E
:104EC0006C4401230093230007222800FFF7B4FD60
:104ED0002378013303221A4049462800FFF798FD42
:104EE0004B462B73AF6015B0C0BCB946B046F0BDA1
:104EF000543F01104C40011070400110F0B5CE46F7
:104F0000474680B587B004000F0090461D00467BE1
:104F1000F618083683689946B14403681B684068F0
:104F20009847814543D8A3689C46664423681B681C
:104F30006068984786423ED83A00002104A800F0F5
:104F400014FD2A00042104A800F00FFDD223A2685A
:104F50000292019500975B001B4A1C49012006F054
:104F6000D3FBA26808320C2161560095434620000D
:104F7000FFF70EFD0C2161560823009304ABA268D5
:104F80002000FFF705FDA26839002000FFF7F0FEC2
:104F900029002000FFF7EBFC0830A3689C46604422
:104FA000A060002007B0C0BCB946B046F0BD2000EC
:104FB000FFF71AFFB7E79C23FF33034A0449022097
:104FC00006F0A2FB0220EDE7543F0110DC40011087
:104FD000A8400110F0B589B00400016042600023D0
:104FE0004373FFF767FD40B22073EC230090FF335B
:104FF000324A3349012006F087FB0C22A256002AD0
:105000000EDA0C23E356002B49DBA36800932D4BEB
:105010002A4A2D49012006F077FB2C4809B0F0BD43
:1050200003A92000FFF72DFE0026002505E0069DC0
:10503000049E03A92000FFF73AFE03A92000FFF712
:10504000A1FC0028F3D1049FA76023681B68606857
:105050009847874220D8002D11D10C216156A268B3
:105060002000FFF779FD00280FD1194B134A194989
:10507000013006F049FB2000FFF7B6FEC1E7320021
:1050800029002000FFF774FEE7E7134B0B4A134992
:10509000012006F039FBB4E7FF232373B1E70021B9
:1050A0002000FFF7A1FD0023237300220021200030
:1050B000FFF7AEFC0823A360A7E7C046543F0110EA
:1050C000004101101D0200007841011090410110C3
:1050D0000B020000184101100E02000050410110A7
:1050E000026041710023037170470279531C4179BA
:1050F0008B4209D203689B5C002B07D09B180133BD
:10510000994205D3012000E0002070470020FCE711
:105110000020FAE703790268D25C9B18013303711F
:10512000704702680379D05C0138C0B270470368E9
:1051300002799B1858787047036800790230181874
:1051400070470000014B18607047C046C01B00202C
:105150000268130000E01B68002B03D08B42FAD1D9
:10516000002002E00A60016001207047030000682F
:10517000002803D08842F9D1002003E000220A6011
:1051800019600130704700290AD0002807D0036851
:105190008B4201D01800F8E70B68036001207047CC
:1051A0000020FCE703000068002801D002681A60B4
:1051B00070470023036041600B6883607047036899
:1051C000002B08D043681B688268934208D05A1E9F
:1051D0009341D8B270478068431E9841C0B2F9E746
:1051E0001068431E9841C0B2F4E70368002B0AD050
:1051F00043681B688268934201D0836005E0426087
:105200001368836001E00123036080687047000039
:1052100010B5436882681968914205D112688260AE
:105220001A600023036010BD024B034AB4210348F7
:10523000FDF7FAFA9C41011018420110B841011023
:105240007047000010B5064800F0E2F8041E04D0D4
:10525000E62212010021FFF7CBF8200010BDC04666
:105260007026002010B50100014800F0D9F810BDEB
:105270007026002010B50100014800F0D1F810BDE3
:105280001C5F002010B5E6231B0102223A493B486F
:1052900000F0DEF81023032239493A4800F0D8F82C
:1052A000B42304223849394800F0D2F834230122CB
:1052B0003749384800F0CCF81023012236493748E6
:1052C00000F0C6F8342301223549364800F0C0F812
:1052D0001C2302223449354800F0BAF80C2301227D
:1052E0003349344800F0B4F8D82301223249334816
:1052F00000F0AEF8B4239B0001223149314800F0A0
:10530000A7F8342301223049304800F0A1F80C23DB
:1053100004222F492F4800F09BF8A2235B000122B2
:105320002D492E4800F094F884239B0001222C493B
:105330002C4800F08DF8CE235B0002222A492B482E
:1053400000F086F87C23012229492A4800F080F8E1
:10535000D3239B0001222849284800F079F80C2328
:1053600003222749274800F073F80C23102226490E
:10537000264800F06DF810BD74260020702600202D
:10538000445B0020405B0020705800206C580020D7
:10539000085C0020045C0020405C00203C5C002095
:1053A000D05B0020CC5B0020C81B0020C41B002069
:1053B0009C1A0020981A0020C0190020BC19002057
:1053C0000852002004520020DC540020D854002051
:1053D000545D0020505D0020281500202415002079
:1053E0001413002010130020701600206C160020EB
:1053F000F4250020F0250020145500201055002031
:10540000A45E0020A05E0020205F00201C5F002022
:1054100003000068002801D002681A60704700008D
:1054200010B502681300002B09D08B4201D01B6815
:10543000F9E7044B044A5A210448FDF7F5F90A60DC
:10544000016010BD3C420110A84201104842011009
:10545000F0B5C64600B506000C00170098460023BC
:105460000360002505E021003000FFF7D9FF444428
:105470000135BD42F7DB80BCB846F0BD0023034ACE
:105480001360034A1360034A13607047181C00201E
:10549000141C0020101C002010B501000148FFF76B
:1054A00057FE10BD141C002010B501000148FFF785
:1054B0006AFE10BD141C0020838919438181704746
:1054C00083898B438381704710B501000148FFF742
:1054D0005AFE10BD181C002030B583B00500104CDA
:1054E0002368002B16D0AB4207D05968686800F0DB
:1054F00079FA00280EDB2468F2E700956323094A55
:105500000949022006F000F9084B094A70210948B0
:10551000FDF78AF923682B60256003B030BDC046D3
:10552000181C0020C4420110D8420110D8360510C2
:105530008C4501102043011070B5050005E02000E6
:10554000FFF7C2FFA36820009847054B1C68002C9A
:1055500005D02900606800F045FA0028EFDD70BD35
:10556000181C002010B584B0094B1C680BE0636860
:1055700002930194002300938B33064A06490120CD
:1055800006F0C2F82468002CF1D104B010BDC0466A
:10559000181C0020C44201107C43011010B501000A
:1055A000074B1B68002B05D0586800F01BFA002839
:1055B00003DB10BD01204042FBE70020F9E7C046B5
:1055C000181C002010B5074B186800E020000028C8
:1055D00007D004688389DB07F8D5836801219847E1
:1055E000F4E710BD141C002010B501000148FFF7BE
:1055F000BDFD10BD101C002010B502E080685B6886
:1056000098470348FFF7CEFD031EF7D110BDC046F3
:10561000101C0020816070478160704710B50A4BF4
:105620001B68002B04D0DB68002B07D0984710BD07
:10563000064B074ADA210748FDF7F6F8064B044AFD
:10564000DB210448FDF7F0F8D85E0020A0430110EC
:105650005C45011020430110BC43011010B50B4BF9
:105660001B68002B05D0DA68002A08D01B69984710
:1056700010BD074B074AE0210748FDF7D5F8074B57
:10568000044AE1210448FDF7CFF8C046D85E002067
:10569000A04301102C45011020430110BC43011010
:1056A00010B50F4B1B68002B08D0DA68002A0BD00E
:1056B0008268002A0ED05B68984710BD094B0A4AE1
:1056C000E9210A48FDF7B0F8094B074AEA210748E3
:1056D000FDF7AAF8074B044AEB210448FDF7A4F8AC
:1056E000D85E0020A043011008450110204301109E
:1056F000BC430110F843011010B50F4B1B68002B81
:1057000008D01A69002A0BD08268002A0ED09B6844
:10571000984710BD094B0A4AF3210A48FDF784F85F
:10572000094B074AF4210748FDF77EF8074B044A66
:10573000F5210448FDF778F8D85E0020A043011059
:10574000E4440110204301101C440110F8430110EF
:1057500010B50A4B1B68002B04D0DB6A002B07D066
:10576000984710BD064B074AFA210748FDF75CF839
:10577000064B044AFB210448FDF756F8D85E00208A
:10578000A04301104046011020430110584401106D
:1057900010B5074B1B68002B02D05B69984710BD02
:1057A0008021044B044A49000448FDF73DF8C046F7
:1057B000D85E0020A04301102446011020430110B0
:1057C000C1607047C068704710B50C4B1B68002B58
:1057D00005D08268002A09D09B69984710BD8B21AB
:1057E000074B084A49000848FDF71EF81821074BE7
:1057F000044AFF310448FDF717F8C046D85E002080
:10580000A0430110084601102043011090440110EC
:1058100010B5074B1B68002B02D0DB69984710BD01
:105820002021044B044AFF310448FCF7FDFFC04629
:10583000D85E0020A0430110E8450110204301106C
:1058400010B5074B1B68002B02D09B6A984710BD10
:105850002821044B044AFF310448FCF7E5FFC04609
:10586000D85E0020A0430110C8450110204301105C
:1058700010B5074B1B68002B02D01B6A984710BD60
:105880003621044B044AFF310448FCF7CDFFC046E3
:10589000D85E0020A0430110AC4501102043011048
:1058A00010B5084B1B68002B04D1064B1860036829
:1058B000984710BD4821044B044AFF310448FCF7C7
:1058C000B3FFC046D85E0020B0440110CC440110A4
:1058D00020430110014B00221A607047D85E00205F
:1058E00030B583B004000D0000903023054A06490E
:1058F000012005F009FF054B1C60054B1D6003B03E
:1059000030BDC0466C4601107C460110301C0020A2
:105910002C1C002010B50622FEF770FD10BD435C64
:1059200040184078000218437047435C411848789B
:10593000000218438B781B041843CB781B061843CE
:1059400070474B1C9BB24254120AC254704710B5A8
:1059500003004218D078947824022043527812042D
:1059600010435B5C1B06184310BD30B54C1CA4B241
:10597000130E4354150C8B1C9BB20555140A0331AE
:1059800089B2C454425430BD30B5002304E0541EE3
:10599000E41AC55C0D5501339342F8DB30BD10B5F8
:1059A0001022FFF7F1FF10BD10B50622FFF7ECFF44
:1059B00010BD002301E001339BB28B4204D2C25CD4
:1059C000002AF8D0002000E0012070470300080002
:1059D000994200D91800704703000800994200D28C
:1059E00018007047401A70470F2802DC024B185C01
:1059F00070473F20FCE7C0469446011070B582B066
:105A00000C0001AB20229A700022DA7012E0461CD2
:105A100005782809FFF7E8FF6B4618710F2028402A
:105A2000FFF7E2FF6B46587101A90648FEF74CFEEE
:105A3000013C3000002CEADC0A20FEF7E1FD02B058
:105A400070BDC04658570110F8B5CE46474680B5E0
:105A500080460025002401E001343D000F2C19DCB4
:105A600043461E5D3009FFF7BFFF0D4B9946585561
:105A7000AF1C0F203040FFF7B7FF6E1C4B46985508
:105A8000AA239B002341DB07E6D54B462D22DA559E
:105A9000EF1CE1E70248C0BCB946B046F8BDC046BD
:105AA000F45E0020F0B5C64600B580460F00002524
:105AB0000C4C0DE043465E5D3009FFF795FF20700A
:105AC0000F203040FFF790FF6070A770013503345E
:105AD000052DEFDD013C00232370024880BCB84651
