:020000041000EA
:1000000000B5324B212058609868022188439860DF
:10001000D860186158612E4B002199600221596106
:100020000121F02299502B49196001219960352056
:1000300000F044F80222904214D00621196600F024
:1000400034F8196E01211966002018661A6600F04E
:100050002CF8196E196E196E052000F02FF8012189
:100060000842F9D1002199601B49196000215960AB
:100070001A491B48016001219960EB211966A021F2
:10008000196600F012F800219960164914480160C1
:100090000121996001BC002800D000471248134993
:1000A000086003C880F30888084703B5996A0420EC
:1000B0000142FBD001200142F8D103BD02B5186610
:1000C0001866FFF7F2FF186E186E02BD00000240BE
:1000D000000000180000070000035F00212200005C
:1000E000F4000018222000A00001001008ED00E03C
:1000F00000000000000000000000000074B24E7A12
:1001000000200420F7010010C3010010C5010010F9
:10011000C1010010C1010010C1010010C101001097
:10012000C1010010C1010010C1010010C701001081
:10013000C1010010C1010010C9010010CB01001065
:10014000CD010010CD010010CD010010CD01001037
:10015000CD010010CD010010CD010010CD01001027
:10016000CD010010CD010010CD010010CD01001017
:10017000CD010010CD010010CD010010CD01001007
:10018000CD010010CD010010CD010010CD010010F7
:10019000CD010010CD010010CD010010CD010010E7
:1001A000CD010010CD010010CD010010CD010010D7
:1001B000CD010010CD010010CD010010CD010010C7
:1001C00000BE00BE00BE00BE00BE00BEEFF3058054
:1001D000103800BEF2EB8871D8A60010FCA6001003
:1001E0003402001090A31AE700201F49086006C8D7
:1001F00081F3088810471D48006800282FD10DA4FE
:100200000ECC002902D000F012F8F9E71849194A7B
:10021000002000E001C19142FCD1174988471749ED
:1002200088471749884700BEFDE701C901C29A42C5
:10023000FBD37047FCA60010C00000204C0C00202F
:1002400088B20010000004200000042088B20010D2
:10025000001004200010042000000000704709482E
:1002600003F0F2FB0047000008ED00E0000000D0C2
:10027000500C00205C220020D1270010D105001076
:100280008D2700105756000006005250ABB3605344
:1002900014A2001006005250861C030200A2001097
:1002A000060052505422A29D24A200100500525074
:1002B000DE65F46888B20010F8B5C04610B5064C8B
:1002C0002378002B07D1054B002B02D0044800E017
:1002D00000BF0123237010BD500D0020000000005E
:1002E000308D0010044B10B5002B03D00349044897
:1002F00000E000BF10BDC04600000000540D00200B
:10030000308D001070B50500002404E00023002BA0
:1003100014D00134E4B2052C29D82B19997800297E
:10032000F7D00023052BF1D8144AD21892789142C5
:1003300002D00133DBB2F5E70123E8E72A78223364
:1003400013405A1E9341DBB249000D4A5118CE5C4E
:10035000300004F017F90D2E05D00A4B1B68986881
:1003600008F016F9D5E70A2004F00CF9F5E70822A1
:100370002900024803F0C4FF70BDC04624200020BD
:10038000788E0010F003002070470000F0B587B0B1
:1003900005000C00009201930A000100194804F0C6
:1003A0007FF903AF184B3A0043CB43C2210028002A
:1003B00006F00AFE06008300D959144804F070F9CB
:1003C000002E07D02100280006F00EFE002814D0D1
:1003D00007B0F0BD0E4EE70038194000301802306B
:1003E000019B009A042106F062FF01003B195B00AB
:1003F0009855084804F054F9E4E7074804F020F958
:10040000E6E7C0464C8D00106C8E0010808D001009
:100410009C1F0020A08D0010B88D001010B50A00A0
:100420000100024804F03CF910BDC046E48D001004
:1004300010B513000A000100014804F031F910BDA5
:100440001C8E001010B504000378002B0BD0DA07C7
:1004500012D54C215A0711D54D229B0710D5522396
:10046000084804F01DF90322A2560221615601201A
:100470002056FFF7DDFF10BD2D21EBE72D22ECE725
:100480002D23EDE72C8E0010F8B51948CB005C1831
:100490006400265C03199C1C012E0BD017780023E6
:1004A000B3420CD299006518615CB94208D001339F
:1004B000DBB2F5E79B78002BF0D1250001E00025A9
:1004C0000132002D03D06B88012B04D0F8BD094800
:1004D00004F0B6F8FAE76B78022B05D0062BF5D1BD
:1004E0001000FFF70FFFF1E71000FFF7ABFFEDE79C
:1004F0009C1F0020388E0010F8B504000D00170076
:100500001E0006F061FD012808D0022810D033003B
:100510003A0029002000FFF7B7FF02E03800FFF79C
:10052000F1FE2900200006F05FFD002804D0F8BD90
:100530003800FFF787FFF4E7014804F081F8F6E799
:10054000B88D001010B50100014804F0A9F810BDE5
:10055000788F001010B50100014804F0A1F810BD1B
:10056000A08F001010B501F02FFB00290DDB12D079
:10057000FA229200002303F0F9FA104B1B68C01A0C
:10058000FA22920090420BD210BD0D4B0D4A3F2132
:100590000D4802F0FFF8FA21890003F0A9FAECE710
:1005A00094466344054A1360084C207807F014FF12
:1005B0002378012253402370E6E7C046342200200E
:1005C000CC8F001070900010E88F00105722002090
:1005D00010B507F0F1FE094804F032F8002005F0EC
:1005E00031F801200021404205F042FBFFF7BAFF3D
:1005F00000F071F8FFF7C8FEF3E7C0464C9000101A
:1006000070B504000E684B681B7B002B26D1164981
:100610000B0020330A0010320831144804F040F86F
:10062000717B200006F0E6FE0500717B200006F0DD
:10063000EDFE040001008020400303F059FA0100A0
:10064000280003F055FA0100094804F029F82200B7
:100650002900084804F024F8012070BD064803F082
:10066000EFFF0020F9E7C046F01F0020989000102F
:10067000B0900010C49000108890001010B582B0A7
:100680000400064803F0DCFF00230093044B054AF6
:100690000021200006F02CFF02B010BDEC900010ED
:1006A00001060010F01F002010B5024803F0C8FF3B
:1006B00010BDC0461091001070B506000D0000245A
:1006C00001E030550134AC4203D207F086FE002829
:1006D000F7DC200070BD30B593B001AC40212000A4
:1006E000FFF7EAFF0500002323540024002C01D06B
:1006F00013B030BD200006F011F8002801D0002D05
:1007000002D10134E4B2F1E72A0001A9200006F089
:1007100037F8200006F04EF8F3E710B592B001ACC0
:100720004022210006F060F800232354200003F04B
:10073000B7FF12B010BD000010B584B00400002354
:10074000039303A905F0C8FF6B46197B5A7B0E483B
:1007500003F0A6FF0722002101A803F0CBFD01A9A9
:10076000200005F0EFFF002801D104B010BD01AC5E
:1007700022790199054803F093FF6179A279044831
:1007800003F08EFFF1E7C046349100106C91001029
:100790009091001000B583B00023019301A905F0EA
:1007A0009BFF6B4619795A79024803F079FF03B031
:1007B00000BDC046B491001010B58300084A9446AD
:1007C00063441C6840226240C024144080225201CD
:1007D00013431C60C000034B9C466044416010BD45
:1007E00004C0014000400140034B1B680220184038
:1007F000431E9841C0B2704700C00640EFF310801E
:1008000072B6034B1B68002BFBD0BFF35F8F7047A2
:100810002C0100D0BFF35F8F024B00221A6080F3DF
:10082000108870472C0100D0F8B506000C001500A8
:10083000FFF7E4FFE308F718F15C072222400123E9
:1008400093400B4205D1DBB20B433B70FFF7E2FF55
:10085000F8BD2100280002F037F8F0B583B006009B
:10086000019114001F00FFF7C9FF00E00134BC42F2
:100870000CD8E308F518F35C0721214001228A40D7
:100880001A42F3D1D2B21A432A7001E00124644221
:10089000FFF7C0FF002C02DB200003B0F0BD019B7E
:1008A000002BF9D0089802F00FF80000002307E0B1
:1008B000054A9A189200BFF35F8F0021116001333F
:1008C0001F2BF5D97047C04640000034054A107808
:1008D000431CDBB21370172B02D9130010221A70BD
:1008E0007047C0461003002000B583B00100044BE0
:1008F00000931F2318220348FFF7AFFF03B000BD8A
:10090000F0910010201D0020074B9B6810308000E4
:100910001950BFF35F8FBFF35F8F044B0021196045
:1009200082F310887047C04600ED00E0240100D03B
:1009300010B5091A081F0A4B9C466144094A9142A6
:1009400008D8C30706D440104005400D064B184395
:1009500080B210BD054B064AA321064801F01AFFDC
:10096000FC070000FE0F000000E0FFFF0C920010EB
:100970007C9400103C92001010B5091A04394C0800
:10098000090B08D14905490D064A11430180064B60
:100990002343438010BD054B054AAB21054801F0B8
:1009A000F9FEC04600F0FFFF00F8FFFF989200102C
:1009B000509400103C92001001238340034A1068B9
:1009C0001840431E9841C0B27047C04600E100E0A5
:1009D000002904D0034B1860034B18607047034B89
:1009E0001860FBE780E200E000E100E080E100E069
:1009F00010B5012383401800FFF7EAFF10BD000087
:100A0000024B9B6810308000C058704700ED00E03A
:100A100070B504000D00EFF3108672B60C4B1B6826
:100A2000002BFBD0BFF35F8F2000FFF7E9FF094BDE
:100A3000984201D0A84205D1320029002000FFF7DA
:100A400063FF70BD044B054A8621054801F0A2FEF4
:100A5000240100D0CD010010A8920010B094001025
:100A60003C920010F0B5DE4657464E464546E0B58E
:100A700089B0814601911500EFF3108A72B6744B6C
:100A80001B68002BFBD0BFF35F8F724B0027DF5733
:100A9000002F40DB7C00E419A4006F4824180622D4
:100AA000A2566C4B1A706D4B9A684B4610339B00E4
:100AB000D35898461E001B1A2F2B38D9684B9845DF
:100AC0002FD105AE674B33807B009B46D819800041
:100AD000614B9846404402306349FFF729FF70801C
:100AE000624BB380FF23B371F571019B07935F44A1
:100AF000BF0047440ECE0EC701231C43A0465246FA
:100B000041464846FFF700FF09B0F0BCBB46B2467D
:100B1000A946A046F0BD564B564AD721564801F08B
:100B200039FE564B534ADE21534801F033FEC04391
:100B300040440C2102F0DCFF002912D101239E4326
:100B4000B34633000026DA79AA4211D90621595654
:100B500000290CDB4A00521892001E003E4B9B18E5
:100B6000F1E7474B434AEA21434801F013FE1E00D8
:100B7000002E3AD005AB434A1A80813A5A800623A8
:100B8000F3560293002B17DA3F4805AB9B4698803B
:100B9000029A9A71DD71019A0792301D2100FFF7C8
:100BA000C7FEB080B7717B00DB199B002A4FFF188E
:100BB0005B4607CB07C7A2E77800C0198000264B29
:100BC000C0180430321DB388D90A1C2907D15B052F
:100BD0005915023149005118FFF7AAFED5E72B4BF2
:100BE0002B4AB121244801F0D5FD05AE1D4B3380C1
:100BF0007B000293D8198000174A904602004244B5
:100C00000392901C1849FFF793FE7080039A101D01
:100C10005946FFF78DFEB0801E4B5A464146521A88
:100C2000524153431B0DB371F571019A0792029B18
:100C30009C466744BF0047440ECE0EC7114B5A4630
:100C40001380813B538001231C43A04657E7C046D5
:100C5000240100D0562200201403002000ED00E003
:100C6000CD01001000A1FFFF4403002001BDFFFFE4
:100C7000E0920010989400103C920010089300102D
:100C8000309300100148000001BD0000A493001043
:100C900088940010AAAA0000F0B5CE46474680B559
:100CA00083B006000D00EFF3108872B6564B1B6838
:100CB000002BFBD0BFF35F8F544B9A683400103485
:100CC000A300D758524B9F4207D0AF4200D198E0C3
:100CD0000197504BFB1A2F2B09D94246390030009F
:100CE000FFF712FE03B0C0BCB946B046F0BD3000FD
:100CF000FFF762FE814600213000FFF779FEBFF367
:100D00005F8FEFF30581002901D08C4211D10123BF
:100D1000019C9C430022A368AB4212D00622A2563B
:100D2000002A0DDB53009B189B002200394CE4186D
:100D3000F1E73621384B394AFF31394801F02AFDB5
:100D40002200AB4256D106256557002D38DB6B00DB
:100D50005B199A002F4B9B189A68A260DA79E271AE
:100D600006229A56A2719B795BB2002B0FDA2D48AE
:100D7000A0806B005B199B00264AD3182A4A117881
:100D80009971157049463000FFF732FEA5E7201D26
:100D90006B005B199B001F4A9B181A1D9B88D90A80
:100DA0001C2907D15B055B15023359005118FFF769
:100DB000BFFDDDE71D4B1E4AB121194801F0EAFCD9
:100DC000002912D1002A0ED0FF239371194B938072
:100DD000154A1378A371184B0E49641A6441634392
:100DE0001B0D1370CEE70A4FF2E7201D1349FFF7E2
:100DF000C3FDC7E76A21124B084AFF31084801F0DA
:100E0000C9FC034F69E7C046240100D000ED00E0B3
:100E1000CD01001014030020BC9300106894001052
:100E20003C92001001BD000056220020A493001047
:100E30008894001001BDFFFFAAAA00004E03002005
:100E4000F093001070B5012101432E4BCB1A2F2BCC
:100E500028D8EFF30583002B2BD0EFF3108C72B65C
:100E6000294A1268002AFBD0BFF35F8F274A04008B
:100E7000244D641B64416243120D54B2244A9268AB
:100E80009B00D2588A421BD00022032A32D853003A
:100E90009B189B001B49CB189B795BB2A3421FD0C8
:100EA0000132F2E7C7211B4B1B4A49001B4801F0E6
:100EB00071FC92211A4B184AFF31184801F06AFC64
:100EC000134A92681749D150174B1A7882711C70D7
:100ED000BFF35F8F0C4B00221A608CF3108870BD3B
:100EE0000D005300991889006918FF268E710F4A6A
:100EF0008A80E9E7D1210E4B074A4900074801F0F3
:100F000049FCC04614030020240100D0AAAA000016
:100F100000ED00E0F8930010349400103C920010B3
:100F200020940010CD0100105622002001BDFFFFCB
:100F30002C9400100022044B02E0044902C3013249
:100F4000072AFAD97047C04600E400E0808080801C
:100F5000024B9C46614489000160704740000034A8
:100F600010B50400FFF7B2FC01002000FFF7F0FF0E
:100F7000FF232371BFF35F8F10BD10B50400FFF78F
:100F8000A5FC01002000FFF7E3FFFF2323710023EE
:100F90006371BFF35F8F10BD034B9C4661448900B2
:100FA0000160BFF35F8F70474000003410B504004C
:100FB0000120FFF799FC01002000FFF7EDFF10BDB5
:100FC00070B505000C00080000F0FEFE0949200085
:100FD00000F03EFEFFF77AFC074B9C466044800021
:100FE00068602C75D0231B061B786B75A400034B1F
:100FF000E55070BD0513001040000034142000209F
:101000000A4B1A68EFF3108172B61368002BFCD0FC
:10101000BFF35F8F054B1B68BFF35F8F00221A6021
:1010200081F3108840BF002000217047302200204B
:1010300010B5002922D003681B7B99421ED8174B9C
:101040009C466144090183689C4661440C68496878
:10105000002A19D003681B7B9A4215D883680F4871
:101060008446624412019A181068536802000120F5
:101070008B4201D80ED00020C0B210BD084B094AE7
:101080003C21094801F086FB054B064A3C210648F5
:1010900001F080FBA242EFD8EDE7C046FFFFFF0F53
:1010A0001896001098980010C495001010B50029EB
:1010B0001ED0037B99421BD84B005B18033B04688E
:1010C000A4466344002919D0002A1DD0914221D0A2
:1010D000002A25D0047BA24222D804685000801840
:1010E000033820188170197800291FD11A7010BD9B
:1010F000104B114A6821114801F04CFB104B114A6A
:101100006F310E4801F046FB0F4B0E4A70210B4821
:1011100001F040FB0D4B0B4A7121084801F03AFBEE
:10112000044B054A6821054801F034FB41701A70F0
:10113000DDE7C0463C960010049900105896001058
:10114000C0960010E0980010CC960010D8960010C1
:1011500070B506000D001400002914D0002A14D028
:10116000806873689847002806D022002900300064
:10117000FFF79CFF280007E02A0021003000FFF75E
:1011800095FF200000E0100070BD0800FCE70000A3
:10119000F0B583B00500009201930AAB1C780BAB4D
:1011A0001F78002C26D003685A7B944207D1012374
:1011B000002B19D1002C3BD1200003B0F0BD002C36
:1011C0000CD01A7B944209D81A6863001B19033BA0
:1011D000D3189B78002BEBD00123E9E73E4B3F4A25
:1011E00068213F4801F0D6FA3E4B3F4A67213F480D
:1011F00001F0D0FA03689C7B002CDBD012D01A7B64
:1012000094420FD862001219033A19688C4662445E
:1012100051789973002900D1D973002393705370CA
:101220001370C7E72C4B2D4A68212D4801F0B2FA04
:10123000002C3AD02B681B7B9C4236D82C4BE318F1
:101240001B01AA6894466344009A1A60019A5A6086
:10125000089A9A60099ADA602E68002C2BD030D058
:10126000337B9C422DD863001B19033B32689446A4
:10127000634400229A705A701A70717B2200300009
:10128000FFF766FF7073844200D095E7287D009ACF
:10129000019B00F025FD061E01D0002F17D00C9BEE
:1012A000002B00D188E71E7086E7124B124A3C21C2
:1012B0000E4801F06FFA114B114AA521084801F0C0
:1012C00069FA054B054A6821054801F063FA286868
:1012D000210000F03DFFE2E73C9600100499001069
:1012E00058960010F096001010990010C495001048
:1012F000FFFFFF0F1896001098980010C09500107F
:10130000F4980010F0B5DE4657464E464546E0B527
:101310008BB00990002308938200B54BD658370054
:1013200052E0B44BB44A3F21B44801F033FAB44B15
:10133000B44A3C21B44801F02DFA002901D100281B
:1013400069D10021404600F0F9FEA04219D12A6877
:101350006B6806920793AB689846EB689A464346DB
:10136000002B14D0002C18D03B681B7B9C4214D857
:10137000631EFA68D35C08931B021843386100208F
:1013800015E0A24BA24A8E219F4801F003FAA14B1F
:101390009F4A92219C4801F0FDF9994B9E4A4121B8
:1013A000994801F0F7F900239A46984600207B6897
:1013B000BFF35F8F00221A6086F310884346002B2C
:1013C00032D1002800D10CE100F0FEFB02000B1E20
:1013D000A7DB00200021069007917868EFF31086C4
:1013E00072B601680029FCD0BFF35F8F3968884668
:1013F0004C7B002CD7D09AD0097B8C4297D8874958
:1014000065182D01B9688C46654428686968801A9A
:101410009941002991DD2A686B68099800F060FC09
:1014200000239A469846C2E7089B1B02234399462D
:1014300051461800C04705000E007A68EFF3108B84
:1014400072B6136859424B41D9B2002BF9D1BFF3A0
:101450005F8F002E1EDB002E46DD3B69002B47D040
:101460004B456DD100F0B0FB02000B1E6EDB521934
:101470007341002B70DB002B72DB002104910131E2
:101480000391029451460191414600913800FFF7C3
:101490007FFE4CE03B69002BDDD04B4514D1069A12
:1014A000079B521BB341002B14DB002B16DB0021E2
:1014B00004910131039102945146019141460091FA
:1014C0003800FFF765FE32E0554B514AA1214E48E6
:1014D00001F060F901225242524BE6E7454B464A81
:1014E0003F21464801F056F9002E01D1002DB4D11C
:1014F0003B68002C50D05A7B944237D101210029FF
:101500004AD1DA7B002A4DD19A7B002A03D1DA7BBB
:10151000002A5AD19C73DC73002C5CD03B681B7B87
:101520009C4258D8FA68013C135D013313550023DF
:101530003B617A68BFF35F8F13608BF3108843E7DA
:10154000374B334AA421304801F024F9294B2A4A69
:101550003F212A4801F01EF901225242314B8AE70D
:10156000244B254A3F21254801F014F9002C0DD0C9
:101570001A7B94420AD862001219033A186884460A
:1015800062449278002ABAD00121B8E7264B274A54
:101590006821274801F0FEF8264B274AF621244807
:1015A00001F0F8F8002A0AD0197B8A4207D85100C6
:1015B0008A18033A19688C4662445470A4E71A4B9F
:1015C0001A4A68211A4801F0E5F81C4B1A4AFB2117
:1015D000174801F0DFF80A4B0F4A41210A4801F091
:1015E000D9F80BB0F0BCBB46B246A946A046F0BD48
:1015F00014200020CC8F001064980010E88F001099
:101600001896001098980010C495001018970010B4
:101610007C98001030970010BC980010FFFFFF0F5F
:101620003C970010FFFFFF7F3C96001004990010CC
:101630005896001078970010D09800109C970010D2
:1016400010B50C4B5B68002B04D00A210A48FFF749
:101650007FFC10BD074C2300084A1021206800F0D1
:101660007DFC032000F0A4FA03212000FFF7A8FC72
:10167000EBE7C0465C030020302200203110001050
:1016800010B5064B5B68002B01D0044810BD044B1D
:10169000044A5E21044801F07DF8C0465C03002046
:1016A000B0970010A4980010C4950010F0B5DE4665
:1016B00057464E464546E0B58BB0804616001F00A3
:1016C000149B9A46159B994616AB1B789B461F2385
:1016D00002AA9446634400221A702BE0002809D025
:1016E00042461268127B904204D8421E4146C968A5
:1016F0008A5C41E0404B414A4121414801F04AF8AF
:1017000007984CE0361BAF41002F07DB002F11DAA2
:101710003C4B3D4A3F213D4801F03CF801267642D2
:101720003B4FF3E7374B384A3F21384801F032F856
:10173000002F4FDB43465A68EFF3108472B61368EC
:1017400059424B41D9B20791002BF8D1BFF35F8FBB
:101750001F3302AA94466344049300230393029325
:101760004B4601935346009332003B004046FFF73F
:101770000FFD031EB2D1020041464968BFF35F8FDF
:1017800000250D6084F31088002B29D01F2302A9A7
:101790008C4663441B78002BB2D112021043002BFD
:1017A00020D05B46002B1DD04946D04704000D00D9
:1017B00003000B431DD00029A4DB00F005FA06004E
:1017C0000F1EAFDB36196F41002FB1DA01267642CA
:1017D0000F4FADE70B4B0C4A3F210C4800F0DAFFEE
:1017E000012040420BB0F0BCBB46B246A946A04621
:1017F000F0BD0798F6E7C04618960010BC98001098
:10180000C4950010CC8F001064980010E88F001071
:10181000FFFFFF7FF8B50400002900D162E04268B5
:10182000EFF3108572B6136858424341D8B2002BCB
:10183000F9D1BFF35F8FCBB22268567BB3421BD185
:101840000120002848D0206988422BD0090AC9B25B
:10185000002B2ED02068007B83422AD8581EE668D1
:10186000305C88422BD000206368BFF35F8F00227A
:101870001A6085F31088F8BD002B0DD0167BB3429B
:101880000AD85E00F618033E1768BC466644B67870
:10189000002ED6D00120D4E7134B144A68211448F7
:1018A00000F078FF2C21134B134AFF31134800F04E
:1018B00071FF134B134A4121104800F06BFF1900D0
:1018C000100000F045FC0028CED199210E4B0A4AA9
:1018D00049000A4800F05EFF23698B42C4D100230F
:1018E0002361C1E70020C6E73C9600100499001070
:1018F00058960010D49700104C980010C495001012
:1019000018960010BC980010F8970010F0B587B03A
:1019100006000F00EFF30583002B1FD1062464425D
:10192000E517A4197D418D4202D803D1844201D923
:1019300000240025002D14DB0494059500F044F9E3
:1019400002000B1E13DBA41A9D41002D17DC14D0DE
:101950003000390000F044F907B0F0BD234800F032
:10196000B3FF234B234A3F21234800F013FF204BB2
:10197000204A3F21204800F00DFF002CE8D0FFF75F
:101980007FFE0023029301931C4B0093049A059B56
:10199000FFF78CFE002818DADAE7002300E00023C6
:1019A000002BD5D1164B1A68EFF3108172B613686D
:1019B000002BFCD0BFF35F8F114B1B68BFF35F8F11
:1019C00000221A6081F3108820BF0499059A0D4BFC
:1019D0005B6A9A42E3D80B48806A884203D29A42F3
:1019E000DBD00123DCE70123DAE7C046FC970010D7
:1019F000CC8F001064980010E88F001001100010C8
:101A0000302200200040054070B504000D0000F0B9
:101A1000DBF802000B1E0ADB200029008018594168
:101A200000290ADB00290CDBFFF770FF70BD084BB3
:101A3000084A3F21084800F0ADFE01204042074916
:101A4000F0E7034B034A3F21034800F0A3FEC046E2
:101A5000CC8F001064980010E88F0010FFFFFF7F0C
:101A600010B5FA2292000023002102F0D7FBFFF705
:101A7000CBFF10BD70B584B005000C00EFF30583FB
:101A8000002B1ED1FFF7FCFD002302930193224B94
:101A900000932A002300FFF709FE061E23DD20BF66
:101AA000FFF7EEFD3100FFF7B5FE1C4B5B6A9C4271
:101AB0002DD81A4A926AAA422CD29C4225D00120E3
:101AC00026E0164B5B6A994209D8144A926A824210
:101AD00007D2994201D001201AE0002018E000202E
:101AE00016E0012014E00D4B5B6A9C4209D80B4ABA
:101AF000926AAA4207D29C4201D0012008E000204D
:101B000006E0002004E0012002E0002000E00020C8
:101B100004B070BD0120FBE701100010004005403B
:101B200070B5EFF305801038EFF3108C72B61A4BD6
:101B30001B68002BFBD0BFF35F8F01221300834093
:101B400016494B6316490B60164909780C00C440CE
:101B5000224214D0114A546A8200134D52599442C1
:101B600006D38200114C125999430E4B197007E0AD
:101B70000A4A031D9B0099589950002200E0002258
:101B8000BFF35F8F044B002119608CF31088002A8B
:101B900000D0904770BDC046280100D000400540ED
:101BA0003C7005405822002038220020A41B002051
:101BB00010B50100024A0348FEF736FE10BDC046CC
:101BC0003099001054220020044B5B6A034A906A4B
:101BD0001900536A9942F9D17047C0460040054048
:101BE000084B5B6A01E0074B5B6A8B42FBD301E069
:101BF000044B5B6A8B4203D1024B9B6A8342F7D34F
:101C00007047C0460040054070B504000D00FFF766
:101C1000DBFF02000B0020002900801859418B4295
:101C200002D804D1824202D901204042C1170029C2
:101C300002DBFFF7D5FF70BD024B034A3F2103488B
:101C400000F0A8FDCC8F0010F4990010E88F001070
:101C500070B504000D00EFF3108672B61B4B1B68C5
:101C6000002BFBD0BFF35F8F002D1CD02000FEF7B0
:101C7000C7FE174B83420BD019002000FEF7C8FEA9
:101C800001212000FEF7B4FE0123A340114A136096
:101C9000A400114BE550BFF35F8F0C4B00221A607C
:101CA00086F3108870BDA2000B4B0021D150012299
:101CB000A2400A490B7893430B7005492000FEF7B8
:101CC000EBFF00212000FEF793FEE4E7280100D09F
:101CD000211B001038600540A41B00205822002062
:101CE000F0B5DE4600B584B00400150001921E0078
:101CF0000293FFF769FF03958E4202D84ED18542C9
:101D00004CD9EFF3108B72B6274B1B68002BFBD01E
:101D1000BFF35F8F254A17780125A540EBB23B43FF
:101D20001370234B5D63221D92000199D150A200D4
:101D30002049029850501B6A2B4212D11C4B1B6C3D
:101D40002B4208D00020BFF35F8F174B00221A6090
:101D50008BF3108823E0184B184AC521184800F06F
:101D600019FDFFF731FF8E4214D802D1039B834245
:101D700010D80E4B1B78BB420ED00D4B1D625D631D
:101D80001F2004400123A3400E4A1360074B1F701D
:101D90001E38D8E70020D6E70120D4E7012004B0A0
:101DA00080BCBB46F0BDC046280100D058220020B0
:101DB000004005403822002054990010D8990010A6
:101DC0007899001080E200E0EFF3108C72B60B4BB4
:101DD0001B68002BFBD0BFF35F8F01238340084AB1
:101DE000136208490A789A430A70BFF35F8F034B66
:101DF00000221A608CF310887047C046280100D07A
:101E0000004005405822002010B500291ED0037B59
:101E100099421BD84B005B18033B0468A4466344FB
:101E2000002919D0002A1DD0914221D0002A25D0A6
:101E3000047BA24222D8046850008018033820187E
:101E40008170197800291FD11A7010BD104B114AEA
:101E50006821114800F09EFC104B114A6F310E486A
:101E600000F098FC0F4B0E4A70210B4800F092FCDA
:101E70000D4B0B4A7121084800F08CFC044B054ABD
:101E80006821054800F086FC41701A70DDE7C04605
:101E90003C960010149B001058960010C09600103D
:101EA000009B0010CC960010D896001070B506006C
:101EB0000D001400002914D0002A14D08068736823
:101EC0009847002806D0220029003000FFF79CFF29
:101ED000280007E02A0021003000FFF795FF2000CE
:101EE00000E0100070BD0800FCE7000010B5002302
:101EF000437301338373037BC3730123027B9A42D1
:101F000014D9002B0CD0027B934209D85A00D21866
:101F1000033A01688C4662440133DBB25370EDE74B
:101F20000B4B0C4A68210C4800F034FC002A09D005
:101F3000924207D8016853009A18033A8A1800237E
:101F4000537010BD024B034A6821034800F022FC85
:101F50003C960010149B00105896001010B50173A9
:101F600042608360FFF7C2FF10BD000070B504003F
:101F7000081E00D170BD002934D0237B994231D88E
:101F80004B005B18033B2268944663445A78002A4E
:101F9000F0D02DD0237B9A422AD853009B18033BC4
:101FA00021688C4663445D7800215970002825D053
:101FB000237B984222D843001B18033B21688C46A0
:101FC00063440021597001002000FFF76FFF0600F5
:101FD00029002000FFF7CAFF020031002000FFF7B0
:101FE00065FFC7E7084B094A6821094800F0D2FBA2
:101FF000054B064A6821064800F0CCFB024B034A19
:102000006821034800F0C6FB3C960010149B0010AA
:102010005896001070B505000C00160000292FD04E
:1020200034D0037B994231D84B005B18033B0268E4
:10203000944663445A78002A2ED19A78002A31D1E6
:102040001978FFF793FF0300002E0AD0EA7B002ADD
:102050002ED1AA7B002A03D1EA7B002A3BD1AC73A4
:10206000EC73002B3DD1002C4FD02B7B9C424CD8E5
:102070002B6861000C19033C1C190023637070BDB0
:10208000254B264A3821264800F084FB254B264A5A
:102090006821264800F07EFB254B204A3A21204843
:1020A00000F078FB234B1D4A3B211D4800F072FBDA
:1020B000002A0AD0297B8A4207D851008A18033A9D
:1020C00029688C4662445470C3E7164B164A68214F
:1020D000164800F05FFB184B104A4221104800F0F0
:1020E00059FB002B0BD02A7B934208D843001B18C6
:1020F000033B2A689446634400229A70B3E7094B75
:10210000094A6821094800F045FB064B064A682148
:10211000064800F03FFBC0460C9A0010EC9A0010F5
:10212000149A00103C960010149B00105896001052
:10213000689A0010909A00109C97001070B50400E7
:102140000A00457B2900FFF765FF6073280070BD1A
:1021500070B50400002967D0437B8B420ED0002964
:1021600011D0037B99420ED84B005B18033B0268E9
:10217000D0188378002B0CD1002056E00121FFF706
:10218000DDFF012051E0294B294A6821294800F050
:1021900001FB002B20D0227B93421DD85A00D3187C
:1021A000033B2268D2182568EB5C8B421AD0002BC7
:1021B0001BD0227B934218D85A00D318033B2268C5
:1021C000D21853788B4216D0002BF0D11A4B1B4AF1
:1021D0006B211B4800F0DEFA144B154A68211548A4
:1021E00000F0D8FA4378137007E0104B104A6821CA
:1021F000104800F0CFFA4378537000238370437087
:1022000001222000FFF706FF0200617B814205D01A
:102210002000FFF74BFE6073012006E0094B074AE0
:102220007121074800F0B6FA002070BD3C960010FE
:10223000149B0010589600102C940010D49A001093
:10224000149A0010B49A001070B5046BE30701D41F
:10225000200070BD02003032C0239B0113430A4AA4
:102260001A60456A826AAD01AD18AD02062000F021
:10227000BDF9064901F03CFC0100280001F038FCE2
:102280000021FFF7C1FCE3E7010300004E0E000050
:1022900070B504000E001500FFF7D6FF22002C32A7
:1022A000E16A4E40354080235B0113431D6020638B
:1022B00070BD000070B505000C00062000F096F916
:1022C000C000210001F014FCC60908D00E4B9E424C
:1022D00016D87F23184001303400460800E001245E
:1022E0006C62AE62002200212800FFF7D1FF0620B9
:1022F00000F07CF98000A101891901F0F9FB70BDA3
:102300000026024CECE7C046FEFF0000FFFF000085
:1023100010B505394901013AD2001143002B09D00B
:1023200002220A43012B07D0002111436E22FFF73E
:10233000AFFF10BD0022F4E70421F6E7002909D021
:102340000A22064B9C466044434258414000044BDD
:10235000C252704780225200F3E7C0460080FCBFA3
:102360004822002070B505000C00062000F03EF960
:10237000061E27D0164B9D4226D08022D203154B35
:102380001A60154B1A60154B9B6811009943FAD1DE
:1023900000212800FFF7D2FF21002800FFF78AFF65
:1023A00006000023012208212800FFF7B1FF2A00C0
:1023B0002C3280239B01134310221A60084B2B639D
:1023C0000323AB64300070BD80221204D7E7C046FF
:1023D0000080034000E0004000F0004000C00040EA
:1023E00001030000F8B5DE4657464E464546E0B5C7
:1023F00005000F0092460A9A934250D31A0E914656
:102400001E020A9A00233000494601F0AFFB8046C5
:102410006C006419A400304B9C466444636883429A
:1024200000D260602B1FDBB29B46012B3DD9C0233D
:102430009B012343802212011A60AB00274A99585E
:10244000002907D0506901F053FB431C5800C01805
:102450000338FDD253465A0123685A40E0231A40FC
:1024600080235B0123431A605A46012A28D980231E
:102470009B012343802212011A6043466360424657
:1024800000233000494601F071FBAD00134B585159
:102490000120F0BCBB46B246A946A046F8BD104B91
:1024A000104A3321104800F075F9012FBFD1C02325
:1024B0009B01234303221A60A368DB07FCD5C9E70D
:1024C0002168794003220A401A60A2680123BB40B8
:1024D0001342FAD0CBE7C04600800040241D002004
:1024E000209B0010949B0010349B001030B583B0EB
:1024F0000C2000F011F9FEF777F900280DD0002329
:1025000004E099002D4A2E4888500133092BF8D950
:102510002A4B2C4A5A6203B030BD2B4B00229A67DB
:1025200000F002F9294B01221A60274B5B6C012B4A
:10253000FBD1274B03221A60234B9B6B012BFBD152
:10254000013300930433234A0121234800F054F857
:1025500005230093214A0121214800F04DF8214B29
:102560000093002202210420FFF73CFF1E4D00953E
:102570002B00002201210520FFF734FF104C0094AE
:102580002300002200210720FFF72CFF00942300E6
:10259000002200210820FFF725FF0A4B00932300AB
:1025A000002200210920FFF71DFF00952B000022CB
:1025B00000210620FFF716FFADE7C046241D0020CE
:1025C000006CDC021BB70000008000403CB0004003
:1025D00030B00040002F685900800240008C8647D0
:1025E00000C00240001BB700405973078000014B38
:1025F000C0587047241D0020F0B5C64600B5040041
:102600000E0017001D00374801F072FA8046364B65
:10261000FA18364B9A4239D80100380001F068FAAE
:102620000200103A98235B009A4235D86B1E062BA5
:1026300038D8069B013B062B34D83F09474537D392
:102640002D04069B1A0315432368002B36DB284B09
:102650009C4244D080225201264B1A60264B1A60BD
:10266000264B9B6811009943FAD12660A060231D78
:10267000C02292011A43212313602368002BFCDA45
:10268000E5600823136080BCB846F0BD1C4B1D4AB2
:1026900011211D4800F07EF81C4B1A4A19211A48D6
:1026A00000F078F81A4B174A1C21174800F072F80E
:1026B000184B144A2321144800F06CF822683F2379
:1026C0001340B342C3D1A3681B051B0D8342BED187
:1026D000E368EE22D2021340AB42B8D1D3E78022A6
:1026E0009201B9E7001BB70080E84BD380F8A9320C
:1026F00000C0024000E0004000F0004000C0004088
:10270000A49B0010E49C0010049C0010609C00102E
:102710007C9C0010C89C001080239B000343014A4E
:10272000D362704700800540064BAA2212011A604E
:102730002F22DA60044B054A1A60024B5B68002BBB
:10274000FBDA7047004002400060024000B0FA002F
:1027500000BEFDE703000A4A1268002A08D0084AB2
:102760001068C318074A9A4206D3054A1360704797
:10277000034A05491160F2E701204042F7E7C046ED
:10278000981F0020000004205C22002010B5FFF7F5
:10279000DFFF000010B582B00C001900002A0CD039
:1027A000084B002A0BD00192009323000200064838
:1027B00001F076FF0120FFF7CBFF044BF1E7034A5E
:1027C000F1E7C046F09C0010009D0010C88F00107B
:1027D00070B52B4B2B4A1A602B4B2C4A1A602C4B92
:1027E0009A682A4B9343FAD12A4C01E008CC9847C7
:1027F000294B9C42FAD3FFF779FE234B274A1A60F4
:10280000234B9B68DB43DB01FAD1254B40229A67BF
:102810005A671A67DA66234C09E0234B234A87215B
:102820002348FFF7B7FF2000FEF79AFB0834214B3F
:102830009C4209D22368002BF5D0012BEDD120005A
:10284000FEF79BFB0834F2E71B4CA1681B4DC0222E
:10285000280001F055FDA560EFF30583002B00D0A3
:1028600000BEFEF723F8FEF765FBFEF7E9FE144C09
:1028700001E008CC9847134B9C42FAD370BDC04688
:1028800000E00040BFCDFBFE00F00040FE7F3C00BA
:1028900000C00040380C0020480C0020FFFFFF0162
:1028A00000F00140300C0020309D0010C09D001051
:1028B000509D0010380C002000ED00E000000020CA
:1028C000480C00204C0C00200FB400B583B0084821
:1028D00001F0B6FE049B002B07D005A9019118005A
:1028E00001F0BEFE034801F0ABFE0120FFF730FF10
:1028F000B09D0010B48D0010704710B5002802D0B4
:102900000B684968984710BD0100002007E083006C
:102910001B185B00501C08601078C01830380A681B
:102920001378303BDBB2092BF1D97047F0B5DE46A6
:1029300057464E464546E0B583B093461F000C9B74
:102940009A460D9C0E9B99460F9B9B0703D0B84659
:102950000F00060022E00192A34688464E46B94683
:102960000700B44207D2551C4B4641462020B847C9
:1029700001342A00F5E73D004F465C46019B9B462B
:10298000B1464646B84637002E0007E0013C551CCC
:102990005346185D43463900B0472A00002CF5D154
:1029A00035003E0047460F9B9B0707D4100003B03D
:1029B000F0BCBB46B246A946A046F0BDB0464E4666
:1029C000B9462F005D46531BB342EFD2541C4B4611
:1029D00041462020B8472200F5E7F0B5CE464746ED
:1029E00080B585B0944698460C9D0D9C0EAB1B7827
:1029F0009946109A119B129EB7071CD4002B0CD03D
:102A0000F7070AD54F46002F02D10C37374204D0C2
:102A1000013B02E030272F550134944201D21F2C94
:102A2000F8D9F70707D59C4205D21F2C03D83027C9
:102A30002F550134F5E7F70615D5770505D4002C99
:102A400003D0944224D09C4222D00F9A102A2BD03B
:102A50000F9A102A30D00F9A022A35D01F2C02D894
:102A600030222A5501341F2C05D84A46002A31D07D
:102A70002D222A5501340396029301940095434672
:102A80006246FFF753FF05B0C0BCB946B046F0BD83
:102A9000621E012C06D00F9F102F01D01400D4E726
:102AA000023CD2E71400D0E7B206D1D41F2CCFD815
:102AB00078222A550134D1E7B206CCD51F2CCAD8CA
:102AC00058222A550134C9E71F2CC7D860322A552D
:102AD0000134C3E7720703D52B222A550134CAE714
:102AE0003207C8D520222A550134C4E7F0B5DE46A6
:102AF00057464E464546E0B593B081468A46089211
:102B000009931CAB10CB1B789B461E9D219B9846BE
:102B1000002C03D1102342469A4390468023DB00C9
:102B200046461E4042461A4212D0002C22D00026B1
:102B30000EE03033D9B2771C0AAB9955290020003A
:102B400000F0D6FFAC4216D31F2F14D83E0004006D
:102B50002900200000F0CCFFCBB2092BE9D9424676
:102B6000920605D54121C918C9B20A39C9B2E2E7AE
:102B70006121F8E7270043460693209B05931F9B9E
:102B8000049303955B46029301970AAB0093099B5C
:102B9000089A51464846FFF720FF13B0F0BCBB46E9
:102BA000B246A946A046F0BDF0B5DE4657464E46B1
:102BB0004546E0B595B0089009910A920B931E9E88
:102BC0001F9C20AB1B789B46229B9946239D269BEE
:102BD0009A463300234303D1103352469A43924618
:102BE0008023DB0057461F4052461A4219D033005B
:102BF00023432DD0002714E03033DAB27B1C9846F3
:102C00000CABDA554A462B003000210000F0AEFF35
:102C1000A5421FD819D043461F2B1BD84746060094
:102C20000C004A462B003000210000F09FFFD3B279
:102C3000092BE1D95246920605D54122D218D2B2CB
:102C40000A3AD2B2DAE76122F8E7B145E3D901E006
:102C50000023984653460693259B0593249B049393
:102C60004B4603935B460293434601930CAB0093A0
:102C70000B9B0A9A09990898FFF7AFFE15B0F0BCB4
:102C8000BB46B246A946A046F0BD0000F0B5DE4600
:102C900057464E464546E0B591B083468A460C926B
:102CA00098461A9C08941B9D099522002B00200031
:102CB000290001F0D6F9002800D0E5E001225242B7
:102CC000D74B2000290001F0C7F9002800D0DBE035
:102CD00001225242D34B2000290001F0A7F900281D
:102CE00000D0D1E000220023089E3000099D290079
:102CF00001F09CF9002800D0DDE0089809990690C1
:102D000007918023DB001E9A1A400D921E9A1A42E8
:102D100001D106231C930698079904000D000A00B0
:102D20000600024300D1D1E0080D4005400DBE4C25
:102D3000A44660440A03120BBC4B13431F0001F06E
:102D4000A3F9BB4ABB4B01F032F9BB4ABB4B01F0C4
:102D50000FF904000D000022B94B3000390001F0DA
:102D600002F9B84AB84B01F022F902000B0020002A
:102D7000290001F0FDF801F09FF9814601F084F986
:102D800004000D00B14AB24B01F011F90022B14B21
:102D900001F0EEF801F090F90600AF4AAF4B2000C9
:102DA000290001F004F904000D00300001F06CF975
:102DB000AB4AAC4B01F0FBF802000B0020002900ED
:102DC00001F0D1F804000D0002000B0001F0EFF853
:102DD0000A900B91A44BF31800261F0522002B002C
:102DE0002000290001F0C4F80E900F9122002B0062
:102DF00000208021C90501F0B6F804000D00002272
:102E00009A4B0A980B9901F0B8F80022984B01F000
:102E1000AFF802000B000A980B9901F0AEF80022FF
:102E2000944B01F0A5F802000B000A980B9901F0F1
:102E3000A4F802000B002000290001F099F802001C
:102E40000B000E980F9901F098F80022774B01F0D3
:102E50008FF832003B0001F0AAF806000F000400D2
:102E60000D00069A079B01F0F7F8002830D00123E7
:102E70005B429C46E14400227D4B3000390001F06A
:102E80007CF804000D0023E01E9B04931D9B03931C
:102E90001C9B0293089A099B0092019343460C9A4B
:102EA0005146584600F0FCF811B0F0BCBB46B246A3
:102EB000A946A046F0BD0023002406930794069679
:102EC00080231B069C46654407951AE70023994614
:102ED0004B466333C62B1ED804261E9B1B0526D5E6
:102EE0002B0023430FD0644A644B0698079901F0E6
:102EF000ABF8002879D00022614B0698079901F0C1
:102F000095F8002871D01C9B4B4506DD4A46981A5F
:102F1000431E1C9303E00526DFE700231C93802358
:102F2000DB001E9A1A431E920026002399461D9B21
:102F30009E4264D29F1B02231E9A1A400A921E9A36
:102F4000134202D0002E00D000274B46002B07D0A2
:102F500022002B000698079901F00FF806900791C0
:102F6000002200230898099901F060F8002848D150
:102F7000444B1E9A1340049303971C9B0293069B99
:102F8000079C0093019443460C9A5146584600F022
:102F900087F8002E00D187E71E9B9B063DD545256F
:102FA000441C4346020051462800D8474B46DA17D6
:102FB0009B18534005220592013E0496002203927D
:102FC0000A3202924A46D00F0190009343462200F3
:102FD00051465846FFF78AFD0A9B002B00D163E754
:102FE00002005F460C9E1D9D54E01C9B002B9ED052
:102FF0000D9B002B9BD01C9B013B1C9397E700274C
:1030000099E7069C079D220029008020000684463F
:1030100061440B0006920793AAE76525C0E7C04606
:10302000FFFFEF7FFFFFEFFF01FCFFFF0000F03F1E
:10303000FB799F501344D33FB3C8608B288AC63FA7
:103040000000F83F61436F63A787D23F71A37909FE
:103050004F930A400000E03F1655B5BBB16B0240EC
:10306000EF39FAFE422EE63FFF03000000002C403D
:1030700000002440000018402D431CEBE2361A3FAC
:1030800080842E41FFF7FFFF541C43465146202009
:10309000B8472200931BAB42F6D3100004E7C046AA
:1030A000F0B5DE4657464E464546E0B595B006902B
:1030B000079193469946209F1E9A1F9B1000190066
:1030C00000F0CFFF002831D101225242BF4B1E98A1
:1030D0001F9900F0ABFF002837D101225242BC4BB0
:1030E0001E981F9900F0B8FF00283DD10022B94B6F
:1030F0001E981F9900F0B0FF002850D10022B64B57
:103100001E981F9900F092FF002848D1002200234A
:103110001E981F9900F08AFF002850D1002398467E
:10312000229B5B0500D4B6E0002458E0229B039369
:10313000219B029303230193A84B00934B465A46CD
:1031400007990698FFF7F2FB0EE1229B0393219B60
:10315000029304230193A24B00934B465A460799CE
:103160000698FFF7E3FBFFE00423229A1A40229916
:103170000B4210D09B4B002A0FD0042222990391BE
:1031800021990291019200934B465A46079906985D
:10319000FFF7CCFBE8E0944BEDE70322EEE7229B40
:1031A0000493219B039302971E9B1F9C0093019401
:1031B0004B465A4607990698FFF768FDD4E01E9AD9
:1031C0001F9B0020002100F0CEFE1E901F910123C6
:1031D0009846A5E70CAB30221A55013F01341F2C4D
:1031E00001D8092FF6D81E981F9900F065FF050039
:1031F00000F04AFF02000B001E981F9900F0B3FE7A
:10320000FA007A4B9B181A685B680A920B9300F0DD
:10321000CEFE0890099100F073FF060000F030FF29
:1032200002000B000898099900F09DFE0890099192
:1032300000226F4B00F010FF00282ED00136300026
:1032400000F01EFF02000B000A980B9900F0F4FE3C
:10325000002801D001350026002F2CD1280000F0D5
:1032600013FF02000B001E981F9900F07CFE060061
:103270000F0000225E4B00F0D9FE002846D100224C
:103280005B4B3000390000F0E7FE00283ED1EB0731
:103290003CD501353AE0062746E70022544B089812
:1032A000099900F0C3FE0028D6D1002E01D0F30703
:1032B000D2D50136D0E7AA461F2C11D8013F0A21EA
:1032C000300000F015FC651C30310CAB19550A219B
:1032D000300000F00DFC092E0ED906002C00EBE7A3
:1032E00055461F2C0CD87B1E002F09D00CAA30216C
:1032F00011551F000134F4E72B0055461C00F0E780
:103300001F2C03D80CAB2E221A5501341F2C10D8B9
:103310000A21280000F0C4FB661C30310CAB1955A3
:103320000A21280000F0BCFB051E01D03400EDE7A7
:1033300034000323229A1340012B1CD01F2C06D8E3
:103340004346002B32D00CAB2D221A550134229B60
:103350000393219B029301940CAB00934B465A4676
:1033600007990698FFF7E2FA15B0F0BCBB46B246E3
:10337000A946A046F0BD219B002B13D04346002B4D
:1033800002D10C3313420FD0219B013B2193190032
:1033900003E00CAB30221A5501348C42CED21F2CE4
:1033A000F7D9CBE72199F8E72199F6E7229B5B074C
:1033B00004D50CAB2B221A550134C8E7229B1B07FE
:1033C000C5D50CAB20221A550134C0E7FFFFEFFF33
:1033D000FFFFEF7F65CDCD4165CDCDC1DC9D0010F8
:1033E000E09D0010D49D0010D09D0010C89F0010DB
:1033F0000000E03FF0B5DE4657464E464546E0B594
:1034000093B082468B4690461193002900D1EBE29F
:1034100000275546119B1878002800D1E7E225289F
:1034200009D07C1C43463A005946A847119B0133FA
:1034300011932700EEE7013311930024119A1178BC
:103440000B00203BD8B2102803D88300D048C358C3
:103450009F460B00303BDBB2092B2CD92A292FD0F9
:1034600000230A93119B1A782E2A39D000239A46FA
:10347000119A1378683BD9B2122976D88B00C549C6
:10348000CB589F4601231C4301321192D6E70223F9
:103490001C4301321192D1E704231C4301321192E3
:1034A000CCE708231C4301321192C7E710231C43C9
:1034B00001321192C2E711A8FFF726FA0A90D1E76C
:1034C0001C9B1A1D1C921868002804DB0A90119B93
:1034D00001331193C6E702231C4343420A93F6E7E4
:1034E0008022D20014435A1C11925A781300303BA8
:1034F000DBB2092B04D92A2A07D000239A46B7E762
:1035000011A8FFF701FA8246B2E71C9B1A1D1C9214
:103510001868002804DB8246119B01331193A7E74A
:103520000020F8E780235B002343511C119152785F
:103530006C2A01D01C0018E0C0239B001C43013101
:10354000119112E080232343511C11915278682A73
:1035500001D01C0009E0C0231C430131119104E09B
:1035600080235B001C4301321192119B18780300E9
:10357000253BDAB2532A00D92CE29300864AD3586D
:103580009F4680239B001C4301321192EDE780236C
:103590005B001C4301321192E7E7782809D05828D4
:1035A00038D06F2838D0622838D010239C430A26A0
:1035B00000E01026582833D0692803D0642801D0B1
:1035C0000C229443630501D50122944369282AD033
:1035D000642828D0A30500D59FE0E30500D5B8E016
:1035E000630600D4CAE01C9A111D1C911168FF22C9
:1035F0000A4005940A9B04935346039302960023C2
:103600000193009243463A0059462800FFF76EFAAC
:10361000070027E01026CDE70826CBE70226C9E7FA
:1036200020221443C8E7A30520D4E30550D4630641
:1036300066D51C9A111D1C911168FF220A40D317F0
:10364000D118594005940A9B04935346039302965C
:10365000D20F0192009143463A0059462800FFF7E5
:1036600045FA0700119B01331193D3E61C9BDA1D29
:1036700007218A43110008311C91116853689C4648
:10368000DB170C930D930C9A0D9B100048400E9085
:10369000624653400F930E980F990C9A0D9B801A17
:1036A00099410E900F9108940A9B079353460693F5
:1036B0000496002305936346DA0F0292009001916D
:1036C00043463A0059462800FFF76EFA0700C9E75B
:1036D0001C9A111D1C911268D317D11859400594DA
:1036E0000A9B0493534603930296D20F01920091D2
:1036F00043463A0059462800FFF7F8F90700B1E7BA
:10370000230605D51C9A111D1C910023D25E96E755
:103710001C9A111D1C91126891E71C9BDA1D072150
:103720008A43110008311C9108940A9B0793534661
:10373000069304960023059302931368546800933C
:10374000019443463A0059462800FFF72DFA070036
:1037500088E71C9A111D1C9105940A9B04935346FB
:1037600003930296002301931368009343463A00A3
:1037700059462800FFF7BAF9070073E723060DD56D
:103780001C9A111D1C9112681204120C31E7C046DC
:10379000E89D00102C9E0010789E00101C9A111DB0
:1037A0001C91126825E746281AD01C9B0733072274
:1037B00093431A0008321C9204940A9A03925246C8
:1037C00002925C681B680093019443463A00594694
:1037D0002800FFF765FC0700119B0133119319E6E0
:1037E00020231C43E1E7672801D0472802D180232A
:1037F0001B011C43452801D0472801D120231C432D
:103800001C9B0733072293431A0008321C9204942E
:103810000A9A0392524602925C681B6800930194D4
:1038200043463A0059462800FFF730FA0700119B3B
:1038300001331193EEE502231A00224092462342FF
:103840001FD001241C9B1A1D1C927A1C91461878CB
:1038500043463A005946A8475346002B16D1119BC0
:10386000013311934F46D5E5561C43465946202057
:10387000B847230032005C1C9D42F5D83D0017007C
:10388000E0E701233A002F000A9DF4E74A46A946E3
:103890000A9D06E0571C434659462020C84734007D
:1038A0003A00661CA542F5D84D469146D7E71C9BC9
:1038B0001A1D1C921B6899465346002B00D1013BF0
:1038C0004E4601E0013613003278002A02D05A1E1B
:1038D000002BF7D14B46F21A10928023DB00260012
:1038E0001E401C4203D0524501D953461093022377
:1038F0001A0022400B92234205D03A0037004C4672
:10390000A946554620E03A00109B5F46B3462E007C
:1039100006E0551C434639002020B04723002A000A
:103920005C1C0A999942F4D835005E46BB46109457
:1039300037004C46A946554606E01D000134561C8A
:1039400043465946C84732002078002804D0002F4B
:10395000F4D06B1E002DF0D117004D460B9B002BB1
:1039600003D1119B0133119354E50A9F109B06E08C
:10397000561C434659462020A847230032005C1CB1
:103980009F42F5D81700ECE721231C431C9B1A1D0E
:103990001C921B68009305940823049353460393D9
:1039A000102302930023019343463A00594628000E
:1039B000FFF79CF80700119B013311932AE57C1C4B
:1039C00043463A0059462520A847119B01331193DD
:1039D00027001FE57C1C43463A005946A847119B27
:1039E00001331193270015E50A4B9A4610E5AA46C4
:1039F000474502D343465A1E00E03A004346594623
:103A00000020D047380013B0F0BCBB46B246A946F0
:103A1000A046F0BDF928001000B585B002900391D2
:103A20000121009313004A4202A90248FFF7E2FC79
:103A300005B000BDFB28001001480421014B1847C8
:103A400090030020693A001010B5010018231B886C
:103A500014221088984710BD10B5010018231B8848
:103A600016221088984710BDF0B5C64600B507006D
:103A70000E0000250123984600E00135B5420AD228
:103A8000AC003C192068FFF7DFFF20600028F4D16C
:103A900000239846F1E7404680BCB846F0BD0000E0
:103AA000124A936F9B0815D29066D166002905D003
:103AB000FFE7FFE7FFE7516F106F704704B5802104
:103AC0000906C2175140002800D0C84305F010F97C
:103AD000002104BDF0B5146E556E576F166FFFF7D9
:103AE000E3FF1466556657671667F0BD000000D007
:103AF000114A936F9B0813D210665166002905D0B6
:103B0000FFE7FFE7FFE7516F106F704704B500282C
:103B100001D00020C04305F0EBF8002104BDC046F1
:103B2000F0B5146E556E576F166FFFF7E5FF14660C
:103B3000556657671667F0BD000000D094464A4AA4
:103B4000926F9208624601D228E0C046F0B5464E18
:103B5000346E756E776F366F00F020F89446424AE7
:103B600014665566576716676246F0BD94463E4A2E
:103B7000926F9208624601D254E0C046F0B53A4EC8
:103B8000346E756E776F366F00F04CF89446364A97
:103B900014665566576716676246F0BD002B24DB36
:103BA00011D000293EDA00B5C943404200D10131AD
:103BB00000F038F8C943404200D10131DB435242A2
:103BC00000D1013300BD002AEBD1002801D100292A
:103BD00005D00020C90FC90701D1C043410800B575
:103BE00005F07EF80022002300BD00B500290ADBA5
:103BF000DB43524200D1013300F014F8C943404284
:103C000000D1013100BDC943404200D10131DB4345
:103C1000524200D1013300F005F8DB43524200D19B
:103C2000013300BD002923D1002B18D1002A0CD06C
:103C3000BC460D4F38667A6600210023FFE7FFE798
:103C4000FFE77A6F386F67467047002801D0074852
:103C5000010000B505F044F80022002300BD020079
:103C60000B00002000217047000000D0FFFFFFFF85
:103C7000002B00D0BFE0130C28D1002AE7D080B47D
:103C8000114F39667A66FFE7FFE730B4040C7B6FAB
:103C9000396F1B0423433B667A66FFE7FFE7FFE7C4
:103CA000C04684B27B6F3D6F1B0423433B667A663C
:103CB000FFE7FFE7C04600232C042D0C7A6F386F16
:103CC00000196941B0BC7047000000D0F0B59446BF
:103CD0000025140E01D112020835140F01D1120172
:103CE0000435940F01D192000235D40F01D1520056
:103CF0000135D40B0134254F7C66254C3C660E0CF7
:103D000093B2FFE7FFE7FFE73C6F6643360C7703AC
:103D1000BE467343DF0B5B04C01AB941130C7343F7
:103D2000DB18C91ACE086643360CB64493B2734307
:103D30001F0F1B01C01AB941130C73431F0B1B0546
:103D4000C01AB941860D8F023E436643360C092DD9
:103D500024DB520A7243801A7703460A6643360C04
:103D600016235B1BDE40DF40BF1964466643821B9F
:103D70007046043506330100D940A840C01900D36D
:103D80000131A24206D20023F0BD0000000000D0A5
:103D9000FFFFFFFF121B0130F3D3F1E709277F1B61
:103DA000FE406446A2B27243801A00D20139220C4E
:103DB0007243130C1204821A99410B0070460435A9
:103DC00013370100F940A840801900D30131002BBE
:103DD00002D1A2420AD2F0BD013000D30131121B40
:103DE000FAD2013BF8D1A24200D2F0BD013000D39B
:103DF0000131121BF7E7F0B51C0C00D080E00CB4C9
:103E000000251C0A04D11B02160E3343120208358A
:103E10001C0B04D11B01160F3343120104359C0BFC
:103E200004D19B00960F334392000235DC0B02D184
:103E300092185B4101351C00971864410134464FCC
:103E40007C66464C3C660E0CFFE7FFE7FFE7C0468A
:103E50003C6F6643360C7703BE4697B27743C01B70
:103E600000D20139C01B00D201399FB27743C91B70
:103E7000C91B170C77437E04FF0B801BB941CE088A
:103E80006643360C0C2D33DBB644120B1F053A4348
:103E90001B0B97B27743C01B00D201399FB2774307
:103EA000C91B170C77433E043F0C801BB941860D9C
:103EB0008F023E43664329277F1BFE400C3D774619
:103EC000AF40BF1930BCA2B2ABB272437343801A89
:103ED0009941220C7243130C1204801A994102007A
:103EE0000B000137001BA941F9D2781E0021F0BD5B
:103EF0000C277F1BFE4077467F0BAF40FF19E0E7A2
:103F000000245D1C07D0144F7D663966FFE7FFE78C
:103F1000FFE7FFE73C6F95B29EB265436643401BE7
:103F2000B141150C1E0C6543664336042F0C3E430D
:103F30002D04401BB141994204D202000B00200025
:103F40000021F0BD01D19042F7D3801A994101348C
:103F50009942F2D3F6E70000000000D0FFFFFFFF18
:103F600048404140484018B4134B5B68019308BD7A
:103F700018B4114B1B68019308BD94460F4A926F09
:103F8000920805D2624618B40B4BDB68019308BD5A
:103F90000A4AF0B5146E556E576F166F6246FFF7FA
:103FA000F2FF064A1466556657671667F0BD18B4E7
:103FB000014B9B68019308BD2C200020000000D01D
:103FC000FFB550404240504059404B40594000E0FE
:103FD000FFB5154F4C00640D03D0BC4204D10C0357
:103FE00014D80020090D09055C00640D03D0BC4203
:103FF00004D11C030AD800221B0D1B0501264B40CF
:1040000009D44B4003D58B4200D18242FFBD994277
:10401000FCD19042FFBD0B43DB1803431343F5D0A3
:10402000C9434918FFBD0000FF07000000B5FFF7B6
:10403000CFFF804100BDC04600B5FFF7C9FF01D9E1
:10404000002000BD012000BD00B5FFF7B9FF01D978
:10405000002000BD012000BD00B5FFF7B1FF804189
:1040600000BD012040054A00121804D85A00121859
:1040700001D80020704701207047002070470000E1
:104080000021002805D17047C1174840401AFAD0D6
:10409000C90713B5064B1B6898470CBC441CA240CB
:1040A0001005120B0349091B09051943114310BDE3
:1040B0002C2100201F04000010B54C00620D80234D
:1040C000D218DB00D21A5B057E2A10DD9E3A13DA85
:1040D000CC170903490819435242D1406400013406
:1040E0001532202A05DAD0400843604310BD002075
:1040F00010BD0846604310BDC80FC018013810BD80
:1041000018B4024B5B6A019308BD00002C2000200C
:1041100010B50148FEF7D8FB18A0001070B51323A6
:104120001C78012C14D0012C14DC022C02DC1F4A58
:104130001F4B9A641F48FFF787FC1F4B186070BD28
:1041400099001E481A4A885001331F2BF8D9EAE714
:104150000023FAE71A48FFF77FFC05001948FFF72C
:104160007BFC023803789B007F2B19DD802229001D
:104170000F4800F0C5F8022CD7D1134B1A88B5238D
:104180001B029A4209D1114B1A88114B9A4204D151
:10419000104B1A88104B9A42C7D00020FEF794FBB0
:1041A0000E4B0F4A32210F48FEF7F4FAE941001096
:1041B0002C2000204C3300002C2100201141001045
:1041C000534400005346000054380000D838000023
:1041D000494600009C3800005946000030A00010FD
:1041E000E8A0001084A0001007B56046002800D1A8
:1041F00000BE01880A0A0230DF2AFAD1C9B2820859
:1042000004D3028840880004104300E00068024A9A
:104210005050039007BD00002C2000205143434321
:10422000C9188C46110C83B24B4310B4040C614383
:1042300092B280B2504362431C041B0C001910BCA4
:1042400059411304120CC0185141614470470000D9
:1042500010B50148FEF738FBC88F001070B5132366
:104260001E781848FFF7F8FB0500012E11D0012E2B
:1042700009DDAB1E1B789B007F2B1DDD80222900F2
:10428000114800F03DF81148FFF7DEFB104B1860B5
:1042900070BD542201000C4800F032F8002300E009
:1042A00001331F2BE3D89A00074C1259002AF7D18B
:1042B0009A0008481051F3E7074B084A4221084882
:1042C000FEF768FA53460000302100204C3300000E
:1042D0002C21002051420010FCA0001094A10010DD
:1042E00030A1001001480421014B1847A003002011
:1042F000693A0010014B1B6818470000A00300201A
:10430000014B5B6818470000A003002010B50300B4
:10431000080011001B68984710BD0000F8B50700A1
:104320000D001600437D002B02D0002400200CE07D
:1043300003681100280098472DE03B7D10E0022122
:1043400015483B689847601C0134B44214DA002CCD
:10435000F3DD2B19013B1B780D3B5A425341DBB275
:104360002A5D0A2AF0D1002BEED1A042E7DA211A09
:1043700028183B689847E2E7B04203DA311A281858
:104380003B689847002E06DDAD19013D2B780D3BAB
:104390005A4253413B75F8BDF4A2001070B50500B8
:1043A0000368002B16D00C4B1C6805E0290004C9DB
:1043B0002000FFF7B3FF2469002C09D02368002BED
:1043C000F9D0064B1B68002BF0D0A342F3D1EDE7E8
:1043D00000232B6070BDC0468C1D0020941F002060
:1043E00070B505000C000B68802B05D021684B1CB4
:1043F00023606418257170BD0800FFF7CFFFF5E753
:10440000F0B583B007000E000092019328E0A36886
:10441000002B04D0310038009847002827DC24699D
:10442000002C06D0134B1D68002DF0D0A542F6D10C
:10443000EDE70099019A104B5B6A9A4209D80E4841
:10444000806A88420FD29A4201D0012302E0002301
:1044500000E00023002B08D101200021FDF7D4FB50
:10446000064B1C68DCE70123F4E70120404203B05F
:10447000F0BDC046941F0020004005408C1D002068
:1044800010B5FDF7A1FB02000B1E0BDB0D48002150
:1044900012184B41002B0BDB002B0DDB0A4804F0FC
:1044A00037FC10BD094B0A4A3F210A48FEF772F952
:1044B00001225242084BEFE7044B054A3F210548D1
:1044C000FEF768F940420F00300C0020CC8F00103E
:1044D000DCA20010E88F0010FFFFFF7F10B502483C
:1044E00004F0F6FB10BDC046300C0020F0B5CE46FF
:1044F000474680B583B006000D0090461C00FFF7CC
:10450000BFFF81466B1C05D0002C08D0194F1A4BF9
:104510001C6807E0300004F0EDFA0500F4E7174FDF
:10452000F5E72469002C17D02368002BF9D0144B31
:104530001B68002B01D0A342F3D12A0031002000D8
:10454000B8474346002BECD06B46D91D0A230B70AD
:1045500001222000B847E4E74B46002B07D16B1E31
:104560009D41E8B203B0C0BCB946B046F0BDFFF70C
:10457000B5FFF4E70D4300108C1D00201D43001013
:10458000941F002010B582B004006B46D81D047043
:10459000002300220121FFF7A9FF200002B010BD77
:1045A00010B5030008001100002B05D1044B1A6858
:1045B0005B68FFF725FF10BD01204042FBE7C046C6
:1045C0002899001010B5030008001400013B012BCE
:1045D00006D8002300222100FFF788FF200010BD2D
:1045E00001204042FBE70120404270470120404249
:1045F00070470000094A01E010331A001368002BCD
:1046000008D08342F8D1002907D103691360002341
:10461000036102E0002900D0106070478C1D00206B
:1046200010B5064B1C6801E098472469002C03D0A4
:104630006368002BF8D1F8E710BDC0468C1D002040
:1046400070B5050004F056FA0400002301220100B1
:104650002800FFF74BFFFFF7E3FF200070BD0000CD
:1046600070B5A2B004000E00FFF70AFF050000239A
:1046700001933300220001A90848FFF7CDF9040097
:1046800001A8FFF78BFEFFF7CBFF002D02D1200022
:1046900022B070BDFFF722FFF9E7C046E1430010EA
:1046A0000FB400B583B004A901C90191FFF7D8FF89
:1046B00003B008BC04B0184730B583B0040000252F
:1046C000FDF782FA02000B1E10DB12196B41002B62
:1046D00012DB002B14DB012101A8FFF791FE00285B
:1046E00002DB13D001AB187803B030BD0B4B0C4A82
:1046F0003F210C48FEF74EF8012252420A4BE8E7F0
:10470000064B074A3F210748FEF744F89E21074B16
:10471000074A49000748FEF73DF8C046CC8F001015
:10472000DCA20010E88F0010FFFFFF7FF897001059
:10473000C8A200106CA20010F0B583B005000E00F6
:1047400000240FE06B46D91D0D230B7000200028BC
:1047500016D193699B06FCD40B78136001300131AC
:10476000F5E70134B44219DA0D4B1A682F5D0D4B91
:10477000D31859424B415B000B495B5EBB42E1D011
:104780006B46D91D0F7000200028EAD193699B0663
:10479000FCD40B78136001300131F5E703B0F0BDB4
:1047A000502200200080FCBF48220020F0B583B0DA
:1047B00006000F00002504E06B4607331B782B70C2
:1047C0002500BD4215DA174B1A68936910242100A1
:1047D00019401C420DD16C1C75196B46D81D00295F
:1047E000EAD19369DB06FCD4136803700131013010
:1047F000F5E70D4B1B68002B0CD00A4B1A685023B1
:10480000936311003431536B38221A4080235B01CB
:104810000B431A60002D02D0280003B0F0BD033D09
:10482000FAE7C04650220020181D002010B5064BA4
:104830001B68002B06D0054A126800219163044AC8
:104840001068984710BDC046181D00205022002057
:104850001C1D002070B504000E001C4B1B681C4A78
:1048600098184242504114300500002C03D0194AD8
:104870001268002A06D0002C19D0164B1C60164B6B
:104880001E6070BD1549FCF7C3F801212800FCF734
:10489000AFF80E4B1A685023936311003431536BF9
:1048A00038221A4080235B010B431A60E5E7094A6E
:1048B0001268002AE1D000229A6300212800FCF748
:1048C00097F806492800FCF7E7F9D6E750220020C0
:1048D0000080FCBF181D00201C1D00202D4800106A
:1048E00070B50D001C000D4B1860002A0BDA002C6F
:1048F0000EDA0A4B18682900FDF734FD012108483B
:10490000FFF778FE70BD02211000FBF755FFEEE7C0
:1049100002212000FBF750FFEBE7C04650220020A9
:10492000B003002030B505004B0613D0012200E093
:1049300001320F2A0CD85301074C18191B5D002BAC
:10494000F6D0437FAB42F3D183788B42F0D100E0C5
:10495000002030BD0048FCE7901D0020012200200F
:104960000F2A09D85301054958185B5C002B01D068
:104970000132F5E7511E81777047C046901D002037
:10498000F0B5C64600B584B00D00437F98468778E1
:10499000C68A00F037FC01AC0C2200212000FFF792
:1049A000A9FC022363704346A370277165710396C7
:1049B0000121200004F0B4F904B080BCB846F0BD79
:1049C00010B50A4BDB6C9B0709D5094B9B7E002B6E
:1049D00006D007480823C3820021FFF7D1FF10BD8E
:1049E000044B054AAD210548FDF7D4FE00001150E7
:1049F000901D0020F8A2001074A4001004A3001061
:104A000010B5002807D11148114B8360114B43604A
:104A1000114BC36010BDFFF7A1FF00280FD0837FAB
:104A2000DA000E49511881600D498C46624442609B
:104A300002339B01084A94466344C360EAE720219D
:104A4000084B094AFF310948FDF7A4FE901D0020DC
:104A5000800010500001105080011050880010504C
:104A60000800105074A30010B4A4001004A3001098
:104A700010B50C000A4B98658B7E002B05D0080002
:104A800000F044FC002806D110BD064B064A6921FF
:104A90000648FDF77FFE00212000FFF771FFF3E7D6
:104AA00000301150F8A2001088A4001004A30010D8
:104AB00070B5164B9E6DF30701D4012519E0012353
:104AC0009E4313494B681B680120FFF7D1FFF4E7B1
:104AD0000134012C0CD86B001B1901209840304286
:104AE000F6D086436B010A495918FFF7C1FFEFE77B
:104AF00001350F2D03D8002E01D00024E9E7002E48
:104B000000D170BD31000348FDF7DEFE00001150FA
:104B1000901D002078A3001030B585B02F4A98234F
:104B2000D458973B1D002540234211D0136D1B0A1A
:104B30009B0721D001A800230370437003714371C8
:104B4000012104F0EDF8264BC02292001A650125E0
:104B500063051CD4E30626D4230729D4630605D5B0
:104B600040231D431E4B802212051A65A30628D43C
:104B7000A5422DD105B030BD01A80023037001224C
:104B8000427003714371012104F0CAF8DBE780230E
:104B9000DB001D43124B802292051A650221114849
:104BA000FFF7EEFED6E710231D43FFF781FFD3E7A3
:104BB00008231D430A4B8022D2021A65FFF700FF2B
:104BC000CCE7074B802212061A650748FDF77CFEEA
:104BD000290061400548FDF777FEC04600001150EE
:104BE00000301150901D002090A30010A4A30010CD
:104BF00070B500281DD100F0DFFA114C0C23A3671B
:104C0000104D29000520FCF747F8FF222900052058
:104C1000FBF728FF8022920000210B48FFF76AFB78
:104C200003232364094BE3649023094AE2500120E3
:104C300070BDC021074B084A49000848FDF7AAFD8E
:104C400000001150194B0010901D0020008600201C
:104C50007B040000B8A3001018A5001004A30010E6
:104C600010B5002800D110BDD121034B034A4900E3
:104C70000348FDF78FFDC046B8A3001008A500103B
:104C800004A300107047000010B5002808D1084B9D
:104C9000186DC0239B001840431E9841C0B210BD40
:104CA000B021044B044AFF310448FDF773FDC046B0
:104CB00000001150B8A30010F0A4001004A30010CD
:104CC00010B5002809D10B4B1A6D120A03231340AB
:104CD000012B0CD0022B07D110BDDB21064B074A5C
:104CE00049000748FDF756FD0648FDF7EDFD1800A1
:104CF000F2E7C04600001150B8A30010DCA4001079
:104D000004A30010C4A30010F0B5D6464F46464693
:104D1000C0B504000F00994608A90D7809A90978C3
:104D200043689C46002B50D08368002B54D0C36846
:104D3000002B58D07F20804606001640B246D0098E
:104D4000A270677760704646164253D10122E27026
:104D50004A462283E5762C4A5A409B064CD1AD0642
:104D60001543A0231B061D43002902D00139090465
:104D70000D4363461D6001232370244B9C421FD0CA
:104D800053461D043D43002802D180239B041D434C
:104D90000020FFF795FF0600380000F035FC864242
:104DA00002D08023DB041D43A37F9B00184A944656
:104DB00063445D60A27F013201239340154A53652D
:104DC000E0BCBA46B146A846F0BD9B21124B134A3F
:104DD00049001348FDF7DEFC3821124B0F4AFF3122
:104DE0000F48FDF7D7FC9C210F4B0C4A49000C489B
:104DF000FDF7D0FC0022AAE7A7210C4B074A490087
:104E00000748FDF7C7FCC04600001050901D002069
:104E10000000115000201150D4A30010A0A40010D5
:104E200004A30010ECA3001000A4001010A40010B4
:104E3000F8B50D1E26D0012400E001340F2C21D836
:104E40006001114BC018437FAB42F6D163010E4A9B
:104E50009B5C002BF1D016006701827F0132012399
:104E600093400A4A5365837F9B00094A94466344F2
:104E700000225A60BA5543681A6083681A6000F0CD
:104E8000C1F9DAE7F8BDC046901D0020003011508E
:104E90000000115010B5002804D101210520FBF7B6
:104EA000A7FD10BDEA21034B034AFF310348FDF77C
:104EB00071FCC046B8A30010CCA4001004A30010DD
:104EC00030B583B00D001400D0788007800FFFF755
:104ED00097FD002812D0217963791B020B435B05F3
:104EE0005B0DE1788907890FA278A479019400917C
:104EF0002900FFF709FF012003B030BD0020FBE7C8
:104F0000F0B5D6464F464646C0B582B00E001500F5
:104F10009A460AAB1B8899467F271740D3099846C3
:104F200011003000FFF7FEFC041E4CD0837E002BE6
:104F30001CD18378AB420AD0002F1ED1038B0022F4
:104F40000192C27E00922A003100FFF7DDFE1F4B66
:104F50009C4218D04A465146200000F0C3F9012077
:104F600002B0E0BCBA46B146A846F0BD8721184B56
:104F7000184A89001848FDF70DFC184B154A1849C6
:104F80001548FDF707FC4A465146200000F0AAF9F3
:104F90003B043343134A13604346002B0FD0124D9A
:104FA0000020FFF78DFE0400300000F02DFB84424E
:104FB00007D040232B430B4AD3640120D0E70B4D8D
:104FC000EEE70023F6E70020CAE7C046901D002068
:104FD0002CA4001064A4001004A3001038A4001036
:104FE00021020000000011500986002005860020E3
:104FF00070B582B00D00002304E0D45C1E48C45498
:105000000133DBB2072BF8D90020FFF7F9FC041EAF
:105010002FD0837E002B1ED1038B002201920092A1
:105020002900FFF771FE2678002E1AD00823A382EC
:10503000073BA376114B1D600020FFF741FE0400E3
:10504000280000F0E1FA844211D00D4A0B4BDA64DB
:10505000300002B070BD0B4B0B4A0C490C48FDF7F9
:1050600099FB0C4B084A0C490948FDF793FB0B4A86
:10507000ECE70026ECE7C04600001050000011509D
:10508000438600202CA4001054A400104D02000000
:1050900004A3001044A40010510200000386002065
:1050A000F8B504000F00838A028B1E1C934200D9BE
:1050B000161CB6B29B1BA3828025ED003543E37816
:1050C000002B13D080229201154301225340E3703C
:1050D0006378002B0CD0A38A002B02D18023DB0144
:1050E0001D43002F00D02D042800F8BD0022EBE75F
:1050F000B801E3689C46604432002169FFF700F97B
:1051000023699C466644266180231B021D43E2E717
:1051100070B5040083681B68002900D01B0C9D0536
:10512000AD0D6278002A12D11B0409D4E38A5B1901
:10513000E382238BAB4201D90023A382280070BDF8
:1051400081210F4B0F4A49000F48FDF723FB1B0439
:105150000ED58901E3689C4661442A002069FFF767
:10516000CFF8E38A5B19E38223695B192361E0E7E7
:105170000A21064B034AFF310348FDF70BFBC046EB
:1051800024A5001028A6001044A50010B4A5001006
:1051900010B5040083681B680021FFF7B9FF63683E
:1051A0001B685B0002D5238B834200D010BD012118
:1051B0002000FFF7ADFFF9E710B580235B040C4A30
:1051C00013600C4A13600C4B9A6880235B04934372
:1051D000F9D10A4C9C2200212000FFF78BF8802295
:1051E000520100210648FFF785F80923636710BDC7
:1051F00000E0004000F0004000C0004000001150FE
:1052000000001050002383768382C38203617047BD
:1052100010B5002902D083681B681940002A09D004
:105220001143530506D5826813685B0505D4084B06
:105230000B4013608368196010BD83787F2119408B
:10524000DB099B00034A9A580348FDF73DFBC04623
:10525000FFFBFFFFC8030020D4A5001070B50400B9
:1052600043681E680021FFF71BFF80256D01054381
:10527000194B1B6C0222110019401A4202D1A3786B
:10528000DB0906D0002906D0A3785B0616D10023DF
:1052900002E0012300E00023A28A002A01D0002BB3
:1052A0000ED00E4B1E4080239B0533436268136073
:1052B0002A0000212000FFF7ABFF70BD0123EBE7C0
:1052C00001212000FFF7ECFE0543054B1E40A02303
:1052D000DB053343EAE7C04600001150FFFFFFAF94
:1052E000FFFFFFDF70B504000D001600837E002B6A
:1052F00009D1A6820023E3820133A3762561200031
:10530000FFF7ACFF70BDFFF77DFFF2E770B504005B
:10531000857E002D06D0FFF73BFFA38A002B0BD123
:10532000280070BD83787F211940DB099B00054A66
:105330009A580548FDF7C8FA2000FFF78FFF0025AF
:10534000EEE7C046C8030020F4A500104369C27808
:105350001A707047002802D00521042004E00421BF
:10536000002001E00130C0B2814209D94E224243FF
:10537000044B9B181B79DB07F4D40130C0B200E06A
:10538000002070474C19002010B504004E22002167
:10539000FEF7B0FF20000D300822FF21FEF7AAFF24
:1053A000200015301C22FF21FEF7A4FF10BD0000D5
:1053B00010B5044B5878002800D110BD01F03CF81E
:1053C000FBE7C046BC0D0020F8B5DE4657464E460A
:1053D0004546E0B581460D000300013BDBB2042BDE
:1053E0000ED80300013B4E275F43344BFF18AA78C9
:1053F000EB781B0213439A46AA4429786D1825E0DE
:105400000027F4E7EB7898462B78ED1825E06B79C8
:10541000022B28D1AB79022B25D1984623E000221C
:1054200090450BD9AB789B18DBB2F918497BFF2963
:105430003DD1FB185C730132D2B2F1E72300320098
:1054400029003800153002F019FBAD19554528D256
:105450006B780B2BD6D0012398466B78042B22D186
:105460004346012BD3D053465A1B92B241462800E3
:1054700002F017FB0600082817D90024032CE4D8F3
:10548000A200121992000E4B9A1853689B46387866
:1054900033002A004946D8470028C0D10134E4B27D
:1054A000ECE7012004E0002002E0002000E0002002
:1054B000F0BCBB46B246A946A046F8BD4C19002038
:1054C0006CA60010F0B589B007000E0006AD144CB4
:1054D0002B00220003CA03C3182200216846FEF7EE
:1054E00009FF6B461F70DE70E38A01930295A36883
:1054F0000393E3680493236905930A4D012149420C
:10550000286803F0FDFB00236375286803F0E0FBC7
:10551000049B002B01D06846984709B0F0BDC046F7
:10552000A40D0020D41A0020F8B5CE46474680B519
:105530000700884691460024042C56D822004E23AA
:105540001D0065432B4EAD190134E4B253439B5DFE
:10555000BB42F1D14346002B02D06B784345EBD1DF
:105560004B46002B06D04E215143224B5B189B78B3
:105570004B45E1D14E2353431E4AD2181379DB0722
:10558000DAD5042C07D81C4B002B02D02000FAF7E8
:10559000E1FF00260FE0002221003800FFF7C4FFE2
:1055A000F7E7B3009B199B00144AD3181B6920002E
:1055B00098470136F6B2032EF3D921003800FFF7E1
:1055C00037FC2800FFF7E0FE0D4B1B7DA342B3D153
:1055D0000C4D01214942286803F092FB084B002240
:1055E0005A75286803F074FBA6E7C0BCB946B046FC
:1055F000F8BDC0464C190020550500106CA60010DF
:10560000A40D0020D41A0020431EDBB2042B08D8BE
:1056100001384E235843044BC018002801D0C078ED
:105620007047024BD878FBE74C190020BC0D0020D6
:10563000034B1878FF38431E9841C0B27047C046EC
:10564000D003002070B50500FFF7F2FF041E01D063
:10565000200070BD214C20001430FBF7A7FC200077
:1056600002F08AFE1E4B1C601E4C2000FBF778FCEB
:105670001D4B1C60052200211C48FEF73BFEC32287
:10568000520000211A48FEF735FE18220021194861
:10569000FEF730FE002407E04E206043144BC01894
:1056A000FFF772FE0134E4B2042CF5D9002407E0C0
:1056B000A3001B199B00104A9B5898470134E4B281
:1056C000032CF5D90D4B1D702800FFF791FA041E2D
:1056D000BED02800FFF7DEFBBAE7C046D4030020A7
:1056E000E01A0020D81A0020D41A0020BC0D002097
:1056F0004C190020A40D00206CA60010D00300203F
:10570000431EDBB2042B08D801384E235843044B08
:10571000C018002801D000787047024B1878FBE7CA
:105720004C190020BC0D002030B583B004000D00E2
:10573000072200216846FEF7DDFD07236A46137045
:10574000023B537095802000FFF7DAFF6A46210084
:10575000FFF7B6FB03B030BDF0B583B00400150011
:105760001E00FFF7CDFF0700002D0BD12A4B5A7DFD
:10577000D3B2022A10D0032B48D0012B08D000202E
:1057800003B0F0BD29002000FFF79CFE0120F7E7E1
:10579000214BDB88002B1AD1B6B21F4DEE821F4E73
:1057A00001214942306803F0ABFA03236B7530687E
:1057B00003F08EFA2B78DB0926D180225242D2B236
:1057C0000023009321003800FFF79AFBD8E7134E1F
:1057D00001214942306803F093FA0F4D02236B75A3
:1057E000306803F075FA2B78DB090BD08022524227
:1057F000D2B209498B68C988009121003800FFF7AF
:105800007FFBBDE70022F3E70022D8E72900200054
:10581000FFF758FE0120B3E7A40D0020D41A0020A2
:10582000004870474C18002010B5431EDBB2042B13
:1058300013D8431E4E2058430A4BC01800280ED0E0
:105840007F220A40CC09084B196853001B193033DA
:10585000C018013002F08FF810BD0020FCE70020D6
:10586000FAE7C0464C190020D41A002010B5431E98
:10587000DBB2042B13D8431E4E2058430A4BC018EA
:1058800000280ED07F220A40CC09084B196853002B
:105890001B193033C018013002F095F810BD0020FC
:1058A000FCE70020FAE7C0464C190020D41A00207B
:1058B000F0B5CE46474680B585B00393441EE4B2AA
:1058C000042C3CD8451E4E246C431F4D6419002CFB
:1058D00037D07F260E40CF0975006519ED19303598
:1058E0006D78ED0705D5002005B0C0BCB946B046BF
:1058F000F0BD75006519ED1930239946A9444D4650
:105900006D78AC460125A846654643461D432B00ED
:105910004D466B702578039B009313000A0001002D
:105920002800FFF7EDFA0028DED14F467B780122F0
:1059300093437B707B78033293437B70D4E70020E2
:10594000D2E70020D0E7C0464C19002070B5040013
:105950000D00FFF759FE0100280002F053F800285F
:1059600000D170BD2000FFF7CBFE2A002100FFF719
:10597000A7FAF6E770B505000C00431EDBB2042B56
:1059800007D8431E4E225A43124BD2180134E4B2B8
:1059900003E00022FAE70134E4B2072C0CD8131913
:1059A0005B7BFF2BF7D09A00D3189B000A4AD318D1
:1059B0009B68210028009847082C00D070BDFFF795
:1059C000F7FC042DFAD8054B002BF7D02800FAF786
:1059D000B9FDF3E74C1900206CA600104505001036
:1059E00030B585B00400C378002B11D0784B1B78FC
:1059F000022B0AD80133764A13706420FCF730F882
:105A0000200000F0C1F905B030BDFFF7D1FCFAE786
:105A10006F4B00221A70057843690C2B00D9D4E033
:105A20009B006C4AD3589F466B4B1B68039303AB98
:105A30001B78DB0707D503AB5B785A0706D45B08F6
:105A40000122134003E0FFF7B3FCDCE70223634AC3
:105A5000D37003AB9B78DB06D5D5507891780323C0
:105A600000935F4B142200F03AFBCCE7FA20400091
:105A7000FBF7F6FF594B9978587806230093584B5B
:105A8000554A00F047FCBEE7534B1B68039303AB3A
:105A90009B78DB06B7D5514B58789978072300934C
:105AA0004F4B142200F01BFBADE708210020FFF74D
:105AB0003BFE0028A7D007230093494B0822464904
:105AC000002000F06EFA9EE700F0CAF99BE78368B9
:105AD0009D786B1EDBB2042B95D86B1E4E245C4365
