:020000041000EA
:1000000000B5324B212058609868022188439860DF
:10001000D860186158612E4B002199600221596106
:100020000121F02299502B49196001219960352056
:1000300000F044F80222904214D00621196600F024
:1000400034F8196E01211966002018661A6600F04E
:100050002CF8196E196E196E052000F02FF8012189
:100060000842F9D1002199601B49196000215960AB
:100070001A491B48016001219960EB211966A021F2
:10008000196600F012F800219960164914480160C1
:100090000121996001BC002800D000471248134993
:1000A000086003C880F30888084703B5996A0420EC
:1000B0000142FBD001200142F8D103BD02B5186610
:1000C0001866FFF7F2FF186E186E02BD00000240BE
:1000D000000000180000070000035F00212200005C
:1000E000F4000018222000A00001001008ED00E03C
:1000F00000000000000000000000000074B24E7A12
:1001000000200420F7010010C3010010C5010010F9
:10011000C1010010C1010010C1010010C101001097
:10012000C1010010C1010010C1010010C701001081
:10013000C1010010C1010010C9010010CB01001065
:10014000CD010010CD010010CD010010CD01001037
:10015000CD010010CD010010CD010010CD01001027
:10016000CD010010CD010010CD010010CD01001017
:10017000CD010010CD010010CD010010CD01001007
:10018000CD010010CD010010CD010010CD010010F7
:10019000CD010010CD010010CD010010CD010010E7
:1001A000CD010010CD010010CD010010CD010010D7
:1001B000CD010010CD010010CD010010CD010010C7
:1001C00000BE00BE00BE00BE00BE00BEEFF3058054
:1001D000103800BEF2EB8871686D0610906D061045
:1001E0003402001090A31AE700201F49086006C8D7
:1001F00081F3088810471D48006800282FD10DA4FE
:100200000ECC002902D000F012F8F9E71849194A7B
:10021000002000E001C19142FCD1174988471749ED
:1002200088471749884700BEFDE701C901C29A42C5
:10023000FBD37047906D0610C000002030110020E5
:10024000007E06100000042000000420007E06103E
:10025000001004200010042000000000704709482E
:1002600003F0BCFC0047000008ED00E0000000D0F7
:1002700030110020E06400204D29001061060010BC
:10028000092900105756000006005250ABB36053C6
:100290001C11021006005250861C03022C11021081
:1002A000060052505422A29D5C11021005005250CB
:1002B000DE65F468007E0610F8B5C04610B5064C41
:1002C0002378002B07D1054B002B02D0044800E017
:1002D00000BF0123237010BD901200200000000019
:1002E00020F90110044B10B5002B03D0034904483A
:1002F00000E000BF10BDC0460000000094120020C6
:1003000020F9011030B50024944207DA0D5D8542D2
:1003100002D11C70012030BD0134F5E70020FAE75E
:1003200070B504000D0016000B0065220A49FFF7A6
:10033000E9FF002803D000233370012070BD2B009B
:10034000652206492000FFF7DDFF0028F6D00223D2
:1003500033700120F2E7C04668FA0110D0FA0110AC
:1003600000B583B06B46D91D08700122094807F01B
:1003700057FA094B1B78002B04D1084B1888084BFF
:10038000984201D103B000BD034B01221A701AF04C
:100390008BFEF7E7FC120020D964002058070020EC
:1003A000FFFF000010B586B010F06CF91DF0FCF9ED
:1003B00000201DF0F3F909201DF0D8F900220021DA
:1003C00019481AF0CFF964201AF07AFA1AF0E4FA10
:1003D0004122164900201AF025FD04AC0622002116
:1003E000200004F079F8002302930733019300946E
:1003F00000230022302130201EF03EFB0C49192042
:100400000DF034FC01200DF089FC0A480A4C4460D0
:100410000AF024F8094844601DF0A0F920001AF001
:100420003DFE06B010BDC04638FB011024FA011095
:1004300008FA0110D844002035050010A8610020FA
:1004400000B583B06B46187000236A4653709170F4
:10045000D370137153719371D3710B4B1B78002BB5
:1004600003D0012B08D003B000BD084B1888082228
:1004700069461AF057FEF6E7044B188808226946C9
:100480001AF032FEEFE7C0465A0700205807002056
:1004900000B583B0234B1B78012B03D0022B2BD04C
:1004A00003B000BD01AB0122694601311E4807F0CF
:1004B000F5F9019B002B1BD06B4658786B469A1CB4
:1004C000D91CFFF72DFF0028ECD06B465978174850
:1004D00004F0A0F96B46D9786B469878FFF7B0FF27
:1004E000104B02221A70124B18881AF0DDFDD7E764
:1004F0000C4B00221A70D3E700210020FFF7A0FF69
:10050000094807F07AF9002803D1064B00221A7037
:10051000C6E7044B01221A70054B18881AF0C4FD77
:10052000BEE7C046D9640020FC12002020F901106B
:100530005807002010B5140004282ED11378C92BB9
:100540003BD015D9CC2B29D0F12B26D19378042B75
:1005500049D03BD8012B53D0022B1ED153792A4AC4
:100560001370002B4AD02949294804F053F914E0AC
:10057000052B0BD0C82B10D1264804F01BF9022103
:10058000200007F025FC1DF007FA06E0224B0122AF
:1005900052421A80214804F00DF910BD0C211000C0
:1005A00007F01CFC01001E4804F034F90221200071
:1005B00007F00EFC1DF01AFAEFE70C21100007F00F
:1005C0000DFC0100174804F025F9E6E7052BE4D1FE
:1005D0000321100007F0FCFB0F4B188061791248D3
:1005E00004F018F9D9E70321100007F0F1FB0A4BDA
:1005F000188061790D4804F00DF9CEE70C49B3E796
:10060000FFF746FFC9E7C0465A07002030F901103E
:10061000F0F9011048F901105807002038F90110CD
:1006200060F9011084F901109CF90110C4F901105E
:10063000643E021010B5FFF7B5FE142205490648C6
:1006400007F0D5F8054811F0ABFE01200DF0F4F9E4
:10065000002010BD10130020FC12002061030010C8
:1006600010B504F0E3F800F025F8041E05D100F001
:100670003DF807F045FB200010BD01246442FAE775
:1006800000B583B0042802D11378602B01D003B0E9
:1006900000BD9378022BFAD168460AF01DF868462F
:1006A00007F0E4FC0100024804F0B4F8EFE7C046AC
:1006B000B8FD011010B512F00BFB041E0AD108485A
:1006C000084B436009F0CAFE16F00CFE06F0E6F98E
:1006D000200010BD044804F06DF801246442F7E7DF
:1006E000E044002081060010D8FD011010B5002163
:1006F0000020FFF79FFF10BD10B58300084A944605
:1007000063441C6840226240C0241440802252018D
:1007100013431C60C000034B9C466044416010BD05
:1007200004C001400040014080000B4B9C466044E7
:1007300000290DD00823002A0CD00422134302689C
:1007400053400C2213408022520110430360704733
:100750000023F0E70022F1E704C00140002909D09E
:100760008000094B9C46604480239B011843022370
:10077000036070478000044B9C466044C0239B018B
:10078000184302230360F4E704C0014070B5D0238E
:100790001B061B689D00094C2C59204207D19B0069
:1007A0002043064C18510D2000F0EAF970BD044BAF
:1007B000044ACC21044802F0ABF8C046485E002051
:1007C000F8FD0110D0FE011024FE011010B5040048
:1007D000D0231B061B689B000A4A9B5818420BD06B
:1007E0000D2000F0E7FAD0231B061B6805499B008B
:1007F0005A58A2435A5010BD034B044AD62104480C
:1008000002F086F8485E002080FE0110ACFE011068
:1008100024FE0110072303409B00C00899403C3090
:100820008000014BC150704700400140F8B50700FF
:100830000C0016001D00FFF7EDFFFB089B00ED18F4
:100840000720384080008440002E04D080239B0184
:100850001D432C60F8BDC0239B011D432C60F9E7AC
:1008600010B5D0231B061B68002B03D0024BFFF7EB
:10087000DDFF10BD014BFAE730410140004101406E
:1008800010B501238340D0221206936293610521A3
:10089000FFF732FF10BD0000034B1B680220184019
:1008A000431E9841C0B2704700C00640EFF310806D
:1008B00072B6034B1B68002BFBD0BFF35F8F7047F2
:1008C0002C0100D0BFF35F8F024B00221A6080F32F
:1008D000108870472C0100D0F8B506000C001500F8
:1008E000FFF7E4FFE308F718F15C07222240012339
:1008F00093400B4205D1DBB20B433B70FFF7E2FFA5
:10090000F8BD2100280002F09DF8F0B583B0060084
:10091000019114001F00FFF7C9FF00E00134BC4241
:100920000CD8E308F518F35C0721214001228A4026
:100930001A42F3D1D2B21A432A7001E00124644270
:10094000FFF7C0FF002C02DB200003B0F0BD019BCD
:10095000002BF9D0089802F075F8000070B505007A
:100960000C00FFF7A3FFE308EE18EA5C07210C4038
:100970000123A340134204D09A433270FFF7A2FF31
:1009800070BD034B034A2C31034801F0C1FFC04640
:1009900004FF011084FF011024FF0110002307E071
:1009A000054A9A189200BFF35F8F0021116001334E
:1009B0001F2BF5D97047C0464000003410B51F28E2
:1009C00008D8074B9C4660448000BFF35F8F00232C
:1009D000036010BD034B044A1921044801F098FF3D
:1009E0004000003494FF01100C000210B0FF011011
:1009F000054A1078431CDBB21370172B02D9130081
:100A000010221A707047C0465B070020074B9B6896
:100A1000103080001950BFF35F8FBFF35F8F044B1E
:100A20000021196082F310887047C04600ED00E095
:100A3000240100D01F23181A7047000010B5091AAE
:100A4000081F0A4B9C466144094A914208D8C307D3
:100A500006D440104005400D064B184380B210BD2F
:100A6000054B064AA321064801F052FFFC0700008F
:100A7000FE0F000000E0FFFF1C000210A8020210A1
:100A80004C00021010B5091A04394C08090B08D1A2
:100A90004905490D064A11430180064B2343438013
:100AA00010BD054B054AAB21054801F031FFC0469A
:100AB00000F0FFFF00F8FFFFA80002107C02021008
:100AC0004C00021001238340034A10681840431E63
:100AD0009841C0B27047C04600E100E0002904D050
:100AE000034B1860034B18607047034B1860FBE71B
:100AF00080E200E000E100E080E100E010B50123C9
:100B000083401800FFF7EAFF10BD00000123834077
:100B1000014A13607047C04600E200E0024B9B6848
:100B200010308000C058704700ED00E070B5040040
:100B30000D00EFF3108672B60C4B1B68002BFBD038
:100B4000BFF35F8F2000FFF7E9FF094B984201D008
:100B5000A84205D1320029002000FFF757FF70BDE1
:100B6000044B054A8621054801F0D2FE240100D03D
:100B7000CD010010B8000210DC0202104C0002107F
:100B8000F0B5DE4657464E464546E0B589B081464B
:100B900001911500EFF3108A72B6744B1B68002B9D
:100BA000FBD0BFF35F8F724B0027DF57002F40DB76
:100BB0007C00E419A4006F4824180622A2566C4B4E
:100BC0001A706D4B9A684B4610339B00D358984669
:100BD0001E001B1A2F2B38D9684B98452FD105AE14
:100BE000674B33807B009B46D8198000614B984649
:100BF000404402306349FFF721FF7080624BB380AD
:100C0000FF23B371F571019B07935F44BF00474415
:100C10000ECE0EC701231C43A0465246414648460D
:100C2000FFF7F4FE09B0F0BCBB46B246A946A046A9
:100C3000F0BD564B564AD721564801F069FE564B37
:100C4000534ADE21534801F063FEC04340440C2167
:100C500003F018F8002912D101239E43B346330054
:100C60000026DA79AA4211D90621595600290CDB4F
:100C70004A00521892001E003E4B9B18F1E7474B6A
:100C8000434AEA21434801F043FE1E00002E3AD0B9
:100C900005AB434A1A80813A5A800623F3560293E1
:100CA000002B17DA3F4805AB9B469880029A9A7151
:100CB000DD71019A0792301D2100FFF7BFFEB08061
:100CC000B7717B00DB199B002A4FFF185B4607CBEF
:100CD00007C7A2E77800C0198000264BC01804306F
:100CE000321DB388D90A1C2907D15B055915023179
:100CF00049005118FFF7A2FED5E72B4B2B4AB12133
:100D0000244801F005FE05AE1D4B33807B000293A5
:100D1000D8198000174A9046020042440392901C62
:100D20001849FFF78BFE7080039A101D5946FFF794
:100D300085FEB0801E4B5A464146521A52415343DB
:100D40001B0DB371F571019A0792029B9C46674493
:100D5000BF0047440ECE0EC7114B5A461380813B4D
:100D6000538001231C43A04657E7C046240100D00E
:100D7000C86400205C07002000ED00E0CD010010F9
:100D800000A1FFFF8C07002001BDFFFFF000021053
:100D9000C40202104C00021018010210400102109F
:100DA0000148000001BD0000B4010210B4020210AD
:100DB000AAAA0000F0B5CE46474680B583B006002B
:100DC0000D00EFF3108872B6564B1B68002BFBD05A
:100DD000BFF35F8F544B9A6834001034A300D75888
:100DE000524B9F4207D0AF4200D198E00197504B41
:100DF000FB1A2F2B09D9424639003000FFF706FEB7
:100E000003B0C0BCB946B046F0BD3000FFF75AFE93
:100E1000814600213000FFF771FEBFF35F8FEFF3D3
:100E20000581002901D08C4211D10123019C9C43F2
:100E30000022A368AB4212D00622A256002A0DDB84
:100E400053009B189B002200394CE418F1E736212F
:100E5000384B394AFF31394801F05AFD2200AB4284
:100E600056D106256557002D38DB6B005B199A00BB
:100E70002F4B9B189A68A260DA79E27106229A5683
:100E8000A2719B795BB2002B0FDA2D48A0806B001A
:100E90005B199B00264AD3182A4A1178997115705C
:100EA00049463000FFF72AFEA5E7201D6B005B19BD
:100EB0009B001F4A9B181A1D9B88D90A1C2907D121
:100EC0005B055B15023359005118FFF7B7FDDDE7ED
:100ED0001D4B1E4AB121194801F01AFD002912D1FB
:100EE000002A0ED0FF239371194B9380154A137873
:100EF000A371184B0E49641A644163431B0D1370B0
:100F0000CEE70A4FF2E7201D1349FFF7BBFDC7E705
:100F10006A21124B084AFF31084801F0F9FC034FDF
:100F200069E7C046240100D000ED00E0CD010010CB
:100F30005C070020CC010210940202104C00021049
:100F400001BD0000C8640020B4010210B402021008
:100F500001BDFFFFAAAA00009607002000020210B0
:100F600010B5032304009C43064A94466444226857
:100F70001840C000FC3383409A43130081400B4368
:100F8000236010BD00E400E070B5012101432E4B49
:100F9000CB1A2F2B28D8EFF30583002B2BD0EFF3A0
:100FA000108C72B6294A1268002AFBD0BFF35F8FFB
:100FB000274A0400244D641B64416243120D54B25D
:100FC000244A92689B00D2588A421BD00022032AEE
:100FD00032D853009B189B001B49CB189B795BB2FE
:100FE000A3421FD00132F2E7C7211B4B1B4A490025
:100FF0001B4801F08DFC92211A4B184AFF3118480A
:1010000001F086FC134A92681749D150174B1A78A1
:1010100082711C70BFF35F8F0C4B00221A608CF33F
:10102000108870BD0D005300991889006918FF26BB
:101030008E710F4A8A80E9E7D1210E4B074A490099
:10104000074801F065FCC0465C070020240100D081
:10105000AAAA000000ED00E00802021060020210DF
:101060004C00021030020210CD010010C8640020B4
:1010700001BDFFFF3C0202100022044B02E00449C4
:1010800002C30132072AFAD97047C04600E400E0E3
:101090008080808010B5FFF7CDFC01000148FFF78C
:1010A0005DFC10BDDD64002000B583B00100064B7F
:1010B0000093052300220548FFF727FC002801DBE9
:1010C0001F23181A03B000BD44020210DD64002083
:1010D00070B504000E001500FFF78AFC0100200027
:1010E00000F006F8A680E580BFF35F8F70BD0000BA
:1010F000024B9C4661448900016070474000003407
:1011000010B50400FFF774FC01002000FFF7F0FFAA
:10111000FF232371BFF35F8F10BD10B50400FFF7ED
:1011200067FC01002000FFF7E3FFFF23237100238A
:101130006371BFF35F8F10BD70B505000C00080030
:1011400000F000FF0949200000F040FEFFF750FCCE
:10115000074B9C466044800068602C75D0231B06BA
:101160001B786B75A400034BE55070BD7D14001017
:1011700040000034385E00200A4B1A68EFF31081FB
:1011800072B61368002BFCD0BFF35F8F054B1B6852
:10119000BFF35F8F00221A6081F3108840BF0020E8
:1011A000002170472C61002010B5002922D003686F
:1011B0001B7B99421ED8174B9C46614409018368EA
:1011C0009C4661440C684968002A19D003681B7B5F
:1011D0009A4215D883680F488446624412019A18CF
:1011E00010685368020001208B4201D80ED0002005
:1011F000C0B210BD084B094A3C21094801F088FBE8
:10120000054B064A3C21064801F082FBA242EFD87A
:10121000EDE7C046FFFFFF0F000502108007021038
:10122000AC04021010B500291ED0037B99421BD8D4
:101230004B005B18033B0468A4466344002919D0A3
:10124000002A1DD0914221D0002A25D0047BA24241
:1012500022D804685000801803382018817019784B
:1012600000291FD11A7010BD104B114A6821114876
:1012700001F04EFB104B114A6F310E4801F048FB54
:101280000F4B0E4A70210B4801F042FB0D4B0B4AED
:101290007121084801F03CFB044B054A68210548D0
:1012A00001F036FB41701A70DDE7C04624050210DC
:1012B000EC07021040050210A8050210C807021032
:1012C000B4050210C005021070B506000D00140030
:1012D000002914D0002A14D0806873689847002829
:1012E00006D0220029003000FFF79CFF280007E00D
:1012F0002A0021003000FFF795FF200000E01000D9
:1013000070BD0800FCE70000F0B583B00500009256
:1013100001930AAB1C780BAB1F78002C26D0036816
:101320005A7B944207D10123002B19D1002C3BD1C9
:10133000200003B0F0BD002C0CD01A7B944209D8D9
:101340001A6863001B19033BD3189B78002BEBD062
:101350000123E9E73E4B3F4A68213F4801F0D8FAB4
:101360003E4B3F4A67213F4801F0D2FA03689C7B1D
:10137000002CDBD012D01A7B94420FD862001219D5
:10138000033A19688C46624451789973002900D158
:10139000D9730023937053701370C7E72C4B2D4AF9
:1013A00068212D4801F0B4FA002C3AD02B681B7B41
:1013B0009C4236D82C4BE3181B01AA689446634420
:1013C000009A1A60019A5A60089A9A60099ADA603B
:1013D0002E68002C2BD030D0337B9C422DD863005C
:1013E0001B19033B32689446634400229A705A707A
:1013F0001A70717B22003000FFF766FF7073844221
:1014000000D095E7287D009A019B00F027FD061E7D
:1014100001D0002F17D00C9B002B00D188E71E7045
:1014200086E7124B124A3C210E4801F071FA114B2B
:10143000114AA521084801F06BFA054B054A6821BD
:10144000054801F065FA2868210000F03FFFE2E757
:1014500024050210EC07021040050210D805021006
:10146000F8070210AC040210FFFFFF0F0005021086
:1014700080070210A8040210DC070210F0B5DE4657
:1014800057464E464546E0B58BB009900023089379
:101490008200B54BD658370052E0B44BB44A3F21D6
:1014A000B44801F035FAB44BB44A3C21B44801F0D9
:1014B0002FFA002901D1002869D10021404600F00F
:1014C000FBFEA04219D12A686B6806920793AB68AD
:1014D0009846EB689A464346002B14D0002C18D04F
:1014E0003B681B7B9C4214D8631EFA68D35C08934C
:1014F0001B0218433861002015E0A24BA24A8E213E
:101500009F4801F005FAA14B9F4A92219C4801F0A7
:10151000FFF9994B9E4A4121994801F0F9F90023BE
:101520009A46984600207B68BFF35F8F00221A60BE
:1015300086F310884346002B32D1002800D10CE1FD
:1015400000F000FC02000B1EA7DB0020002106902B
:1015500007917868EFF3108672B601680029FCD015
:10156000BFF35F8F396888464C7B002CD7D09AD068
:10157000097B8C4297D8874965182D01B9688C463C
:10158000654428686968801A9941002991DD2A68B4
:101590006B68099800F062FC00239A469846C2E7FF
:1015A000089B1B022343994651461800C04705007B
:1015B0000E007A68EFF3108B72B6136859424B41F4
:1015C000D9B2002BF9D1BFF35F8F002E1EDB002EA6
:1015D00046DD3B69002B47D04B456DD100F0B2FB97
:1015E00002000B1E6EDB52197341002B70DB002BC7
:1015F00072DB002104910131039102945146019163
:10160000414600913800FFF77FFE4CE03B69002B1C
:10161000DDD04B4514D1069A079B521BB341002BDA
:1016200014DB002B16DB002104910131039102949D
:1016300051460191414600913800FFF765FE32E0C6
:10164000554B514AA1214E4801F062F90122524204
:10165000524BE6E7454B464A3F21464801F058F9D0
:10166000002E01D1002DB4D13B68002C50D05A7B04
:10167000944237D1012100294AD1DA7B002A4DD189
:101680009A7B002A03D1DA7B002A5AD19C73DC733F
:10169000002C5CD03B681B7B9C4258D8FA68013C0C
:1016A000135D0133135500233B617A68BFF35F8FED
:1016B00013608BF3108843E7374B334AA42130483B
:1016C00001F026F9294B2A4A3F212A4801F020F946
:1016D00001225242314B8AE7244B254A3F212548BB
:1016E00001F016F9002C0DD01A7B94420AD8620042
:1016F0001219033A1868844662449278002ABAD0D4
:101700000121B8E7264B274A6821274801F000F954
:10171000264B274AF621244801F0FAF8002A0AD07D
:10172000197B8A4207D851008A18033A19688C46F7
:1017300062445470A4E71A4B1A4A68211A4801F00F
:10174000E7F81C4B1A4AFB21174801F0E1F80A4B55
:101750000F4A41210A4801F0DBF80BB0F0BCBB4650
:10176000B246A946A046F0BD385E002068030210CC
:101770004C070210840302100005021080070210BB
:10178000AC040210000602106407021018060210D2
:10179000A4070210FFFFFF0F24060210FFFFFF7FC8
:1017A00024050210EC07021040050210600602102A
:1017B000B80702108406021010B50C4B5B68002BB2
:1017C00004D00A210A48FFF793FC10BD074C230000
:1017D000084A1021206800F07FFC032000F0A6FAE0
:1017E00003212000FFF7A8FCEBE7C046A407002078
:1017F0002C610020A911001010B5064B5B68002B6E
:1018000001D0044810BD044B044A5E21044801F095
:101810007FF8C046A4070020980602108C0702102B
:10182000AC040210F0B5DE4657464E464546E0B5DC
:101830008BB0804616001F00149B9A46159B994654
:1018400016AB1B789B461F2302AA944663440022D2
:101850001A702BE0002809D042461268127B904291
:1018600004D8421E4146C9688A5C41E0404B414A67
:101870004121414801F04CF807984CE0361BAF413C
:10188000002F07DB002F11DA3C4B3D4A3F213D483A
:1018900001F03EF8012676423B4FF3E7374B384ADA
:1018A0003F21384801F034F8002F4FDB43465A6897
:1018B000EFF3108472B6136859424B41D9B20791C5
:1018C000002BF8D1BFF35F8F1F3302AA9446634405
:1018D00004930023039302934B46019353460093D2
:1018E00032003B004046FFF70FFD031EB2D102005D
:1018F00041464968BFF35F8F00250D6084F310886F
:10190000002B29D01F2302A98C4663441B78002B8F
:10191000B2D112021043002B20D05B46002B1DD009
:101920004946D04704000D0003000B431DD0002999
:10193000A4DB00F007FA06000F1EAFDB36196F417B
:10194000002FB1DA012676420F4FADE70B4B0C4A60
:101950003F210C4800F0DCFF012040420BB0F0BCFE
:10196000BB46B246A946A046F0BD0798F6E7C0467A
:1019700000050210A4070210AC0402106803021054
:101980004C07021084030210FFFFFF7FF8B504002C
:10199000002900D162E04268EFF3108572B6136847
:1019A00058424341D8B2002BF9D1BFF35F8FCBB27D
:1019B0002268567BB3421BD10120002848D0206901
:1019C00088422BD0090AC9B2002B2ED02068007B98
:1019D00083422AD8581EE668305C88422BD000200B
:1019E0006368BFF35F8F00221A6085F31088F8BD2B
:1019F000002B0DD0167BB3420AD85E00F618033ECA
:101A00001768BC466644B678002ED6D00120D4E7CD
:101A1000134B144A6821144800F07AFF2C21134B11
:101A2000134AFF31134800F073FF134B134A41214F
:101A3000104800F06DFF1900100000F047FC00286E
:101A4000CED199210E4B0A4A49000A4800F060FFA6
:101A500023698B42C4D100232361C1E70020C6E77C
:101A600024050210EC07021040050210BC0602100B
:101A700034070210AC04021000050210A407021083
:101A8000E0060210407D7047F0B587B006000F00F9
:101A9000EFF30583002B1FD106246442E517A41938
:101AA0007D418D4202D803D1844201D90024002512
:101AB000002D14DB0494059500F044F902000B1E80
:101AC00013DBA41A9D41002D17DC14D0300039001F
:101AD00000F044F907B0F0BD234800F0B3FF234BFA
:101AE000234A3F21234800F013FF204B204A3F2187
:101AF000204800F00DFF002CE8D0FFF77DFE00230A
:101B0000029301931C4B0093049A059BFFF78AFEF6
:101B1000002818DADAE7002300E00023002BD5D1F3
:101B2000164B1A68EFF3108172B61368002BFCD0C5
:101B3000BFF35F8F114B1B68BFF35F8F00221A60EA
:101B400081F3108820BF0499059A0D4B5B6A9A4275
:101B5000E3D80B48806A884203D29A42DBD0012343
:101B6000DCE70123DAE7C046E4060210680302104E
:101B70004C07021084030210791100102C61002020
:101B80000040054070B504000D0000F0DBF80200D5
:101B90000B1E0ADB200029008018594100290ADBAE
:101BA00000290CDBFFF770FF70BD084B084A3F218E
:101BB000084800F0ADFE012040420749F0E7034B22
:101BC000034A3F21034800F0A3FEC0466803021009
:101BD0004C07021084030210FFFFFF7F10B5FA22AA
:101BE00092000023002102F0E3FBFFF7CBFF10BDC2
:101BF00070B584B005000C00EFF30583002B1ED1F7
:101C0000FFF7FAFD002302930193224B00932A0071
:101C10002300FFF707FE061E23DD20BFFFF7ECFDC4
:101C20003100FFF7B3FE1C4B5B6A9C422DD81A4A69
:101C3000926AAA422CD29C4225D0012026E0164B63
:101C40005B6A994209D8144A926A824207D2994241
:101C500001D001201AE0002018E0002016E0012049
:101C600014E00D4B5B6A9C4209D80B4A926AAA4267
:101C700007D29C4201D0012008E0002006E00020AD
:101C800004E0012002E0002000E0002004B070BD6C
:101C90000120FBE7791100100040054070B5EFF31B
:101CA00005801038EFF3108C72B61A4B1B68002BAE
:101CB000FBD0BFF35F8F01221300834016494B63B3
:101CC00016490B60164909780C00C440224214D012
:101CD000114A546A8200134D5259944206D382002D
:101CE000114C125999430E4B197007E00A4A031D13
:101CF0009B0099589950002200E00022BFF35F8FAB
:101D0000044B002119608CF31088002A00D0904702
:101D100070BDC046280100D0004005403C70054021
:101D2000DC6400207C620020EC12002010B5010071
:101D3000024A0348FEF7D0FD10BDC0461808021045
:101D4000C2640020044B5B6A034A906A1900536A1C
:101D50009942F9D17047C04600400540084B5B6A84
:101D600001E0074B5B6A8B42FBD301E0044B5B6AEB
:101D70008B4203D1024B9B6A8342F7D37047C04624
:101D80000040054070B504000D00FFF7DBFF0200C6
:101D90000B0020002900801859418B4202D804D141
:101DA000824202D901204042C117002902DBFFF71D
:101DB000D5FF70BD024B034A3F21034800F0A8FD48
:101DC00068030210DC0802108403021070B50400DE
:101DD0000D00EFF3108672B61B4B1B68002BFBD077
:101DE000BFF35F8F002D1CD02000FEF797FE174B2E
:101DF00083420BD019002000FEF798FE012120003D
:101E0000FEF77CFE0123A340114A1360A400114B8E
:101E1000E550BFF35F8F0C4B00221A6086F31088E9
:101E200070BDA2000B4B0021D1500122A2400A49F3
:101E30000B7893430B7005492000FEF7BBFF002190
:101E40002000FEF75BFEE4E7280100D09D1C001097
:101E500038600540EC120020DC640020F0B5DE465E
:101E600000B584B00400150001921E000293FFF734
:101E700069FF03958E4202D84ED185424CD9EFF3CB
:101E8000108B72B6274B1B68002BFBD0BFF35F8F04
:101E9000254A17780125A540EBB23B431370234B2D
:101EA0005D63221D92000199D150A2002049029841
:101EB00050501B6A2B4212D11C4B1B6C2B4208D07A
:101EC0000020BFF35F8F174B00221A608BF310883E
:101ED00023E0184B184AC521184800F019FDFFF7F8
:101EE00031FF8E4214D802D1039B834210D80E4B8F
:101EF0001B78BB420ED00D4B1D625D631F2004405A
:101F00000123A3400E4A1360074B1F701E38D8E709
:101F10000020D6E70120D4E7012004B080BCBB46F6
:101F2000F0BDC046280100D0DC6400200040054020
:101F30007C6200203C080210C008021060080210F9
:101F400080E200E0EFF3108C72B60B4B1B68002BA5
:101F5000FBD0BFF35F8F01238340084A1362084917
:101F60000A789A430A70BFF35F8F034B00221A600E
:101F70008CF310887047C046280100D0004005400F
:101F8000DC64002010B500291ED0037B99421BD8C9
:101F90004B005B18033B0468A4466344002919D036
:101FA000002A1DD0914221D0002A25D0047BA242D4
:101FB00022D80468500080180338201881701978DE
:101FC00000291FD11A7010BD104B114A6821114809
:101FD00000F09EFC104B114A6F310E4800F098FC47
:101FE0000F4B0E4A70210B4800F092FC0D4B0B4A30
:101FF0007121084800F08CFC044B054A6821054813
:1020000000F086FC41701A70DDE7C046240502101E
:10201000FC09021040050210A8050210E809021090
:10202000B4050210C005021070B506000D001400C2
:10203000002914D0002A14D08068736898470028BB
:1020400006D0220029003000FFF79CFF280007E09F
:102050002A0021003000FFF795FF200000E010006B
:1020600070BD0800FCE7000010B500234373013386
:102070008373037BC3730123027B9A4214D9002B21
:102080000CD0027B934209D85A00D218033A016857
:102090008C4662440133DBB25370EDE70B4B0C4AC4
:1020A00068210C4800F034FC002A09D0924207D87D
:1020B000016853009A18033A8A180023537010BD20
:1020C000024B034A6821034800F022FC2405021059
:1020D000FC0902104005021010B5017342608360D4
:1020E000FFF7C2FF10BD000070B50400081E00D14C
:1020F00070BD002934D0237B994231D84B005B1846
:10210000033B2268944663445A78002AF0D02DD0CD
:10211000237B9A422AD853009B18033B21688C46A4
:1021200063445D7800215970002825D0237B9842B4
:1021300022D843001B18033B21688C4663440021CE
:10214000597001002000FFF76FFF060029002000F2
:10215000FFF7CAFF020031002000FFF765FFC7E765
:10216000084B094A6821094800F0D2FB054B064A92
:102170006821064800F0CCFB024B034A6821034863
:1021800000F0C6FB24050210FC09021040050210F5
:1021900070B505000C00160000292FD034D0037B49
:1021A000994231D84B005B18033B02689446634464
:1021B0005A78002A2ED19A78002A31D11978FFF75F
:1021C00093FF0300002E0AD0EA7B002A2ED1AA7BBF
:1021D000002A03D1EA7B002A3BD1AC73EC73002BBD
:1021E0003DD1002C4FD02B7B9C424CD82B686100FA
:1021F0000C19033C1C190023637070BD254B264A43
:102200003821264800F084FB254B264A68212648C1
:1022100000F07EFB254B204A3A21204800F078FB55
:10222000234B1D4A3B211D4800F072FB002A0AD0B7
:10223000297B8A4207D851008A18033A29688C46BC
:1022400062445470C3E7164B164A6821164800F0E2
:102250005FFB184B104A4221104800F059FB002B3D
:102260000BD02A7B934208D843001B18033B2A68F3
:102270009446634400229A70B3E7094B094A6821E7
:10228000094800F045FB064B064A6821064800F065
:102290003FFBC046F4080210D4090210FC080210EB
:1022A00024050210FC09021040050210500902101A
:1022B000780902108406021070B504000A00457BFC
:1022C0002900FFF765FF6073280070BD70B504003A
:1022D000002967D0437B8B420ED0002911D0037BAD
:1022E00099420ED84B005B18033B0268D0188378E4
:1022F000002B0CD1002056E00121FFF7DDFF01206B
:1023000051E0294B294A6821294800F001FB002BA4
:1023100020D0227B93421DD85A00D318033B226859
:10232000D2182568EB5C8B421AD0002B1BD0227B85
:10233000934218D85A00D318033B2268D218537816
:102340008B4216D0002BF0D11A4B1B4A6B211B4835
:1023500000F0DEFA144B154A6821154800F0D8FA4F
:102360004378137007E0104B104A6821104800F0C2
:10237000CFFA43785370002383704370012220000A
:10238000FFF706FF0200617B814205D02000FFF7C6
:102390004BFE6073012006E0094B074A7121074894
:1023A00000F0B6FA002070BD24050210FC090210EE
:1023B000400502103C020210BC090210FC08021089
:1023C0009C09021070B5046BE30701D4200070BDB6
:1023D00002003032C0239B0113430A4A1A60456A47
:1023E000826AAD01AD18AD02062000F0BDF90649C4
:1023F00001F048FC0100280001F044FC0021FFF737
:10240000C1FCE3E7010300004E0E000070B50400BC
:102410000E001500FFF7D6FF22002C32E16A4E4075
:10242000354080235B0113431D60206370BD0000B5
:1024300070B505000C00062000F096F9C0002100E0
:1024400001F020FCC60908D00E4B9E4216D87F230F
:10245000184001303400460800E001246C62AE628E
:10246000002200212800FFF7D1FF062000F07CF9B0
:102470008000A101891901F005FC70BD0026024C05
:10248000ECE7C046FEFF0000FFFF000010B5053975
:102490004901013AD2001143002B09D002220A431C
:1024A000012B07D0002111436E22FFF7AFFF10BDB3
:1024B0000022F4E70421F6E7002909D00A22064B9E
:1024C0009C466044434258414000044BC25270470E
:1024D00080225200F3E7C0460080FCBFCC6300209E
:1024E00070B505000C00062000F03EF9061E27D04E
:1024F000164B9D4226D08022D203154B1A60154BF5
:102500001A60154B9B6811009943FAD100212800ED
:10251000FFF7D2FF21002800FFF78AFF0600002303
:10252000012208212800FFF7B1FF2A002C32802366
:102530009B01134310221A60084B2B630323AB64E7
:10254000300070BD80221204D7E7C04600800340EF
:1025500000E0004000F0004000C000400103000027
:10256000F8B5DE4657464E464546E0B505000F0035
:1025700092460A9A934250D31A0E91461E020A9A24
:1025800000233000494601F0BBFB80466C00641913
:10259000A400304B9C4664446368834200D2606070
:1025A0002B1FDBB29B46012B3DD9C0239B0123434C
:1025B000802212011A60AB00274A9958002907D0DF
:1025C000506901F05FFB431C5800C0180338FDD26E
:1025D00053465A0123685A40E0231A4080235B0186
:1025E00023431A605A46012A28D980239B0123439A
:1025F000802212011A604346636042460023300085
:10260000494601F07DFBAD00134B58510120F0BC51
:10261000BB46B246A946A046F8BD104B104A33212E
:10262000104800F075F9012FBFD1C0239B0123434F
:1026300003221A60A368DB07FCD5C9E7216879404B
:1026400003220A401A60A2680123BB401342FAD059
:10265000CBE7C046008000407C1D0020080A021025
:102660007C0A02101C0A021030B583B00C2000F066
:1026700011F9FEF711F900280DD0002304E09900AC
:102680002D4A2E4888500133092BF8D92A4B2C4A61
:102690005A6203B030BD2B4B00229A6700F002F95A
:1026A000294B01221A60274B5B6C012BFBD1274B76
:1026B00003221A60234B9B6B012BFBD10133009348
:1026C0000433234A0121234800F054F805230093E2
:1026D000214A0121214800F04DF8214B00930022AE
:1026E00002210420FFF73CFF1E4D00952B00002225
:1026F00001210520FFF734FF104C00942300002235
:1027000000210720FFF72CFF009423000022002166
:102710000820FFF725FF0A4B009323000022002129
:102720000920FFF71DFF00952B0000220021062045
:10273000FFF716FFADE7C0467C1D0020006CDC02F1
:102740001BB70000008000403CB0004030B00040AB
:10275000002F685900800240008C864700C002406C
:10276000001BB700405973078000014BC0587047E9
:102770007C1D0020F0B5C64600B504000E00170011
:102780001D00374801F07EFA8046364BFA18364B6A
:102790009A4239D80100380001F074FA0200103A68
:1027A00098235B009A4235D86B1E062B38D8069BBF
:1027B000013B062B34D83F09474537D32D04069BF0
:1027C0001A0315432368002B36DB284B9C4244D068
:1027D00080225201264B1A60264B1A60264B9B68BA
:1027E00011009943FAD12660A060231DC0229201F6
:1027F0001A43212313602368002BFCDAE5600823C9
:10280000136080BCB846F0BD1C4B1D4A11211D4809
:1028100000F07EF81C4B1A4A19211A4800F078F88B
:102820001A4B174A1C21174800F072F8184B144A2B
:102830002321144800F06CF822683F231340B34270
:10284000C3D1A3681B051B0D8342BED1E368EE22F2
:10285000D2021340AB42B8D1D3E780229201B9E74C
:10286000001BB70080E84BD380F8A93200C00240BB
:1028700000E0004000F0004000C000408C0A021060
:10288000CC0B0210EC0A0210480B0210640B021071
:10289000B00B021080239B000343014AD3627047B0
:1028A00000800540064BAA2212011A602F22DA602E
:1028B000044B054A1A60024B5B68002BFBDA704739
:1028C000004002400060024000B0FA0000BEFDE798
:1028D00003000A4A1268002A08D0084A1068C31880
:1028E000074A9A4206D3054A13607047034A0549CE
:1028F0001160F2E701204042F7E7C046B8530020DC
:1029000000000420E064002010B5FFF7DFFF0000A6
:1029100010B582B00C001900002A0CD0084B002A18
:102920000BD00192009323000200064801F072FFD1
:102930000120FFF7CBFF044BF1E7034AF1E7C04664
:10294000D80B0210E80B0210243D061070B52B4B7B
:102950002B4A1A602B4B2C4A1A602C4B9A682A4B34
:102960009343FAD12A4C01E008CC9847294B9C426A
:10297000FAD3FFF779FE234B274A1A60234B9B6853
:10298000DB43DB01FAD1254B40229A675A671A676D
:10299000DA66234C09E0234B234A87212348FFF7BB
:1029A000B7FF2000FEF7ACFB0834214B9C4209D254
:1029B0002368002BF5D0012BEDD12000FEF7ADFBF5
:1029C0000834F2E71B4CA1681B4DC022280001F01F
:1029D00089FDA560EFF30583002B00D000BEFDF755
:1029E000DDFFFEF749FBFEF7E7FE144C01E008CCE3
:1029F0009847134B9C42FAD370BDC04600E000409C
:102A0000BFCDFBFE00F00040FE7F3C0000C0004058
:102A10001811002028110020FFFFFF0100F00140E5
:102A200010110020180C0210B80C0210380C021003
:102A30001811002000ED00E0000000202811002007
:102A4000301100200FB400B583B0084801F0B2FE89
:102A5000049B002B07D005A90191180001F0BAFED4
:102A6000034801F0A7FE0120FFF730FF980C021089
:102A7000C419061010B50148FFF7E4FFA80C0210B6
:102A8000704710B5002802D00B684968984710BD00
:102A90000100002007E083001B185B00501C086049
:102AA0001078C01830380A681378303BDBB2092B35
:102AB000F1D97047F0B5DE4657464E464546E0B57B
:102AC00083B093461F000C9B9A460D9C0E9B994623
:102AD0000F9B9B0703D0B8460F00060022E001922F
:102AE000A34688464E46B9460700B44207D2551C55
:102AF0004B4641462020B84701342A00F5E73D0007
:102B00004F465C46019B9B46B1464646B846370059
:102B10002E0007E0013C551C5346185D4346390022
:102B2000B0472A00002CF5D135003E0047460F9BE8
:102B30009B0707D4100003B0F0BCBB46B246A946C1
:102B4000A046F0BDB0464E46B9462F005D46531B29
:102B5000B342EFD2541C4B4641462020B8472200D6
:102B6000F5E7F0B5CE46474680B585B09446984621
:102B70000C9D0D9C0EAB1B789946109A119B129ED2
:102B8000B7071CD4002B0CD0F7070AD54F46002FEF
:102B900002D10C37374204D0013B02E030272F55D9
:102BA0000134944201D21F2CF8D9F70707D59C4273
:102BB00005D21F2C03D830272F550134F5E7F7062F
:102BC00015D5770505D4002C03D0944224D09C421F
:102BD00022D00F9A102A2BD00F9A102A30D00F9A99
:102BE000022A35D01F2C02D830222A5501341F2C3E
:102BF00005D84A46002A31D02D222A5501340396A1
:102C000002930194009543466246FFF753FF05B0D7
:102C1000C0BCB946B046F0BD621E012C06D00F9F65
:102C2000102F01D01400D4E7023CD2E71400D0E703
:102C3000B206D1D41F2CCFD878222A550134D1E73F
:102C4000B206CCD51F2CCAD858222A550134C9E760
:102C50001F2CC7D860322A550134C3E7720703D549
:102C60002B222A550134CAE73207C8D520222A551B
:102C70000134C4E7F0B5DE4657464E464546E0B55A
:102C800093B081468A46089209931CAB10CB1B78FF
:102C90009B461E9D219B9846002C03D11023424643
:102CA0009A4390468023DB0046461E4042461A4225
:102CB00012D0002C22D000260EE03033D9B2771C7F
:102CC0000AAB99552900200000F0DCFFAC4216D376
:102CD0001F2F14D83E0004002900200000F0D2FF6E
:102CE000CBB2092BE9D94246920605D54121C91834
:102CF000C9B20A39C9B2E2E76121F8E727004346C1
:102D00000693209B05931F9B049303955B460293B8
:102D100001970AAB0093099B089A51464846FFF772
:102D200020FF13B0F0BCBB46B246A946A046F0BD9A
:102D3000F0B5DE4657464E464546E0B595B008909C
:102D400009910A920B931E9E1F9C20AB1B789B46F9
:102D5000229B9946239D269B9A463300234303D109
:102D6000103352469A4392468023DB0057461F4059
:102D700052461A4219D0330023432DD0002714E0C5
:102D80003033DAB27B1C98460CABDA554A462B003E
:102D90003000210000F0B4FFA5421FD819D04346EF
:102DA0001F2B1BD8474606000C004A462B0030005C
:102DB000210000F0A5FFD3B2092BE1D952469206BB
:102DC00005D54122D218D2B20A3AD2B2DAE761224C
:102DD000F8E7B145E3D901E000239846534606934E
:102DE000259B0593249B04934B4603935B460293D8
:102DF000434601930CAB00930B9B0A9A09990898E0
:102E0000FFF7AFFE15B0F0BCBB46B246A946A046E0
:102E1000F0BD0000F0B5DE4657464E464546E0B5EB
:102E200091B083468A460C9298461A9C08941B9D42
:102E3000099522002B002000290001F0DCF9002870
:102E400000D0E5E001225242D74B2000290001F0DA
:102E5000CDF9002800D0DBE001225242D34B200004
:102E6000290001F0ADF9002800D0D1E000220023B4
:102E7000089E3000099D290001F0A2F9002800D029
:102E8000DDE008980999069007918023DB001E9ADF
:102E90001A400D921E9A1A4201D106231C930698DD
:102EA000079904000D000A000600024300D1D1E09A
:102EB000080D4005400DBE4CA44660440A03120BA9
:102EC000BC4B13431F0001F0A9F9BB4ABB4B01F0F7
:102ED00038F9BB4ABB4B01F015F904000D00002284
:102EE000B94B3000390001F008F9B84AB84B01F08D
:102EF00028F902000B002000290001F003F901F07D
:102F0000A5F9814601F08AF904000D00B14AB24BDF
:102F100001F017F90022B14B01F0F4F801F096F935
:102F20000600AF4AAF4B2000290001F00AF9040067
:102F30000D00300001F072F9AB4AAC4B01F001F921
:102F400002000B002000290001F0D7F804000D005A
:102F500002000B0001F0F5F80A900B91A44BF31856
:102F600000261F0522002B002000290001F0CAF8CE
:102F70000E900F9122002B0000208021C90501F046
:102F8000BCF804000D0000229A4B0A980B9901F03E
:102F9000BEF80022984B01F0B5F802000B000A9829
:102FA0000B9901F0B4F80022944B01F0ABF8020049
:102FB0000B000A980B9901F0AAF802000B00200000
:102FC000290001F09FF802000B000E980F9901F004
:102FD0009EF80022774B01F095F832003B0001F09B
:102FE000B0F806000F0004000D00069A079B01F0E0
:102FF000FDF8002830D001235B429C46E1440022CA
:103000007D4B3000390001F082F804000D0023E010
:103010001E9B04931D9B03931C9B0293089A099B80
:103020000092019343460C9A5146584600F0FCF832
:1030300011B0F0BCBB46B246A946A046F0BD002385
:10304000002406930794069680231B069C4665443D
:1030500007951AE7002399464B466333C62B1ED8C3
:1030600004261E9B1B0526D52B0023430FD0644A44
:10307000644B0698079901F0B1F8002879D0002236
:10308000614B0698079901F09BF8002871D01C9BB2
:103090004B4506DD4A46981A431E1C9303E005265D
:1030A000DFE700231C938023DB001E9A1A431E9245
:1030B0000026002399461D9B9E4264D29F1B02233B
:1030C0001E9A1A400A921E9A134202D0002E00D075
:1030D00000274B46002B07D022002B0006980799AB
:1030E00001F015F80690079100220023089809992D
:1030F00001F066F8002848D1444B1E9A134004930F
:1031000003971C9B0293069B079C009301944346E4
:103110000C9A5146584600F087F8002E00D187E7F8
:103120001E9B9B063DD54525441C43460200514647
:103130002800D8474B46DA179B18534005220592C2
:10314000013E0496002203920A3202924A46D00FB0
:10315000019000934346220051465846FFF78AFDEE
:103160000A9B002B00D163E702005F460C9E1D9D69
:1031700054E01C9B002B9ED00D9B002B9BD01C9BD6
:10318000013B1C9397E7002799E7069C079D2200C7
:10319000290080200006844661440B0006920793B4
:1031A000AAE76525C0E7C046FFFFEF7FFFFFEFFFFF
:1031B00001FCFFFF0000F03FFB799F501344D33F19
:1031C000B3C8608B288AC63F0000F83F61436F6335
:1031D000A787D23F71A379094F930A400000E03FCF
:1031E0001655B5BBB16B0240EF39FAFE422EE63FF1
:1031F000FF03000000002C400000244000001840A5
:103200002D431CEBE2361A3F80842E41FFF7FFFF6F
:10321000541C434651462020B8472200931BAB4222
:10322000F6D3100004E7C046F0B5DE4657464E46DA
:103230004546E0B595B00690079193469946209F84
:103240001E9A1F9B1000190000F0D5FF002831D1F5
:1032500001225242BF4B1E981F9900F0B1FF002877
:1032600037D101225242BC4B1E981F9900F0BEFF7D
:1032700000283DD10022B94B1E981F9900F0B6FFDF
:10328000002850D10022B64B1E981F9900F098FFDD
:10329000002848D1002200231E981F9900F090FFBB
:1032A000002850D100239846229B5B0500D4B6E04D
:1032B000002458E0229B0393219B02930323019354
:1032C000A84B00934B465A4607990698FFF7F2FB26
:1032D0000EE1229B0393219B029304230193A24BB3
:1032E00000934B465A4607990698FFF7E3FBFFE029
:1032F0000423229A1A4022990B4210D09B4B002A99
:103300000FD00422229903912199029101920093F6
:103310004B465A4607990698FFF7CCFBE8E0944BDA
:10332000EDE70322EEE7229B0493219B0393029790
:103330001E9B1F9C009301944B465A460799069882
:10334000FFF768FDD4E01E9A1F9B0020002100F0CB
:10335000D4FE1E901F9101239846A5E70CAB3022A6
:103360001A55013F01341F2C01D8092FF6D81E9899
:103370001F9900F06BFF050000F050FF02000B00EA
:103380001E981F9900F0B9FEFA007A4B9B181A6834
:103390005B680A920B9300F0D4FE0890099100F04C
:1033A00079FF060000F036FF02000B00089809992B
:1033B00000F0A3FE0890099100226F4B00F016FF69
:1033C00000282ED00136300000F024FF02000B0050
:1033D0000A980B9900F0FAFE002801D0013500266A
:1033E000002F2CD1280000F019FF02000B001E98BE
:1033F0001F9900F082FE06000F0000225E4B00F0D5
:10340000DFFE002846D100225B4B3000390000F07F
:10341000EDFE00283ED1EB073CD501353AE006270A
:1034200046E70022544B0898099900F0C9FE00288D
:10343000D6D1002E01D0F307D2D50136D0E7AA4667
:103440001F2C11D8013F0A21300000F01BFC651C25
:1034500030310CAB19550A21300000F013FC092E55
:103460000ED906002C00EBE755461F2C0CD87B1E0E
:10347000002F09D00CAA302111551F000134F4E7A8
:103480002B0055461C00F0E71F2C03D80CAB2E2256
:103490001A5501341F2C10D80A21280000F0CAFB4D
:1034A000661C30310CAB19550A21280000F0C2FB14
:1034B000051E01D03400EDE734000323229A1340A7
:1034C000012B1CD01F2C06D84346002B32D00CAB4E
:1034D0002D221A550134229B0393219B02930194C0
:1034E0000CAB00934B465A4607990698FFF7E2FA51
:1034F00015B0F0BCBB46B246A946A046F0BD219B24
:10350000002B13D04346002B02D10C3313420FD0B3
:10351000219B013B2193190003E00CAB30221A558B
:1035200001348C42CED21F2CF7D9CBE72199F8E792
:103530002199F6E7229B5B0704D50CAB2B221A5589
:103540000134C8E7229B1B07C5D50CAB20221A55B6
:103550000134C0E7FFFFEFFFFFFFEF7F65CDCD41F7
:1035600065CDCDC1D40C0210D80C0210CC0C0210C9
:10357000C80C0210C00E02100000E03FF0B5DE469D
:1035800057464E464546E0B593B082468B46904638
:103590001193002900D1EBE200275546119B1878C2
:1035A000002800D1E7E2252809D07C1C43463A00D8
:1035B0005946A847119B013311932700EEE70133C9
:1035C00011930024119A11780B00203BD8B21028D7
:1035D00003D88300D048C3589F460B00303BDBB272
:1035E000092B2CD92A292FD000230A93119B1A7852
:1035F0002E2A39D000239A46119A1378683BD9B203
:10360000122976D88B00C549CB589F4601231C430D
:1036100001321192D6E702231C4301321192D1E705
:1036200004231C4301321192CCE708231C430132CE
:103630001192C7E710231C4301321192C2E711A86F
:10364000FFF726FA0A90D1E71C9B1A1D1C921868F6
:10365000002804DB0A90119B01331193C6E7022373
:103660001C4343420A93F6E78022D20014435A1CBB
:1036700011925A781300303BDBB2092B04D92A2A65
:1036800007D000239A46B7E711A8FFF701FA824650
:10369000B2E71C9B1A1D1C921868002804DB8246A6
:1036A000119B01331193A7E70020F8E780235B000B
:1036B0002343511C119152786C2A01D01C0018E050
:1036C000C0239B001C430131119112E0802323434E
:1036D000511C11915278682A01D01C0009E0C023C6
:1036E0001C430131119104E080235B001C43013233
:1036F0001192119B18780300253BDAB2532A00D9A6
:103700002CE29300864AD3589F4680239B001C439B
:1037100001321192EDE780235B001C4301321192CC
:10372000E7E7782809D0582838D06F2838D06228A1
:1037300038D010239C430A2600E01026582833D0A6
:10374000692803D0642801D00C229443630501D575
:103750000122944369282AD0642828D0A30500D5E3
:103760009FE0E30500D5B8E0630600D4CAE01C9AE8
:10377000111D1C911168FF220A4005940A9B0493B5
:1037800053460393029600230193009243463A0066
:1037900059462800FFF76EFA070027E01026CDE70C
:1037A0000826CBE70226C9E720221443C8E7A30571
:1037B00020D4E30550D4630666D51C9A111D1C91D4
:1037C0001168FF220A40D317D118594005940A9B6B
:1037D0000493534603930296D20F019200914346FD
:1037E0003A0059462800FFF745FA0700119B0133BC
:1037F0001193D3E61C9BDA1D07218A43110008317F
:103800001C91116853689C46DB170C930D930C9A1E
:103810000D9B100048400E90624653400F930E9847
:103820000F990C9A0D9B801A99410E900F91089454
:103830000A9B079353460693049600230593634619
:10384000DA0F02920090019143463A00594628004F
:10385000FFF76EFA0700C9E71C9A111D1C91126848
:10386000D317D118594005940A9B049353460393E8
:103870000296D20F0192009143463A005946280021
:10388000FFF7F8F90700B1E7230605D51C9A111DCB
:103890001C910023D25E96E71C9A111D1C911268A0
:1038A00091E71C9BDA1D07218A43110008311C9106
:1038B00008940A9B079353460693049600230593A6
:1038C0000293136854680093019443463A005946A2
:1038D0002800FFF72DFA070088E71C9A111D1C919C
:1038E00005940A9B04935346039302960023019385
:1038F0001368009343463A0059462800FFF7BAF987
:10390000070073E723060DD51C9A111D1C91126840
:103910001204120C31E7C046E00C0210240D021014
:10392000700D02101C9A111D1C91126825E7462883
:103930001AD01C9B0733072293431A0008321C92AB
:1039400004940A9A0392524602925C681B680093A0
:10395000019443463A0059462800FFF765FC0700EA
:10396000119B0133119319E620231C43E1E76728DB
:1039700001D0472802D180231B011C43452801D0D8
:10398000472801D120231C431C9B07330722934364
:103990001A0008321C9204940A9A03925246029228
:1039A0005C681B680093019443463A00594628001E
:1039B000FFF730FA0700119B01331193EEE5022364
:1039C0001A002240924623421FD001241C9B1A1D3C
:1039D0001C927A1C9146187843463A005946A847EB
:1039E0005346002B16D1119B013311934F46D5E559
:1039F000561C434659462020B847230032005C1C21
:103A00009D42F5D83D001700E0E701233A002F0062
:103A10000A9DF4E74A46A9460A9D06E0571C43461C
:103A200059462020C84734003A00661CA542F5D804
:103A30004D469146D7E71C9B1A1D1C921B68994660
:103A40005346002B00D1013B4E4601E001361300E6
:103A50003278002A02D05A1E002BF7D14B46F21AB8
:103A600010928023DB0026001E401C4203D05245EA
:103A700001D95346109302231A0022400B9223428D
:103A800005D03A0037004C46A946554620E03A009A
:103A9000109B5F46B3462E0006E0551C4346390096
:103AA0002020B04723002A005C1C0A999942F4D8D0
:103AB00035005E46BB46109437004C46A946554635
:103AC00006E01D000134561C43465946C8473200E3
:103AD0002078002804D0002FF4D06B1E002DF0D1E8
:103AE00017004D460B9B002B03D1119B0133119303
:103AF00054E50A9F109B06E0561C43465946202079
:103B0000A847230032005C1C9F42F5D81700ECE761
:103B100021231C431C9B1A1D1C921B6800930594B7
:103B20000823049353460393102302930023019325
:103B300043463A0059462800FFF79CF80700119BBE
:103B4000013311932AE57C1C43463A00594625204F
:103B5000A847119B0133119327001FE57C1C4346A6
:103B60003A005946A847119B01331193270015E5E8
:103B70000A4B9A4610E5AA46474502D343465A1EC9
:103B800000E03A00434659460020D047380013B0C1
:103B9000F0BCBB46B246A946A046F0BD812A001043
:103BA00000B585B0029003910121009313004A42B1
:103BB00002A90248FFF7E2FC05B000BD832A00100D
:103BC00001480421014B1847D0070020FD3B00109D
:103BD000014B9B6818470000D007002010B501007A
:103BE00018231B8814221088984710BD10B50100B7
:103BF00018231B8816221088984710BDF0B5C646BA
:103C000000B507000E0000250123984600E00135AD
:103C1000B5420AD2AC003C192068FFF7DFFF2060F4
:103C20000028F4D100239846F1E7404680BCB8460E
:103C3000F0BD0000124A936F9B0815D29066D166C2
:103C4000002905D0FFE7FFE7FFE7516F106F7047CE
:103C500004B580210906C2175140002800D0C8438E
:103C60001BF02EFE002104BDF0B5146E556E576F8B
:103C7000166FFFF7E3FF1466556657671667F0BDCA
:103C8000000000D0114A936F9B0813D21066516652
:103C9000002905D0FFE7FFE7FFE7516F106F70477E
:103CA00004B5002801D00020C0431BF009FE00210C
:103CB00004BDC046F0B5146E556E576F166FFFF712
:103CC000E5FF1466556657671667F0BD000000D023
:103CD00094464A4A926F9208624601D228E0C04652
:103CE000F0B5464E346E756E776F366F00F020F883
:103CF0009446424A14665566576716676246F0BD99
:103D000094463E4A926F9208624601D254E0C04601
:103D1000F0B53A4E346E756E776F366F00F04CF832
:103D20009446364A14665566576716676246F0BD74
:103D3000002B24DB11D000293EDA00B5C9434042F4
:103D400000D1013100F038F8C943404200D10131BF
:103D5000DB43524200D1013300BD002AEBD10028E1
:103D600001D1002905D00020C90FC90701D1C043E6
:103D7000410800B51BF08CFD0022002300BD00B5FA
:103D800000290ADBDB43524200D1013300F014F872
:103D9000C943404200D1013100BDC943404200D176
:103DA0000131DB43524200D1013300F005F8DB431F
:103DB000524200D1013300BD002923D1002B18D17C
:103DC000002A0CD0BC460D4F38667A6600210023CD
:103DD000FFE7FFE7FFE77A6F386F67467047002815
:103DE00001D00748010000B51BF052FD002200235E
:103DF00000BD02000B00002000217047000000D031
:103E0000FFFFFFFF002B00D0BFE0130C28D1002ADA
:103E1000E7D080B4114F39667A66FFE7FFE730B428
:103E2000040C7B6F396F1B0423433B667A66FFE704
:103E3000FFE7FFE7C04684B27B6F3D6F1B0423435F
:103E40003B667A66FFE7FFE7C04600232C042D0C93
:103E50007A6F386F00196941B0BC7047000000D01C
:103E6000F0B594460025140E01D112020835140F46
:103E700001D112010435940F01D192000235D40F03
:103E800001D152000135D40B0134254F7C66254CFD
:103E90003C660E0C93B2FFE7FFE7FFE73C6F66431B
:103EA000360C7703BE467343DF0B5B04C01AB9417F
:103EB000130C7343DB18C91ACE086643360CB6449C
:103EC00093B273431F0F1B01C01AB941130C734304
:103ED0001F0B1B05C01AB941860D8F023E43664376
:103EE000360C092D24DB520A7243801A7703460AE6
:103EF0006643360C16235B1BDE40DF40BF19644669
:103F00006643821B7046043506330100D940A84041
:103F1000C01900D30131A24206D20023F0BD000037
:103F2000000000D0FFFFFFFF121B0130F3D3F1E7C9
:103F300009277F1BFE406446A2B27243801A00D25A
:103F40000139220C7243130C1204821A99410B009E
:103F50007046043513370100F940A840801900D39A
:103F60000131002B02D1A2420AD2F0BD013000D3B0
:103F70000131121BFAD2013BF8D1A24200D2F0BDAE
:103F8000013000D30131121BF7E7F0B51C0C00D053
:103F900080E00CB400251C0A04D11B02160E33432A
:103FA000120208351C0B04D11B01160F33431201FA
:103FB00004359C0B04D19B00960F334392000235CD
:103FC000DC0B02D192185B4101351C00971864414B
:103FD0000134464F7C66464C3C660E0CFFE7FFE71B
:103FE000FFE7C0463C6F6643360C7703BE4697B288
:103FF0007743C01B00D20139C01B00D201399FB2E8
:104000007743C91BC91B170C77437E04FF0B801B2A
:10401000B941CE086643360C0C2D33DBB644120B87
:104020001F053A431B0B97B27743C01B00D20139DF
:104030009FB27743C91B170C77433E043F0C801B8C
:10404000B941860D8F023E43664329277F1BFE4000
:104050000C3D7746AF40BF1930BCA2B2ABB2724341
:104060007343801A9941220C7243130C1204801A74
:10407000994102000B000137001BA941F9D2781EBB
:104080000021F0BD0C277F1BFE4077467F0BAF4021
:10409000FF19E0E700245D1C07D0144F7D663966E8
:1040A000FFE7FFE7FFE7FFE73C6F95B29EB265438E
:1040B0006643401BB141150C1E0C65436643360434
:1040C0002F0C3E432D04401BB141994204D2020003
:1040D0000B0020000021F0BD01D19042F7D3801ADF
:1040E000994101349942F2D3F6E70000000000D074
:1040F000FFFFFFFF48404140484018B4134B5B6846
:10410000019308BD18B4114B1B68019308BD944678
:104110000F4A926F920805D2624618B40B4BDB68C7
:10412000019308BD0A4AF0B5146E556E576F166FAD
:104130006246FFF7F2FF064A146655665767166730
:10414000F0BD18B4014B9B68019308BDDC5E0020F4
:10415000000000D0FFB550404240504059404B4015
:10416000594000E0FFB5154F4C00640D03D0BC4230
:1041700004D10C0314D80020090D09055C00640D5E
:1041800003D0BC4204D11C030AD800221B0D1B051E
:1041900001264B4009D44B4003D58B4200D18242CB
:1041A000FFBD9942FCD19042FFBD0B43DB18034396
:1041B0001343F5D0C9434918FFBD0000FF070000B5
:1041C00000B5FFF7CFFF804100BDC04600B5FFF747
:1041D000C9FF01D9002000BD012000BD00B5FFF7D7
:1041E000B9FF01D9002000BD012000BD00B5FFF7D7
:1041F000B1FF804100BD012040054A00121804D8DB
:104200005A00121801D80020704701207047002082
:10421000704700000021002805D17047C1174840B1
:10422000401AFAD0C90713B5064B1B6898470CBC57
:10423000441CA2401005120B0349091B0905194330
:10424000114310BD146000201F04000010B54C0085
:10425000620D8023D218DB00D21A5B057E2A10DDA6
:104260009E3A13DACC170903490819435242D14048
:10427000640001341532202A05DAD0400843604337
:1042800010BD002010BD0846604310BDC80FC01807
:10429000013810BD18B4024B5B6A019308BD0000E1
:1042A000DC5E002010B50148FEF7CCFB100F0210B9
:1042B00070B513231C78012C14D0012C14DC022CB3
:1042C00002DC1F4A1F4B9A641F48FFF787FC1F4BF5
:1042D000186070BD99001E481A4A885001331F2B80
:1042E000F8D9EAE70023FAE71A48FFF77FFC050050
:1042F0001948FFF77BFC023803789B007F2B19DD00
:10430000802229000F4800F0EDF8022CD7D1134B82
:104310001A88B5231B029A4209D1114B1A88114BF6
:104320009A4204D1104B1A88104B9A42C7D00020F1
:10433000FEF788FB0E4B0F4A32210F48FEF7E8FAD2
:104340007D430010DC5E00204C3300001460002030
:10435000A5420010534400005346000054380000AA
:10436000D8380000494600009C380000594600003B
:10437000280F0210E00F02107C0F021007B56046F4
:10438000002800D100BE01880A0A0230DF2AFAD1D3
:10439000C9B2820804D3028840880004104300E0B8
:1043A0000068024A5050039007BD0000DC5E002008
:1043B00051434343C9188C46110C83B24B4310B48C
:1043C000040C614392B280B2504362431C041B0C44
:1043D000001910BC59411304120CC018514161441A
:1043E0007047000010B50148FEF72CFB243D061075
:1043F00070B513231E781848FFF7F8FB0500012E4F
:1044000011D0012E09DDAB1E1B789B007F2B1DDD1B
:1044100080222900114800F065F81148FFF7DEFB03
:10442000104B186070BD542201000C4800F05AF87F
:10443000002300E001331F2BE3D89A00074C1259E8
:10444000002AF7D19A0008481051F3E7074B084AB1
:1044500042210848FEF75CFA53460000186000202D
:104460004C33000014600020E5430010F40F0210EC
:104470008C1002102810021010B504001AF0E0FC95
:10448000002804D00419034B9C4200D810BD0248F8
:10449000FEF7D8FA00000420A010021010B50C009E
:1044A0001AF06EFC002804D00419034B9C4200D87B
:1044B00010BD0248FEF7C6FA00000420A01002104A
:1044C00010B51AF0C7FC10BD01480421014B184774
:1044D000E0070020FD3B0010014B1B68184700005F
:1044E000E0070020014B5B6818470000E007002050
:1044F00010B50300080011001B68984710BD0000AC
:10450000F8B507000D001600437D002B02D00024F3
:1045100000200CE003681100280098472DE03B7D47
:1045200010E0022115483B689847601C0134B442F2
:1045300014DA002CF3DD2B19013B1B780D3B5A429A
:104540005341DBB22A5D0A2AF0D1002BEED1A04202
:10455000E7DA211A28183B689847E2E7B04203DA05
:10456000311A28183B689847002E06DDAD19013D29
:104570002B780D3B5A4253413B75F8BD2C1202106B
:1045800070B505000368002B16D00C4B1C6805E0C5
:10459000290004C92000FFF7B3FF2469002C09D0CB
:1045A0002368002BF9D0064B1B68002BF0D0A342E8
:1045B000F3D1EDE700232B6070BDC04660270020DB
:1045C0007827002070B505000C000B68802B05D003
:1045D00021684B1C23606418257170BD0800FFF72B
:1045E000CFFFF5E7F0B583B007000E00009201930E
:1045F00028E0A368002B04D0310038009847002839
:1046000027DC2469002C06D0134B1D68002DF0D048
:10461000A542F6D1EDE70099019A104B5B6A9A42E8
:1046200009D80E48806A88420FD29A4201D00123ED
:1046300002E0002300E00023002B08D1012000212C
:10464000FDF7A0FB064B1C68DCE70123F4E7012023
:10465000404203B0F0BDC04678270020004005402E
:104660006027002010B5FDF76DFB02000B1E0BDB71
:104670000D48002112184B41002B0BDB002B0DDBEA
:104680000A481BF035F910BD094B0A4A3F210A4878
:10469000FEF73EF901225242084BEFE7044B054A70
:1046A0003F210548FEF734F940420F001011002069
:1046B000680302101412021084030210FFFFFF7F30
:1046C00010B502481BF0DCF810BDC04610110020E8
:1046D000F0B5CE46474680B583B006000D00904643
:1046E0001C00FFF7BFFF81466B1C05D0002C08D0D3
:1046F000194F1A4B1C6807E030001AF013FF050031
:10470000F4E7174FF5E72469002C17D02368002B36
:10471000F9D0144B1B68002B01D0A342F3D12A001F
:1047200031002000B8474346002BECD06B46D91D22
:104730000A230B7001222000B847E4E74B46002B08
:1047400007D16B1E9D41E8B203B0C0BCB946B0466C
:10475000F0BDFFF7B5FFF4E7F1440010602700203B
:104760000145001078270020094A01E010331A00A3
:104770001368002B08D08342F8D1002907D10369C0
:1047800013600023036102E0002900D0106070472D
:104790006027002010B5064B1C6801E0984724698B
:1047A000002C03D06368002BF8D1F8E710BDC04699
:1047B0006027002070B505001AF0B4FE0400002345
:1047C000012201002800FFF783FFFFF7E3FF20002D
:1047D00070BD000070B5A2B004000E00FFF742FFEC
:1047E0000500002301933300220001A90848FFF7C8
:1047F000D7F9040001A8FFF7C3FEFFF7CBFF002D98
:1048000002D1200022B070BDFFF75AFFF9E7C04681
:10481000C54500100FB400B583B004A901C90191CA
:10482000FFF7D8FF03B008BC04B0184710B500F07C
:104830004DF9012010BD000030B583B00400002503
:10484000FDF780FA02000B1E10DB12196B41002BE2
:1048500012DB002B14DB012101A8FFF7C3FE0028A7
:1048600002DB13D001AB187803B030BD0B4B0C4A00
:104870003F210C48FEF74CF8012252420A4BE8E770
:10488000064B074A3F210748FEF742F89E21074B97
:10489000074A49000748FEF73BF8C0466803021084
:1048A0001412021084030210FFFFFF7FE0060210C3
:1048B00000120210A411021070B506000D00074B83
:1048C0001C6803E02900300098472469002C03D0BD
:1048D000E368002BF6D1F8E770BDC04660270020E2
:1048E000F0B583B005000E0000240FE06B46D91D23
:1048F0000D230B700020002816D193699B06FCD471
:104900000B78136001300131F5E70134B44219DA54
:104910000D4B1A682F5D0D4BD31859424B415B006C
:104920000B495B5EBB42E1D06B46D91D0F70002086
:104930000028EAD193699B06FCD40B781360013000
:104940000131F5E703B0F0BDD06300200080FCBF6B
:10495000CC630020F0B583B006000F00002504E012
:104960006B4607331B782B702500BD4215DA174BB9
:104970001A6893691024210019401C420DD16C1C47
:1049800075196B46D81D0029EAD19369DB06FCD462
:104990001368037001310130F5E70D4B1B68002BE4
:1049A0000CD00A4B1A685023936311003431536BB7
:1049B00038221A4080235B010B431A60002D02D07D
:1049C000280003B0F0BD033DFAE7C046D0630020E5
:1049D000741D002010B5064B1B68002B06D0054A3D
:1049E000126800219163044A1068984710BDC046C0
:1049F000741D0020D0630020781D002070B50400D5
:104A00000E001C4B1B681C4A98184242504114303F
:104A10000500002C03D0194A1268002A06D0002C89
:104A200019D0164B1C60164B1E6070BD1549FCF763
:104A30007DF801212800FCF761F80E4B1A6850231D
:104A4000936311003431536B38221A4080235B0189
:104A50000B431A60E5E7094A1268002AE1D00022F8
:104A60009A6300212800FCF749F806492800FCF762
:104A7000A1F9D6E7D06300200080FCBF741D0020A0
:104A8000781D0020D549001070B50D001C000D4B9D
:104A90001860002A0BDA002C0EDA0A4B186829007D
:104AA000FDF71EFD01210848FFF75EFE70BD0221E3
:104AB0001000FBF721FEEEE702212000FBF71CFEB1
:104AC000EBE7C046D0630020F007002010B5064B8E
:104AD0001B78064B1B78E121012300224902044880
:104AE000FFF7D2FF10BDC046886D06108C6D061012
:104AF0000040034070B50DF0D1FD0100094D0022CA
:104B0000280001F013FF0400290003F031F9290007
:104B100020001AF02BF905F0B1FC2900200016F056
:104B2000D7FD70BD381D002010B5040002F05EFDF9
:104B300020000DF0B1FF03F0FBF812F0CBFA0021DA
:104B400005F0A8FCFFF7D6FF012010BD10B500202E
:104B500008F072FF08F0D0FF03F004F902F006FD40
:104B600010BD00207047002304E09A008218002145
:104B700011600133072BF8D970470023072B05D8A4
:104B80009A001258002A03D10133F7E70120704739
:104B90000020FCE74B119B001A581F2319400120ED
:104BA00088401040704710B5002303E09A008C58ED
:104BB00084500133072BF9D910BD10B50723002B02
:104BC00007DB9A0084588A58944204D805D3013BE5
:104BD000F5E7002010BD0120FCE701204042F9E785
:104BE00010B501002031002405E019684A0822436D
:104BF0001A60CC0719000B1F8142F6D810BDF0B522
:104C000007000025002001E0BB510135072D0AD81F
:104C1000AE008C599359E3181B189C42F4D0A34260
:104C2000A4416042F0E7F0BDF0B507000025002088
:104C300001E0BB510135072D0AD8AE008C599359BC
:104C4000E31A1B1A9C42F4D09C42A4416042F0E754
:104C5000F0BDF0B5C64600B514001D00069B984691
:104C60000A0000230021FFF7A3FB06000F002268C3
:104C70002B6892197B4101219F4201D80BD0002162
:104C80004046006884466144404601602B602260D3
:104C900080BCB846F0BD9642F2D8F0E7F0B5C64603
:104CA00000B586B080460D001600002305930493DE
:104CB0000393002718E0A2003B1B9B00F158A85863
:104CC00003AB009304AB05AAFFF7C3FF0134BC425A
:104CD000F1D9BB0042460599D150049B0593039B33
:104CE0000493002303930137072F01D80024EEE734
:104CF000082718E0A2003B1B9B00F158A85803AB03
:104D0000009304AB05AAFFF7A4FF0134072CF1D9E7
:104D1000BB0042460599D150049B0593039B049325
:104D20000023039301370E2F01D8FC1FEEE7434603
:104D3000059ADA6306B080BCB846F0BD70B50400D1
:104D40001D00FFF75CFF002805D129002000FFF7B8
:104D500034FF002804DB2A0021002000FFF764FF55
:104D600070BD70B504001D00FFF75EFF002800D184
:104D700070BD2A0021002000FFF741FFF8E7000086
:104D8000F0B58BB006000D00FFF70DFF002704976C
:104D900003970297EB6A05932B6B06936B6B079354
:104DA000AB6B0893EB6B099302AA11001000FFF79D
:104DB00026FF040002AA31003000FFF720FF24186C
:104DC0002B6B05936B6B0693AB6B0793EB6B0893A5
:104DD000099702AA11001000FFF711FF241802AA78
:104DE00031003000FFF70BFF24182B6A02936B6A27
:104DF0000393AB6A0493079706970597AB6B0893E9
:104E0000EB6B099302AA31003000FFF7F8FE24187B
:104E10006B6A0293AB6A0393EB6A04936B6B059323
:104E2000AA6B0692EA6B079208932B6A099302AA6F
:104E300031003000FFF7E3FE2418EB6A02932B6B7E
:104E400003936B6B04930797069705972B6A089358
:104E5000AB6A099302AA31003000FFF7E5FE241A7D
:104E60002B6B02936B6B0393AB6B0493EB6B059310
:104E7000079706976B6A0893EB6A099302AA3100B9
:104E80003000FFF7D1FE241A6B6B0293AB6B0393D8
:104E9000EB6B04932B6A05936B6A0693AB6A0793DB
:104EA00008972B6B099302AA31003000FFF7BCFE74
:104EB000241AAB6B0293EB6B039304976B6A059315
:104EC000AB6A0693EB6A079308976B6B01930993A0
:104ED00002AA31003000FFF7A7FE241A0DD50C4AB4
:104EE00031003000FFF78BFE2418F8D40DE0084A9B
:104EF00031003000FFF798FE241A002CF7D1310062
:104F00000348FFF75AFE0128F1D10BB0F0BDC046AF
:104F1000D012021010B590B004006846FFF7BEFE34
:104F200069462000FFF72CFF10B010BD70B5A2B08D
:104F300006000D0014000800FFF71FFE002810D126
:104F400029001AA8FFF72FFE210012A8FFF72BFE59
:104F50000AA8FFF708FE01230A9302A8FFF703FE41
:104F600018E03000FFF7FFFDB2E01AA8FFF738FEA7
:104F70000A9B012215001D401A4240D10AA8FFF7E2
:104F80002FFE002D06D0119B019380231B06019A52
:104F90001343119312A91AA8FFF70FFE002800D19E
:104FA00092E01A9BDB07E0D5129BDB072ED5002889
:104FB00056DD12AA1AA90800FFF736FE1AA8FFF755
:104FC0000FFE02A90AA8FFF7F8FD00283BDB02AAA2
:104FD0000AA90800FFF728FE0A9B012215001D40C0
:104FE0001A4236D10AA8FFF7FBFD002DD2D0119B43
:104FF000019380231B06019A13431193CAE72200F1
:105000000AA90800FFF7FBFD0500B7E712A8FFF7A4
:10501000E7FD029B012215001D401A420CD102A897
:10502000FFF7DEFD002DB5D0099B019380231B0601
:10503000019A13430993ADE7220002A90800FFF784
:10504000DEFD0500EBE722000AA90800FFF7D7FD07
:10505000BDE722000AA90800FFF7D1FD0500C1E75E
:105060001AAA12A90800FFF7DFFD12A8FFF7B8FD82
:105070000AA902A8FFF7A1FD002818DB0AAA02A9C5
:105080000800FFF7D1FD029B012215001D401A42C6
:1050900013D102A8FFF7A4FD002D00D17AE7099BE8
:1050A000019380231B06019A1343099372E72200A0
:1050B00002A90800FFF7A3FDE0E7220002A908000B
:1050C000FFF79DFD0500E4E70AA93000FFF76BFD3F
:1050D00022B070BD10B50400FFF74FFD002807D0C7
:1050E00020002030FFF749FD002803D0012000E018
:1050F000002010BD0020FCE7F0B591B006000F00C5
:1051000014001000FFF739FD002801D011B0F0BDE8
:105110003A00390008A8FFF7FDFE08AA31006846EA
:10512000FFF7F8FE08AA11001000FFF7F3FE2200B7
:1051300039003800FFF7EEFE220021002000FFF7C3
:10514000E9FE354D2B00220031003000FFF7F6FD5F
:105150002B00220021002000FFF7F0FD2B00220091
:1051600031002000FFF7FDFD220031003000FFF785
:10517000D1FE2B00320031002000FFF7DFFD2B00B5
:10518000220031003000FFF7D9FD00213000FFF789
:1051900001FD00283CD0204A31003000FFF72FFDF0
:1051A00005003000FFF71CFDED07F3691D43F561B5
:1051B000320031002000FFF7ADFE174D2B006A468C
:1051C00021002000FFF7CDFD2B006A4621002000C2
:1051D000FFF7C7FD2B00220069466846FFF7C1FDB7
:1051E0006A4631003000FFF795FE2B0008AA310017
:1051F0001000FFF7B6FD21003000FFF7D4FC3900A6
:105200002000FFF7D0FC08A93800FFF7CCFC7DE7B1
:105210003000FFF7E5FCCBE7D012021070B588B084
:1052200006000D00140011006846FFF773FE6A4681
:1052300031003000FFF76EFE220069466846FFF736
:1052400069FE6A4629002800FFF764FE08B070BDB9
:10525000F0B589B004000D0016001F000E9B002B56
:105260001CD019006846FFF79EFC21003000FFF7B4
:105270009AFC29003800FFF796FC6A4629002000B6
:10528000FFF7CCFF6A4629002000FFF735FF6A468A
:1052900039003000FFF7C2FF09B0F0BD6846FFF7E4
:1052A00062FC01230093E0E7F0B5C64600B588B084
:1052B0000600884614001D00284F3B000200210014
:1052C0006846FFF74EFD6A4669466846FFF722FECC
:1052D0006A4631003000FFF71DFE6A4621002000BB
:1052E000FFF718FE3B00424629002800FFF739FD72
:1052F0002A0029006846FFF70DFE3B003200694690
:105300006846FFF72EFD3B00220069466846FFF71E
:1053100028FD3B00320021002000FFF722FD220083
:1053200041464046FFF7F6FD3B006A46310020004B
:10533000FFF717FD220029002800FFF7EBFD3B00D7
:10534000424629002800FFF70CFD69462000FFF7C0
:105350002AFC08B080BCB846F0BDC046D01202108E
:10536000F0B5C64600B598B00700884616001D0087
:10537000394C23000200310010A8FFF7F2FC10AAFC
:1053800011001000FFF7C6FD10AA39003800FFF722
:10539000C1FD10AA31003000FFF7BCFD23004246DA
:1053A000290010A8FFF7CAFC230042462900280064
:1053B000FFF7D7FC23003A00310008A8FFF7D1FC23
:1053C00008AA41464046FFF7A5FD230032003900F8
:1053D00008A8FFF7B3FC2A0029003000FFF79AFD68
:1053E000230008AA31003000FFF7BBFC2300320085
:1053F00039006846FFF7B5FC6A4629002800FFF728
:1054000089FD2300424629002800FFF7AAFC10AAC4
:1054100011006846FFF77EFD230008AA694668462A
:10542000FFF79FFC23003A00694608A8FFF799FCA4
:1054300010AA08A90800FFF76DFD2300424608A93D
:105440004046FFF78EFC69463800FFF7ACFB18B00A
:1054500080BCB846F0BDC046D0120210F0B5DE46A2
:1054600057464E464546E0B5ADB003908A46914654
:105470001C0024A8FFF797FB202353449B461900E8
:1054800014A8FFF790FB00940CAB1CAA14A924A845
:10549000FFF7DEFE369B9F1E4D4620E039002800B8
:1054A000FFF778FB434258410124241A64011CABE6
:1054B0001E190CAB9C46644440011CAB98468044CA
:1054C000E14681444B46424621003000FFF748FF49
:1054D0002300320049464046FFF7E6FE013F002F19
:1054E000DCDC00212800FFF755FB43425841012531
:1054F0002D1A6D011CAB5E190CAB9C466544440132
:105500001CAB1F19644423003A0029003000FFF748
:1055100027FF1E4B98461CAA24A904A8FFF721FCCC
:105520002A0004A90800FFF7F5FC524604A9080068
:10553000FFF7F0FC424604A90800FFF7F7FC5A46C3
:1055400004A90800FFF7E6FC320004A90800FFF7F1
:10555000E1FC2B00320021003800FFF7A5FE04AA71
:105560000CA91CA8FFF75AFE1CA9039C2000FFF7FA
:105570001AFB200020300CA9FFF715FB2DB0F0BC62
:10558000BB46B246A946A046F0BDC046D0120210A6
:10559000F0B595B006000C000CAB029304AB03937E
:1055A0000800FFF7EAFA00282AD121001548FFF782
:1055B00004FB0500012803D00025280015B0F0BD2C
:1055C000104F3A0021000CA8FFF719FB04003A0025
:1055D0000CA904A8FFF713FB63425C41A40002ABD3
:1055E000E2580223FF330093002307493000FFF7FE
:1055F00035FF3000FFF76EFD0028DED00025DCE728
:105600000025DAE7B01202107012021030B5002443
:105610000FE007231B1B9B00C318A2008A18D57834
:105620001D7055885D7015682D0A9D701268DA70BE
:105630000134072CEDD930BD30B5002210E007232E
:105640009B1A9B00CC18CB5C1B0665782D042B4362
:10565000A5782D022B43E57894002B4303510132AA
:10566000072AECD930BD0000014B18607047C046D6
:105670000808002070B598B006000D00002400E076
:1056800001343F2C1CD80F4B1B68202110A89847D1
:105690000028F5D010A96846FFF77AFF0028EFD060
:1056A00010A92800FFF7B2FF69463000FFF7AEFFF0
:1056B0003000203008A9FFF7A9FF012018B070BD05
:1056C0000020FBE708080020F0B5C64600B5BCB0D6
:1056D00006000F00150014AB0A930CAB0B930024CB
:1056E00000E001343F2C40D8214B1B68202102A848
:1056F00098470028F5D002A8FFF73FFA0028F0D11C
:1057000002AB9846390014A8FFF796FF31002CA889
:10571000FFF792FF3100203134A8FFF78DFF154EBF
:10572000320014A90800FFF76AFA0400320014A935
:105730000CA8FFF764FA63425C41A4000AABE2588C
:105740000223FF33009343462CA91CA8FFF786FED3
:105750001CA92800FFF75AFF1CA8FFF7BBFC434217
:1057600058413CB080BCB846F0BD00239846C9E71C
:1057700008080020B0120210F0B504000B781B06D8
:10578000487800044340887800024340C87843408A
:1057900023600B791B064879000443408879000296
:1057A0004340C879434063600B7A1B06487A000483
:1057B0004340887A00024340C87A4340A3600B7B91
:1057C0001B06487B00044340887B00024340C97BA2
:1057D0004B40E360802A01D00020F0BD002000E0B3
:1057E0001034E5682B0CFF210B40164E9B009B5993
:1057F0001B0E1A0623685A402B0A0B409B009B592C
:10580000FF273F043B4053400A002A409200925930
:10581000FF273F023A4053402A0E9200925911400E
:105820004B408100084A8A585340236162685340C4
:105830006361A2685340A3616B40E36101300A28B1
:10584000CED1CAE7F0220210F0260210F0B5DE46F3
:1058500057464E464546E0B587B005910193177807
:105860003F0653781B045F4093781B025F40D37858
:105870005F4004683D0065401679360653791B0485
:105880005E4093791B025E40D3795E404468664077
:10589000137A1B06517A09044B40917A09024B4056
:1058A000D17A4B4084685C40A446137B1B06517B35
:1058B00009044B40917B09024B40D27B5340C268A4
:1058C0005A40904603952B0EFE4C9B001D590496A2
:1058D000320CFF231A40FC49920052585540A94609
:1058E0006246150A1D40F94AAD00AD584F466F405B
:1058F000B94645461D40AA46F54D5746BF007F595B
:10590000BA464F4656467740066977400297049E4E
:10591000360EB6003659B1466646360C37001F4083
:10592000BE0076584F467740B9464646360A37009D
:105930001F40BE00B6584F467740B9461F00039E31
:105940003740BE0076594F46774046697740B946A2
:105950006646360EB6003659B2464646360C370015
:105960001F40BE00765857467740BA46039F3E0A0E
:1059700037001F40BE00B65857467740BA461F0052
:10598000049E3740BE007659574677408669774077
:10599000BA464646360EB6003659039F3F0C1F40A6
:1059A000BF007F587740049E360A1E40B600B658A6
:1059B000774066461E40B60076597740C6697E40FD
:1059C000B446029F3E0EB60036594F463F0C1F406C
:1059D000BF007F587E4057463F0A1F40BF00BF5858
:1059E0007E4067461F40BF007F597E40076A774070
:1059F000BB464E46360EB600365957463F0C1F4042
:105A0000BF007F587E4067463F0A1F40BF00BF5817
:105A10007E40029F1F40BF007F597E40476A7E4004
:105A200003965646370EBF003E59B0466646370CC1
:105A30001F40BF007F5846467E40029F3F0A1F40DE
:105A4000BF00BF5877404E461E40B600765977409B
:105A5000866A774004976646360EB6003659029F2E
:105A60003F0C1F40BF007F58B8463700464677407E
:105A7000B8464F463F0A1F40BF00BF58B946474689
:105A80004E467740B84657461F40BF007F59B9463B
:105A900047464E467740C66A7740B9465F463F0E56
:105AA000BF003F59BC46039E370C1F40BF007F58C4
:105AB000B846674646467740BC46049F3F0A1F40AB
:105AC000BF00BF58B846674646467740BC464F467B
:105AD0001F40BF007F59B846674646467740066B71
