:020000041000EA
:1000000000B5324B212058609868022188439860DF
:10001000D860186158612E4B002199600221596106
:100020000121F02299502B49196001219960352056
:1000300000F044F80222904214D00621196600F024
:1000400034F8196E01211966002018661A6600F04E
:100050002CF8196E196E196E052000F02FF8012189
:100060000842F9D1002199601B49196000215960AB
:100070001A491B48016001219960EB211966A021F2
:10008000196600F012F800219960164914480160C1
:100090000121996001BC002800D000471248134993
:1000A000086003C880F30888084703B5996A0420EC
:1000B0000142FBD001200142F8D103BD02B5186610
:1000C0001866FFF7F2FF186E186E02BD00000240BE
:1000D000000000180000070000035F00212200005C
:1000E000F4000018222000A00001001008ED00E03C
:1000F00000000000000000000000000074B24E7A12
:1001000000200420F7010010C3010010C5010010F9
:10011000C1010010C1010010C1010010C101001097
:10012000C1010010C1010010C1010010C701001081
:10013000C1010010C1010010C9010010CB01001065
:10014000CD010010CD010010CD010010CD01001037
:10015000CD010010CD010010CD010010CD01001027
:10016000CD010010CD010010CD010010CD01001017
:10017000CD010010CD010010CD010010CD01001007
:10018000CD010010CD010010CD010010CD010010F7
:10019000CD010010CD010010CD010010CD010010E7
:1001A000CD010010CD010010CD010010CD010010D7
:1001B000CD010010CD010010CD010010CD010010C7
:1001C00000BE00BE00BE00BE00BE00BEEFF3058054
:1001D000103800BEF2EB88713059001058590010E9
:1001E0003402001090A31AE700201F49086006C8D7
:1001F00081F3088810471D48006800282FD10DA4FE
:100200000ECC002902D000F012F8F9E71849194A7B
:10021000002000E001C19142FCD1174988471749ED
:1002200088471749884700BEFDE701C901C29A42C5
:10023000FBD3704758590010C00000200C03002069
:10024000A45B00100000042000000420A45B001048
:10025000001004200010042000000000704709482E
:1002600003F0ACF80047000008ED00E0000000D00B
:1002700010030020F006002045210010E9040010C2
:10028000012100105756000006005250ABB36053D6
:100290000457001006005250861C03021457001029
:1002A000060052505422A29D2057001005005250C3
:1002B000DE65F468A45B0010F8B5C04610B5064CC6
:1002C0002378002B07D1054B002B02D0044800E017
:1002D00000BF0123237010BD1004002000000000A7
:1002E00088460010044B10B5002B03D00349044886
:1002F00000E000BF10BDC046000000001404002054
:100300008846001030B583B003F079FF002315E074
:100310006B46DA1D1470002108E01F4B9B699B0699
:10032000FBD414781C4B1C60013101320029F4D03D
:1003300003780D3B5A425341DBB201300478002C64
:1003400027D0002BE4D1154B02229B5EA3420FD095
:100350006B46DA1D147000210029E9D10E4B9B6910
:100360009B06FBD414780C4B1C6001310132F3E77F
:100370006B46DA1D0D23137000210029E8D1064BCE
:100380009B699B06FBD41578034B1D60013101323C
:10039000F3E703B030BDC04600800340E406002010
:1003A000F0B5C64600B590B006000F0090461D009F
:1003B0000023009301332A0004F052F8454B9E427B
:1003C00000D183E00721280000F0CCF800220121B1
:1003D000280000F0DFF81022002108A803F07CFCC0
:1003E00080235B020893F8235B0209938024E402D4
:1003F0000A94C0231B030A93102208A904A803F03F
:1004000071FC42460832059B0393334B03990B4022
:100410004146C9010B43120313430593102204A95B
:100420000CA803F05FFC0F9B03932C4B039A134023
:10043000EA0313430F930D9B0393294B039A134035
:100440002D061D430D950E9B0393264B039A1340D7
:100450001C430E94A400A40880231B061C430E9486
:10046000052001F099FD03F0B7FB041C169BD80092
:1004700003F0B2FB011C201C03F093FB051C03F0EE
:10048000D3FB84B2002C23D0200003F0A5FB011C79
:10049000281C03F080FB8721C90503F096FB03F0BD
:1004A000C3FBC0B20002240404430C940CAB4246CC
:1004B0003900300004F026F832680123BB409A432B
:1004C0001343336010B080BCB846F0BD06217AE714
:1004D0000020E7E7000020507F00FEFFFF7FF0FFD5
:1004E000FFFFFFE0FFFF0AFE30B583B000F036F8F3
:1004F000144803F02DFDE1256D022900124801F09A
:1005000007FC0221042000F02DF8104C10492000B7
:1005100003F08AFF02000095032300212000FFF76B
:100520003FFF0C4803F0D6FE0B4803F05EFE074B7E
:100530005B68DB05FBD4054A2323D05CC0B203F023
:10054000D3FCF4E7884600100080034000002050F0
:10055000F046001005030010A846001010B503F087
:1005600029FE10BD10B58300084A944663441C68F8
:1005700040226240C02414408022520113431C6078
:10058000C000034B9C466044416010BD04C0014064
:100590000040014080000B4B9C46604400290DD078
:1005A0000823002A0CD004221343026853400C2273
:1005B0001340802252011043036070470023F0E78C
:1005C0000022F1E704C00140034B1B6802201840E1
:1005D000431E9841C0B2704700C00640EFF3108040
:1005E00072B6034B1B68002BFBD0BFF35F8F7047C5
:1005F0002C0100D0BFF35F8F024B00221A6080F302
:10060000108870472C0100D0F8B506000C001500CA
:10061000FFF7E4FFE308F718F15C0722224001230B
:1006200093400B4205D1DBB20B433B70FFF7E2FF77
:10063000F8BD2100280001F001FE0000002307E0C2
:10064000054A9A189200BFF35F8F002111600133B1
:100650001F2BF5D97047C04640000034054A10787A
:10066000431CDBB21370172B02D9130010221A702F
:100670007047C04638020020074B9B68103080004E
:100680001950BFF35F8FBFF35F8F044B00211960D8
:1006900082F310887047C04600ED00E0240100D0CE
:1006A00010B5091A081F0A4B9C466144094A914239
:1006B00008D8C30706D440104005400D064B184328
:1006C00080B210BD054B064AA321064801F01CFD6F
:1006D000FC070000FE0F000000E0FFFF0C470010C9
:1006E0007C4900103C47001010B5091A04394C0829
:1006F000090B08D14905490D064A11430180064BF3
:100700002343438010BD054B054AAB21054801F04A
:10071000FBFCC04600F0FFFF00F8FFFF9847001009
:10072000504900103C47001001238340034A1068E1
:100730001840431E9841C0B27047C04600E100E037
:10074000002904D0034B1860034B18607047034B1B
:100750001860FBE780E200E000E100E080E100E0FB
:1007600010B5012383401800FFF7EAFF10BD000019
:10077000024B9B6810308000C058704700ED00E0CD
:1007800070B504000D00EFF3108672B60C4B1B68B9
:10079000002BFBD0BFF35F8F2000FFF7E9FF094B71
:1007A000984201D0A84205D1320029002000FFF76D
:1007B00063FF70BD044B054A8621054801F0A4FC87
:1007C000240100D0CD010010A84700109849001066
:1007D0003C470010F0B5CE46474680B583B00600D2
:1007E0000D00EFF3108872B6564B1B68002BFBD040
:1007F000BFF35F8F544B9A6834001034A300D7586E
:10080000524B9F4207D0AF4200D198E00197504B26
:10081000FB1A2F2B09D9424639003000FFF72CFF75
:1008200003B0C0BCB946B046F0BD3000FFF77CFF56
:10083000814600213000FFF793FFBFF35F8FEFF396
:100840000581002901D08C4211D10123019C9C43D8
:100850000022A368AB4212D00622A256002A0DDB6A
:1008600053009B189B002200394CE418F1E7362115
:10087000384B394AFF31394801F046FC2200AB427F
:1008800056D106256557002D38DB6B005B199A00A1
:100890002F4B9B189A68A260DA79E27106229A5669
:1008A000A2719B795BB2002B0FDA2D48A0806B0000
:1008B0005B199B00264AD3182A4A11789971157042
:1008C00049463000FFF74CFFA5E7201D6B005B1980
:1008D0009B001F4A9B181A1D9B88D90A1C2907D107
:1008E0005B055B15023359005118FFF7D9FEDDE7B0
:1008F0001D4B1E4AB121194801F006FC002912D1F6
:10090000002A0ED0FF239371194B9380154A137858
:10091000A371184B0E49641A644163431B0D137095
:10092000CEE70A4FF2E7201D1349FFF7DDFEC7E7C8
:100930006A21124B084AFF31084801F0E5FB034FDA
:1009400069E7C046240100D000ED00E0CD010010B1
:100950003C020020BC480010684900103C470010D1
:1009600001BD0000ED060020A448001088490010D9
:1009700001BDFFFFAAAA000076020020F048001087
:1009800070B5012101432E4BCB1A2F2B28D8EFF342
:100990000583002B2BD0EFF3108C72B6294A126816
:1009A000002AFBD0BFF35F8F274A0400244D641B4D
:1009B00064416243120D54B2244A92689B00D2589B
:1009C0008A421BD00022032A32D853009B189B0076
:1009D0001B49CB189B795BB2A3421FD00132F2E7CF
:1009E000C7211B4B1B4A49001B4801F08DFB92217C
:1009F0001A4B184AFF31184801F086FB134A9268D7
:100A00001749D150174B1A7882711C70BFF35F8F52
:100A10000C4B00221A608CF3108870BD0D0053003F
:100A2000991889006918FF268E710F4A8A80E9E7B4
:100A3000D1210E4B074A4900074801F065FBC0462B
:100A40003C020020240100D0AAAA000000ED00E032
:100A5000F8480010344900103C47001020490010AD
:100A6000CD010010ED06002001BDFFFF2C49001054
:100A70000022044B02E0044902C30132072AFAD9DA
:100A80007047C04600E400E080808080024B9C46B6
:100A900061448900016070474000003410B50400D3
:100AA000FFF7DCFD01002000FFF7F0FFFF232371BB
:100AB000BFF35F8F10BD10B50400FFF7CFFD01003D
:100AC0002000FFF7E3FFFF23237100236371BFF3CF
:100AD0005F8F10BD70B505000C00080000F04AFEE5
:100AE0000949200000F08AFDFFF7B8FD074B9C463E
:100AF0006044800068602C75D0231B061B786B75E2
:100B0000A400034BE55070BD190E001040000034E6
:100B1000BC0400200A4B1A68EFF3108172B6136808
:100B2000002BFCD0BFF35F8F054B1B68BFF35F8FBB
:100B300000221A6081F3108840BF00200021704716
:100B4000D006002010B5002922D003681B7B9942F3
:100B50001ED8174B9C466144090183689C4661443A
:100B60000C684968002A19D003681B7B9A4215D883
:100B700083680F488446624412019A1810685368CB
:100B8000020001208B4201D80ED00020C0B210BD5F
:100B9000084B094A3C21094801F0B6FA054B064AC0
:100BA0003C21064801F0B0FAA242EFD8EDE7C0467A
:100BB000FFFFFF0F684B0010984D0010144B001002
:100BC00010B500291ED0037B99421BD84B005B183F
:100BD000033B0468A4466344002919D0002A1DD0B1
:100BE000914221D0002A25D0047BA24222D8046859
:100BF00050008018033820188170197800291FD1FF
:100C00001A7010BD104B114A6821114801F07CFA8E
:100C1000104B114A6F310E4801F076FA0F4B0E4A15
:100C200070210B4801F070FA0D4B0B4A71210848F6
:100C300001F06AFA044B054A6821054801F064FA9C
:100C400041701A70DDE7C0468C4B0010044E001056
:100C5000A84B0010104C0010E04D00101C4C001070
:100C6000284C001070B506000D001400002914D0A7
:100C7000002A14D0806873689847002806D02200A4
:100C800029003000FFF79CFF280007E02A00210020
:100C90003000FFF795FF200000E0100070BD080055
:100CA000FCE70000F0B583B00500009201930AABA9
:100CB0001C780BAB1F78002C26D003685A7B94421B
:100CC00007D10123002B19D1002C3BD1200003B008
:100CD000F0BD002C0CD01A7B944209D81A6863002E
:100CE0001B19033BD3189B78002BEBD00123E9E7BA
:100CF0003E4B3F4A68213F4801F006FA3E4B3F4ACF
:100D000067213F4801F000FA03689C7B002CDBD090
:100D100012D01A7B94420FD862001219033A196854
:100D20008C46624451789973002900D1D97300230D
:100D3000937053701370C7E72C4B2D4A68212D48D0
:100D400001F0E2F9002C3AD02B681B7B9C4236D88C
:100D50002C4BE3181B01AA6894466344009A1A605E
:100D6000019A5A60089A9A60099ADA602E68002CF3
:100D70002BD030D0337B9C422DD863001B19033B12
:100D800032689446634400229A705A701A70717BDC
:100D900022003000FFF766FF7073844200D095E7B1
:100DA000287D009A019B00F071FC061E01D0002FE7
:100DB00017D00C9B002B00D188E71E7086E7124BE2
:100DC000124A3C210E4801F09FF9114B114AA5210E
:100DD000084801F099F9054B054A6821054801F0DA
:100DE00093F92868210000F089FEE2E78C4B00109F
:100DF000044E0010A84B0010404C0010104E001084
:100E0000144B0010FFFFFF0F684B0010984D0010AF
:100E1000104B0010F44D0010F0B5DE4657464E461C
:100E20004546E0B58BB00990002308938200B54B8E
:100E3000D658370052E0B44BB44A3F21B44801F0D1
:100E400063F9B44BB44A3C21B44801F05DF9002980
:100E500001D1002869D10021404600F045FEA042A2
:100E600019D12A686B6806920793AB689846EB68BD
:100E70009A464346002B14D0002C18D03B681B7BAD
:100E80009C4214D8631EFA68D35C08931B02184373
:100E90003861002015E0A24BA24A8E219F4801F044
:100EA00033F9A14B9F4A92219C4801F02DF9994BAF
:100EB0009E4A4121994801F027F900239A46984615
:100EC00000207B68BFF35F8F00221A6086F31088D2
:100ED0004346002B32D1002800D10CE100F04AFB40
:100EE00002000B1EA7DB0020002106900791786806
:100EF000EFF3108672B601680029FCD0BFF35F8F54
:100F0000396888464C7B002CD7D09AD0097B8C421C
:100F100097D8874965182D01B9688C4665442868BB
:100F20006968801A9941002991DD2A686B680998DF
:100F300000F0ACFB00239A469846C2E7089B1B02D0
:100F40002343994651461800C04705000E007A68B1
:100F5000EFF3108B72B6136859424B41D9B2002B94
:100F6000F9D1BFF35F8F002E1EDB002E46DD3B69FB
:100F7000002B47D04B456DD100F0FCFA02000B1E50
:100F80006EDB52197341002B70DB002B72DB0021EA
:100F9000049101310391029451460191414600911F
:100FA0003800FFF77FFE4CE03B69002BDDD04B455E
:100FB00014D1069A079B521BB341002B14DB002B64
:100FC00016DB0021049101310391029451460191F5
:100FD000414600913800FFF765FE32E0554B514A1B
:100FE000A1214E4801F090F801225242524BE6E70F
:100FF000454B464A3F21464801F086F8002E01D174
:10100000002DB4D13B68002C50D05A7B944237D18C
:10101000012100294AD1DA7B002A4DD19A7B002A8E
:1010200003D1DA7B002A5AD19C73DC73002C5CD08C
:101030003B681B7B9C4258D8FA68013C135D013326
:10104000135500233B617A68BFF35F8F13608BF306
:10105000108843E7374B334AA421304801F054F855
:10106000294B2A4A3F212A4801F04EF801225242D8
:10107000314B8AE7244B254A3F21254801F044F8AB
:10108000002C0DD01A7B94420AD862001219033A40
:101090001868844662449278002ABAD00121B8E7E1
:1010A000264B274A6821274801F02EF8264B274A6D
:1010B000F621244801F028F8002A0AD0197B8A4238
:1010C00007D851008A18033A19688C466244547054
:1010D000A4E71A4B1A4A68211A4801F015F81C4B6C
:1010E0001A4AFB21174801F00FF80A4B0F4A412119
:1010F0000A4801F009F80BB0F0BCBB46B246A9465D
:10110000A046F0BDBC040020244A0010644D00102D
:10111000404A0010684B0010984D0010144B00100E
:10112000684C00107C4D0010804C0010BC4D00102D
:10113000FFFFFF0F8C4C0010FFFFFF7F8C4B001058
:10114000044E0010A84B0010C84C0010D04D0010E9
:10115000EC4C001010B50C4B5B68002B04D00A213E
:101160000A48FFF793FC10BD074C2300084A1021E2
:10117000206800F0C9FB032000F0F0F903212000F3
:10118000FFF7A8FCEBE7C04684020020D006002051
:10119000450B001010B5064B5B68002B01D00448CE
:1011A00010BD044B044A5E21044800F0ADFFC04668
:1011B00084020020004D0010A44D0010144B0010BC
:1011C000F0B5DE4657464E464546E0B58BB0804604
:1011D00016001F00149B9A46159B994616AB1B7868
:1011E0009B461F2302AA9446634400221A702BE0F8
:1011F000002809D042461268127B904204D8421E51
:101200004146C9688A5C41E0404B414A412141481E
:1012100000F07AFF07984CE0361BAF41002F07DB48
:10122000002F11DA3C4B3D4A3F213D4800F06CFF56
:10123000012676423B4FF3E7374B384A3F21384887
:1012400000F062FF002F4FDB43465A68EFF3108433
:1012500072B6136859424B41D9B20791002BF8D1AD
:10126000BFF35F8F1F3302AA9446634404930023A5
:10127000039302934B4601935346009332003B0085
:101280004046FFF70FFD031EB2D1020041464968F8
:10129000BFF35F8F00250D6084F31088002B29D0E9
:1012A0001F2302A98C4663441B78002BB2D1120283
:1012B0001043002B20D05B46002B1DD04946D04761
:1012C00004000D0003000B431DD00029A4DB00F037
:1012D00051F906000F1EAFDB36196F41002FB1DA4E
:1012E000012676420F4FADE70B4B0C4A3F210C48CD
:1012F00000F00AFF012040420BB0F0BCBB46B246F2
:10130000A946A046F0BD0798F6E7C046684B001016
:10131000BC4D0010144B0010244A0010644D001006
:10132000404A0010FFFFFF7FF8B50400002900D1FC
:1013300062E04268EFF3108572B613685842434189
:10134000D8B2002BF9D1BFF35F8FCBB22268567BA6
:10135000B3421BD10120002848D0206988422BD0FD
:10136000090AC9B2002B2ED02068007B83422AD8FC
:10137000581EE668305C88422BD000206368BFF3BB
:101380005F8F00221A6085F31088F8BD002B0DD006
:10139000167BB3420AD85E00F618033E1768BC46B7
:1013A0006644B678002ED6D00120D4E7134B144AF9
:1013B0006821144800F0A8FE2C21134B134AFF317A
:1013C000134800F0A1FE134B134A4121104800F0CE
:1013D0009BFE1900100000F091FB0028CED199214E
:1013E0000E4B0A4A49000A4800F08EFE23698B42E0
:1013F000C4D100232361C1E70020C6E78C4B001055
:10140000044E0010A84B0010244D00104C4D00104D
:10141000144B0010684B0010BC4D0010484D0010DC
:1014200070B584B005000C00EFF30583002B1ED1CE
:10143000FFF7B0FE002302930193224B00932A0092
:101440002300FFF7BDFE061E23DD20BFFFF7A2FE2F
:101450003100FFF769FF1C4B5B6A9C422DD81A4A8A
:10146000926AAA422CD29C4225D0012026E0164B3B
:101470005B6A994209D8144A926A824207D2994219
:1014800001D001201AE0002018E0002016E0012021
:1014900014E00D4B5B6A9C4209D80B4A926AAA423F
:1014A00007D29C4201D0012008E0002006E0002085
:1014B00004E0012002E0002000E0002004B070BD44
:1014C0000120FBE7150B00100040054070B5EFF35D
:1014D00005801038EFF3108C72B61A4B1B68002B86
:1014E000FBD0BFF35F8F01221300834016494B638B
:1014F00016490B60164909780C00C440224214D0EA
:10150000114A546A8200134D5259944206D3820004
:10151000114C125999430E4B197007E00A4A031DEA
:101520009B0099589950002200E00022BFF35F8F82
:10153000044B002119608CF31088002A00D09047DA
:1015400070BDC046280100D0004005403C700540F9
:10155000EE060020D40600203404002010B501005F
:10156000024A0348FFF750F810BDC046284E00104D
:10157000EC060020044B5B6A034A906A1900536A28
:101580009942F9D17047C04600400540084B5B6A5C
:1015900001E0074B5B6A8B42FBD301E0044B5B6AC3
:1015A0008B4203D1024B9B6A8342F7D37047C046FC
:1015B0000040054070B504000D00FFF7DBFF02009E
:1015C0000B0020002900801859418B4202D804D119
:1015D000824202D901204042C117002902DBFFF7F5
:1015E000D5FF70BD024B034A3F21034800F08CFD3C
:1015F000244A0010EC4E0010404A001070B5040060
:101600000D00EFF3108672B61B4B1B68002BFBD04E
:10161000BFF35F8F002D1CD02000FFF7A9F8174BF8
:1016200083420BD019002000FFF7AAF80121200007
:10163000FFF796F80123A340114A1360A400114B51
:10164000E550BFF35F8F0C4B00221A6086F31088C1
:1016500070BDA2000B4B0021D1500122A2400A49CB
:101660000B7893430B7005492000FFF7B3F8002176
:101670002000FFF775F8E4E7280100D0CD14001032
:101680003860054034040020EE060020F0B5DE4648
:1016900000B584B00400150001921E000293FFF70C
:1016A00069FF03958E4202D84ED185424CD9EFF3A3
:1016B000108B72B6274B1B68002BFBD0BFF35F8FDC
:1016C000254A17780125A540EBB23B431370234B05
:1016D0005D63221D92000199D150A2002049029819
:1016E00050501B6A2B4212D11C4B1B6C2B4208D052
:1016F0000020BFF35F8F174B00221A608BF3108816
:1017000023E0184B184AC521184800F0FDFCFFF7EC
:1017100031FF8E4214D802D1039B834210D80E4B66
:101720001B78BB420ED00D4B1D625D631F20044031
:101730000123A3400E4A1360074B1F701E38D8E7E1
:101740000020D6E70120D4E7012004B080BCBB46CE
:10175000F0BDC046280100D0EE0600200040054044
:10176000D40600204C4E0010D04E0010704E0010D9
:1017700080E200E0EFF3108C72B60B4B1B68002B7D
:10178000FBD0BFF35F8F01238340084A13620849EF
:101790000A789A430A70BFF35F8F034B00221A60E6
:1017A0008CF310887047C046280100D000400540E7
:1017B000EE06002010B500291ED0037B99421BD8ED
:1017C0004B005B18033B0468A4466344002919D00E
:1017D000002A1DD0914221D0002A25D0047BA242AC
:1017E00022D80468500080180338201881701978B6
:1017F00000291FD11A7010BD104B114A68211148E1
:1018000000F082FC104B114A6F310E4800F07CFC56
:101810000F4B0E4A70210B4800F076FC0D4B0B4A23
:101820007121084800F070FC044B054A6821054806
:1018300000F06AFC41701A70DDE7C0468C4B001066
:101840000C500010A84B0010104C0010F84F001066
:101850001C4C0010284C001070B506000D00140040
:10186000002914D0002A14D0806873689847002893
:1018700006D0220029003000FFF79CFF280007E077
:101880002A0021003000FFF795FF200000E0100043
:1018900070BD0800FCE7000010B50023437301335E
:1018A0008373037BC3730123027B9A4214D9002BF9
:1018B0000CD0027B934209D85A00D218033A01682F
:1018C0008C4662440133DBB25370EDE70B4B0C4A9C
:1018D00068210C4800F018FC002A09D0924207D871
:1018E000016853009A18033A8A180023537010BDF8
:1018F000024B034A6821034800F006FC8C4B0010A1
:101900000C500010A84B001010B5017342608360AA
:10191000FFF7C2FF10BD000070B50400081E00D123
:1019200070BD002934D0237B994231D84B005B181D
:10193000033B2268944663445A78002AF0D02DD0A5
:10194000237B9A422AD853009B18033B21688C467C
:1019500063445D7800215970002825D0237B98428C
:1019600022D843001B18033B21688C4663440021A6
:10197000597001002000FFF76FFF060029002000CA
:10198000FFF7CAFF020031002000FFF765FFC7E73D
:10199000084B094A6821094800F0B6FB054B064A86
:1019A0006821064800F0B0FB024B034A6821034857
:1019B00000F0AAFB8C4B00100C500010A84B00103C
:1019C00070B505000C00160000292FD034D0037B21
:1019D000994231D84B005B18033B0268944663443C
:1019E0005A78002A2ED19A78002A31D11978FFF737
:1019F00093FF0300002E0AD0EA7B002A2ED1AA7B97
:101A0000002A03D1EA7B002A3BD1AC73EC73002B94
:101A10003DD1002C4FD02B7B9C424CD82B686100D1
:101A20000C19033C1C190023637070BD254B264A1A
:101A30003821264800F068FB254B264A68212648B5
:101A400000F062FB254B204A3A21204800F05CFB65
:101A5000234B1D4A3B211D4800F056FB002A0AD0AB
:101A6000297B8A4207D851008A18033A29688C4694
:101A700062445470C3E7164B164A6821164800F0BA
:101A800043FB184B104A4221104800F03DFB002B4D
:101A90000BD02A7B934208D843001B18033B2A68CB
:101AA0009446634400229A70B3E7094B094A6821BF
:101AB000094800F029FB064B064A6821064800F059
:101AC00023FBC046044F0010E44F00100C4F0010E1
:101AD0008C4B00100C500010A84B0010604F0010F1
:101AE000884F0010EC4C001070B504000A00457BD4
:101AF0002900FFF765FF6073280070BD70B5040012
:101B0000002967D0437B8B420ED0002911D0037B84
:101B100099420ED84B005B18033B0268D0188378BB
:101B2000002B0CD1002056E00121FFF7DDFF012042
:101B300051E0294B294A6821294800F0E5FA002B99
:101B400020D0227B93421DD85A00D318033B226831
:101B5000D2182568EB5C8B421AD0002B1BD0227B5D
:101B6000934218D85A00D318033B2268D2185378EE
:101B70008B4216D0002BF0D11A4B1B4A6B211B480D
:101B800000F0C2FA144B154A6821154800F0BCFA5F
:101B90004378137007E0104B104A6821104800F09A
:101BA000B3FA4378537000238370437001222000FE
:101BB000FFF706FF0200617B814205D02000FFF79E
:101BC0004BFE6073012006E0094B074A712107486C
:101BD00000F09AFA002070BD8C4B00100C500010E1
:101BE000A84B00102C490010CC4F00100C4F0010D7
:101BF000AC4F001070B5046BE30701D4200070BD3A
:101C000002003032C0239B0113430A4A1A60456A1E
:101C1000826AAD01AD18AD02062000F0BDF906499B
:101C200001F020FC0100280001F01CFC0021FFF75E
:101C3000C1FCE3E7010300004E0E000070B5040094
:101C40000E001500FFF7D6FF22002C32E16A4E404D
:101C5000354080235B0113431D60206370BD00008D
:101C600070B505000C00062000F096F9C0002100B8
:101C700001F0F8FBC60908D00E4B9E4216D87F2310
:101C8000184001303400460800E001246C62AE6266
:101C9000002200212800FFF7D1FF062000F07CF988
:101CA0008000A101891901F0DDFB70BD0026024C06
:101CB000ECE7C046FEFF0000FFFF000010B505394D
:101CC0004901013AD2001143002B09D002220A43F4
:101CD000012B07D0002111436E22FFF7AFFF10BD8B
:101CE0000022F4E70421F6E7002909D00A22064B76
:101CF0009C466044434258414000044BC2527047E6
:101D000080225200F3E7C0460080FCBFE4060020BA
:101D100070B505000C00062000F03EF9061E27D025
:101D2000164B9D4226D08022D203154B1A60154BCC
:101D30001A60154B9B6811009943FAD100212800C5
:101D4000FFF7D2FF21002800FFF78AFF06000023DB
:101D5000012208212800FFF7B1FF2A002C3280233E
:101D60009B01134310221A60084B2B630323AB64BF
:101D7000300070BD80221204D7E7C04600800340C7
:101D800000E0004000F0004000C0004001030000FF
:101D9000F8B5DE4657464E464546E0B505000F000D
:101DA00092460A9A934250D31A0E91461E020A9AFC
:101DB00000233000494601F093FB80466C00641913
:101DC000A400304B9C4664446368834200D2606048
:101DD0002B1FDBB29B46012B3DD9C0239B01234324
:101DE000802212011A60AB00274A9958002907D0B7
:101DF000506901F037FB431C5800C0180338FDD26E
:101E000053465A0123685A40E0231A4080235B015D
:101E100023431A605A46012A28D980239B01234371
:101E2000802212011A60434663604246002330005C
:101E3000494601F055FBAD00134B58510120F0BC51
:101E4000BB46B246A946A046F8BD104B104A332106
:101E5000104800F059F9012FBFD1C0239B01234343
:101E600003221A60A368DB07FCD5C9E72168794023
:101E700003220A401A60A2680123BB401342FAD031
:101E8000CBE7C046008000404C04002018500010F2
:101E90008C5000102C50001030B583B00C2000F096
:101EA00011F9FEF791FB00280DD0002304E0990002
:101EB0002D4A2E4888500133092BF8D92A4B2C4A39
:101EC0005A6203B030BD2B4B00229A6700F002F932
:101ED000294B01221A60274B5B6C012BFBD1274B4E
:101EE00003221A60234B9B6B012BFBD10133009320
:101EF0000433234A0121234800F054F805230093BA
:101F0000214A0121214800F04DF8214B0093002285
:101F100002210420FFF73CFF1E4D00952B000022FC
:101F200001210520FFF734FF104C0094230000220C
:101F300000210720FFF72CFF00942300002200213E
:101F40000820FFF725FF0A4B009323000022002101
:101F50000920FFF71DFF00952B000022002106201D
:101F6000FFF716FFADE7C0464C040020006CDC0212
:101F70001BB70000008000403CB0004030B0004083
:101F8000002F685900800240008C864700C0024044
:101F9000001BB700405973078000014BC0587047C1
:101FA0004C040020F0B5C64600B504000E00170032
:101FB0001D00374801F056FA8046364BFA18364B6A
:101FC0009A4239D80100380001F04CFA0200103A68
:101FD00098235B009A4235D86B1E062B38D8069B97
:101FE000013B062B34D83F09474537D32D04069BC8
:101FF0001A0315432368002B36DB284B9C4244D040
:1020000080225201264B1A60264B1A60264B9B6891
:1020100011009943FAD12660A060231DC0229201CD
:102020001A43212313602368002BFCDAE5600823A0
:10203000136080BCB846F0BD1C4B1D4A11211D48E1
:1020400000F062F81C4B1A4A19211A4800F05CF89B
:102050001A4B174A1C21174800F056F8184B144A1F
:102060002321144800F050F822683F231340B34264
:10207000C3D1A3681B051B0D8342BED1E368EE22CA
:10208000D2021340AB42B8D1D3E780229201B9E724
:10209000001BB70080E84BD380F8A93200C0024093
:1020A00000E0004000F0004000C000409C500010E4
:1020B000DC510010FC5000105851001074510010F9
:1020C000C051001080239B000343014AD362704734
:1020D00000800540064BAA2212011A602F22DA6006
:1020E000044B054A1A60024B5B68002BFBDA704711
:1020F000004002400060024000B0FA0000BEFDE770
:1021000010B5FFF7FBFF000010B582B00C001900FE
:10211000002A0CD0084B002A0BD001920093230018
:102120000200064801F044FF0120FFF7E7FF044BDF
:10213000F1E7034AF1E7C046E8510010F8510010FA
:10214000F451001070B52B4B2B4A1A602B4B2C4AC4
:102150001A602C4B9A682A4B9343FAD12A4C01E01F
:1021600008CC9847294B9C42FAD3FFF795FE234BA6
:10217000274A1A60234B9B68DB43DB01FAD1254BCE
:1021800040229A675A671A67DA66234C09E0234BA4
:10219000234A87212348FFF7B7FF2000FEF77EFC84
:1021A0000834214B9C4209D22368002BF5D0012B27
:1021B000EDD12000FEF77FFC0834F2E71B4CA1684C
:1021C0001B4DC022280001F08DFDA560EFF30583B3
:1021D000002B00D000BEFEF731FAFEF749FCFEF7F7
:1021E000B9FF144C01E008CC9847134B9C42FAD33A
:1021F00070BDC04600E00040BFCDFBFE00F00040D7
:10220000FE7F3C0000C00040F802002008030020D0
:10221000FFFFFF0100F00140E802002028520010FB
:10222000BC52001048520010F802002000ED00E0FF
:1022300000000020080300200C0300200FB400B5AC
:1022400083B0084801F084FE049B002B07D005A949
:102250000191180001F08CFE034801F079FE012085
:10226000FFF74CFFA8520010B8520010704710B58D
:10227000002802D00B684968984710BD0100002073
:1022800007E083001B185B00501C08601078C01822
:1022900030380A681378303BDBB2092BF1D970472C
:1022A000F0B5DE4657464E464546E0B583B0934608
:1022B0001F000C9B9A460D9C0E9B99460F9B9B07FB
:1022C00003D0B8460F00060022E00192A3468846DC
:1022D0004E46B9460700B44207D2551C4B4641460C
:1022E0002020B84701342A00F5E73D004F465C4600
:1022F000019B9B46B1464646B84637002E0007E094
:10230000013C551C5346185D43463900B0472A002E
:10231000002CF5D135003E0047460F9B9B0707D4A4
:10232000100003B0F0BCBB46B246A946A046F0BDC3
:10233000B0464E46B9462F005D46531BB342EFD21E
:10234000541C4B4641462020B8472200F5E7F0B523
:10235000CE46474680B585B0944698460C9D0D9C68
:102360000EAB1B789946109A119B129EB7071CD48E
:10237000002B0CD0F7070AD54F46002F02D10C379F
:10238000374204D0013B02E030272F5501349442FC
:1023900001D21F2CF8D9F70707D59C4205D21F2C74
:1023A00003D830272F550134F5E7F70615D5770503
:1023B00005D4002C03D0944224D09C4222D00F9A02
:1023C000102A2BD00F9A102A30D00F9A022A35D01B
:1023D0001F2C02D830222A5501341F2C05D84A461A
:1023E000002A31D02D222A550134039602930194FC
:1023F000009543466246FFF753FF05B0C0BCB9469F
:10240000B046F0BD621E012C06D00F9F102F01D0E8
:102410001400D4E7023CD2E71400D0E7B206D1D4CE
:102420001F2CCFD878222A550134D1E7B206CCD55B
:102430001F2CCAD858222A550134C9E71F2CC7D8E7
:1024400060322A550134C3E7720703D52B222A557F
:102450000134CAE73207C8D520222A550134C4E71F
:10246000F0B5DE4657464E464546E0B593B0814648
:102470008A46089209931CAB10CB1B789B461E9D85
:10248000219B9846002C03D1102342469A43904644
:102490008023DB0046461E4042461A4212D0002CE2
:1024A00022D000260EE03033D9B2771C0AAB995502
:1024B0002900200000F0D6FFAC4216D31F2F14D8FD
:1024C0003E0004002900200000F0CCFFCBB2092B15
:1024D000E9D94246920605D54121C918C9B20A393F
:1024E000C9B2E2E76121F8E7270043460693209B43
:1024F00005931F9B049303955B46029301970AABD8
:102500000093099B089A51464846FFF720FF13B0F5
:10251000F0BCBB46B246A946A046F0BDF0B5DE46CB
:1025200057464E464546E0B595B0089009910A9247
:102530000B931E9E1F9C20AB1B789B46229B9946AB
:10254000239D269B9A463300234303D110335246E2
:102550009A4392468023DB0057461F4052461A4258
:1025600019D0330023432DD0002714E03033DAB2E2
:102570007B1C98460CABDA554A462B0030002100F4
:1025800000F0AEFFA5421FD819D043461F2B1BD821
:10259000474606000C004A462B003000210000F0A0
:1025A0009FFFD3B2092BE1D95246920605D54122AD
:1025B000D218D2B20A3AD2B2DAE76122F8E7B145CC
:1025C000E3D901E00023984653460693259B0593E3
:1025D000249B04934B4603935B460293434601932B
:1025E0000CAB00930B9B0A9A09990898FFF7AFFE72
:1025F00015B0F0BCBB46B246A946A046F0BD0000EF
:10260000F0B5DE4657464E464546E0B591B08346A6
:102610008A460C9298461A9C08941B9D09952200A4
:102620002B002000290001F0D6F9002800D0E5E0B9
:1026300001225242D74B2000290001F0C7F900289F
:1026400000D0DBE001225242D34B2000290001F0F0
:10265000A7F9002800D0D1E000220023089E300016
:10266000099D290001F09CF9002800D0DDE00898C0
:102670000999069007918023DB001E9A1A400D925B
:102680001E9A1A4201D106231C930698079904004A
:102690000D000A000600024300D1D1E0080D4005FC
:1026A000400DBE4CA44660440A03120BBC4B1343BE
:1026B0001F0001F0A3F9BB4ABB4B01F032F9BB4A42
:1026C000BB4B01F00FF904000D000022B94B3000A4
:1026D000390001F002F9B84AB84B01F022F90200C2
:1026E0000B002000290001F0FDF801F09FF9814660
:1026F00001F084F904000D00B14AB24B01F011F968
:102700000022B14B01F0EEF801F090F90600AF4A5B
:10271000AF4B2000290001F004F904000D00300047
:1027200001F06CF9AB4AAC4B01F0FBF802000B0076
:102730002000290001F0D1F804000D0002000B0078
:1027400001F0EFF80A900B91A44BF31800261F0537
:1027500022002B002000290001F0C4F80E900F91F8
:1027600022002B0000208021C90501F0B6F80400EA
:102770000D0000229A4B0A980B9901F0B8F800223C
:10278000984B01F0AFF802000B000A980B9901F08A
:10279000AEF80022944B01F0A5F802000B000A9855
:1027A0000B9901F0A4F802000B002000290001F0B1
:1027B00099F802000B000E980F9901F098F800228A
:1027C000774B01F08FF832003B0001F0AAF80600C9
:1027D0000F0004000D00069A079B01F0F7F800288F
:1027E00030D001235B429C46E14400227D4B300007
:1027F000390001F07CF804000D0023E01E9B0493D7
:102800001D9B03931C9B0293089A099B00920193C2
:1028100043460C9A5146584600F0FCF811B0F0BC03
:10282000BB46B246A946A046F0BD0023002406934D
:102830000794069680231B069C46654407951AE775
:10284000002399464B466333C62B1ED804261E9B95
:102850001B0526D52B0023430FD0644A644B0698F2
:10286000079901F0ABF8002879D00022614B069857
:10287000079901F095F8002871D01C9B4B4506DDA7
:102880004A46981A431E1C9303E00526DFE70023FF
:102890001C938023DB001E9A1A431E9200260023FD
:1028A00099461D9B9E4264D29F1B02231E9A1A408A
:1028B0000A921E9A134202D0002E00D000274B46E7
:1028C000002B07D022002B000698079901F00FF883
:1028D00006900791002200230898099901F060F8FA
:1028E000002848D1444B1E9A1340049303971C9B25
:1028F0000293069B079C0093019443460C9A514611
:10290000584600F087F8002E00D187E71E9B9B06F3
:102910003DD54525441C4346020051462800D84772
:102920004B46DA179B18534005220592013E049648
:10293000002203920A3202924A46D00F019000937D
:102940004346220051465846FFF78AFD0A9B002B5A
:1029500000D163E702005F460C9E1D9D54E01C9B66
:10296000002B9ED00D9B002B9BD01C9B013B1C93EE
:1029700097E7002799E7069C079D22002900802001
:102980000006844661440B0006920793AAE765257A
:10299000C0E7C046FFFFEF7FFFFFEFFF01FCFFFF37
:1029A0000000F03FFB799F501344D33FB3C8608BC6
:1029B000288AC63F0000F83F61436F63A787D23F74
:1029C00071A379094F930A400000E03F1655B5BB4B
:1029D000B16B0240EF39FAFE422EE63FFF030000E2
:1029E00000002C4000002440000018402D431CEB48
:1029F000E2361A3F80842E41FFF7FFFF541C434606
:102A000051462020B8472200931BAB42F6D310005A
:102A100004E7C046F0B5DE4657464E464546E0B5AB
:102A200095B00690079193469946209F1E9A1F9B4A
:102A30001000190000F0CFFF002831D101225242CE
:102A4000BF4B1E981F9900F0ABFF002837D1012221
:102A50005242BC4B1E981F9900F0B8FF00283DD190
:102A60000022B94B1E981F9900F0B0FF002850D1EA
:102A70000022B64B1E981F9900F092FF002848D103
:102A8000002200231E981F9900F08AFF002850D1D1
:102A900000239846229B5B0500D4B6E0002458E052
:102AA000229B0393219B029303230193A84B009342
:102AB0004B465A4607990698FFF7F2FB0EE1229B18
:102AC0000393219B029304230193A24B00934B4653
:102AD0005A4607990698FFF7E3FBFFE00423229A82
:102AE0001A4022990B4210D09B4B002A0FD004228F
:102AF0002299039121990291019200934B465A46E3
:102B000007990698FFF7CCFBE8E0944BEDE703222A
:102B1000EEE7229B0493219B039302971E9B1F9C2D
:102B2000009301944B465A4607990698FFF768FDB3
:102B3000D4E01E9A1F9B0020002100F0CEFE1E90C4
:102B40001F9101239846A5E70CAB30221A55013F8F
:102B500001341F2C01D8092FF6D81E981F9900F0B8
:102B600065FF050000F04AFF02000B001E981F9948
:102B700000F0B3FEFA007A4B9B181A685B680A9261
:102B80000B9300F0CEFE0890099100F073FF060051
:102B900000F030FF02000B000898099900F09DFE3C
:102BA0000890099100226F4B00F010FF00282ED0F2
:102BB0000136300000F01EFF02000B000A980B994E
:102BC00000F0F4FE002801D001350026002F2CD1A2
:102BD000280000F013FF02000B001E981F9900F060
:102BE0007CFE06000F0000225E4B00F0D9FE00289C
:102BF00046D100225B4B3000390000F0E7FE002890
:102C00003ED1EB073CD501353AE0062746E70022E6
:102C1000544B0898099900F0C3FE0028D6D1002E25
:102C200001D0F307D2D50136D0E7AA461F2C11D820
:102C3000013F0A21300000F015FC651C30310CAB5F
:102C400019550A21300000F00DFC092E0ED906009E
:102C50002C00EBE755461F2C0CD87B1E002F09D00B
:102C60000CAA302111551F000134F4E72B00554602
:102C70001C00F0E71F2C03D80CAB2E221A55013490
:102C80001F2C10D80A21280000F0C4FB661C30312C
:102C90000CAB19550A21280000F0BCFB051E01D021
:102CA0003400EDE734000323229A1340012B1CD09B
:102CB0001F2C06D84346002B32D00CAB2D221A55C0
:102CC0000134229B0393219B029301940CAB00934C
:102CD0004B465A4607990698FFF7E2FA15B0F0BC42
:102CE000BB46B246A946A046F0BD219B002B13D09F
:102CF0004346002B02D10C3313420FD0219B013BE2
:102D00002193190003E00CAB30221A5501348C4298
:102D1000CED21F2CF7D9CBE72199F8E72199F6E716
:102D2000229B5B0704D50CAB2B221A550134C8E754
:102D3000229B1B07C5D50CAB20221A550134C0E7D6
:102D4000FFFFEFFFFFFFEF7F65CDCD4165CDCDC12B
:102D5000D8520010DC520010D0520010CC5200109B
:102D6000C85400100000E03FF0B5DE4657464E461E
:102D70004546E0B593B082468B46904611930029B4
:102D800000D1EBE200275546119B1878002800D1AE
:102D9000E7E2252809D07C1C43463A005946A8475B
:102DA000119B013311932700EEE7013311930024A7
:102DB000119A11780B00203BD8B2102803D8830059
:102DC000D048C3589F460B00303BDBB2092B2CD9AF
:102DD0002A292FD000230A93119B1A782E2A39D042
:102DE00000239A46119A1378683BD9B2122976D8F3
:102DF0008B00C549CB589F4601231C4301321192D9
:102E0000D6E702231C4301321192D1E704231C436D
:102E100001321192CCE708231C4301321192C7E71B
:102E200010231C4301321192C2E711A8FFF726FAC2
:102E30000A90D1E71C9B1A1D1C921868002804DB1D
:102E40000A90119B01331193C6E702231C434342AE
:102E50000A93F6E78022D20014435A1C11925A7842
:102E60001300303BDBB2092B04D92A2A07D00023F8
:102E70009A46B7E711A8FFF701FA8246B2E71C9B12
:102E80001A1D1C921868002804DB8246119B01332E
:102E90001193A7E70020F8E780235B002343511C30
:102EA000119152786C2A01D01C0018E0C0239B00BD
:102EB0001C430131119112E080232343511C1191D5
:102EC0005278682A01D01C0009E0C0231C4301315C
:102ED000119104E080235B001C4301321192119B8D
:102EE00018780300253BDAB2532A00D92CE293006C
:102EF000864AD3589F4680239B001C43013211927F
:102F0000EDE780235B001C4301321192E7E778284C
:102F100009D0582838D06F2838D0622838D01023EC
:102F20009C430A2600E01026582833D0692803D095
:102F3000642801D00C229443630501D501229443F7
:102F400069282AD0642828D0A30500D59FE0E3058E
:102F500000D5B8E0630600D4CAE01C9A111D1C918C
:102F60001168FF220A4005940A9B04935346039379
:102F7000029600230193009243463A0059462800E6
:102F8000FFF76EFA070027E01026CDE70826CBE70B
:102F90000226C9E720221443C8E7A30520D4E3058D
:102FA00050D4630666D51C9A111D1C911168FF222E
:102FB0000A40D317D118594005940A9B04935346ED
:102FC00003930296D20F0192009143463A0059466C
:102FD0002800FFF745FA0700119B01331193D3E650
:102FE0001C9BDA1D07218A43110008311C911168CE
:102FF00053689C46DB170C930D930C9A0D9B1000A5
:1030000048400E90624653400F930E980F990C9AC9
:103010000D9B801A99410E900F9108940A9B07937B
:10302000534606930496002305936346DA0F0292F3
:103030000090019143463A0059462800FFF76EFA86
:103040000700C9E71C9A111D1C911268D317D118EB
:10305000594005940A9B0493534603930296D20F5A
:103060000192009143463A0059462800FFF7F8F9CB
:103070000700B1E7230605D51C9A111D1C910023FA
:10308000D25E96E71C9A111D1C91126891E71C9B59
:10309000DA1D07218A43110008311C9108940A9B0C
:1030A00007935346069304960023059302931368EF
:1030B00054680093019443463A0059462800FFF7AC
:1030C0002DFA070088E71C9A111D1C9105940A9B94
:1030D00004935346039302960023019313680093CD
:1030E00043463A0059462800FFF7BAF9070073E74C
:1030F00023060DD51C9A111D1C9112681204120C86
:1031000031E7C046E45200102853001074530010F9
:103110001C9A111D1C91126825E746281AD01C9B89
:103120000733072293431A0008321C9204940A9A28
:103130000392524602925C681B68009301944346D6
:103140003A0059462800FFF765FC0700119B013340
:10315000119319E620231C43E1E7672801D0472893
:1031600002D180231B011C43452801D0472801D1EF
:1031700020231C431C9B0733072293431A00083269
:103180001C9204940A9A0392524602925C681B684D
:103190000093019443463A0059462800FFF730FA5D
:1031A0000700119B01331193EEE502231A00224020
:1031B000924623421FD001241C9B1A1D1C927A1C8C
:1031C0009146187843463A005946A8475346002B83
:1031D00016D1119B013311934F46D5E5561C43463A
:1031E00059462020B847230032005C1C9D42F5D888
:1031F0003D001700E0E701233A002F000A9DF4E7A5
:103200004A46A9460A9D06E0571C434659462020D7
:10321000C84734003A00661CA542F5D84D46914691
:10322000D7E71C9B1A1D1C921B6899465346002B1E
:1032300000D1013B4E4601E0013613003278002AEE
:1032400002D05A1E002BF7D14B46F21A109280235F
:10325000DB0026001E401C4203D0524501D95346D4
:10326000109302231A0022400B92234205D03A0009
:1032700037004C46A946554620E03A00109B5F4671
:10328000B3462E0006E0551C434639002020B047C7
:1032900023002A005C1C0A999942F4D835005E4646
:1032A000BB46109437004C46A946554606E01D0023
:1032B0000134561C43465946C8473200207800283E
:1032C00004D0002FF4D06B1E002DF0D117004D4616
:1032D0000B9B002B03D1119B0133119354E50A9FE3
:1032E000109B06E0561C434659462020A847230061
:1032F00032005C1C9F42F5D81700ECE721231C43E9
:103300001C9B1A1D1C921B680093059408230493B0
:1033100053460393102302930023019343463A003C
:1033200059462800FFF79CF80700119B01331193C1
:103330002AE57C1C43463A0059462520A847119BA4
:103340000133119327001FE57C1C43463A00594680
:10335000A847119B01331193270015E50A4B9A46A4
:1033600010E5AA46474502D343465A1E00E03A00FC
:10337000434659460020D047380013B0F0BCBB4646
:10338000B246A946A046F0BD6D22001000B585B03A
:10339000029003910121009313004A4202A90248BE
:1033A000FFF7E2FC05B000BD6F22001001480421C8
:1033B000014B1847B0020020DD33001010B50100AA
:1033C00018231B8814221088984710BD10B50100DF
:1033D00018231B8816221088984710BDF0B5C646E2
:1033E00000B507000E0000250123984600E00135D6
:1033F000B5420AD2AC003C192068FFF7DFFF20601D
:103400000028F4D100239846F1E7404680BCB84636
:10341000F0BD0000124A936F9B0815D29066D166EA
:10342000002905D0FFE7FFE7FFE7516F106F7047F6
:1034300004B580210906C2175140002800D0C843B6
:1034400001F012F9002104BDF0B5146E556E576FEE
:10345000166FFFF7E3FF1466556657671667F0BDF2
:10346000000000D0114A936F9B0813D2106651667A
:10347000002905D0FFE7FFE7FFE7516F106F7047A6
:1034800004B5002801D00020C04301F0EDF8002170
:1034900004BDC046F0B5146E556E576F166FFFF73A
:1034A000E5FF1466556657671667F0BD000000D04B
:1034B00094464A4A926F9208624601D228E0C0467A
:1034C000F0B5464E346E756E776F366F00F020F8AB
:1034D0009446424A14665566576716676246F0BDC1
:1034E00094463E4A926F9208624601D254E0C0462A
:1034F000F0B53A4E346E756E776F366F00F04CF85B
:103500009446364A14665566576716676246F0BD9C
:10351000002B24DB11D000293EDA00B5C94340421C
:1035200000D1013100F038F8C943404200D10131E7
:10353000DB43524200D1013300BD002AEBD1002809
:1035400001D1002905D00020C90FC90701D1C0430E
:10355000410800B501F080F80022002300BD00B54D
:1035600000290ADBDB43524200D1013300F014F89A
:10357000C943404200D1013100BDC943404200D19E
:103580000131DB43524200D1013300F005F8DB4347
:10359000524200D1013300BD002923D1002B18D1A4
:1035A000002A0CD0BC460D4F38667A6600210023F5
:1035B000FFE7FFE7FFE77A6F386F6746704700283D
:1035C00001D00748010000B501F046F800220023B1
:1035D00000BD02000B00002000217047000000D059
:1035E000FFFFFFFF002B00D0BFE0130C28D1002A03
:1035F000E7D080B4114F39667A66FFE7FFE730B451
:10360000040C7B6F396F1B0423433B667A66FFE72C
:10361000FFE7FFE7C04684B27B6F3D6F1B04234387
:103620003B667A66FFE7FFE7C04600232C042D0CBB
:103630007A6F386F00196941B0BC7047000000D044
:10364000F0B594460025140E01D112020835140F6E
:1036500001D112010435940F01D192000235D40F2B
:1036600001D152000135D40B0134254F7C66254C25
:103670003C660E0C93B2FFE7FFE7FFE73C6F664343
:10368000360C7703BE467343DF0B5B04C01AB941A7
:10369000130C7343DB18C91ACE086643360CB644C4
:1036A00093B273431F0F1B01C01AB941130C73432C
:1036B0001F0B1B05C01AB941860D8F023E4366439E
:1036C000360C092D24DB520A7243801A7703460A0E
:1036D0006643360C16235B1BDE40DF40BF19644691
:1036E0006643821B7046043506330100D940A8406A
:1036F000C01900D30131A24206D20023F0BD000060
:10370000000000D0FFFFFFFF121B0130F3D3F1E7F1
:1037100009277F1BFE406446A2B27243801A00D282
:103720000139220C7243130C1204821A99410B00C6
:103730007046043513370100F940A840801900D3C2
:103740000131002B02D1A2420AD2F0BD013000D3D8
:103750000131121BFAD2013BF8D1A24200D2F0BDD6
:10376000013000D30131121BF7E7F0B51C0C00D07B
:1037700080E00CB400251C0A04D11B02160E334352
:10378000120208351C0B04D11B01160F3343120122
:1037900004359C0B04D19B00960F334392000235F5
:1037A000DC0B02D192185B4101351C009718644173
:1037B0000134464F7C66464C3C660E0CFFE7FFE743
:1037C000FFE7C0463C6F6643360C7703BE4697B2B0
:1037D0007743C01B00D20139C01B00D201399FB210
:1037E0007743C91BC91B170C77437E04FF0B801B53
:1037F000B941CE086643360C0C2D33DBB644120BB0
:103800001F053A431B0B97B27743C01B00D2013907
:103810009FB27743C91B170C77433E043F0C801BB4
:10382000B941860D8F023E43664329277F1BFE4028
:103830000C3D7746AF40BF1930BCA2B2ABB2724369
:103840007343801A9941220C7243130C1204801A9C
:10385000994102000B000137001BA941F9D2781EE3
:103860000021F0BD0C277F1BFE4077467F0BAF4049
:10387000FF19E0E700245D1C07D0144F7D66396610
:10388000FFE7FFE7FFE7FFE73C6F95B29EB26543B6
:103890006643401BB141150C1E0C6543664336045C
:1038A0002F0C3E432D04401BB141994204D202002B
:1038B0000B0020000021F0BD01D19042F7D3801A07
:1038C000994101349942F2D3F6E70000000000D09C
:1038D000FFFFFFFF48404140484018B4134B5B686E
:1038E000019308BD18B4114B1B68019308BD9446A1
:1038F0000F4A926F920805D2624618B40B4BDB68F0
:10390000019308BD0A4AF0B5146E556E576F166FD5
:103910006246FFF7F2FF064A146655665767166758
:10392000F0BD18B4014B9B68019308BDCC04002086
:10393000000000D0FFB550404240504059404B403D
:10394000594000E0FFB5154F4C00640D03D0BC4258
:1039500004D10C0314D80020090D09055C00640D86
:1039600003D0BC4204D11C030AD800221B0D1B0546
:1039700001264B4009D44B4003D58B4200D18242F3
:10398000FFBD9942FCD19042FFBD0B43DB180343BE
:103990001343F5D0C9434918FFBD0000FF070000DD
:1039A00000B5FFF7CFFF804100BDC04600B5FFF76F
:1039B000C9FF01D9002000BD012000BD00B5FFF7FF
:1039C000B9FF01D9002000BD012000BD00B5FFF7FF
:1039D000B1FF804100BD012040054A00121804D803
:1039E0005A00121801D800207047012070470020AB
:1039F000704700000021002805D17047C1174840DA
:103A0000401AFAD0C90713B5064B1B6898470CBC7F
:103A1000441CA2401005120B0349091B0905194358
:103A2000114310BDCC0500201F04000010B54C0050
:103A3000620D8023D218DB00D21A5B057E2A10DDCE
:103A40009E3A13DACC170903490819435242D14070
:103A5000640001341532202A05DAD040084360435F
:103A600010BD002010BD0846604310BDC80FC0182F
:103A7000013810BD18B4024B5B6A019308BD000009
:103A8000CC04002010B50148FEF7D8FB18550010F3
:103A900070B513231C78012C14D0012C14DC022CDB
:103AA00002DC1F4A1F4B9A641F48FFF787FC1F4B1D
:103AB000186070BD99001E481A4A885001331F2BA8
:103AC000F8D9EAE70023FAE71A48FFF77FFC050078
:103AD0001948FFF77BFC023803789B007F2B19DD28
:103AE000802229000F4800F0FDF8022CD7D1134B9B
:103AF0001A88B5231B029A4209D1114B1A88114B1F
:103B00009A4204D1104B1A88104B9A42C7D0002019
:103B1000FEF794FB0E4B0F4A32210F48FEF7F4FAE2
:103B20005D3B0010CC0400204C330000CC0500208D
:103B3000853A0010534400005346000054380000FA
:103B4000D8380000494600009C3800005946000063
:103B500030550010E85500108455001007B5604638
:103B6000002800D100BE01880A0A0230DF2AFAD1FB
:103B7000C9B2820804D3028840880004104300E0E0
:103B80000068024A5050039007BD0000CC0400209A
:103B90004840414048400E4B5B6818470C4B1B683F
:103BA00018470C4A936F9B0802D2094BDB681847F1
:103BB000F0B5146E556E576F166FFFF7F6FF054A96
:103BC0001466556657671667F0BD014B9B6818472A
:103BD000D0050020000000D0491A002808D108466E
:103BE00070470000C10FC90700D54042002817D018
:103BF000F44603B40B4B1B68984706BC81409E38C3
:103C00004042803107D20B0607D04900490AC0055F
:103C10001043084360470130F8E7490A8902F5E795
:103C200070470000CC050020014B5B6A184700007C
:103C3000D005002010B50148FEF700FBF45100103C
:103C400070B513231E781848FFF7C0FB0500012E3E
:103C500011D0012E09DDAB1E1B789B007F2B1DDDD3
:103C600080222900114800F03DF81148FFF7A6FB1B
:103C7000104B186070BD542201000C4800F032F85F
:103C8000002300E001331F2BE3D89A00074C1259A0
:103C9000002AF7D19A0008481051F3E7074B084A69
:103CA00042210848FEF730FA53460000D0050020B4
:103CB0004C330000CC050020353C0010FC550010B2
:103CC000945600103056001001480421014B18474B
:103CD000C0020020DD330010014B1B6818470000B4
:103CE000C0020020014B5B6818470000C0020020A2
:103CF00010B50300080011001B68984710BD0000B4
:103D0000F8B507000D001600437D002B02D00024FB
:103D100000200CE003681100280098472DE03B7D4F
:103D200010E0022115483B689847601C0134B442FA
:103D300014DA002CF3DD2B19013B1B780D3B5A42A2
:103D40005341DBB22A5D0A2AF0D1002BEED1A0420A
:103D5000E7DA211A28183B689847E2E7B04203DA0D
:103D6000311A28183B689847002E06DDAD19013D31
:103D70002B780D3B5A4253413B75F8BD74570010E8
:103D800070B505000368002B16D00C4B1C6805E0CD
:103D9000290004C92000FFF7B3FF2469002C09D0D3
:103DA0002368002BF9D0064B1B68002BF0D0A342F0
:103DB000F3D1EDE700232B6070BDC046B4040020B2
:103DC000B804002070B505000C000B68802B05D0EE
:103DD00021684B1C23606418257170BD0800FFF733
:103DE000CFFFF5E710B5FDF7C5FB02000B1E0BDB9F
:103DF0000D48002112184B41002B0BDB002B0DDB73
:103E00000A4800F039FC10BD094B0A4A3F210A4814
:103E1000FEF77AF901225242084BEFE7044B054ABC
:103E20003F210548FEF770F940420F00F0020020E4
:103E3000244A00105C570010404A0010FFFFFF7F2B
:103E400010B5024800F000FC10BDC046F002002092
:103E5000F0B5CE46474680B583B006000D009046CB
:103E60001C00FFF7BFFF81466B1C05D0002C08D05B
:103E7000194F1A4B1C6807E0300000F0B5FB050035
:103E8000F4E7174FF5E72469002C17D02368002BBF
:103E9000F9D0144B1B68002B01D0A342F3D12A00A8
:103EA00031002000B8474346002BECD06B46D91DAB
:103EB0000A230B7001222000B847E4E74B46002B91
:103EC00007D16B1E9D41E8B203B0C0BCB946B046F5
:103ED000F0BDFFF7B5FFF4E7F13C0010B40400209B
:103EE000013D0010B804002010B582B004006B46FC
:103EF000D81D0470002300220121FFF7A9FF200034
:103F000002B010BD094A01E010331A001368002BFB
:103F100008D08342F8D1002907D103691360002338
:103F2000036102E0002900D010607047B404002053
:103F300010B5064B1C6801E098472469002C03D09B
:103F40006368002BF8D1F8E710BDC046B404002028
:103F500070B5050000F048FB0400002301220100B9
:103F60002800FFF775FFFFF7E3FF200070BD00009A
:103F700070B5A2B004000E00FFF734FF0500002367
:103F800001933300220001A90848FFF7FFF904005C
:103F900001A8FFF7F5FEFFF7CBFF002D02D12000AF
:103FA00022B070BDFFF74CFFF9E7C046C53D0010D9
:103FB0000FB400B583B004A901C90191FFF7D8FF80
:103FC00003B008BC04B01847F0B583B005000E007C
:103FD00000240FE06B46D91D0D230B700020002834
:103FE00016D193699B06FCD40B7813600130013124
:103FF000F5E70134B44219DA0D4B1A682F5D0D4B09
:10400000D31859424B415B000B495B5EBB42E1D088
:104010006B46D91D0F7000200028EAD193699B06DA
:10402000FCD40B78136001300131F5E703B0F0BD2B
:10403000E80600200080FCBFE4060020F0B583B055
:1040400006000F00002504E06B4607331B782B7039
:104050002500BD4215DA174B1A6893691024210018
:1040600019401C420DD16C1C75196B46D81D0029D6
:10407000EAD19369DB06FCD4136803700131013087
:10408000F5E70D4B1B68002B0CD00A4B1A68502328
:10409000936311003431536B38221A4080235B0143
:1040A0000B431A60002D02D0280003B0F0BD033D81
:1040B000FAE7C046E80600204404002010B5064B8D
:1040C0001B68002B06D0054A126800219163044A40
:1040D0001068984710BDC04644040020E806002040
:1040E0004804002070B504000E001C4B1B681C4ADD
:1040F00098184242504114300500002C03D0194A50
:104100001268002A06D0002C19D0164B1C60164BE2
:104110001E6070BD1549FCF733FB01212800FCF738
:104120001FFB0E4B1A685023936311003431536BFD
:1041300038221A4080235B010B431A60E5E7094AE5
:104140001268002AE1D000229A6300212800FCF7BF
:1041500007FB06492800FCF73DFBD6E7E8060020F0
:104160000080FCBF4404002048040020BD40001033
:1041700070B50D001C000D4B1860002A0BDA002CE6
:104180000EDA0A4B18682900FDF7C2FD0121084824
:10419000FFF7B8FE70BD02211000FCF7E3F9EEE76F
:1041A00002212000FCF7DEF9EBE7C046E80600201C
:1041B000D002002010B5064B1B78064B1B78E1217E
:1041C0000123002249020448FFF7D2FF10BDC04678
:1041D00050590010545900100040034003BD10B561
:1041E0000400FCF745FCA04710BDD0231B061B6D47
:1041F0009B07FAD5D0231B06586540BF704700E0E7
:1042000020BFD0231B061B6DDB07F9D5D0231B066F
:10421000986D7047F0B587B004000D0017000F20AF
:10422000FCF782FA060000210F20FCF799FA002320
:10423000009301930133029303970495059400259D
:1042400000E00025AB006A469C58002C12D02000EC
:10425000FFF7CBFFFFF7D3FF8442F2D10135052DE5
:10426000F0D931000F20FCF77BFA07B0F0BDD02366
:104270001B069B6DD0231B061B6DDB07F7D440BFCD
:10428000E5E7000010B50B00910711D103218A4327
:104290009A1811000C390860100008380360043ABD
:1042A000064B1360064B9A680648FFF7B3FF10BD34
:1042B000054B064A76210648FDF726FFDF41001030
:1042C00000ED00E0DD41001034580010505800109F
:1042D000D057001010B5064A064B9A4205D311007C
:1042E00080221201FFF7CEFF10BD01214942F7E7FE
:1042F00000080420000004200523CB56002B01DB1E
:10430000934211D1094B9C4660444342584180007E
:10431000074BC058097901238B40013B934018405B
:1043200043425841C0B270470020FCE70000D0AFC4
:104330002C04002070B50A79202A19D8174B9C4606
:104340006044434258418000154BC45801239340B8
:10435000013B497949B2002910DB08002025AA1A3F
:10436000914218DC8B401C4201D00120404270BDBC
:104370000C4B0D4A40210D48FDF7C6FE2020801A47
:10438000002805DB1A0082401442F0D00138F7E71C
:1043900001204042EBE701204042E8E70000D0AFB7
:1043A0002C0400207458001010590010A058001060
:1043B00070B505000C001600FFF79EFF002801D025
:1043C000002007E01548FDF739FF831912339B00E1
:1043D0005A510130237983420FD923786178090239
:1043E0001943A27812041143E3781B060B434200E1
:1043F0009A5A530BE9D19219E7E701229A40130028
:10440000013B074A944665446A425541B340054A18
:10441000AD00A9580B43AB5070BDC046FC5800100E
:104420000000D0AF2C040020F8B505000E00FCF70A
:10443000D5F8070031002800FFF77CFF041E09DBD8
:10444000020031002800FFF7B3FF3800FCF7D2F874
:104450002000F8BD0148FDF7F1FEC046FC580010F1
:10446000F0B5C64600B506AC25784C006618F600D7
:1044700086193700DC373F68BC46CC363668B04614
:104480006418E400C83404190434C026B601344367
:104490008026B6022660002D01D01F2614E00026DB
:1044A00012E05401A0256D0525434C006418E4007A
:1044B00004192700DC373D60114D3543D8342560A1
:1044C000053B05321F242240052BEAD89B065201EA
:1044D00013434C006218D20082181500DC352B60A3
:1044E000074B1E43D832166063462B606118C90023
:1044F0004018CC304346036080BCB846F0BDC0468F
:1045000080E0000070B58AB004000D00160002685B
:104510000121A9408A430260002B34D06900491967
:10452000C90041180A00C83218681060043258687F
:104530001060043298681060DB68DC310B60690041
:104540004B19DB00D033E318802252011343802241
:1045500012061A601A60234BAB40A3602B1D012288
:104560001000984080239B012343186028000830E6
:1045700082401A601F2216404919C9006418D834B5
:1045800026600AB070BD1022002106A8FFF7A4FB28
:1045900080235B020693F8235B0207938023DB02F0
:1045A0000893C0231B030893102206A902A8FFF753
:1045B00099FB6B005B19DB00E3181A00C832029903
:1045C0001160039A01921A00CC3201991160049A89
:1045D00001921A00D03201991160059ADC331A60F9
:1045E000ADE7C0460101010110B583070AD0030001
:1045F000032102E001330B4205D01A78002AF9D1D9
:10460000181A10BD030019680C4A0D4C8A188A4309
:1046100022420FD15968094A04338A188A43224238
:1046200008D15968054A04338A188A432242F1D0D6
:1046300000E001331A78002AFBD1E1E7FFFEFEFE1D
:1046400080808080F8B5C04601B40248844601BC31
:10465000604700BFC901002001B40248844601BC84
:10466000604700BF1502002001B40248844601BC27
:10467000604700BF1502002001B40248844601BC17
:08468000604700BF9501002016
:104688005374617274696E672050494F20554152C6
:1046980054205258206578616D706C6500000000E8
:1046A80048656C6C6F2C20776F726C642066726F33
:1046B8006D2050494F212028506C757320322055A9
:1046C8004152547320616E64203220636F726573A7
:1046D8002C20666F7220636F6D706C657820726530
:1046E80061736F6E73290A00F846001009FF000015
:1046F800202027EA01404206C80014C0A02000007C
:104708002080000064656C7461203E3D202D3230AD
:1047180034382026262064656C7461203C3D2032A4
:1047280030343620262620212864656C74612026C2
:1047380020312900433A2F50726F6772616D20460D
:10474800696C65732F52617370626572727920505B
:10475800692F5069636F2053444B2076312E352ED4
:10476800312F7069636F2D73646B2F7372632F72AF
:1047780070325F636F6D6D6F6E2F68617264776101
:1047880072655F6972712F6972712E630000000093
:10479800212864656C7461203E3E20313175290002
:1047A80063757272656E74203D3D205F5F756E683B
:1047B800616E646C65645F757365725F69727120A0
:1047C8007C7C2063757272656E74203D3D20686143
:1047D8006E646C65720000006972715F68616E6476
:1047E80065725F636861696E5F667265655F736C49
:1047F8006F745F68656164203E3D203000000000F2
:10480800767461626C655F68616E646C6572203D88
:104818003D205F5F756E68616E646C65645F75737B
:1048280065725F6972710000212828282875696EF1
:10483800747074725F7429767461626C655F686104
:104848006E646C657229202D20282875696E747035
:1048580074725F74296972715F68616E646C6572E5
:104868005F636861696E5F736C6F747329202D20B4
:1048780031292573697A656F662873747275637454
:10488800206972715F68616E646C65725F636861EC
:10489800696E5F736C6F742929000000307831638A
:1048A800203D3D20282A696E7374293E3E313175BA
:1048B8000000000021657863657074696F6E207C64
:1048C8007C20657863657074696F6E203D3D206E4D
:1048D800756D202B20565441424C455F4649525332
:1048E800545F49525100000066616C736500000016
:1048F80069735F7368617265645F6972715F726121
:10490800775F68616E646C657228736C6F745F683A
:10491800616E646C65722900657863657074696F8F
:104928006E000000666F756E640000006972715F4A
:104938006164645F7461696C5F746F5F66726565FA
:104948005F6C697374000000696E736572745F62EE
:1049580072616E63685F616E645F6C696E6B0000A4
:104968006972715F72656D6F76655F68616E646CA0
:10497800657200006D616B655F6272616E636800ED
:104988007265736F6C76655F6272616E6368000052
:104998006972715F7365745F6578636C7573697646
:1049A800655F68616E646C6572000000746F7461A5
:1049B8006C000000433A2F50726F6772616D204699
:1049C800696C65732F5261737062657272792050D9
:1049D800692F5069636F2053444B2076312E352E52
:1049E800312F7069636F2D73646B2F7372632F633C
:1049F8006F6D6D6F6E2F7069636F5F73796E632F64
:104A08006D757465782E63006D74782D3E636F72D2
:104A1800652E7370696E5F6C6F636B0075735F737F
:104A2800696E63655F626F6F74203C3D20494E5428
:104A380036345F4D41580000433A2F50726F677209
:104A4800616D2046696C65732F526173706265727F
:104A580072792050692F5069636F2053444B207638
:104A6800312E352E312F7069636F2D73646B2F7360
:104A780072632F636F6D6D6F6E2F7069636F5F6206
:104A88006173652F696E636C7564652F7069636FF8
:104A98002F74797065732E68000000006C6F636B6B
:104AA8005F69735F6F776E65725F69645F76616C6B
:104AB8006964286D74782D3E6F776E6572290000E1
:104AC8006D74782D3E656E7465725F636F756E7474
:104AD800000000006D757465785F65786974000082
:104AE8006D757465785F656E7465725F626C6F630F
:104AF8006B5F756E74696C0072742D3E616C6172C7
:104B08006D5F6964203D3D2069640000433A2F5081
:104B1800726F6772616D2046696C65732F5261739D
:104B28007062657272792050692F5069636F2053E3
:104B3800444B2076312E352E312F7069636F2D73DB
:104B4800646B2F7372632F636F6D6D6F6E2F706957
:104B5800636F5F74696D652F74696D652E630000FE
:104B68006964202626206964203C3D20706F6F6CA4
:104B78002D3E686561702D3E6D61785F6E6F64656E
:104B8800730000006964202626206964203C3D20CB
:104B9800686561702D3E6D61785F6E6F6465730046
:104BA800433A2F50726F6772616D2046696C657366
:104BB8002F5261737062657272792050692F506943
:104BC800636F2053444B2076312E352E312F706978
:104BD800636F2D73646B2F7372632F636F6D6D6FCB
:104BE8006E2F7069636F5F7574696C2F696E636C83
:104BF8007564652F7069636F2F7574696C2F7068A1
:104C08006561702E68000000706172656E745F697E
:104C1800640000006368696C645F696400000000F8
:104C2800706172656E745F696420213D20636869F4
:104C38006C645F69640000002170685F636F6E7464
:104C480061696E735F6E6F646528706F6F6C2D3E5F
:104C5800686561702C2072657573655F69642900E9
:104C680072656D6F7665645F6964203D3D206E6591
:104C780078745F696400000063616C6C6261636BE7
:104C880000000000706F6F6C2D3E616C61726D5F8B
:104C9800696E5F70726F6772657373203D3D206D3A
:104CA800616B655F7075626C69635F6964286964CC
:104CB8005F686967682C206E6578745F696429008D
:104CC8006964202626202170685F636F6E746169AD
:104CD8006E735F6E6F646528686561702C20696407
:104CE8002900000021686561702D3E667265655F68
:104CF8007461696C5F69640064656661756C745F92
:104D0800616C61726D5F706F6F6C5F696E697469F9
:104D1800616C697A6564282900000000616C617221
:104D28006D5F696420213D20706F6F6C2D3E616C52
:104D380061726D5F696E5F70726F67726573730021
:104D480072630000616C61726D5F706F6F6C5F639E
:104D5800616E63656C5F616C61726D007570646132
:104D680074655F75735F73696E63655F626F6F7497
:104D780000000000616C61726D5F706F6F6C5F6145
:104D88006C61726D5F63616C6C6261636B000000E3
:104D98006765745F656E747279000000616C61729A
:104DA8006D5F706F6F6C5F6765745F646566617572
:104DB8006C7400006765745F656E7472795F69640E
:104DC8005F6869676800000070685F667265655FA4
:104DD8006E6F64650000000070685F6164645F6303
:104DE80068696C645F6E6F646500000070685F6975
:104DF8006E736572745F6E6F6465000070685F67DC
:104E080065745F6E6F6465006164645F616C617294
:104E18006D5F756E6465725F6C6F636B0000000098
:104E2800486172647761726520616C61726D2025DA
:104E38006420616C726561647920636C61696D6579
:104E48006400000074696D65725F68772D3E696E55
:104E580074732026203175203C3C20616C61726D92
:104E68005F6E756D00000000433A2F50726F6772D5
:104E7800616D2046696C65732F526173706265724B
:104E880072792050692F5069636F2053444B207604
:104E9800312E352E312F7069636F2D73646B2F732C
:104EA80072632F7270325F636F6D6D6F6E2F686102
:104EB8007264776172655F74696D65722F74696D6C
:104EC80065722E6300000000686172647761726524
:104ED8005F616C61726D5F7365745F746172676541
:104EE800740000007570646174655F75735F736941
:104EF8006E63655F626F6F7400000000726F6F749D
:104F08005F696400433A2F50726F6772616D204683
:104F1800696C65732F526173706265727279205083
:104F2800692F5069636F2053444B2076312E352EFC
:104F3800312F7069636F2D73646B2F7372632F63E6
:104F48006F6D6D6F6E2F7069636F5F7574696C2F0D
:104F580070686561702E63002170685F6765745FB3
:104F68006E6F646528686561702C20726F6F745F5E
:104F78006964292D3E7369626C696E6700000000E0
:104F88002170685F6765745F6E6F64652868656126
:104F9800702C20726F6F745F6964292D3E70617286
:104FA800656E74006E65775F7375625F74726565B0
:104FB80020213D20686561702D3E726F6F745F69B6
:104FC8006400000070685F72656D6F76655F616E82
:104FD800645F667265655F6E6F64650070685F72B6
:104FE800656D6F76655F616E795F68656164000005
:104FF80070685F6164645F6368696C645F6E6F6446
:105008006500000070685F6765745F6E6F646500B7
:105018007372635F66726571203E3D2066726571CA
:1050280000000000433A2F50726F6772616D20468E
:10503800696C65732F526173706265727279205062
:10504800692F5069636F2053444B2076312E352EDB
:10505800312F7069636F2D73646B2F7372632F72B6
:1050680070325F636F6D6D6F6E2F68617264776108
:1050780072655F636C6F636B732F636C6F636B73C5
:105088002E630000636C6F636B5F636F6E666967A6
:105098007572650076636F5F66726571203E3D20AC
:1050A800285049434F5F504C4C5F56434F5F4D4922
:1050B8004E5F465245515F4B485A202A204B485A6A
:1050C800292026262076636F5F66726571203C3D35
:1050D80020285049434F5F504C4C5F56434F5F4D1B
:1050E80041585F465245515F4B485A202A204B4849
:1050F8005A290000433A2F50726F6772616D20463B
:10510800696C65732F526173706265727279205091
:10511800692F5069636F2053444B2076312E352E0A
:10512800312F7069636F2D73646B2F7372632F72E5
:1051380070325F636F6D6D6F6E2F68617264776137
:1051480072655F706C6C2F706C6C2E6300000000D1
:105158006662646976203E3D203136202626206628
:1051680062646976203C3D203332300028706F73CA
:10517800745F64697631203E3D20312026262070F8
:105188006F73745F64697631203C3D20372920268F
:10519800262028706F73745F64697632203E3D2044
:1051A8003120262620706F73745F64697632203C44
:1051B8003D203729000000007265665F66726571E0
:1051C800203C3D202876636F5F66726571202F2032
:1051D80031362900706C6C5F696E697400000000DC
:1051E8002C2066756E6374696F6E3A2000000000AB
:1051F800617373657274696F6E202225732220664D
:1052080061696C65643A2066696C652022257322A1
:105218002C206C696E65202564257325730A0000AF
:1052280031203D3D202875696E747074725F742951
:105238006C2D3E7370696E5F6C6F636B00000000CD
:10524800433A2F50726F6772616D2046696C6573BF
:105258002F5261737062657272792050692F50699C
:10526800636F2053444B2076312E352E312F7069D1
:10527800636F2D73646B2F7372632F7270325F6369
:105288006F6D6D6F6E2F7069636F5F72756E746985
:105298006D652F72756E74696D652E630000000070
:1052A8000A2A2A2A2050414E4943202A2A2A0A003B
:1052B8000A00000072756E74696D655F696E6974C5
:1052C80000000000666E6900666E692B0000000031
:1052D8006E616E00666E692D00000000162E0010CB
:1052E800C62D0010C62D0010202E0010C62D00104F
:1052F800C62D0010C62D0010C62D0010C62D00109A
:10530800C62D0010C62D00100C2E0010C62D001042
:10531800022E0010C62D0010C62D0010F82D00100A
:10532800B82E0010DE2E0010F62E0010DE2E001013
:10533800982E0010DE2E0010DE2E0010DE2E00103B
:10534800DE2E0010DE2E0010DE2E0010DE2E0010E5
:10535800D42E0010DE2E0010DE2E0010DE2E0010DF
:10536800DE2E0010DE2E0010022F00103233001047
:1053780048330010483300104833001048330010F9
:1053880048330010483300104833001048330010E9
:1053980048330010483300104833001048330010D9
:1053A80048330010483300104833001048330010C9
:1053B80048330010483300104833001048330010B9
:1053C80048330010483300104833001048330010A9
:1053D8004833001048330010483300104833001099
:1053E8004833001048330010483300105A31001079
:1053F8001A3100105A310010483300104833001099
:105408004833001048330010483300104833001068
:105418004833001048330010483300104833001058
:105428004833001048330010483300104833001048
:1054380048330010483300100E2F00104833001076
:105448004833001048330010483300104833001028
:105458004833001048330010483300104833001018
:105468000E2F0010AA3100100E2F00105A31001014
:105478001A3100105A310010483300100E2F001056
:1054880048330010483300104833001048330010E8
:10549800483300100E2F0010FC3200104833001063
:1054A8004833001022320010483300100E2F00102D
:1054B80048330010483300100E2F00100000000081
:1054C800000000000000F03F000000000000244041
:1054D80000000000000059400000000000408F401C
:1054E800000000000088C34000000000006AF84087
:1054F8000000000080842E4100000000D0126341AB
:105508000000000084D797410000000065CDCD4120
:105518006D697373696E6720646F75626C65206668
:10552800756E6374696F6E002A282875696E743801
:105538005F74202A29726F6D5F646174615F6C6F9C
:105548006F6B757028726F6D5F7461626C655F63F5
:105558006F6465282753272C2027462729292D32B1
:1055680029202A2034203E3D2053465F5441424C96
:10557800455F56325F53495A45000000433A2F5061
:10558800726F6772616D2046696C65732F52617323
:105598007062657272792050692F5069636F205369
:1055A800444B2076312E352E312F7069636F2D7361
:1055B800646B2F7372632F7270325F636F6D6D6FE0
:1055C8006E2F7069636F5F646F75626C652F646FAF
:1055D80075626C655F696E69745F726F6D2E6300CA
:1055E8005F5F61656162695F646F75626C655F6961
:1055F8006E6974002A282875696E74385F74202AC9
:1056080029726F6D5F7461626C652D3229202A20C2
:1056180034203E3D2053465F5441424C455F56324C
:105628005F53495A45000000433A2F50726F677222
:10563800616D2046696C65732F5261737062657283
:1056480072792050692F5069636F2053444B20763C
:10565800312E352E312F7069636F2D73646B2F7364
:1056680072632F7270325F636F6D6D6F6E2F70692A
:10567800636F5F666C6F61742F666C6F61745F69CE
:105688006E69745F726F6D2E630000005F5F616505
:105698006162695F666C6F61745F696E697400004E
:1056A8004465627567000000626F6F74325F77321D
:1056B800357130383000000068747470733A2F2FD9
:1056C8006769746875622E636F6D2F72617370629B
:1056D8006572727970692F7069636F2D6578616D75
:1056E800706C65732F747265652F484541442F703F
:1056F800696F2F756172745F72780000312E352ED4
:10570800310000007069636F5F77000070696F5F38
:10571800756172745F72780053657020203820328A
:105728003032360006005250BBFF3CB60C57001012
:10573800060052509A235618C056001006005250C0
:10574800E182887FB056001006005250D3F07542AF
:10575800A85600107570646174655F75735F73692E
:105768006E63655F626F6F74000000000D0A0000D1
:105778005541525420737464696E00005541525467
:10578800207374646F7574005541525420737464A7
:10579800696E202F207374646F7574000600525070
:1057A80053B4F4A190570010080052509200000022
:1057B800216C6F636B6F75745F696E5F70726F6772
:1057C8007265737300000000433A2F50726F67725E
:1057D800616D2046696C65732F52617370626572E2
:1057E80072792050692F5069636F2053444B20769B
:1057F800312E352E312F7069636F2D73646B2F73C3
:1058080072632F7270325F636F6D6D6F6E2F706988
:10581800636F5F6D756C7469636F72652F6D756CFE
:105828007469636F72652E63000000002128737429
:1058380061636B5F73697A655F627974657320264B
:1058480020337529000000006D756C7469636F72F0
:10585800655F6C61756E63685F636F7265315F77F2
:105868006974685F737461636B00000070726F67BE
:1058780072616D2D3E6C656E677468203C3D2050EA
:10588800494F5F494E535452554354494F4E5F4315
:105898004F554E5400000000433A2F50726F677204
:1058A800616D2046696C65732F5261737062657211
:1058B80072792050692F5069636F2053444B2076CA
:1058C800312E352E312F7069636F2D73646B2F73F2
:1058D80072632F7270325F636F6D6D6F6E2F6861C8
:1058E8007264776172655F70696F2F70696F2E637C
:1058F800000000004E6F2070726F6772616D207338
:1059080070616365000000005F70696F5F66696EB3
:10591800645F6F66667365745F666F725F70726FDF
:085928006772616D00000000D0
:10593000AC020010A0020010940200102C570010BE
:1059400088020010385700104457001050570010BC
:08595000A4570010B05700102D
:1059580003000068EFF3108C72B60268002AFCD0CE
:10596800BFF35F8F04229A56002A0BDB002910D060
:105978000A6000201B68BFF35F8F00221A608CF357
:1059880010887047D0221206127852B21A7101207C
:10599800F0E70020EEE70000F8B5CE46474680B5B0
:1059A8000400170098460368002B20D0D0231B065C
:1059B8001B785BB299462668EFF3108C72B635688F
:1059C800002DFCD0BFF35F8F04256557002D14DB35
:1059D8002368BFF35F8F00221A608CF310883800A9
:1059E800414600F069F80028E5D000200FE00A4B96
:1059F8000A4A85210A4800F057F84B462371236864
:105A0800BFF35F8F00221A608CF310880120C0BC9E
:105A1800B946B046F8BDC046104A0010E84A001022
:105A2800BC49001070B582B0060015001C0001A921
:105A3800FFF78EFF002807D1019B5BB2D022120628
:105A4800127852B2934201D102B070BD2A002300ED
:105A58003000FFF7A1FFF7E710B50268EFF31081F8
:105A680072B61368002BFCD0BFF35F8F0423C356B4
:105A7800002B0ADBFF2303710368BFF35F8F00224B
:105A88001A6081F3108840BF10BD034B034AB4214C
:105A9800034800F009F8C046A44A0010DC4A001088
:105AA800BC4900107047C04601B40248844601BC96
:105AB800604700BF0921001001B40248844601BCB8
:105AC800604700BF21140010100000000000000013
