:020000041000EA
:1000000000B5324B212058609868022188439860DF
:10001000D860186158612E4B002199600221596106
:100020000121F02299502B49196001219960352056
:1000300000F044F80222904214D00621196600F024
:1000400034F8196E01211966002018661A6600F04E
:100050002CF8196E196E196E052000F02FF8012189
:100060000842F9D1002199601B49196000215960AB
:100070001A491B48016001219960EB211966A021F2
:10008000196600F012F800219960164914480160C1
:100090000121996001BC002800D000471248134993
:1000A000086003C880F30888084703B5996A0420EC
:1000B0000142FBD001200142F8D103BD02B5186610
:1000C0001866FFF7F2FF186E186E02BD00000240BE
:1000D000000000180000070000035F00212200005C
:1000E000F4000018222000A00001001008ED00E03C
:1000F00000000000000000000000000074B24E7A12
:1001000000200420F7010010C3010010C5010010F9
:10011000C1010010C1010010C1010010C101001097
:10012000C1010010C1010010C1010010C701001081
:10013000C1010010C1010010C9010010CB01001065
:10014000CD010010CD010010CD010010CD01001037
:10015000CD010010CD010010CD010010CD01001027
:10016000CD010010CD010010CD010010CD01001017
:10017000CD010010CD010010CD010010CD01001007
:10018000CD010010CD010010CD010010CD010010F7
:10019000CD010010CD010010CD010010CD010010E7
:1001A000CD010010CD010010CD010010CD010010D7
:1001B000CD010010CD010010CD010010CD010010C7
:1001C00000BE00BE00BE00BE00BE00BEEFF3058054
:1001D000103800BEF2EB8871344A0510584A0510F9
:1001E0003402001090A31AE700201F49086006C8D7
:1001F00081F3088810471D48006800282FD10DA4FE
:100200000ECC002902D000F012F8F9E71849194A7B
:10021000002000E001C19142FCD1174988471749ED
:1002200088471749884700BEFDE701C901C29A42C5
:10023000FBD37047584A0510C0000020080F00206B
:10024000A05805100000042000000420A05805104C
:10025000001004200010042000000000704709482E
:1002600001F0DAFB0047000008ED00E0000000D0DC
:10027000280F00209CBE0020A90201107908001060
:10028000650201105756000006005250ABB3605390
:10029000A83F051006005250861C0302B83F051007
:1002A000060052505422A29DD03F05100500525026
:1002B000DE65F468A0580510F8B5C04610B5064CC8
:1002C0002378002B07D1054B002B02D0044800E017
:1002D00000BF0123237010BD581000200000000053
:1002E000A0780110044B10B5002B03D0034904483B
:1002F00000E000BF10BDC046000000005C10002000
:10030000A0780110F0B585B00C0015001E00082281
:10031000204912F02BFF002802D0002005B0F0BDCC
:100320000B276F443A0000211B480FF0CBF93B78B4
:100330000393002C06D003AA1849200012F05EFE99
:1003400001280DD0039B002B19D0154B01930023DE
:100350000093144B144A3100280011F0E7F8DDE750
:10036000039B002B05D0012200210B480FF092F9CE
:10037000E8E70022002108480FF08CF9E2E7094B7A
:10038000019301230093064B074A3100280011F026
:10039000CDF8C3E7A078011008130020AC78011055
:1003A00024790110B4780110B878011010B5040058
:1003B0000068002807D0002104F0F2FE206805F054
:1003C00049FA0023236010BD70B506000C0015002B
:1003D000002932D0002821D003688B421ED1002191
:1003E000200004F0DDFE00220021200004F00EFFBA
:1003F0000021200004F0E6FE0021200004F0D4FEDD
:100400000021200004F0ECFE200005F023FA011E7C
:100410000AD1300011F050FD280070BD084B094A88
:10042000302109480FF022FF084811F0EFFE2000AC
:1004300005F03EF80D256D42EBE71000EDE7C046F4
:1004400028790110F87D011054790110B879011054
:10045000F0B5DE4657464E464546E0B583B004004B
:100460000E00151E39D0002840D002688A423DD1C6
:100470002989002900D17FE01A00684811F0C6FEE2
:1004800008239846A0442B891A1C7F2B00D97F2271
:1004900092B200234146280004F0AEFA03224146FE
:1004A0005F4812F063FE002862D10C239946A144F4
:1004B0003F21484612F0CCFD071E1ED00378002BCA
:1004C0001AD02021484612F0C3FD7B1C00223A704E
:1004D00000285CD002701F000FE0524811F066FE49
:1004E000002231002000FFF76FFF49E04E4B4F4ADA
:1004F0007B214F480FF0BAFE002788239B46A34478
:10050000083B5B005A4639004846FFF7FBFEC6230E
:100510005B009A46E0503A004946464811F076FEA4
:100520005346E158444811F071FE5346E158FF2903
:100530002FD8002942DD0091C823404A802140463F
:1005400010F0F4FFC4235B00E0507F282BD8002379
:1005500063608933FF33E25A00234146300007F0DD
:10056000A7FC071E3DD1C6235B00E258002A42D1FA
:100570002989300004F0B8FD280004F02BF8002091
:1005800003B0F0BCBB46B246A946A046F0BD1F0072
:10059000B3E72B4811F03AFE0F22524231002000FF
:1005A000FFF712FFECE70100264811F02FFE0F22A3
:1005B000524231002000FFF707FFE1E7C8235B004C
:1005C000E0580BF061FF03001F4A8021404610F005
:1005D000ADFFC4235B00E05041461C4811F016FEFD
:1005E000B5E701001A4811F011FE3A003100200071
:1005F000FFF7EAFEC4E792B200235946300007F045
:1006000057FC071EB4D00100124811F0FFFD3A005C
:1006100031002000FFF7D8FEB2E7C046107A011083
:100620002C7A0110D8790110EC790110147E011098
:1006300054790110307A0110407A0110687A011063
:100640004C7A0110C87A0110E47A0110187B01106D
:100650002C7B01104C7B011070B505000C000B00C9
:100660000D3300D170BD044811F0D0FD220029687F
:100670002800FFF7A9FEF5E76C7B011070B50400B8
:100680000D00044811F092FD002229002000FFF720
:100690009BFE70BD847B011070B506000D00140038
:1006A00011000D4811F0B2FD73689C4664447460FB
:1006B000C4235B00F358C6225200B2589B189C42D8
:1006C00001DA002070BD054811F070FD00222900FC
:1006D0003000FFF779FEF5E7987B0110AC7B011045
:1006E00010B50C00CB68002B08D0084811F05EFD57
:1006F0000BF0DAFFE36801221A7110BD8921044B67
:10070000044A490004480FF0B1FDC046CC7B0110FB
:10071000B87B0110E07D01105479011010B5041E62
:100720000CD0002011F084FD642801D0442804D1AD
:10073000E06803685B6A0549984710BD1E21044BB9
:10074000044AFF3104480FF091FDC0462004002008
:10075000DC7B0110CC7D01105479011070B50600CE
:100760000C00151E26D1002924D0184811F01EFDBA
:10077000CA214900012011F07BFB011E20D004603A
:100780000836C8235B00C650200004F009FD10495C
:10079000200004F017FD0F49200004F005FD0A2297
:1007A0000D49200004F032FD0C49200004F018FD32
:1007B000280070BD0A4811F0F9FC06204042F8E715
:1007C000084811F0F3FC01204042F2E7F87B0110E9
:1007D00099060010510400107D0600105906001003
:1007E000E47B01100C7C011070B505000E00502157
:1007F0001A4811F00BFD2E2004F088FF041E19D0BA
:100800005022174904F072FB002818D10121200062
:1008100004F038FC2860002817D0290004F0C0FC40
:100820001049286804F0EAFC31000F4811F0EEFC92
:10083000012070BD0D4811F0B9FC0020F9E75021EE
:100840000B4811F0E3FC0020F3E70A4811F0AEFC7E
:10085000200004F0FFFF0020EBE7C046307C0110D1
:1008600028B601105D070010947C01104C7C01102B
:10087000647C0110807C0110F0B597B011F0D2FCBF
:100880001021012011F0F4FA041E30D00BF072FF99
:10089000051E31D10BF02EFFE060354EF4600BF0F9
:1008A00029FF0368DB69310098472100314811F0C6
:1008B000FFFC314F314A324938000BF09FFE314B7B
:1008C000A360314B15932600083615AA310002A803
:1008D00000F060FA3100684600F07EFB390020002D
:1008E000FFF782FF00280CD00023237118E027486F
:1008F00011F05CFC012538E0254811F057FC01257A
:1009000033E0244811F052FC01252EE0224B234A0B
:100910003F2123480FF0AAFC002915DB0BF0FCFE59
:100920002379002B16D10BF0EBFE02F0D7FB02006F
:100930000B1EEBDB1B480021801859410029EBDA24
:10094000012040421849E7E7134B144A3F2114485D
:100950000FF08CFC2000FFF729FD684600F052FBE9
:1009600002A800F033FA0BF0EDFE280017B0F0BD3E
:10097000200400201D070010107D0110040040001D
:10098000047D0110C0A80401FFFFFF00D07C01100E
:10099000EC7C01101C7D0110347D0110B47D011030
:1009A000507D011040420F00FFFFFF7F30B5040073
:1009B000002303E0A218527802329B189A225200B8
:1009C000934209DA1A00E018E55CFF2D02D08D424F
:1009D000F0D102E0002000E0002030BD0368197073
:1009E00001215970D91C9A70016070470368197011
:1009F00004215970110E9970110CD970110A1971D6
:100A0000991D5A710160704770B5050014000268A5
:100A10001170961C547022001900300011F05EFA1B
:100A200034192C6070BD0000F0B5D6464F464646DE
:100A3000C0B584B00700894692461C000CAB40CB81
:100A40001B88984680235B029C4200D31F4CA02247
:100A5000A1B29200362003F0FBFD051E33D0220028
:100A60005146406811F03AFA33063202FF21090478
:100A70000A401343320AFF2109020A401343320E8F
:100A8000134303934B46002B13D03868009343461F
:100A900003AA290008F0C8FC0600280003F09AFD0C
:100AA000002E0ED1200004B0E0BCBA46B146A846E4
:100AB000F0BD3868434603AA290008F0F7FC060099
:100AC000EBE73000EFE70C204042ECE7FFFF0000CF
:100AD00070B504000E00150008F092FD206000289B
:100AE00005D03200290008F05DFD002070BD0C200B
:100AF0004042FBE710B50A000068024908F078FBA5
:100B000010BDC04628B6011010B5040000680028CA
:100B100003D008F053FD0023236010BDF0B5DE467E
:100B200057464E464546E0B5904CA5440600140095
:100B30001289F22A0BD8200003F04CFD93239B006E
:100B40009D44F0BCBB46B246A946A046F0BD8922F2
:100B50000023920009A9200003F04EFFF228EAD9F1
:100B600009AB02221A70023231000DA811F0B6F959
:100B700044AB089345A808903521FFF717FF0028DC
:100B8000D9D08378012B00D1A4E0032BD3D132211B
:100B900045A8FFF70BFF051ECDD002300322310020
:100BA00011F0DAFF0028C6D16F793D00103DEDB29B
:100BB000072DC0D86B1CDB009846B044062210A954
:100BC000404611F0C9FF00280BD006226849404674
:100BD00011F0C2FF0028AED1062210A9404611F044
:100BE0007DF902F07BFA002900DAB4E000D1B8E028
:100BF000FA229200002310F031FD5E4B9C466044C7
:100C0000000C0135ED007519E88009ADEF7405227F
:100C1000352108A8FFF7E2FE297F6A7FAB7F9B465C
:100C2000E87F2027EF5D2123EB5C9C462B7C9846D8
:100C30006B7C9946AB7CED7C069505934B46049303
:100C40004346039363460293019700905B464A48EC
:100C500011F0DCFA4FE0494B494A3F2149480FF077
:100C600005FBFA21890010F0BBFC4B46181A2AD468
:100C70000137072F33DC7D1CED007519062210A902
:100C8000280011F069FF002828D04346082BEFD137
:100C900006223749280011F05FFF002800D1B8462E
:100CA0007B1CDB00F318DB881B04374A1A43914690
:100CB00002F014FA0029CEDBD3D0FA2292000023EE
:100CC00010F0CCFCD1E706220021280011F000F939
:100CD000B846CDE7002708239846CAE7B8464346FA
:100CE000082B00D127E7103309AAD374022235213B
:100CF00008A8FFF773FE33000422362108A8FFF787
:100D000083FE331D0422012108A8FFF77DFE330076
:100D10000422032108A8FFF777FE330004220621EE
:100D200008A8FFF771FE194A332108A8FFF75EFEF5
:100D3000089B5A1C0892FF221A70154B596809AA81
:100D4000089B9B1A3000483044250195453D00958D
:100D5000FFF76AFEEFE6094B094A3F2109480FF009
:100D600085FAFA21890010F03BFC46E7B4FDFFFF4D
:100D7000707E0110005C2605247E0110347D011078
:100D8000787E0110507D0110FFFF000080510100AE
:100D9000CC21002070B504000B6803601368436029
:100DA00008304022002111F093F825004835064A0A
:100DB00021002800FFF78CFE002800D070BD4321E1
:100DC0002800FFF797FEF9E71D0B001010B548301B
:100DD000FFF79AFE10BD0000F8B5CE46474680B535
:100DE0000700884614001E0008AB1B889946802324
:100DF0005B029A4200D3154CA022A1B29200362089
:100E000003F026FC051E15D022004146406811F073
:100E100065F838684B463200290008F047FB0600A9
:100E2000280003F0D7FB002E0AD12000C0BCB94631
:100E3000B046F8BD064811F0B9F90C246442F4E755
:100E400034003100034811F0E1F9EEE7FFFF000044
:100E5000907E0110BC7E0110F0B5D64600B5D0B032
:100E600002901600039356AB1D8896220023520071
:100E700005A9300003F0C0FD04000B2806D830009F
:100E800003F0A8FB50B080BCBA46F0BD05AF78882F
:100E900002F022FD8246B88802F01EFD5346DB0BAD
:100EA0009BB2002BEBD15346DB0A1B07E7D100288E
:100EB000E5D0381908AF3AE0013708ABFB1AFF2B31
:100EC000DDDCC0233B71B43B7B710024BC710B3B68
:100ED000FB713C727B72BC72FC723C733B337B7364
:100EE000BC7338001030383BFB73029B191D042281
:100EF00010F0F4FF14229246BA44114802F0ECFCC0
:100F000005AF7880012002F0E7FCB880012002F0F4
:100F1000E3FCF8803C817C8139005246D21B00956D
:100F2000039B0298FFF758FFA9E701317F1887421A
:100F3000C3D239780029BFD03F29F6DD9FE7C046EC
:100F40008084000070B504000E00150008F058FB06
:100F50002060002805D03200290008F023FB002083
:100F600070BD0C204042FBE730B583B014000B0687
:100F70000A02FF252D042A4013430A0AFF252D02E9
:100F80002A401343090E194301910068220001A968
:100F900008F02EF9002801D103B030BD0200210075
:100FA000044811F033F9044B044A372104480FF088
:100FB0005DF9C046DC7E0110007F01106C7F0110DE
:100FC000087F011010B504000068002803D008F065
:100FD000F5FA0023236010BD70B504000D00084A27
:100FE0000100FFF7AFFF002800D070BD35220021BF
:100FF0002000FFF7B9FF0028F7D12B686360F4E702
:10100000590E001010B5FFF7DDFF10BD10B5064BEF
:101010008B4202D107F01EFF10BD044B044A182179
:1010200004480FF023F9C046400400207C7F0110E3
:10103000448001109C7F0110F8B50400204B9942B8
:1010400012D101230B7207F02FFF0500431C11D1B1
:101050001C4B186859681C4B9860D96023685B6901
:10106000194920009847F8BD184B194A1D21194805
:101070000FF0FCF802F032F806000F1E10DBFA2227
:10108000920000232800002110F07CFE36184F410A
:10109000002F0BDB002F0DDB0B4B9E60DF60DDE7CD
:1010A0000D4B0E4A3F210E480FF0E0F80126764224
:1010B0000C4FEFE7084B094A3F2109480FF0D6F8DB
:1010C00030040020688D011040040020FC7F0110D6
:1010D0005C8001109C7F0110347D01102C80011078
:1010E000507D0110FFFFFF7F10B50400094B1B78F6
:1010F000002B08D0084901230B722368DB6920000C
:101100009847012010BD02F0D5FB024B01221A7056
:10111000F0E7C04690BE00203004002010B5040067
:1011200003689B690349984723681B6A02492000AA
:10113000984710BD40040020300400200020704774
:101140007047000010B501F0C9FF002906DB0BD085
:10115000FA229200002310F081FA10BD054B064AD6
:101160003F2106480FF082F8FA21890010F038FA82
:10117000F3E7C046347D01102C800110507D011032
:10118000083000E018000368002B03D08B42F9D12F
:10119000002002E001600B6001207047083000E091
:1011A00018000368002B05D08B42F9D10B6803604F
:1011B000012000E000207047043000E018000368C0
:1011C000002B03D08B42F9D1002002E001600B60BC
:1011D00001207047043000E018000368002B05D0A0
:1011E0008B42F9D10B680360012000E000207047BA
:1011F000F8B506008068002833D001F06FFF0029A1
:1012000006DB04000D0008239C46B44400220CE0D9
:10121000154B164A3F2116480FF028F8154B164A71
:10122000422116480FF022F89C4663461B68002BAB
:1012300012D0200029009E68DF68801BB941002978
:10124000F2DB34003D000E490A684968724079407B
:101250000A43E3D06246E7E7002A03D01068036838
:101260001360F8BD1000FCE7347D0110048101100B
:10127000507D0110708001101C81011094800110BC
:10128000688D0110F0B583B0104B5C681B6800934B
:101290000194836804E0DC689B68009301940B0070
:1012A000002B0CD01968009C019D9E68DF68A41B70
:1012B000BD41002DEFDCF2D1002CECD1EFE7009B1B
:1012C000019C0361446103B0F0BDC046688D01100C
:1012D00070B506000D0002E04B6828009847280012
:1012E000FFF786FF011EF7D16C6800E02468002C30
:1012F00009D0237A002BF9D0002323722100280083
:1013000063689847F2E72800FFF7BCFF2B696C6918
:1013100033607460300070BD034B1B6802201840BE
:10132000431E9841C0B2704700C0064010B5104A35
:10133000104B12184B419900900F0843990F5040E1
:1013400059400D4A0D4B10F01DFD03004A01C00E1F
:101350001043CA0E58405140094A0A4B10F012FD82
:1013600003004A00C00F1043CA0F5840514010BD3F
:10137000157C4A7FB979379EB9E5E41C6D4758BFA3
:10138000EB113113BB49D094F0B5C64600B584B01B
:1013900002000B0013498C461BE0614601C9009016
:1013A0008C4600210191910E9F010F4396010098F8
:1013B00001998019794102900391110C1D040D438C
:1013C00014040298039900196941801A9941020096
:1013D0000B0005498C45E0D91000190004B080BC11
:1013E000B846F0BD001C0420FF1F0420F0B5CE4617
:1013F000474680B583B080460368446800930194F3
:1014000003008068D96801E001F068FE009C019D3E
:1014100023002B4302D103000B43F5D0009C019D18
:10142000A60FAB003343A2002E002500AD185E418D
:101430006B0E9946F3019C464B46624613431F00D0
:10144000730EEA0113431E005B0F9C46FB006446CB
:101450002343F20092197B41009C019D604069404A
:10146000260A2F063E432D0A009C24062C434440A6
:1014700035004D40070C0E043E4307047C40754088
:101480004646346075604C01C50E2C434001C90EC0
:101490000843B460F0601000190003B0C0BCB94646
:1014A000B046F0BDF0B5DE4657464E464546E0B57F
:1014B00083B00190574B9B69DB0410D5564BDA6B18
:1014C000E0231340402B0AD0EFF305839846019B9D
:1014D000002B0AD000239946002400258AE04F4BB8
:1014E0004F4A81214F480EF0C1FE4F4B4C4A862196
:1014F0004C480EF0BBFE4D4B1868596801F090FC4B
:10150000EFF3108672B64A4B1B68002BFBD0BFF37B
:101510005F8F464B19685A688A4516D0BFF35F8FB4
:10152000434B00221A6086F310885B46002B5ED185
:101530003E4B1A6892465F684346002BDBD03B4B1C
:101540001868596801F0D6FDDAE7BA42E6D1200002
:101550002900001969412F4BDA6901231340034325
:101560001C000D0001F0BAFD02000B1E23DB0A2057
:10157000002112184B41002B23DB002B25DB2B49CC
:101580000A604B6001994B1E4B452DD1294A2023FF
:101590005B42CB181FD4116899400B001268019967
:1015A0008A4022432B4314001D00224B1C605D60C7
:1015B00001239B46B2E7204B204A3F2120480EF0F2
:1015C00055FE012252421F4BD7E71B4B1B4A3F21BE
:1015D0001B480EF04BFE202301981B1A1168D940BE
:1015E000536883400B43D9E701239B4696E70123C9
:1015F0009C46E144019B994502D200239B4697E714
:101600002000290003B0F0BCBB46B246A946A04664
:10161000F0BDC04600000640008000404C81011033
:10162000908201101482011004A7011050100020B4
:10163000300100D0200F0020347D0110788201108D
:10164000507D0110FFFFFF7F10B588B03B4C206834
:101650006168FFF799FE20606160FFF767FE049BF9
:101660005840059B019359400490059102A800F051
:1016700011F902980399FFF759FE069B0193584010
:10168000079B01935940069007914020FFF70AFFFE
:10169000FFF74CFE049B5840059B01935940049072
:1016A000059101F01BFDFFF741FE069B0193584099
:1016B000079B0193594006900791EFF3108472B68F
:1016C0001F4B1B68002BFBD0BFF35F8F1D4B1B789C
:1016D000002B24D1032B09D85A1CD2001A498C465E
:1016E000624452681F2A03D00133F3E701235B42AF
:1016F0005A1C1DD0DBB2154A13700133DB00124AAD
:101700009446634405225A6004A8FFF76FFE102236
:1017100004A90F4810F0E2FB0A4B01221A70BFF334
:101720005F8F074B00221A6084F3108808B010BD49
:10173000084B094AE92109480EF098FD080F0020DE
:10174000300100D097BE0020000003408BBE002077
:10175000100F00206C820110B08201101482011061
:1017600070B586B03E4B1B78002B00D16EE0102286
:101770003C4902A810F0B2FB3B4B1C78E4B201F0EC
:10178000ADFCFFF7D3FD029B5840039B01935940EA
:10179000029003910120FFF785FEFFF7C7FD049B30
:1017A00001935840059B01935940049005912F4B9C
:1017B0001A78531CDB002E4958582E4B984248D0BB
:1017C0000021FFF7B3FD029B5840039B0193594052
:1017D00002900391EFF3108672B6274B1B68002B23
:1017E000FBD0BFF35F8F204B1B78DBB2A34213D03B
:1017F0001C4B02991A685140039A01925868424062
:10180000029103929A68DB68049901914A40059914
:1018100001914B400492059302A8FFF7E7FD0500F4
:101820000C00102202A90F4810F058FB0E4A137842
:101830000133DBB21370BFF35F8F0F4B00221A60CE
:1018400086F310882800210006B070BDFFF7FCFE6B
:101850008DE70132D2000B000021D150B0E7C04625
:1018600097BE0020100F00208CBE00208BBE0020F1
:1018700000000340FFFFFF00300100D010B5FFF76C
:101880006FFF10BD10B5024800F00CF810BDC04647
:1018900010BC002010B50822014910F01FFB10BD3C
:1018A00010BC002070B588B0040004AD002604967A
:1018B0000922002105A810F00BFB00960922002147
:1018C00001A810F005FB4B232B700D226946280060
:1018D00015F0B6FF002304E05A1D69468A5CE25405
:1018E0000133072BF8DD08B070BD0000EFF3108066
:1018F00072B6034B1B68002BFBD0BFF35F8F7047A2
:101900002C0100D0BFF35F8F024B00221A6080F3DE
:10191000108870472C0100D0F8B506000C001500A7
:10192000FFF7E4FFE308F718F15C072222400123E8
:1019300093400B4205D1DBB20B433B70FFF7E2FF54
:10194000F8BD210028000EF02BFDF0B583B0060095
:10195000019114001F00FFF7C9FF00E00134BC42F1
:101960000CD8E308F518F35C0721214001228A40D6
:101970001A42F3D1D2B21A432A7001E00124644220
:10198000FFF7C0FF002C02DB200003B0F0BD019B7D
:10199000002BF9D008980EF003FD000070B505008B
:1019A0000C00FFF7A3FFE308EE18EA5C07210C40E8
:1019B0000123A340134204D09A433270FFF7A2FFE1
:1019C00070BD034B034A2C3103480EF04FFCC04658
:1019D00048840110C884011068840110002307E0C6
:1019E000054A9A189200BFF35F8F002111600133FE
:1019F0001F2BF5D97047C04640000034054A1078C7
:101A0000431CDBB21370172B02D9130010221A707B
:101A10007047C0465804002010B5010018231B88E9
:101A200014221088984710BD10B5010018231B8898
:101A300016221088984710BDF0B5C64600B50700BD
:101A40000E0000250123984600E00135B5420AD278
:101A5000AC003C192068FFF7DFFF20600028F4D1BC
:101A600000239846F1E7404680BCB846F0BD000030
:101A7000F8B5DE4657464E464546E0B505000F0030
:101A800092460A9A934250D31A0E91461E020A9A1F
:101A90000023300049460FF0E1FD80466C006419D8
:101AA000A400304B9C4664446368834200D260606B
:101AB0002B1FDBB29B46012B3DD9C0239B01234347
:101AC000802212011A60AB00274A9958002907D0DA
:101AD00050690FF085FD431C5800C0180338FDD233
:101AE00053465A0123685A40E0231A4080235B0181
:101AF00023431A605A46012A28D980239B01234395
:101B0000802212011A60434663604246002330007F
:101B100049460FF0A3FDAD00134B58510120F0BC16
:101B2000BB46B246A946A046F8BD104B104A332129
:101B300010480EF09BFB012FBFD1C0239B01234314
:101B400003221A60A368DB07FCD5C9E72168794046
:101B500003220A401A60A2680123BB401342FAD054
:101B6000CBE7C04600800040D0120020D88401108E
:101B70004C850110EC84011030B583B00C2001F0CD
:101B80007DFEFFF7C9FB00280DD0002304E099007B
:101B90002D4A2E4888500133092BF8D92A4B2C4A5C
:101BA0005A6203B030BD2B4B00229A6701F06EFEE3
:101BB000294B01221A60274B5B6C012BFBD1274B71
:101BC00003221A60234B9B6B012BFBD10133009343
:101BD0000433234A0121234801F0C0FD052300936B
:101BE000214A0121214801F0B9FD214B0093002237
:101BF00002210420FFF73CFF1E4D00952B00002220
:101C000001210520FFF734FF104C0094230000222F
:101C100000210720FFF72CFF009423000022002161
:101C20000820FFF725FF0A4B009323000022002124
:101C30000920FFF71DFF00952B0000220021062040
:101C4000FFF716FFADE7C046D0120020006CDC02A3
:101C50001BB70000008000403CB0004030B00040A6
:101C6000002F685900800240008C864700C0024067
:101C7000001BB700405973078000014BC0587047E4
:101C8000D012002010B58300084A944663441C68B3
:101C900040226240C02414408022520113431C6041
:101CA000C000034B9C466044416010BD04C001402D
:101CB0000040014080000B4B9C46604400290DD041
:101CC0000823002A0CD004221343026853400C223C
:101CD0001340802252011043036070470023F0E755
:101CE0000022F1E704C00140002909D08000094B1F
:101CF0009C46604480239B01184302230360704785
:101D00008000044B9C466044C0239B01184302237F
:101D10000360F4E704C0014070B5D0231B061B68C4
:101D20009D00094C2C59204207D19B002043064CB2
:101D300018510D2000F024F970BD044B044ACC2149
:101D400004480EF093FAC046FCBB00205C850110ED
:101D5000348601108885011010B50400D0231B06BD
:101D60001B689B000A4A9B5818420BD00D2000F0BC
:101D700021FAD0231B061B6805499B005A58A24331
:101D80005A5010BD034B044AD62104480EF06EFA97
:101D9000FCBB0020E485011010860110888501102D
:101DA000072303409B00C00899403C308000014B52
:101DB000C150704700400140F8B507000C00160004
:101DC0001D00FFF7EDFFFB089B00ED1807203840D2
:101DD00080008440002E04D080239B011D432C6092
:101DE000F8BDC0239B011D432C60F9E710B5D0233B
:101DF0001B061B68002B03D0024BFFF7DDFF10BD55
:101E0000014BFAE7304101400041014010B5012388
:101E10008340D0221206936293610521FFF732FFBF
:101E200010BD0000074B9B68103080001950BFF3B5
:101E30005F8FBFF35F8F044B0021196082F310881E
:101E40007047C04600ED00E0240100D010B5091A2B
:101E5000081F0A4B9C466144094A914208D8C307AF
:101E600006D440104005400D064B184380B210BD0B
:101E7000054B064AA32106480EF0F8F9FC070000BE
:101E8000FE0F000000E0FFFF68860110D0880110FF
:101E90009886011010B5091A04394C08090B08D1AD
:101EA0004905490D064A11430180064B23434380EF
:101EB00010BD054B054AAB2105480EF0D7F9C046C9
:101EC00000F0FFFF00F8FFFFF4860110A488011066
:101ED0009886011001238340034A10681840431E6E
:101EE0009841C0B27047C04600E100E0002904D02C
:101EF000034B1860034B18607047034B1860FBE7F7
:101F000080E200E000E100E080E100E010B50123A4
:101F100083401800FFF7EAFF10BD0000024B9B68EA
:101F200010308000C058704700ED00E070B504002C
:101F30000D00EFF3108672B60C4B1B68002BFBD024
:101F4000BFF35F8F2000FFF7E9FF094B984201D0F4
:101F5000A84205D1320029002000FFF763FF70BDC1
:101F6000044B054A862105480EF080F9240100D073
:101F7000CD0100100487011004890110988601101A
:101F8000F0B5DE4657464E464546E0B589B0814637
:101F900001911500EFF3108A72B6744B1B68002B89
:101FA000FBD0BFF35F8F724B0027DF57002F40DB62
:101FB0007C00E419A4006F4824180622A2566C4B3A
:101FC0001A706D4B9A684B4610339B00D358984655
:101FD0001E001B1A2F2B38D9684B98452FD105AE00
:101FE000674B33807B009B46D8198000614B984635
:101FF000404402306349FFF729FF7080624BB38091
:10200000FF23B371F571019B07935F44BF00474401
:102010000ECE0EC701231C43A046524641464846F9
:10202000FFF700FF09B0F0BCBB46B246A946A04688
:10203000F0BD564B564AD72156480EF017F9564B6D
:10204000534ADE2153480EF011F9C04340440C219D
:102050000FF0C6FA002912D101239E43B346330084
:102060000026DA79AA4211D90621595600290CDB3B
:102070004A00521892001E003E4B9B18F1E7474B56
:10208000434AEA2143480EF0F1F81E00002E3AD0F0
:1020900005AB434A1A80813A5A800623F3560293CD
:1020A000002B17DA3F4805AB9B469880029A9A713D
:1020B000DD71019A0792301D2100FFF7C7FEB08045
:1020C000B7717B00DB199B002A4FFF185B4607CBDB
:1020D00007C7A2E77800C0198000264BC01804305B
:1020E000321DB388D90A1C2907D15B055915023165
:1020F00049005118FFF7AAFED5E72B4B2B4AB12117
:1021000024480EF0B3F805AE1D4B33807B000293DC
:10211000D8198000174A9046020042440392901C4E
:102120001849FFF793FE7080039A101D5946FFF778
:102130008DFEB0801E4B5A464146521A52415343BF
:102140001B0DB371F571019A0792029B9C4667447F
:10215000BF0047440ECE0EC7114B5A461380813B39
:10216000538001231C43A04657E7C046240100D0FA
:1021700093BE00205C04002000ED00E0CD010010C3
:1021800000A1FFFF8C04002001BDFFFF3C87011070
:10219000EC88011098860110648701108C8701106B
:1021A0000148000001BD000000880110DC8801101A
:1021B000AAAA0000F0B5CE46474680B583B0060017
:1021C0000D00EFF3108872B6564B1B68002BFBD046
:1021D000BFF35F8F544B9A6834001034A300D75874
:1021E000524B9F4207D0AF4200D198E00197504B2D
:1021F000FB1A2F2B09D9424639003000FFF712FE97
:1022000003B0C0BCB946B046F0BD3000FFF762FE77
:10221000814600213000FFF779FEBFF35F8FEFF3B7
:102220000581002901D08C4211D10123019C9C43DE
:102230000022A368AB4212D00622A256002A0DDB70
:1022400053009B189B002200394CE418F1E736211B
:10225000384B394AFF3139480EF008F82200AB42BA
:1022600056D106256557002D38DB6B005B199A00A7
:102270002F4B9B189A68A260DA79E27106229A566F
:10228000A2719B795BB2002B0FDA2D48A0806B0006
:102290005B199B00264AD3182A4A11789971157048
:1022A00049463000FFF732FEA5E7201D6B005B19A1
:1022B0009B001F4A9B181A1D9B88D90A1C2907D10D
:1022C0005B055B15023359005118FFF7BFFDDDE7D1
:1022D0001D4B1E4AB12119480DF0C8FF002912D12B
:1022E000002A0ED0FF239371194B9380154A13785F
:1022F000A371184B0E49641A644163431B0D13709C
:10230000CEE70A4FF2E7201D1349FFF7C3FDC7E7E9
:102310006A21124B084AFF3108480DF0A7FF034F0E
:1023200069E7C046240100D000ED00E0CD010010B7
:102330005C04002018880110BC88011098860110E8
:1023400001BD000093BE002000880110DC88011050
:1023500001BDFFFFAAAA000096040020007F011023
:1023600070B5012101432E4BCB1A2F2B28D8EFF348
:102370000583002B2BD0EFF3108C72B6294A12681C
:10238000002AFBD0BFF35F8F274A0400244D641B53
:1023900064416243120D54B2244A92689B00D258A1
:1023A0008A421BD00022032A32D853009B189B007C
:1023B0001B49CB189B795BB2A3421FD00132F2E7D5
:1023C000C7211B4B1B4A49001B480DF04FFF9221B0
:1023D0001A4B184AFF3118480DF048FF134A92680B
:1023E0001749D150174B1A7882711C70BFF35F8F59
:1023F0000C4B00221A608CF3108870BD0D00530046
:10240000991889006918FF268E710F4A8A80E9E7BA
:10241000D1210E4B074A490007480DF027FFC0465F
:102420005C040020240100D0AAAA000000ED00E016
:102430004C8801108888011098860110748801105A
:10244000CD01001093BE002001BDFFFF8088011068
:102450000022044B02E0044902C30132072AFAD9E0
:102460007047C04600E400E08080808070B50400C2
:102470000E001500FFF7C2FA0100200000F006F878
:10248000A680E580BFF35F8F70BD0000024B9C46C5
:1024900061448900016070474000003410B50400B9
:1024A000FFF7ACFA01002000FFF7F0FFFF232371D4
:1024B000BFF35F8F10BD10B50400FFF79FFA010056
:1024C0002000FFF7E3FFFF23237100236371BFF3B5
:1024D0005F8F10BD70B505000C00080000F0FEFE17
:1024E0000949200000F03EFEFFF788FA074B9C46A2
:1024F0006044800068602C75D0231B061B786B75C8
:10250000A400034BE55070BD1928001040000034B2
:10251000ECBB00200A4B1A68EFF3108172B6136807
:10252000002BFCD0BFF35F8F054B1B68BFF35F8FA1
:1025300000221A6081F3108840BF002000217047FC
:1025400020BE002010B5002922D003681B7B9942D1
:102550001ED8174B9C466144090183689C46614420
:102560000C684968002A19D003681B7B9A4215D869
:1025700083680F488446624412019A1810685368B1
:10258000020001208B4201D80ED00020C0B210BD45
:10259000084B094A3C2109480DF068FE054B064AE4
:1025A0003C2106480DF062FEA242EFD8EDE7C0469E
:1025B000FFFFFF0F548A0110D48C0110008A011014
:1025C00010B500291ED0037B99421BD84B005B1825
:1025D000033B0468A4466344002919D0002A1DD097
:1025E000914221D0002A25D0047BA24222D804683F
:1025F00050008018033820188170197800291FD1E5
:102600001A7010BD104B114A682111480DF02EFEB2
:10261000104B114A6F310E480DF028FE0F4B0E4A39
:1026200070210B480DF022FE0D4B0B4A712108481A
:102630000DF01CFE044B054A682105480DF016FEFE
:1026400041701A70DDE7C046788A0110408D011094
:10265000948A0110FC8A01101C8D0110088B011056
:10266000148B011070B506000D001400002914D061
:10267000002A14D0806873689847002806D022008A
:1026800029003000FFF79CFF280007E02A00210006
:102690003000FFF795FF200000E0100070BD08003B
:1026A000FCE70000F0B583B00500009201930AAB8F
:1026B0001C780BAB1F78002C26D003685A7B944201
:1026C00007D10123002B19D1002C3BD1200003B0EE
:1026D000F0BD002C0CD01A7B944209D81A68630014
:1026E0001B19033BD3189B78002BEBD00123E9E7A0
:1026F0003E4B3F4A68213F480DF0B8FD3E4B3F4AF4
:1027000067213F480DF0B2FD03689C7B002CDBD0B5
:1027100012D01A7B94420FD862001219033A19683A
:102720008C46624451789973002900D1D9730023F3
:10273000937053701370C7E72C4B2D4A68212D48B6
:102740000DF094FD002C3AD02B681B7B9C4236D8B0
:102750002C4BE3181B01AA6894466344009A1A6044
:10276000019A5A60089A9A60099ADA602E68002CD9
:102770002BD030D0337B9C422DD863001B19033BF8
:1027800032689446634400229A705A701A70717BC2
:1027900022003000FFF766FF7073844200D095E797
:1027A000287D009A019B00F025FD061E01D0002F18
:1027B00017D00C9B002B00D188E71E7086E7124BC8
:1027C000124A3C210E480DF051FD114B114AA52132
:1027D00008480DF04BFD054B054A682105480DF0F2
:1027E00045FD2868210000F03DFFE2E7788A0110EE
:1027F000408D0110948A01102C8B01104C8D01101A
:10280000008A0110FFFFFF0F548A0110D48C0110C1
:10281000FC890110308D0110F0B5DE4657464E465A
:102820004546E0B58BB00990002308938200B54B74
:10283000D658370052E0B44BB44A3F21B4480DF0AB
:1028400015FDB44BB44A3C21B4480DF00FFD0029EE
:1028500001D1002869D10021404600F0F9FEA042D4
:1028600019D12A686B6806920793AB689846EB68A3
:102870009A464346002B14D0002C18D03B681B7B93
:102880009C4214D8631EFA68D35C08931B02184359
:102890003861002015E0A24BA24A8E219F480DF01E
:1028A000E5FCA14B9F4A92219C480DF0DFFC994B1F
:1028B0009E4A412199480DF0D9FC00239A4698463A
:1028C00000207B68BFF35F8F00221A6086F31088B8
:1028D0004346002B32D1002800D10CE100F0FEFB72
:1028E00002000B1EA7DB00200021069007917868EC
:1028F000EFF3108672B601680029FCD0BFF35F8F3A
:10290000396888464C7B002CD7D09AD0097B8C4202
:1029100097D8874965182D01B9688C4665442868A1
:102920006968801A9941002991DD2A686B680998C5
:1029300000F060FC00239A469846C2E7089B1B0201
:102940002343994651461800C04705000E007A6897
:10295000EFF3108B72B6136859424B41D9B2002B7A
:10296000F9D1BFF35F8F002E1EDB002E46DD3B69E1
:10297000002B47D04B456DD100F0B0FB02000B1E81
:102980006EDB52197341002B70DB002B72DB0021D0
:102990000491013103910294514601914146009105
:1029A0003800FFF77FFE4CE03B69002BDDD04B4544
:1029B00014D1069A079B521BB341002B14DB002B4A
:1029C00016DB0021049101310391029451460191DB
:1029D000414600913800FFF765FE32E0554B514A01
:1029E000A1214E480DF042FC01225242524BE6E733
:1029F000454B464A3F2146480DF038FC002E01D198
:102A0000002DB4D13B68002C50D05A7B944237D172
:102A1000012100294AD1DA7B002A4DD19A7B002A74
:102A200003D1DA7B002A5AD19C73DC73002C5CD072
:102A30003B681B7B9C4258D8FA68013C135D01330C
:102A4000135500233B617A68BFF35F8F13608BF3EC
:102A5000108843E7374B334AA42130480DF006FC79
:102A6000294B2A4A3F212A480DF000FC01225242FC
:102A7000314B8AE7244B254A3F2125480DF0F6FBD0
:102A8000002C0DD01A7B94420AD862001219033A26
:102A90001868844662449278002ABAD00121B8E7C7
:102AA000264B274A682127480DF0E0FB264B274A92
:102AB000F62124480DF0DAFB002A0AD0197B8A425D
:102AC00007D851008A18033A19688C46624454703A
:102AD000A4E71A4B1A4A68211A480DF0C7FB1C4B91
:102AE0001A4AFB2117480DF0C1FB0A4B0F4A41213E
:102AF0000A480DF0BBFB0BB0F0BCBB46B246A94682
:102B0000A046F0BDECBB0020347D0110A08C01106C
:102B1000507D0110548A0110D48C0110008A0110DC
:102B2000548B0110B88C01106C8B0110F88C0110C3
:102B3000FFFFFF0F788B0110FFFFFF7F788A0110E6
:102B4000408D0110948A0110B48B01100C8D01107E
:102B5000D88B011010B50C4B5B68002B04D00A21F8
:102B60000A48FFF793FC10BD074C2300084A1021C8
:102B7000206800F07DFC032000F0A4FA032120006F
:102B8000FFF7A8FCEBE7C046A404002020BE00200D
:102B90004525001010B5064B5B68002B01D004489A
:102BA00010BD044B044A5E2104480DF05FFBC04693
:102BB000A4040020EC8B0110E08C0110008A0110AD
:102BC000F0B5DE4657464E464546E0B58BB08046EA
:102BD00016001F00149B9A46159B994616AB1B784E
:102BE0009B461F2302AA9446634400221A702BE0DE
:102BF000002809D042461268127B904204D8421E37
:102C00004146C9688A5C41E0404B414A4121414804
:102C10000DF02CFB07984CE0361BAF41002F07DB73
:102C2000002F11DA3C4B3D4A3F213D480DF01EFB81
:102C3000012676423B4FF3E7374B384A3F2138486D
:102C40000DF014FB002F4FDB43465A68EFF310845E
:102C500072B6136859424B41D9B20791002BF8D193
:102C6000BFF35F8F1F3302AA94466344049300238B
:102C7000039302934B4601935346009332003B006B
:102C80004046FFF70FFD031EB2D1020041464968DE
:102C9000BFF35F8F00250D6084F31088002B29D0CF
:102CA0001F2302A98C4663441B78002BB2D1120269
:102CB0001043002B20D05B46002B1DD04946D04747
:102CC00004000D0003000B431DD00029A4DB00F01D
:102CD00005FA06000F1EAFDB36196F41002FB1DA7F
:102CE000012676420F4FADE70B4B0C4A3F210C48B3
:102CF0000DF0BCFA012040420BB0F0BCBB46B2461E
:102D0000A946A046F0BD0798F6E7C046548A0110D0
:102D1000F88C0110008A0110347D0110A08C011084
:102D2000507D0110FFFFFF7FF8B50400002900D19E
:102D300062E04268EFF3108572B61368584243416F
:102D4000D8B2002BF9D1BFF35F8FCBB22268567B8C
:102D5000B3421BD10120002848D0206988422BD0E3
:102D6000090AC9B2002B2ED02068007B83422AD8E2
:102D7000581EE668305C88422BD000206368BFF3A1
:102D80005F8F00221A6085F31088F8BD002B0DD0EC
:102D9000167BB3420AD85E00F618033E1768BC469D
:102DA0006644B678002ED6D00120D4E7134B144ADF
:102DB000682114480DF05AFA2C21134B134AFF31A5
:102DC00013480DF053FA134B134A412110480DF0EC
:102DD0004DFA1900100000F045FC0028CED19921D1
:102DE0000E4B0A4A49000A480DF040FA23698B420B
:102DF000C4D100232361C1E70020C6E7788A01100F
:102E0000408D0110948A0110108C0110888C0110E3
:102E1000008A0110548A0110F88C0110348C0110C2
:102E2000F0B587B006000F00EFF30583002B1FD12C
:102E300006246442E517A4197D418D4202D803D1CE
:102E4000844201D900240025002D14DB049405954B
:102E500000F044F902000B1E13DBA41A9D41002D63
:102E600017DC14D03000390000F044F907B0F0BD91
:102E700023480DF095FA234B234A3F2123480DF0B8
:102E8000F5F9204B204A3F2120480DF0EFF9002CA6
:102E9000E8D0FFF77FFE0023029301931C4B0093C1
:102EA000049A059BFFF78CFE002818DADAE7002366
:102EB00000E00023002BD5D1164B1A68EFF31081E8
:102EC00072B61368002BFCD0BFF35F8F114B1B68E9
:102ED000BFF35F8F00221A6081F3108820BF04992E
:102EE000059A0D4B5B6A9A42E3D80B48806A884288
:102EF00003D29A42DBD00123DCE70123DAE7C046A4
:102F0000388C0110347D0110A08C0110507D01100F
:102F10001525001020BE00200040054070B50400BB
:102F20000D0000F0DBF802000B1E0ADB2000290078
:102F30008018594100290ADB00290CDBFFF770FFDC
:102F400070BD084B084A3F2108480DF08FF9012059
:102F500040420749F0E7034B034A3F2103480DF085
:102F600085F9C046347D0110A08C0110507D011000
:102F7000FFFFFF7F10B5FA229200002300210EF020
:102F800001FFFFF7CBFF10BD70B584B005000C004A
:102F9000EFF30583002B1ED1FFF7FCFD0023029306
:102FA0000193224B00932A002300FFF709FE061E1F
:102FB00023DD20BFFFF7EEFD3100FFF7B5FE1C4B10
:102FC0005B6A9C422DD81A4A926AAA422CD29C4231
:102FD00025D0012026E0164B5B6A994209D8144A95
:102FE000926A824207D2994201D001201AE0002061
:102FF00018E0002016E0012014E00D4B5B6A9C42B3
:1030000009D80B4A926AAA4207D29C4201D00120F9
:1030100008E0002006E0002004E0012002E000209B
:1030200000E0002004B070BD0120FBE71525001072
:103030000040054070B5EFF305801038EFF3108CB9
:1030400072B61A4B1B68002BFBD0BFF35F8F0122B7
:103050001300834016494B6316490B6016490978E3
:103060000C00C440224214D0114A546A8200134D0D
:103070005259944206D38200114C125999430E4B77
:10308000197007E00A4A031D9B00995899500022C5
:1030900000E00022BFF35F8F044B002119608CF326
:1030A0001088002A00D0904770BDC046280100D08B
:1030B000004005403C7005409BBE002034BE00200F
:1030C000B810002010B50100024A0348FEF724FCA6
:1030D00010BDC046708D01108DBE0020044B5B6A90
:1030E000034A906A1900536A9942F9D17047C04661
:1030F00000400540084B5B6A01E0074B5B6A8B426E
:10310000FBD301E0044B5B6A8B4203D1024B9B6A09
:103110008342F7D37047C0460040054070B50400B5
:103120000D00FFF7DBFF02000B00200029008018D4
:1031300059418B4202D804D1824202D90120404237
:10314000C117002902DBFFF7D5FF70BD024B034A10
:103150003F2103480DF08AF8347D0110348E0110B0
:10316000507D011070B504000D00EFF3108672B6AB
:103170001B4B1B68002BFBD0BFF35F8F002D1CD0B7
:103180002000FEF7CBFE174B83420BD01900200026
:10319000FEF7CCFE01212000FEF7B8FE0123A3407C
:1031A000114A1360A400114BE550BFF35F8F0C4B25
:1031B00000221A6086F3108870BDA2000B4B00211C
:1031C000D1500122A2400A490B7893430B70054964
:1031D0002000FEF7EFFF00212000FEF797FEE4E756
:1031E000280100D03530001038600540B8100020AC
:1031F0009BBE0020F0B5DE4600B584B0040015008B
:1032000001921E000293FFF769FF03958E4202D8D8
:103210004ED185424CD9EFF3108B72B6274B1B6809
:10322000002BFBD0BFF35F8F254A17780125A540FF
:10323000EBB23B431370234B5D63221D9200019957
:10324000D150A2002049029850501B6A2B4212D143
:103250001C4B1B6C2B4208D00020BFF35F8F174B19
:1032600000221A608BF3108823E0184B184AC521FE
:1032700018480CF0FBFFFFF731FF8E4214D802D143
:10328000039B834210D80E4B1B78BB420ED00D4BD4
:103290001D625D631F2004400123A3400E4A13609A
:1032A000074B1F701E38D8E70020D6E70120D4E76F
:1032B000012004B080BCBB46F0BDC046280100D050
:1032C0009BBE00200040054034BE0020948D0110BC
:1032D000188E0110B88D011080E200E0EFF3108C21
:1032E00072B60B4B1B68002BFBD0BFF35F8F012323
:1032F0008340084A136208490A789A430A70BFF368
:103300005F8F034B00221A608CF310887047C04611
:10331000280100D0004005409BBE002010B50029C8
:103320001ED0037B99421BD84B005B18033B0468FB
:10333000A4466344002919D0002A1DD0914221D00F
:10334000002A25D0047BA24222D8046850008018AD
:10335000033820188170197800291FD11A7010BD08
:10336000104B114A682111480CF080FF104B114A94
:103370006F310E480CF07AFF0F4B0E4A70210B484C
:103380000CF074FF0D4B0B4A712108480CF06EFFD6
:10339000044B054A682105480CF068FF41701A701B
:1033A000DDE7C046788A0110548F0110948A01101D
:1033B000FC8A0110408F0110088B0110148B011042
:1033C00070B506000D001400002914D0002A14D096
:1033D000806873689847002806D0220029003000D2
:1033E000FFF79CFF280007E02A0021003000FFF7CC
:1033F00095FF200000E0100070BD0800FCE7000011
:1034000010B50023437301338373037BC37301231C
:10341000027B9A4214D9002B0CD0027B934209D82C
:103420005A00D218033A01688C4662440133DBB279
:103430005370EDE70B4B0C4A68210C480CF016FF5B
:10344000002A09D0924207D8016853009A18033A1B
:103450008A180023537010BD024B034A68210348A9
:103460000CF004FF788A0110548F0110948A011027
:1034700010B5017342608360FFF7C2FF10BD00000A
:1034800070B50400081E00D170BD002934D0237B24
:10349000994231D84B005B18033B22689446634441
:1034A0005A78002AF0D02DD0237B9A422AD8530094
:1034B0009B18033B21688C4663445D78002159705A
:1034C000002825D0237B984222D843001B18033BB9
:1034D00021688C4663440021597001002000FFF7E9
:1034E0006FFF060029002000FFF7CAFF020031002D
:1034F0002000FFF765FFC7E7084B094A6821094824
:103500000CF0B4FE054B064A682106480CF0AEFEEE
:10351000024B034A682103480CF0A8FE788A011088
:10352000548F0110948A011070B505000C0016002C
:1035300000292FD034D0037B994231D84B005B183F
:10354000033B0268944663445A78002A2ED19A7845
:10355000002A31D11978FFF793FF0300002E0AD01B
:10356000EA7B002A2ED1AA7B002A03D1EA7B002A1B
:103570003BD1AC73EC73002B3DD1002C4FD02B7B97
:103580009C424CD82B6861000C19033C1C19002389
:10359000637070BD254B264A382126480CF066FE24
:1035A000254B264A682126480CF060FE254B204A10
:1035B0003A2120480CF05AFE234B1D4A3B211D485E
:1035C0000CF054FE002A0AD0297B8A4207D8510009
:1035D0008A18033A29688C4662445470C3E7164B34
:1035E000164A682116480CF041FE184B104A422139
:1035F00010480CF03BFE002B0BD02A7B934208D8DE
:1036000043001B18033B2A689446634400229A70C7
:10361000B3E7094B094A682109480CF027FE064B1D
:10362000064A682106480CF021FEC0464C8E011067
:103630002C8F0110548E0110788A0110548F0110C4
:10364000948A0110A88E0110D08E0110D88B011021
:1036500070B504000A00457B2900FFF765FF607321
:10366000280070BD70B50400002967D0437B8B42F1
:103670000ED0002911D0037B99420ED84B005B1865
:10368000033B0268D0188378002B0CD1002056E051
:103690000121FFF7DDFF012051E0294B294A682174
:1036A00029480CF0E3FD002B20D0227B93421DD84B
:1036B0005A00D318033B2268D2182568EB5C8B4272
:1036C0001AD0002B1BD0227B934218D85A00D31853
:1036D000033B2268D21853788B4216D0002BF0D1CE
:1036E0001A4B1B4A6B211B480CF0C0FD144B154AAA
:1036F000682115480CF0BAFD4378137007E0104BB1
:10370000104A682110480CF0B1FD43785370002333
:103710008370437001222000FFF706FF0200617BE7
:10372000814205D02000FFF74BFE6073012006E0C8
:10373000094B074A712107480CF098FD002070BD25
:10374000788A0110548F0110948A0110808801102A
:10375000148F0110548E0110F48E0110F0B5C6467E
:1037600000B504000E0017001D0037480DF038FFAB
:103770008046364BFA18364B9A4239D80100380049
:103780000DF02EFF0200103A98235B009A4235D8C4
:103790006B1E062B38D8069B013B062B34D83F09FD
:1037A000474537D32D04069B1A0315432368002B86
:1037B00036DB284B9C4244D080225201264B1A60B3
:1037C000264B1A60264B9B6811009943FAD126605C
:1037D000A060231DC02292011A4321231360236895
:1037E000002BFCDAE5600823136080BCB846F0BD0E
:1037F0001C4B1D4A11211D480CF038FD1C4B1A4A68
:1038000019211A480CF032FD1A4B174A1C2117488F
:103810000CF02CFD184B144A232114480CF026FD03
:1038200022683F231340B342C3D1A3681B051B0D7D
:103830008342BED1E368EE22D2021340AB42B8D13C
:10384000D3E780229201B9E7001BB70080E84BD391
:1038500080F8A93200C0024000E0004000F00040C3
:1038600000C00040608F0110A0900110C08F0110B7
:103870001C900110389001108490011080239B004F
:103880000343014AD362704700800540064BAA22D9
:1038900012011A602F22DA60044B054A1A60024BAB
:1038A0005B68002BFBDA704700400240006002407A
:1038B00000B0FA0010B501F03BFA00F01EFB00F07A
:1038C0008DFB00F031FC05F07BFB01F0F1FA00F01C
:1038D00018FA05F0ADFA10BD0302000A184380B2D1
:1038E000704703060202FF2109040A401343020A3B
:1038F000FF2109020A401343000E184370470000DD
:1039000000280AD0C07A002809D1431C9B00054A30
:103910009B58002B04D0012002E0002000E0002092
:103920007047C046601D002010B5FDF7A7FF80B2AC
:10393000002301E00133DBB2032B0FD81A01D218A8
:10394000120107498A18927A022AF3D11A01D21871
:1039500012018A1812898242ECD1E6E710BDC046F6
:10396000681D0020F0B5D6464F464646C0B5060055
:103970008846002401E00134E4B2032C23D825005A
:1039800063001B199B00314A9F58002FF3D063003E
:103990001B199B00D3181B7AB342ECD1300180195C
:1039A000000110302A4BC0189246630099461B193B
:1039B0009B0053445A684146B8474D44AD0000232C
:1039C0005246AB50D7E7002301E00133DBB2032BB3
:1039D0001BD8B342F9D01A01D21812011C498A1817
:1039E000927A022AF1D11A01D21812018A18D07BD8
:1039F0003201921912018A18D27B9042E5D133012B
:103A00009B191B01CB180422DA7333019B191B018C
:103A10000F4AD318DB7B032B04D9E0BCBA46B1466E
:103A2000A846F0BD0B4C9B00185905F0C7FD084A8D
:103A3000300183191B01D318DB7B9B000021195136
:103A40008019000110180423C373E6E7301D00201D
:103A5000681D0020201D0020F0B5D6464F46464682
:103A6000C0B584B08046030143441B01534AD318B8
:103A7000DB7A012B34D89B00514A9B58002B32D063
:103A800004014444240110344C4BE41820000FF08E
:103A90003FFBA022123081B29200362000F0D8FD08
:103AA0008146002800D185E001AD0C2200212800CC
:103AB0000EF00EFA43461B0143441B013F4AD31844
:103AC0001889FFF709FF28800123AB70FF33AB8013
:103AD0000C222900484600F0DBFF661E0C2737E069
:103AE00038480CF05DFC0021FFF73CFF434618010D
:103AF00040440701314BDF190023BB720024200032
:103B000004B0E0BCBA46B146A846F0BD0134E4B208
:103B1000013633782E2B01D0002BF7D1731B9BB2CB
:103B20009A463B19284A934216DC2200390048463F
:103B300001F048F87B1C9BB252462900484600F031
:103B4000F3FF3C19A5B26F1CBFB23378002B09D02C
:103B5000013635000024DCE7484600F03BFD062432
:103B60006442CCE700223900484601F02BF80235C8
:103B7000ABB28022520069460A804A80FC3A48462D
:103B800000F0D2FF0D4943461B0142469A1812012C
:103B90008A18D07BD37A9B00094AD21880000B493F
:103BA00040583523494605F081FC0400484600F0A2
:103BB00011FDA4E701246442A1E7C046681D00206E
:103BC000601D0020AC900110FEFF0000201D0020B1
:103BD00070B50400000100190001414BC018032C0E
:103BE00020D823011B191B013D4AD3189B7A022BB5
:103BF00034D01AD8002B14D0012B00D06CE0FFF782
:103C000093FE3749220113191B01CB18188102209A
:103C100098720020D87201251D7358732000FFF799
:103C20001BFF70BD2F480CF0BBFB032B54D12301AD
:103C30001B191B012A4A9B58002B07D0013B22016C
:103C40001219120126495350002BEAD12001041900
:103C50002401234804190023A372E2E723011B195E
:103C60001B011F4AD218137B013BDBB21373002BDD
:103C7000D7D123011B191B01194AD218537B0133D9
:103C8000DBB25373042B09D022011219120114491B
:103C90008A1813732000FFF7DFFEC2E7FFF730FE3C
:103CA00000280DD00E49220113191B01CB18D87A18
:103CB0000130D872012018731A0000235373E9E70A
:103CC00000212000FFF74EFE200104192401044BBF
:103CD0001C190023A372A4E703480CF061FBC04643
:103CE000681D0020C4900110E090011010B5002460
:103CF00004E02000FFF76CFF0134E4B2032CF8D994
:103D000010BD7047012800D97047002904D08000F9
:103D10000A68044BC250F7E78000034B1A68014B56
:103D2000C250F1E7601D002028B6011010B5FFF762
:103D3000DDFF10BD30B583B06B460022DA80012371
:103D40001D000540184206D0002904DD02786B46AC
:103D5000DA7101390130032213000340104209D007
:103D6000012903DD03880239023003E0002301E06A
:103D70000839200007290CDD0268D218934200D9C7
:103D800001320400083443689B189A42F0D9013389
:103D9000EEE71A0C1B041B0CD31803E002889B18D7
:103DA000023902300129F9DC002902DD01786A4676
:103DB00091716A4606321288D318180C1B041B0C2A
:103DC000C318180C1B041B0CC018002D05D00306CB
:103DD0001B0C020AFF201040184380B203B030BD14
:103DE000F0B583B00600019115001C00002700E02B
:103DF0003668002E15D071897068FFF79BFF001997
:103E0000040C0004000C24187389DB07F0D57B42F6
:103E10005F41FFB22206120C230AFF241C40144308
:103E2000E6E7002F05D02206120C230AFF241C40CF
:103E300014436B469888FFF74FFD24182800FFF7BE
:103E40004BFD2018030C0004000C1818030C000490
:103E5000000C1818C04380B203B0F0BD70B51C68E8
:103E600025042D0C230C5B19049C246825042D0CBF
:103E7000ED18230C5B191C0C1B041B0CE3181C0C09
:103E80001B041B0CE318FFF7ABFF70BD10B582B02D
:103E9000049C0094FFF7E2FF02B010BD10B5FFF7DD
:103EA00049FFC04380B210BD70B505000026002454
:103EB00000E02D68002D15D069896868FFF73AFF8A
:103EC0000019040C0004000C24186B89DB07F0D5E2
:103ED00073425E41F6B223061B0C240AFF20044005
:103EE0001C43E6E7002E05D023061B0C240AFF2006
:103EF00004401C43E04380B270BD7047704700002F
:103F000010B50DF0A3FF041E06D0C31C032293437B
:103F1000834206D1200010BDFDF710F9FDF710F91E
:103F2000F8E701480CF03CFA0091011010B50028A8
:103F300007D0C31C03229343834205D10DF0BCFF7D
:103F400010BD03480CF02CFA02480CF029FAC046C8
:103F5000249101103491011010B50400FDF7EEF822
:103F6000E3681C68002C0AD022681A60A30703D1FA
:103F7000FDF7E6F8200010BD02480CF011FAFDF73D
:103F8000DFF8F7E74C91011070B505000C008B07C6
:103F900009D1FDF7D3F8EB681B682360EB681C6060
:103FA000FDF7CEF870BD01480CF0FAF970910110E0
:103FB000C36800221A6083680333033293430022EC
:103FC00007E0C16809681960C1680B6081885B18E7
:103FD0000132C1889142F4DC7047000010B5002422
:103FE00006E0A200044BD058FFF7E2FF0134A4B270
:103FF000082CF6D910BDC046C092011010B5082893
:1040000005D88000044BC058FFF7A6FF10BD034839
:104010000EF0FCF80020F9E7C09201109091011019
:1040200010B5082807D8002904D08000044BC058D8
:10403000FFF7AAFF10BD03480EF0E8F8FAE7C04604
:10404000C0920110B09101100B688268934206D0B3
:10405000002902D08360012070470023FAE7002086
:10406000FAE70B68C268934206D0002902D0C36009
:10407000012070470023FAE70020FAE70C204042B5
:10408000704770B504000D0001F086FA2900200089
:1040900005F0C4FA2900200000F02EFE70BD0000DB
:1040A00010B500280DD03923C25C343B1340052BDA
:1040B00006D1CB0704D54368002B01D0130703D4E6
:1040C00010BD03480CF06CF9011D06F08FFEF7E7F8
:1040D000E492011030B583B005000C0010000029F7
:1040E00008D0002A09D06B680A689A4208D10020DB
:1040F00003B030BD0B480CF053F90A480CF050F9EE
:104100000192036001A9FFF7BCFF23686B600121E6
:104110002800FFF7C5FFEB69002B01D02800984766
:104120000120E5E70893011070470000F0B5C6468E
:1041300000B582B005000C0017001E00002920D039
:10414000002F20D0002E20D0002C02D02368002B7E
:104150001DD101AA21002800FFF7BCFF01239846CA
:10416000002239002800FFF76FFF002231002800ED
:10417000FFF777FF4346002B0CD002B080BCB84657
:10418000F0BD074CDCE7064FDCE7054EDCE700231B
:104190009846E5E701AA21002800FFF79BFFECE71E
:1041A00028B60110F0B5C64600B504000E00170091
:1041B0009846002832D0079B002B34D0002937D0F6
:1041C000002F37D04346002B36D000256560A56010
:1041D000E560354B6361258600223923E2542000D7
:1041E0002830042200210DF073FEE5612562069B54
:1041F00063622E4B1A783C23E254089B23614346AA
:104200003A0031002000FFF791FF2000079B9847FC
:10421000002823D0002080BCB846F0BD24480DF013
:10422000F5FF2000F7E723480DF0F0FF0020F2E74C
:10423000214EC5E7204FC5E71F4B9846C5E7C33B56
:104240000022E2540EE01D480CF0AAF81C480CF0C5
:10425000A7F801313C22A154002B15D03C23E35C8C
:10426000FF2BECD0174B1D682B000022002BF3D046
:104270009C42E8D00132FF2AE8DC3C21585C615CBA
:104280008842E6D01B68F1E73C33E35CFE2B07D0A5
:104290000133064A137025600A4B1C602000BAE700
:1042A000024B00221A70F6E77D40001094BE0020F9
:1042B000189301103493011028B60110589301107F
:1042C0006C930110E4BB0020014B18607047C0469E
:1042D000E0BB002010B5041E10D03923C35CDA0700
:1042E0000BD40122134339228354C369002B00D01D
:1042F000984703212000FFF7D3FE10BD01480DF0C1
:1043000085FFFAE79C93011010B5041E0FD03923E6
:10431000C35CDA070AD501229343383283541B0762
:1043200009D4E369002B01D02000984710BD034851
:104330000DF06CFFFAE706F0ABFCF2E7B893011062
:1043400010B5041E28D04368002B12D13923E35C3A
:10435000DB0713D4114B1B68A34213D0104B1B680F
:10436000A34213D0002B17D01A68A24212D0130018
:10437000F8E704300021FFF784FEE7E72000FFF7AD
:10438000C3FFE7E70020FFF79FFFE7E72268044B42
:104390001A6001E022681A6010BDC046E0BB002030
:1043A000E4BB002010B5041E04D03923C35C5A07B7
:1043B00004D510BD09480DF029FFFAE70422134384
:1043C0003922835406F06EF803212000FFF768FEBF
:1043D000236A002BEDD020009847EAE7D89301101C
:1043E00010B500280CD03923C35C5A0707D5042226
:1043F000934335328354036A002B00D0984710BD95
:1044000001480DF003FFFAE7FC930110021E0BD0E8
:10441000064B1868002808D03C23C35C0133DBB28C
:10442000934202D00068F5E700207047E4BB00200B
:1044300030B504AC257800240460416002814381DA
:1044400003AB1B780373457301238373C47330BDBF
:1044500002E0C91A89B20068002802D043898B4261
:10446000F7D9002A00D011807047000010B5FCF782
:1044700065FE034B01221A70FCF762FE10BDC046B8
:1044800095BE002070B500281AD080235B029942A7
:1044900021D2002921D08CB203891B199BB2A342DF
:1044A0001DD30C254557002D0DDB002A19D042687D
:1044B000511A4160428914194481038100200BE0A4
:1044C00009480BF06DFF4268511A020010328A420F
:1044D000EFD9012000E0012070BD0020FCE70120A1
:1044E000FAE70120F8E7C04680AF011010B5FCF7ED
:1044F00025FE084B00221A70FCF722FE064B1868B6
:1045000000E0C068002804D0436F002BF9D000F011
:10451000C1FE10BD95BE002044BE0020F0B583B0A2
:1045200007000E001500412A01D0012A0FD10720F3
:10453000FFF764FD041E07D00023019300953300AC
:1045400032003900FFF774FF200003B0F0BD0148CE
:104550000BF026FF2094011010B50022FFF792FF08
:1045600010BD000010B5002814D080235B029942D2
:1045700018D2002918D08AB2438993420DD34468D7
:10458000A446614441609B1A438103899A1A0281BF
:10459000002010BD05480BF003FF05480DF036FE66
:1045A0000120F6E70120F4E70020F2E780AF0110D8
:1045B0003494011010B5002902DBFFF763FF10BD32
:1045C0004942FFF7CFFFFAE710B50122FFF7F2FFEC
:1045D00010BD000070B5051E01D000260CE0194882
:1045E0000BF0DEFE18480BF0DBFE29000820FFF779
:1045F00017FD0136F6B22500002D21D0FCF79EFDF7
:10460000AC7B002CEED0013CE4B2AC73FCF798FD1F
:10461000002C15D12C682A7B0F231340022BE4D0E9
:10462000012B05D0002B08D12800FFF77FFCE0E725
:1046300029000720FFF7F4FCDBE704480BF0B0FE8D
:10464000300070BD80AF0110549401106C940110C3
:10465000F0B5D6464F464646C0B582B005000F00BD
:10466000904684B2C1235B009A423CD011D8012A03
:1046700002D0412A00D078E0424639000020FFF7FE
:104680004DFF8146484602B0E0BCBA46B146A84656
:10469000F0BDA0239B009A4267D1C31C03218B432A
:1046A000FA1C8A439B18180010309A4260D8824244
:1046B00061D8FFF725FC81460028E3D0290010319E
:1046C000494403310324A14300230193434600934B
:1046D0003B003A00FFF7ACFE4B465B682342D1D06B
:1046E00026480BF05DFE00250023994626E0FFF7E3
:1046F000BDFE4B46002B02D04846FFF76BFFA94694
:10470000C0E7B6B221001031691803310324A14378
:10471000002301934346009333003A002800FFF73B
:1047200087FE6B6823421BD14B46002B1BD05346A0
:104730001D60BF1BBFB20024002FA3D0AA460820D3
:10474000FFF75CFC051ED2D0E31C032293439AB210
:104750000B4B9B1A9BB21E1CBB42D2D93E1CD0E70E
:1047600008480BF01DFEA946E3E707480BF018FECA
:104770000023994686E70023994683E7E4940110D5
:10478000EC050000809401101095011070B5041E16
:1047900012D00089884220D90D006389AB420ED225
:1047A000ED1AADB223890A1A9B1823812468002CC4
:1047B000F3D112480BF0F4FD11480BF0F1FD227B10
:1047C000120701D1AB4209D16581258120680028FB
:1047D00001D0FFF7FFFE0023236070BD6368191B43
:1047E00069182000FFF78AFB002804D08442EBD030
:1047F00004480BF0D5FD04480BF0D2FD44950110A0
:104800002C950110789501105C9501100300002093
:1048100002E0013080B21B68002BFAD17047000023
:1048200010B5041E09D0FCF789FCA37B0133A373E8
:10483000FCF786FCA37B002B00D010BD01480BF0D9
:10484000AFFDC0469495011010B5002801D0002995
:1048500008D10C480DF0DAFC0FE003890C891B1914
:10486000038110000268002AF7D10389428993422C
:1048700004D10A899B180381016010BD02480BF026
:104880008FFDC046A8950110E095011010B50C00F1
:10489000FFF7DAFF2000FFF7C3FF10BDF8B5CE46E3
:1048A000474680B506000D1E914698460AD00A89F3
:1048B0004A4507D300280BD002894B449A4207DBB4
:1048C000002726E03D480DF0A1FC1020404270E09A
:1048D0003B480DF09BFC102040426AE039480BF049
:1048E0005FFD39480BF05CFD4B46002B36D10027AD
:1048F000424539D0002D03D06A892B899A4245D090
:10490000002E03D0728933899A4248D04B46002B3F
:104910004ED0738942469B1A6A89D21B934200D3B8
:1049200013004C46994500D91C00706840446B68E0
:10493000D91922000DF0D2FAA0443F194B461C1B96
:10494000A3B2994672894245C8D36B89BB42C8D38A
:10495000CED82D68002DC7D00027C9E71B480DF021
:1049600055FC1020404224E03668002E02D000237F
:104970009846BFE74B46002B02D100239846B9E783
:1049800013480DF043FC1020404212E02B68002B2E
:10499000B6D010480DF03AFC0620404209E03368DA
:1049A000002BB3D00B480DF031FC0620404200E054
:1049B0000020C0BCB946B046F8BDC04610960110F4
:1049C00044960110749601108C960110A89601105F
:1049D000B8960110C896011010B5002904D00A89B4
:1049E0000023FFF75BFF10BD02480DF00FFC102005
:1049F0004042F8E700970110F8B5CE46474680B52B
:104A00000500884691461900002805D04346002B32
:104A10000BD00027002625E019480DF0F7FB0027F2
:104A20003800C0BCB946B046F8BD16480DF0EEFBE4
:104A30000027F5E76C89641AA4B2A14500D24C4660
:104A4000434698196B689C46614422000DF046FA73
:104A5000E719BFB23619B6B24B461C1BA3B2994632
:104A600000212D684B46002BDAD0002DD8D000292C
:104A7000E0D06B898B42DDD8C91A89B2F1E7C04614
:104A80001C9701103C97011010B5FFF7E1FC10BD19
:104A9000F8B5CE46474680B50500884616009146D3
:104AA000002806D000290AD0038993420DD300279D
:104AB0001DE018480DF0AAFB1020404223E01648E4
:104AC0000DF0A4FB102040421DE014480DF09EFBA9
:104AD0000120404217E012480BF062FC4346D9190E
:104AE000220068680DF0FAF9361B3F192D68002E78
:104AF00006D0002DEFD06C89B442EFD33400EDE73F
:104B00004F4504D10020C0BCB946B046F8BD0548A9
:104B10000BF046FC609701107897011094970110F4
:104B2000B4970110CC970110F0B583B00F001400BA
:104B300019006B469A1DFFF7A7FF061E24D00289B5
:104B40006B46D88803199A4221DB7389984212D2A6
:104B50001A1A944212DD95B273689C4660442A008A
:104B600039000DF0BBF9621B92B27919002A07D106
:104B7000002003B0F0BD07480BF012FC2500EBE766
:104B80003068FFF785FFF4E701204042F1E701209C
:104B90004042EEE7E497011070B50B001500118953
:104BA0001A00FFF755FD041E04D02900FFF714FF7B
:104BB000002801D1200070BD01480BF0F1FBC04678
:104BC000FC97011010B582B014006B469A1DFFF7D8
:104BD0005BFF002807D042896B4606331B889A4248
:104BE00001D94268D45402B010BD000010B5027A59
:104BF000002A07D0134B5C683C23E35C0133DBB233
:104C00009A4213D1002906D0002811D00368002B46
:104C100010D000200BE000280ED00368002B0DD030
:104C2000084A526993420BD0080000E0002010BDF2
:104C30000120FCE70120FAE70120F8E70120F6E770
:104C40000120F4E7CC210020F0B5D6464F4680B5D0
:104C500083B00500244B1968586907F09CFB0700D6
:104C60006B685E7A214B1C6800239946019313E020
:104C700063699A46002B0DD06B6899461C4B2A003D
:104C80002100A069D04700281AD16B684B4528D174
:104C9000022399460194E468002C1CD0237C9E4298
:104CA000F8D139002000FFF7A1FF0028F2D0637C83
:104CB000DB07DDD50C4B1B6962689A42EAD1D7E766
:104CC000019B002B05D0E268DA60084B1A68E260AD
:104CD0001C6001239946484603B0C0BCBA46B146A1
:104CE000F0BD04480BF05CFBCC21002004BC00208C
:104CF000DC2100201098011010B5002814D00368A2
:104D0000002B11D000290FD00B68002B0CD0074BC3
:104D10001B6800E0DB68002B06D01A680468A2421A
:104D2000F8D10A681A60F5E710BDC04604BC00203F
:104D30007047000010B5002409E0154B154A1A8091
:104D40000DE00134A4B28023DB019C421DD2104A45
:104D5000138801339BB213800F4A9342EDD0002099
:104D600003280FD883000D4A9B581B68002B06D0E0
:104D7000D98A074A12889142E3D0DB68F6E701300E
:104D8000C0B2EDE7024B188810BD0020FCE7C0461A
:104D9000D004002000C0FFFFFFFF0000D89E0110DC
:104DA00010B5002903D106480BF0FAFAC0680028B4
:104DB00005D0C36F8B42F9D10023C367F6E710BD5E
:104DC0005C98011070B5051E04D0037D012B04D141
:104DD00001240DE008480BF0E3FA08480BF0E0FA74
:104DE000A200074BD35818682900FFF7D9FF0134F8
:104DF000032CF5D970BDC04684980110909801101D
:104E0000D89E011010B50100037D012B03D00320B3
:104E1000FFF706F910BD01480BF0C2FAA89801107F
:104E200070B5041E09D0037D042B19D0072B1ED0AA
:104E3000032B05D00025280070BD12480BF0B0FAF6
:104E400003F074FB051E01D105232375002D15D039
:104E50006B1CF0D1638B0822134363830025EAE7C0
:104E600003F064FB051EF1D105232375EEE703F083
:104E70005DFB051EEAD109232375E7E7200003F057
:104E8000CDFCD8E78498011010B5084B186800E0F5
:104E90002000002809D0C468438B1A07F8D50822DF
:104EA00093434383FFF7BCFFF2E710BD44BE0020ED
:104EB00010B5FCF7E3FC8004800C034B9C46604477
:104EC000024B188010BDC04600C0FFFFD004002078
:104ED00010B50100037D012B03D00220FFF7A0F8DD
:104EE00010BD01480BF05CFAC498011070B50600C3
:104EF0000D1E0ED0002E0ED0337D002B11D1002AB6
:104F000015D00020032816DC830025495B581B6858
:104F100021E0244DEEE724480DF078F910204042BE
:104F200017E022480DF072F90620404211E0FFF729
:104F300001FF021E25D0002D03D02B68002B00D0CE
:104F40003360F2821A4B1A68F2601E6003F032FF7F
:104F5000002070BDDB68002B11D0DC8A9442F9D1AF
:104F6000002B11D01968002911D0002D12D02C6807
:104F7000002C12D0A142EDD108204042E9E70130D7
:104F8000C0E702204042E4E708204042E1E7082071
:104F90004042DEE708204042DBE708204042D8E7F5
:104FA000D89E011028B60110D8980110F098011071
:104FB00048BE002070B504001600002829D0037DEB
:104FC000002B2DD1012B4BD00320FFF717F8051E26
:104FD0004AD023690361E38AC38201230375637D99
:104FE0004375637A4372237A0372E37AC372A37AB6
:104FF000837223680360E38A002B20D01C4B1B685C
:10500000A34214D0002B18D0D968A14213D00B00B2
:10501000F8E718480DF0FAF8250010235B421AE073
:1050200015480DF0F3F80F235B42002513E0DA6812
:105030000F4B1A6001E0E268DA600023E3602000B1
:10504000FFF746FF0D4BAB610D4B1A68EA601D6020
:1050500003F0B0FE0023002E00D03370280070BD96
:10506000050009235B42F6E701235B42F3E7C046F4
:1050700048BE00201899011048990110BD54001035
:1050800050BE002010B50022FFF794FF10BD0000B5
:10509000F8B5002816D0456A068DA919C26A448E53
:1050A000231C0E4FBC4200D93B1C9BB2D318CB1A19
:1050B0000BD5521B0CD480235B029A420BD2428543
:1050C0000020F8BD06480BF06BF94685881AF8E712
:1050D00000234385F4E703480BF062F9D016000083
:1050E00080990110A499011010B5041E13D0037DFE
:1050F000012B14D0038D591889B20F4A914201D85F
:105100008B420FD90C4B23852000FFF7C1FF0B4BBF
:10511000984209D810BD0A480DF078F8FAE7094816
:105120000BF03EF90185EFE7638B022213436383A3
:10513000200003F073FBEDE7A02D0000670B0000DB
:10514000C0990110D899011010B5041E08D040680C
:10515000002801D0FFF73EFA21000420FEF760FF8F
:1051600010BD10B503E00468FFF7EEFF2000002833
:10517000F9D110BD70B5051E0DD00420FEF73EFF1D
:10518000041E06D0142229000CF0A8FE6068FFF768
:1051900047FB200070BD01480BF002F9009A011096
:1051A000002800D00161704710B5002804D0037DAD
:1051B000012B02D08423C15010BD01480BF0F0F840
:1051C0001C9A011010B5002804D0037D012B02D0D9
:1051D0008023C15010BD01480BF0E2F8449A011041
:1051E00010B5002804D0037D012B02D09023C150BC
:1051F00010BD01480BF0D4F86C9A0110002802D0C1
:10520000037D012B00D070478161FCE710B50028B9
:1052100006D0037D012B07D08C23C150427710BDEF
:1052200003480CF0F3FFFAE702480BF0B9F8C04668
:10523000949A0110AC9A011010B5002807D0054BC4
:10524000054A10681A6894466044186010BD034807
:105250000BF0A6F8CC04002054BE0020CC9A01101C
:1052600010B5002A0ED000290BD00B8E002B08D0D1
:10527000282B0AD9283B9BB21A1C834200D9021C56
:1052800090B210BD02480BF08BF80023F4E7C04643
:10529000E89A011010B50400406F002803D0FFF712
:1052A00060FF0023636710BD10B5041E22D0037D8C
:1052B000002B1ED00A2B1CD0012B1AD0806F002887
:1052C00003D0FFF787F90023A367636F002B02D099
:1052D0002000FFF7DFFF01235B422386E06EFFF72C
:1052E00040FF206FFFF73DFF0023E366236768223E
:1052F000A35210BD01480CF089FFFAE7109B011082
:1053000010B50C1E0BD000280CD003688B420CD0BB
:10531000002B0FD0DA68A2420AD01300F8E71C482D
:105320000BF03EF81B480BF03BF8DB68036001E034
:10533000E268DA600023E3602000FFF7B5FF237D19
:105340000A2B04D0012B02D0638BDA070FD4237D04
:10535000012B08D0E36E002B10D1236F002B10D14E
:10536000636F002B10D100232375E38210BD02224E
:1053700013436383200003F051FAE8E706480BF07B
:105380000FF806480BF00CF805480BF009F8C0467A
:105390002C9B0110489B0110689B0110809B011001
:1053A0009C9B0110F0B5D6464F464646C0B584B02A
:1053B00004000D0000281CD0037D012B1DD00A2BFA
:1053C0001ED0026D9046426A914690228658076927
:1053D000002B47D1C38A9A46002B4DD02E4B1B6819
:1053E000834215D0002B19D0DA68A24214D01300E2
:1053F000F8E72A480CF00AFF2EE029480AF0D0FF0F
:1054000001002848FFF77CFF2000FFF761FD23E043
:10541000DA68214B1A6001E0E268DA600023E36099
:105420009A460025206F002801D0FFF79AFEE06E13
:10543000002801D0FFF795FE606F002801D0FFF72C
:1054400090FE002D1AD12000FFF742FD002E03D060
:105450000D2149423800B04704B0E0BCBA46B1461D
:10546000A846F0BDC38A9A4601000F48FFF748FFDF
:105470000E4B01221A70D5E70025D3E7231D228B9E
:10548000029252460192009323004A464146200070
:1054900003F05CF9D7E7C04648BE0020B49B01107A
:1054A000D09B011058BE002044BE002098BE0020B2
:1054B00010B50121FFF776FF10BD000010B5081EE2
:1054C00004D0FFF7F5FF0D20404210BD01480AF05F
:1054D00067FFC046049C011010B50B4B1B680021F0
:1054E000002000E0DB68002B08D0084A12681C6A24
:1054F000121B8A42F6D311001800F3E7002801D0EE
:10550000FFF7D6FF10BDC04658BE002054BE002095
:1055100070B543B2002B02DB002801D11FE07F20D1
:105520000138C2B20E4B1B680024002006E00D4A71
:1055300014681A6AA41A0A001800DB68002B0AD043
:10554000597D9142F3D3F8D1064D2D681E6AAD1BEB
:10555000A542F2D3EBE7002801D0FFF7A9FF70BD09
:1055600044BE002054BE002070B504000800002C8A
:1055700006D108480AF014FFC568FFF799FF280014
:10558000002805D0036822689342F5D0C068F7E789
:1055900070BDC046249C011070B504000D000028A9
:1055A00002D00368002B00D170BD0D4B1968FFF7C6
:1055B000DBFF0C4B19682000FFF7D6FF002DF3D05E
:1055C0002B68002BF0D0084B1B6800E0DB68002B39
:1055D000EAD01A6821688A42F8D12A681A60F5E789
:1055E00044BE002048BE002050BE002070B501001F
:1055F0000300083BDBB2012B04D80E4B1B680024D0
:10560000002003E00C480AF0CBFEDB68002B0BD037
:105610001A7D8A42F9D1094A12681D6A521BA242B8
:10562000F3D314001800F0E7002802D00021FFF7A0
:10563000B9FE70BD44BE0020589C011054BE00202D
:1056400070B505000220FEF7D9FC041E30D0002CF6
:105650002CD0A422002120000CF03AFC6575254BCB
:105660006422A352638523859B32E2721A32FF3291
:105670006286062240216252E287073A2286493238
:105680003F39A1521C4A126822621C4A1278A27742
:105690004A22A35284231A4AE2501033194AE25094
:1056A0000433194AE25004330922E250200070BD4D
:1056B000FFF7EAFBFFF710FF0220FEF79FFC041E36
:1056C000C5D10920FFF792FF0220FEF797FC041EC8
:1056D000BDD10820FFF78AFF0220FEF78FFC041ED1
:1056E000B5D12800FFF714FF0220FEF787FC040065
:1056F000ADE7C046A02D000054BE00209ABE002099
:105700008158001000DD6D00F824010010B5402024
:10571000FFF796FF10BD000010B584B0041E13D033
:10572000002904D0037D042B11D0072B0FD0237D3B
:10573000012B00D166E0022B00D16FE0002B46D098
:105740002000FFF76DFB3DE03A480AF029FEA36F09
:10575000002B1CD0638BDB061ED5231D228B0292EF
:10576000E28A019200932300626A216D200002F018
:10577000EDFF2000FFF798FD2F4B1B68A3420ED0D2
:10578000002B12D0DA68A2420DD01300F8E7228D68
:105790002A4B9A42DED1CAE729480AF001FEDA68AC
:1057A000254B1A6001E0E268DA600023E360254BD4
:1057B00001221A70244B1B68A34205D02000FFF77A
:1057C00087FB002004B010BD02F06EF8F9E7E38A11
:1057D000002B12D01D4B1B68A34206D0002B0AD011
:1057E000DA68A24205D01300F8E7DA68174B1A60AE
:1057F00001E0E268DA600023E3602000FFF768FB65
:105800000020DFE72000FFF7DDFA21001048FFF756
:1058100077FD2000FFF7F6FA0020D3E721000648C5
:10582000FFF76EFD074B01221A702000FFF750FBB7
:105830000020C7E7689C011044BE0020A02D000096
:10584000889C011098BE00204CBE002048BE00205D
:1058500050BE002010B500280AD0037D012B03D0D4
:10586000438B1022134343830121FFF755FF10BDE3
:1058700002480CF0CBFC10204042F8E7A49C011039
:1058800010B508001400002909D0002A0DD0118994
:10589000FFF72AFC2000FEF79DFE002010BD064801
:1058A0000CF0B4FC10204042F8E7002B01D000209F
:1058B000F4E7FFF7CFFFF1E7BC9C0110F8B5041E39
:1058C00025D0866F777B002383678433C558002DEE
:1058D00023D00023320001000069A8470500002DF5
:1058E00023D1BB0627D5238D144A934201D001331F
:1058F00023858423E658002E1DD020690023002232
:105900002100B04703000D3315D1050013E00C480A
:105910000CF07CFC10256D420DE0002332000100EC
:105920000020FFF7ADFF0500D9E72B000D3302D0B3
:10593000A66705256D422800F8BDC046A02D0000D1
:10594000D89C011070B51C4A1378013313701B4B9F
:105950001C6813E0022213436383200002F05EFF01
:10596000638B03229343638313E00822934363838F
:105970002000FFF755FA0FE0E5682C00002C19D045
:10598000A27F0D4B1B789A42F6D0A377638BDA0780
:10599000E0D4638B1A07E8D4E568A36F002BECD042
:1059A000074E002333702000FFF788FF3378002B69
:1059B000E3D0CCE770BDC0469ABE002044BE0020B4
:1059C00098BE0020F0B5CE46474680B585B0BA4AAD
:1059D000136801331360B94A137801331370B84B5D
:1059E0001C68002686E1B7480AF0DAFCB6480AF0DF
:1059F000D7FCB6480AF0D4FC2600E4687AE14033CC
:105A0000E35C052B00D88BE101256FE0B0480AF07C
:105A1000C7FCB0480AF0C4FC200002F0FDFB0028DF
:105A20000CD0A0230022E2540133E35C062B00D902
:105A3000A3E00133A132A354002557E0200002F077
:105A4000EDFE0028EDD1002550E0238EA24A9342BE
:105A500001D8013323863023E25E4023E35E9A427D
:105A600044DB200002F096FD002805D0236F002BB8
:105A70003CD1E36E002B39D0237D022B15D042237D
:105A8000E25C131C0C2A00D90C23DAB23C21635EC1
:105A9000DB103E20215E5B1890498A5C93408E4A61
:105AA000934220DC1BB24022A352002323866033A2
:105AB000E25A183BE15A131C8A4200D90B1C9BB2D4
:105AC0005B084A22A352618E4A0092B2934201D2ED
:105AD0004A23E2524823E15222330022E2522000BC
