:020000041000EA
:1000000000B5324B212058609868022188439860DF
:10001000D860186158612E4B002199600221596106
:100020000121F02299502B49196001219960352056
:1000300000F044F80222904214D00621196600F024
:1000400034F8196E01211966002018661A6600F04E
:100050002CF8196E196E196E052000F02FF8012189
:100060000842F9D1002199601B49196000215960AB
:100070001A491B48016001219960EB211966A021F2
:10008000196600F012F800219960164914480160C1
:100090000121996001BC002800D000471248134993
:1000A000086003C880F30888084703B5996A0420EC
:1000B0000142FBD001200142F8D103BD02B5186610
:1000C0001866FFF7F2FF186E186E02BD00000240BE
:1000D000000000180000070000035F00212200005C
:1000E000F4000018222000A00001001008ED00E03C
:1000F00000000000000000000000000074B24E7A12
:1001000000200420F7010010C3010010C5010010F9
:10011000C1010010C1010010C1010010C101001097
:10012000C1010010C1010010C1010010C701001081
:10013000C1010010C1010010C9010010CB01001065
:10014000CD010010CD010010CD010010CD01001037
:10015000CD010010CD010010CD010010CD01001027
:10016000CD010010CD010010CD010010CD01001017
:10017000CD010010CD010010CD010010CD01001007
:10018000CD010010CD010010CD010010CD010010F7
:10019000CD010010CD010010CD010010CD010010E7
:1001A000CD010010CD010010CD010010CD010010D7
:1001B000CD010010CD010010CD010010CD010010C7
:1001C00000BE00BE00BE00BE00BE00BEEFF3058054
:1001D000103800BEF2EB88714C7A0010707A001073
:1001E0003402001090A31AE700201F49086006C8D7
:1001F00081F3088810471D48006800282FD10DA4FE
:100200000ECC002902D000F012F8F9E71849194A7B
:10021000002000E001C19142FCD1174988471749ED
:1002200088471749884700BEFDE701C901C29A42C5
:10023000FBD37047707A0010C0000020E80800204F
:100240009882001000000420000004209882001012
:10025000001004200010042000000000704709482E
:1002600003F0B8FB0047000008ED00E0000000D0FC
:10027000F8080020481300205D27001049070010EF
:10028000192700105756000006005250ABB36053B8
:100290002076001006005250861C030230760010B3
:1002A000060052505422A29D4C7600100500525078
:1002B000DE65F46898820010F8B5C04610B5064CAB
:1002C0002378002B07D1054B002B02D0044800E017
:1002D00000BF0123237010BDF809002000000000BA
:1002E000D0630010044B10B5002B03D00349044821
:1002F00000E000BF10BDC04600000000FC09002067
:10030000D063001070470000F0B583B004000D000A
:1003100001AF6B469E1D3A00310004F09BFE2A009F
:100320002100274804F00AF93A883188254804F06A
:1003300005F96B469A1C6946200004F08BFE6B465B
:100340001B88214A93420DD0204A934215D01F4A60
:10035000934219D01E4A93421DD00023002B25D171
:1003600003B0F0BD6A46023212881A498A4219D097
:1003700019498A42E8D10123F0E76A46023212881D
:100380005E2AE4D10123E9E76A4602321288EE2AA6
:10039000E0D10123E2E76B465A88104B9A4203D022
:1003A0000023DBE70123D9E70123D7E72900200059
:1003B00005F096FC0028D3D1094804F08FF8CFE768
:1003C000F4630010286400104C0500000D0F0000BD
:1003D0004F1F0000CC090000C405000002100000FF
:1003E0004464001010B50A000100024804F0A6F8A9
:1003F00010BDC04670640010431A022B04DC091AB9
:10040000022903DD012000E0012070470020FCE705
:1004100070B505000E0009780078FFF7EDFF0028A1
:1004200013D171786878FFF7E7FF002818D1B17809
:10043000A878FFF7E1FF002814D1F178E878FFF7FA
:10044000DBFF002810D1002400E00124281D311D0D
:10045000032205F021FF2043431E9841C0B270BD26
:100460000124F3E70124F1E70124EFE730B58FB071
:1004700005A9574B0A0032CB32C232CB32C232CB43
:1004800032C20378012B01D00FB030BD03AC411C48
:100490000722200003F0FAFEA3799B084D489A003A
:1004A000817903230B40134383712100FFF7B0FFD1
:1004B000002808D1474B03AA0399196091889980B5
:1004C00092799A71E0E721786278A378E0780090D9
:1004D000414804F033F823791B079B0E05AA99586D
:1004E0003E4804F02BF82379DB0639D403AB1B79A3
:1004F0009B0639D403AB1B795B0639D403AB1B795C
:100500005BB2002B38DB03AB5B79DB0738D403AB82
:100510005B799B0738D403AB5B795B0738D403ABBB
:100520005B791B0738D403AB5B79DB0638D403ABAC
:100530005B799B0638D403AB5B795B0638D403AB9D
:100540005B795BB2002B37DB03AB9B79DB0737D4DE
:1005500003AB9B799B0737D4214803F0BFFFA9E782
:10056000204803F0EBFFC1E71F4803F0E7FFC1E7B6
:100570001E4803F0E3FFC1E71D4803F0DFFFC2E7B9
:100580001C4803F0DBFFC2E71B4803F0D7FFC2E7BC
:100590001A4803F0D3FFC2E7194803F0CFFFC2E7C0
:1005A000184803F0CBFFC2E7174803F0C7FFC2E7C4
:1005B000164803F0C3FFC2E7154803F0BFFFC3E7C7
:1005C000144803F0BBFFC3E7134803F0B7FFC3E7CA
:1005D0003465001010110020A8640010CC640010D5
:1005E00030650010D8640010E0640010E86400106A
:1005F000F0640010FC640010006500100465001039
:10060000086500100C650010146500101C650010D2
:10061000206500102465001028650010F0B585B035
:1006200004000E0001921F0003AD02AB9A1D2900C9
:1006300004F010FD2D88224B9D4213D0214B9D428A
:100640001BD0204B9D421FD01F4B9D4223D0002327
:10065000002B2BD13100200005F042FB00282AD0CE
:1006600005B0F0BD02AB06331B88184A934219D07F
:10067000174A9342E2D10123EAE702AB06331B8813
:100680005E2BDED10123E3E702AB06331B88EE2BA2
:10069000DAD10123DCE702ABDA880E4B9A4203D0B1
:1006A0000023D5E70123D3E70123D1E739000198DF
:1006B000FFF7DCFECEE7084803F010FFD0E7C046A6
:1006C0004C0500000D0F00004F1F0000CC0900007A
:1006D000C4050000021000004464001010B501F0D1
:1006E00055FA00290DDB12D0FA229200002303F004
:1006F00003FA104B1B68C01AFA22920090420BD2E8
:1007000010BD0D4B0D4A3F210D4802F009F8FA21AA
:10071000890003F0B3F9ECE794466344054A13609B
:10072000084C207804F04EF82378012253402370BF
:10073000E6E7C04620130020586500104066001010
:10074000746500104313002010B504F02BF809481D
:1007500003F0C4FE084803F0C1FE002004F0B4FC1E
:1007600001200021404204F051FFFFF7B7FFFFF7DF
:10077000C9FDF5E7D86500100066001010B58300CC
:10078000084A944663441C6840226240C0241440D6
:100790008022520113431C60C000034B9C466044FE
:1007A000416010BD04C0014000400140034B1B6884
:1007B00002201840431E9841C0B2704700C0064056
:1007C000EFF3108072B6034B1B68002BFBD0BFF316
:1007D0005F8F70472C0100D0BFF35F8F024B002268
:1007E0001A6080F3108870472C0100D0F8B506001D
:1007F0000C001500FFF7E4FFE308F718F15C07228F
:100800002240012393400B4205D1DBB20B433B70E6
:10081000FFF7E2FFF8BD2100280002F01BF8F0B559
:1008200083B00600019114001F00FFF7C9FF00E02C
:100830000134BC420CD8E308F518F35C07212140D1
:1008400001228A401A42F3D1D2B21A432A7001E03F
:1008500001246442FFF7C0FF002C02DB200003B03C
:10086000F0BD019B002BF9D0089801F0F3FF0000C8
:10087000002307E0054A9A189200BFF35F8F00211A
:10088000116001331F2BF5D97047C046400000347A
:10089000054A1078431CDBB21370172B02D91300E2
:1008A00010221A707047C046E007002000B583B0E0
:1008B0000100044B00931F2318220348FFF7AFFFEA
:1008C00003B000BD58660010880E0020074B9B68DF
:1008D000103080001950BFF35F8FBFF35F8F044B60
:1008E0000021196082F310887047C04600ED00E0D7
:1008F000240100D010B5091A081F0A4B9C46614418
:10090000094A914208D8C30706D440104005400D5B
:10091000064B184380B210BD054B064AA32106487A
:1009200001F0FEFEFC070000FE0F000000E0FFFFEC
:1009300074660010E4680010A466001010B5091A6F
:1009400004394C08090B08D14905490D064A1143E1
:100950000180064B2343438010BD054B054AAB2164
:10096000054801F0DDFEC04600F0FFFF00F8FFFF84
:1009700000670010B8680010A466001001238340CF
:10098000034A10681840431E9841C0B27047C046E1
:1009900000E100E0002904D0034B1860034B18600D
:1009A0007047034B1860FBE780E200E000E100E0E5
:1009B00080E100E010B5012383401800FFF7EAFF53
:1009C00010BD0000024B9B6810308000C05870477B
:1009D00000ED00E070B504000D00EFF3108672B674
:1009E0000C4B1B68002BFBD0BFF35F8F2000FFF781
:1009F000E9FF094B984201D0A84205D132002900F5
:100A00002000FFF763FF70BD044B054A86210548AF
:100A100001F086FE240100D0CD0100101067001007
:100A200018690010A4660010F0B5DE4657464E4621
:100A30004546E0B589B0814601911500EFF3108A73
:100A400072B6744B1B68002BFBD0BFF35F8F724BE9
:100A50000027DF57002F40DB7C00E419A4006F481B
:100A600024180622A2566C4B1A706D4B9A684B469E
:100A700010339B00D35898461E001B1A2F2B38D9D1
:100A8000684B98452FD105AE674B33807B009B4662
:100A9000D8198000614B9846404402306349FFF703
:100AA00029FF7080624BB380FF23B371F571019B06
:100AB00007935F44BF0047440ECE0EC701231C437B
:100AC000A046524641464846FFF700FF09B0F0BC39
:100AD000BB46B246A946A046F0BD564B564AD72162
:100AE000564801F01DFE564B534ADE21534801F093
:100AF00017FEC04340440C2102F0C0FF002912D170
:100B000001239E43B34633000026DA79AA4211D965
:100B10000621595600290CDB4A00521892001E008B
:100B20003E4B9B18F1E7474B434AEA21434801F00B
:100B3000F7FD1E00002E3AD005AB434A1A80813AD9
:100B40005A800623F3560293002B17DA3F4805AB71
:100B50009B469880029A9A71DD71019A0792301D26
:100B60002100FFF7C7FEB080B7717B00DB199B0047
:100B70002A4FFF185B4607CB07C7A2E77800C019CA
:100B80008000264BC0180430321DB388D90A1C29B6
:100B900007D15B055915023149005118FFF7AAFE2C
:100BA000D5E72B4B2B4AB121244801F0B9FD05AE06
:100BB0001D4B33807B000293D8198000174A904662
:100BC000020042440392901C1849FFF793FE708084
:100BD000039A101D5946FFF78DFEB0801E4B5A46F2
:100BE0004146521A524153431B0DB371F571019A9C
:100BF0000792029B9C466744BF0047440ECE0EC737
:100C0000114B5A461380813B538001231C43A0465D
:100C100057E7C046240100D042130020E40700201B
:100C200000ED00E0CD01001000A1FFFF140800203E
:100C300001BDFFFF4867001000690010A4660010A6
:100C400070670010986700100148000001BD0000A7
:100C50000C680010F0680010AAAA0000F0B5CE469B
:100C6000474680B583B006000D00EFF3108872B6DA
:100C7000564B1B68002BFBD0BFF35F8F544B9A6819
:100C800034001034A300D758524B9F4207D0AF42D4
:100C900000D198E00197504BFB1A2F2B09D94246FF
:100CA00039003000FFF712FE03B0C0BCB946B046B1
:100CB000F0BD3000FFF762FE814600213000FFF7F3
:100CC00079FEBFF35F8FEFF30581002901D08C42DD
:100CD00011D10123019C9C430022A368AB4212D096
:100CE0000622A256002A0DDB53009B189B0022000F
:100CF000394CE418F1E73621384B394AFF3139488D
:100D000001F00EFD2200AB4256D106256557002D9D
:100D100038DB6B005B199A002F4B9B189A68A26016
:100D2000DA79E27106229A56A2719B795BB2002BA6
:100D30000FDA2D48A0806B005B199B00264AD31860
:100D40002A4A11789971157049463000FFF732FE32
:100D5000A5E7201D6B005B199B001F4A9B181A1DFD
:100D60009B88D90A1C2907D15B055B150233590002
:100D70005118FFF7BFFDDDE71D4B1E4AB121194891
:100D800001F0CEFC002912D1002A0ED0FF2393716E
:100D9000194B9380154A1378A371184B0E49641AA6
:100DA000644163431B0D1370CEE70A4FF2E7201D29
:100DB0001349FFF7C3FDC7E76A21124B084AFF3109
:100DC000084801F0ADFC034F69E7C046240100D09C
:100DD00000ED00E0CD010010E407002024680010C1
:100DE000D0680010A466001001BD0000421300206E
:100DF0000C680010F068001001BDFFFFAAAA0000F7
:100E00001E0800205868001070B5012101432E4BC8
:100E1000CB1A2F2B28D8EFF30583002B2BD0EFF321
:100E2000108C72B6294A1268002AFBD0BFF35F8F7C
:100E3000274A0400244D641B64416243120D54B2DE
:100E4000244A92689B00D2588A421BD00022032A6F
:100E500032D853009B189B001B49CB189B795BB27F
:100E6000A3421FD00132F2E7C7211B4B1B4A4900A6
:100E70001B4801F055FC92211A4B184AFF311848C3
:100E800001F04EFC134A92681749D150174B1A785B
:100E900082711C70BFF35F8F0C4B00221A608CF3C1
:100EA000108870BD0D005300991889006918FF263D
:100EB0008E710F4A8A80E9E7D1210E4B074A49001B
:100EC000074801F02DFCC046E4070020240100D0B3
:100ED000AAAA000000ED00E0606800109C68001005
:100EE000A466001088680010CD0100104213002095
:100EF00001BDFFFF946800100022044B02E004498A
:100F000002C30132072AFAD97047C04600E400E064
:100F100080808080024B9C4661448900016070475C
:100F20004000003410B50400FFF7B2FC01002000BF
:100F3000FFF7F0FFFF232371BFF35F8F10BD10B5E4
:100F40000400FFF7A5FC01002000FFF7E3FFFF23EB
:100F5000237100236371BFF35F8F10BD034B9C4669
:100F6000614489000160BFF35F8F70474000003427
:100F700010B504000120FFF799FC01002000FFF7E5
:100F8000EDFF10BD70B505000C00080000F0FEFE7E
:100F90000949200000F03EFEFFF77AFC074B9C4613
:100FA0006044800068602C75D0231B061B786B752D
:100FB000A400034BE55070BDC9120010400000347E
:100FC000001100200A4B1A68EFF3108172B6136803
:100FD000002BFCD0BFF35F8F054B1B68BFF35F8F07
:100FE00000221A6081F3108840BF00200021704762
:100FF0001C13002010B5002922D003681B7B9942E6
:101000001ED8174B9C466144090183689C46614485
:101010000C684968002A19D003681B7B9A4215D8CE
:1010200083680F488446624412019A181068536816
:10103000020001208B4201D80ED00020C0B210BDAA
:10104000084B094A3C21094801F06AFB054B064A56
:101050003C21064801F064FBA242EFD8EDE7C04610
:10106000FFFFFF0F806A0010006D00102C6A001057
:1010700010B500291ED0037B99421BD84B005B188A
:10108000033B0468A4466344002919D0002A1DD0FC
:10109000914221D0002A25D0047BA24222D80468A4
:1010A00050008018033820188170197800291FD14A
:1010B0001A7010BD104B114A6821114801F030FB25
:1010C000104B114A6F310E4801F02AFB0F4B0E4AAC
:1010D00070210B4801F024FB0D4B0B4A712108488D
:1010E00001F01EFB044B054A6821054801F018FB7E
:1010F00041701A70DDE7C046A46A00106C6D0010E4
:10110000C06A0010286B0010486D0010346B00108E
:10111000406B001070B506000D001400002914D0BB
:10112000002A14D0806873689847002806D02200EF
:1011300029003000FFF79CFF280007E02A0021006B
:101140003000FFF795FF200000E0100070BD0800A0
:10115000FCE70000F0B583B00500009201930AABF4
:101160001C780BAB1F78002C26D003685A7B944266
:1011700007D10123002B19D1002C3BD1200003B053
:10118000F0BD002C0CD01A7B944209D81A68630079
:101190001B19033BD3189B78002BEBD00123E9E705
:1011A0003E4B3F4A68213F4801F0BAFA3E4B3F4A66
:1011B00067213F4801F0B4FA03689C7B002CDBD028
:1011C00012D01A7B94420FD862001219033A1968A0
:1011D0008C46624451789973002900D1D973002359
:1011E000937053701370C7E72C4B2D4A68212D481C
:1011F00001F096FA002C3AD02B681B7B9C4236D823
:101200002C4BE3181B01AA6894466344009A1A60A9
:10121000019A5A60089A9A60099ADA602E68002C3E
:101220002BD030D0337B9C422DD863001B19033B5D
:1012300032689446634400229A705A701A70717B27
:1012400022003000FFF766FF7073844200D095E7FC
:10125000287D009A019B00F025FD061E01D0002F7D
:1012600017D00C9B002B00D188E71E7086E7124B2D
:10127000124A3C210E4801F053FA114B114AA521A4
:10128000084801F04DFA054B054A6821054801F070
:1012900047FA2868210000F03DFFE2E7A46A001049
:1012A0006C6D0010C06A0010586B0010786D001053
:1012B0002C6A0010FFFFFF0F806A0010006D001005
:1012C000286A00105C6D0010F0B5DE4657464E46A9
:1012D0004546E0B58BB00990002308938200B54BDA
:1012E000D658370052E0B44BB44A3F21B44801F01D
:1012F00017FAB44BB44A3C21B44801F011FA002962
:1013000001D1002869D10021404600F0F9FEA04239
:1013100019D12A686B6806920793AB689846EB6808
:101320009A464346002B14D0002C18D03B681B7BF8
:101330009C4214D8631EFA68D35C08931B021843BE
:101340003861002015E0A24BA24A8E219F4801F08F
:10135000E7F9A14B9F4A92219C4801F0E1F9994B92
:101360009E4A4121994801F0DBF900239A469846AC
:1013700000207B68BFF35F8F00221A6086F310881D
:101380004346002B32D1002800D10CE100F0FEFBD7
:1013900002000B1EA7DB0020002106900791786851
:1013A000EFF3108672B601680029FCD0BFF35F8F9F
:1013B000396888464C7B002CD7D09AD0097B8C4268
:1013C00097D8874965182D01B9688C466544286807
:1013D0006968801A9941002991DD2A686B6809982B
:1013E00000F060FC00239A469846C2E7089B1B0267
:1013F0002343994651461800C04705000E007A68FD
:10140000EFF3108B72B6136859424B41D9B2002BDF
:10141000F9D1BFF35F8F002E1EDB002E46DD3B6946
:10142000002B47D04B456DD100F0B0FB02000B1EE6
:101430006EDB52197341002B70DB002B72DB002135
:10144000049101310391029451460191414600916A
:101450003800FFF77FFE4CE03B69002BDDD04B45A9
:1014600014D1069A079B521BB341002B14DB002BAF
:1014700016DB002104910131039102945146019140
:10148000414600913800FFF765FE32E0554B514A66
:10149000A1214E4801F044F901225242524BE6E7A5
:1014A000454B464A3F21464801F03AF9002E01D10A
:1014B000002DB4D13B68002C50D05A7B944237D1D8
:1014C000012100294AD1DA7B002A4DD19A7B002ADA
:1014D00003D1DA7B002A5AD19C73DC73002C5CD0D8
:1014E0003B681B7B9C4258D8FA68013C135D013372
:1014F000135500233B617A68BFF35F8F13608BF352
:10150000108843E7374B334AA421304801F008F9EB
:10151000294B2A4A3F212A4801F002F9012252426E
:10152000314B8AE7244B254A3F21254801F0F8F842
:10153000002C0DD01A7B94420AD862001219033A8B
:101540001868844662449278002ABAD00121B8E72C
:10155000264B274A6821274801F0E2F8264B274A04
:10156000F621244801F0DCF8002A0AD0197B8A42CF
:1015700007D851008A18033A19688C46624454709F
:10158000A4E71A4B1A4A68211A4801F0C9F81C4B03
:101590001A4AFB21174801F0C3F80A4B0F4A4121B0
:1015A0000A4801F0BDF80BB0F0BCBB46B246A946F4
:1015B000A046F0BD0011002058650010CC6C001052
:1015C00074650010806A0010006D00102C6A001015
:1015D000806B0010E46C0010986B0010246D0010FC
:1015E000FFFFFF0FA46B0010FFFFFF7FA46A001036
:1015F0006C6D0010C06A0010E06B0010386D0010B8
:10160000046C001010B50C4B5B68002B04D00A2151
:101610000A48FFF77FFC10BD074C2300084A102141
:10162000206800F07DFC032000F0A4FA03212000D4
:10163000FFF7A8FCEBE7C0462C0800201C13002095
:10164000F50F001010B5064B5B68002B01D0044865
:1016500010BD044B044A5E21044801F061F8C04605
:101660002C080020186C00100C6D00102C6A001063
:10167000F0B5DE4657464E464546E0B58BB080464F
:1016800016001F00149B9A46159B994616AB1B78B3
:101690009B461F2302AA9446634400221A702BE043
:1016A000002809D042461268127B904204D8421E9C
:1016B0004146C9688A5C41E0404B414A412141486A
:1016C00001F02EF807984CE0361BAF41002F07DBE6
:1016D000002F11DA3C4B3D4A3F213D4801F020F8F4
:1016E000012676423B4FF3E7374B384A3F213848D3
:1016F00001F016F8002F4FDB43465A68EFF31084D1
:1017000072B6136859424B41D9B20791002BF8D1F8
:10171000BFF35F8F1F3302AA9446634404930023F0
:10172000039302934B4601935346009332003B00D0
:101730004046FFF70FFD031EB2D102004146496843
:10174000BFF35F8F00250D6084F31088002B29D034
:101750001F2302A98C4663441B78002BB2D11202CE
:101760001043002B20D05B46002B1DD04946D047AC
:1017700004000D0003000B431DD00029A4DB00F082
:1017800005FA06000F1EAFDB36196F41002FB1DAE4
:10179000012676420F4FADE70B4B0C4A3F210C4818
:1017A00000F0BEFF012040420BB0F0BCBB46B24689
:1017B000A946A046F0BD0798F6E7C046806A00102B
:1017C000246D00102C6A001058650010CC6C0010BD
:1017D00074650010FFFFFF7FF8B50400002900D1F9
:1017E00062E04268EFF3108572B6136858424341D5
:1017F000D8B2002BF9D1BFF35F8FCBB22268567BF2
:10180000B3421BD10120002848D0206988422BD048
:10181000090AC9B2002B2ED02068007B83422AD847
:10182000581EE668305C88422BD000206368BFF306
:101830005F8F00221A6085F31088F8BD002B0DD051
:10184000167BB3420AD85E00F618033E1768BC4602
:101850006644B678002ED6D00120D4E7134B144A44
:101860006821144800F05CFF2C21134B134AFF3110
:10187000134800F055FF134B134A4121104800F064
:101880004FFF1900100000F045FC0028CED199212F
:101890000E4B0A4A49000A4800F042FF23698B4276
:1018A000C4D100232361C1E70020C6E7A46A001069
:1018B0006C6D0010C06A00103C6C0010B46C00101D
:1018C0002C6A0010806A0010246D0010606C0010FB
:1018D000F0B587B006000F00EFF30583002B1FD192
:1018E00006246442E517A4197D418D4202D803D134
:1018F000844201D900240025002D14DB04940595B1
:1019000000F044F902000B1E13DBA41A9D41002DC8
:1019100017DC14D03000390000F044F907B0F0BDF6
:10192000234800F097FF234B234A3F21234800F030
:10193000F7FE204B204A3F21204800F0F1FE002C0A
:10194000E8D0FFF77FFE0023029301931C4B009326
:10195000049A059BFFF78CFE002818DADAE70023CB
:1019600000E00023002BD5D1164B1A68EFF310814D
:1019700072B61368002BFCD0BFF35F8F114B1B684E
:10198000BFF35F8F00221A6081F3108820BF049993
:10199000059A0D4B5B6A9A42E3D80B48806A8842ED
:1019A00003D29A42DBD00123DCE70123DAE7C04609
:1019B000646C001058650010CC6C00107465001049
:1019C000C50F00101C1300200040054070B5040036
:1019D0000D0000F0DBF802000B1E0ADB20002900DE
:1019E0008018594100290ADB00290CDBFFF770FF42
:1019F00070BD084B084A3F21084800F091FE0120C5
:101A000040420749F0E7034B034A3F21034800F0F7
:101A100087FEC04658650010CC6C0010746500103D
:101A2000FFFFFF7F10B5FA2292000023002102F091
:101A3000BBFBFFF7CBFF10BD70B584B005000C00F9
:101A4000EFF30583002B1ED1FFF7FCFD002302936B
:101A50000193224B00932A002300FFF709FE061E84
:101A600023DD20BFFFF7EEFD3100FFF7B5FE1C4B75
:101A70005B6A9C422DD81A4A926AAA422CD29C4296
:101A800025D0012026E0164B5B6A994209D8144AFA
:101A9000926A824207D2994201D001201AE00020C6
:101AA00018E0002016E0012014E00D4B5B6A9C4218
:101AB00009D80B4A926AAA4207D29C4201D001205F
:101AC00008E0002006E0002004E0012002E0002001
:101AD00000E0002004B070BD0120FBE7C50F00103E
:101AE0000040054070B5EFF305801038EFF3108C1F
:101AF00072B61A4B1B68002BFBD0BFF35F8F01221D
:101B00001300834016494B6316490B601649097848
:101B10000C00C440224214D0114A546A8200134D72
:101B20005259944206D38200114C125999430E4BDC
:101B3000197007E00A4A031D9B009958995000222A
:101B400000E00022BFF35F8F044B002119608CF38B
:101B50001088002A00D0904770BDC046280100D0F0
:101B6000004005403C700540441300202413002031
:101B7000700E002010B50100024A0348FEF736FE41
:101B800010BDC046906D001040130020044B5B6AEE
:101B9000034A906A1900536A9942F9D17047C046C6
:101BA00000400540084B5B6A01E0074B5B6A8B42D3
:101BB000FBD301E0044B5B6A8B4203D1024B9B6A6F
:101BC0008342F7D37047C0460040054070B504001B
:101BD0000D00FFF7DBFF02000B002000290080183A
:101BE00059418B4202D804D1824202D9012040429D
:101BF000C117002902DBFFF7D5FF70BD024B034A76
:101C00003F21034800F08CFD58650010546E001011
:101C10007465001070B504000D00EFF3108672B605
:101C20001B4B1B68002BFBD0BFF35F8F002D1CD01C
:101C30002000FEF7C7FE174B83420BD0190020008F
:101C4000FEF7C8FE01212000FEF7B4FE0123A340E9
:101C5000114A1360A400114BE550BFF35F8F0C4B8A
:101C600000221A6086F3108870BDA2000B4B002181
:101C7000D1500122A2400A490B7893430B700549C9
:101C80002000FEF7EBFF00212000FEF793FEE4E7C3
:101C9000280100D0E51A001038600540700E0020C1
:101CA00044130020F0B5DE4600B584B004001500F2
:101CB00001921E000293FFF769FF03958E4202D83E
:101CC0004ED185424CD9EFF3108B72B6274B1B686F
:101CD000002BFBD0BFF35F8F254A17780125A54065
:101CE000EBB23B431370234B5D63221D92000199BD
:101CF000D150A2002049029850501B6A2B4212D1A9
:101D00001C4B1B6C2B4208D00020BFF35F8F174B7E
:101D100000221A608BF3108823E0184B184AC52163
:101D2000184800F0FDFCFFF731FF8E4214D802D1B5
:101D3000039B834210D80E4B1B78BB420ED00D4B39
:101D40001D625D631F2004400123A3400E4A1360FF
:101D5000074B1F701E38D8E70020D6E70120D4E7D4
:101D6000012004B080BCBB46F0BDC046280100D0B5
:101D7000441300200040054024130020B46D0010DF
:101D8000386E0010D86D001080E200E0EFF3108C88
:101D900072B60B4B1B68002BFBD0BFF35F8F012388
:101DA0008340084A136208490A789A430A70BFF3CD
:101DB0005F8F034B00221A608CF310887047C04677
:101DC000280100D0004005404413002010B5002930
:101DD0001ED0037B99421BD84B005B18033B046861
:101DE000A4466344002919D0002A1DD0914221D075
:101DF000002A25D0047BA24222D804685000801813
:101E0000033820188170197800291FD11A7010BD6D
:101E1000104B114A6821114800F082FC104B114A06
:101E20006F310E4800F07CFC0F4B0E4A70210B48BE
:101E300000F076FC0D4B0B4A7121084800F070FC55
:101E4000044B054A6821054800F06AFC41701A708D
:101E5000DDE7C046A46A0010746F0010C06A00106D
:101E6000286B0010606F0010346B0010406B001086
:101E700070B506000D001400002914D0002A14D0FB
:101E8000806873689847002806D022002900300037
:101E9000FFF79CFF280007E02A0021003000FFF731
:101EA00095FF200000E0100070BD0800FCE7000076
:101EB00010B50023437301338373037BC373012382
:101EC000027B9A4214D9002B0CD0027B934209D892
:101ED0005A00D218033A01688C4662440133DBB2DF
:101EE0005370EDE70B4B0C4A68210C4800F018FCCE
:101EF000002A09D0924207D8016853009A18033A81
:101F00008A180023537010BD024B034A682103480E
:101F100000F006FCA46A0010746F0010C06A001084
:101F200010B5017342608360FFF7C2FF10BD00006F
:101F300070B50400081E00D170BD002934D0237B89
:101F4000994231D84B005B18033B226894466344A6
:101F50005A78002AF0D02DD0237B9A422AD85300F9
:101F60009B18033B21688C4663445D7800215970BF
:101F7000002825D0237B984222D843001B18033B1E
:101F800021688C4663440021597001002000FFF74E
:101F90006FFF060029002000FFF7CAFF0200310092
:101FA0002000FFF765FFC7E7084B094A6821094889
:101FB00000F0B6FB054B064A6821064800F0B0FB6E
:101FC000024B034A6821034800F0AAFBA46A0010F0
:101FD000746F0010C06A001070B505000C00160088
:101FE00000292FD034D0037B994231D84B005B18A5
:101FF000033B0268944663445A78002A2ED19A78AB
:10200000002A31D11978FFF793FF0300002E0AD080
:10201000EA7B002A2ED1AA7B002A03D1EA7B002A80
:102020003BD1AC73EC73002B3DD1002C4FD02B7BFC
:102030009C424CD82B6861000C19033C1C190023EE
:10204000637070BD254B264A3821264800F068FB96
:10205000254B264A6821264800F062FB254B204A82
:102060003A21204800F05CFB234B1D4A3B211D48D0
:1020700000F056FB002A0AD0297B8A4207D851007B
:102080008A18033A29688C4662445470C3E7164B99
:10209000164A6821164800F043FB184B104A4221AB
:1020A000104800F03DFB002B0BD02A7B934208D850
:1020B00043001B18033B2A689446634400229A702D
:1020C000B3E7094B094A6821094800F029FB064B90
:1020D000064A6821064800F023FBC0466C6E0010DB
:1020E0004C6F0010746E0010A46A0010746F001022
:1020F000C06A0010C86E0010F06E0010046C001072
:1021000070B504000A00457B2900FFF765FF607386
:10211000280070BD70B50400002967D0437B8B4256
:102120000ED0002911D0037B99420ED84B005B18CA
:10213000033B0268D0188378002B0CD1002056E0B6
:102140000121FFF7DDFF012051E0294B294A6821D9
:10215000294800F0E5FA002B20D0227B93421DD8BD
:102160005A00D318033B2268D2182568EB5C8B42D7
:102170001AD0002B1BD0227B934218D85A00D318B8
:10218000033B2268D21853788B4216D0002BF0D133
:102190001A4B1B4A6B211B4800F0C2FA144B154A1C
:1021A0006821154800F0BCFA4378137007E0104B23
:1021B000104A6821104800F0B3FA437853700023A6
:1021C0008370437001222000FFF706FF0200617B4D
:1021D000814205D02000FFF74BFE6073012006E02E
:1021E000094B074A7121074800F09AFA002070BD98
:1021F000A46A0010746F0010C06A00109468001088
:10220000346F0010746E0010146F001070B5046B02
:10221000E30701D4200070BD02003032C0239B01CF
:1022200013430A4A1A60456A826AAD01AD18AD02CD
:10223000062000F0BDF9064901F020FC010028004D
:1022400001F01CFC0021FFF7C1FCE3E701030000E3
:102250004E0E000070B504000E001500FFF7D6FF0B
:1022600022002C32E16A4E40354080235B0113434B
:102270001D60206370BD000070B505000C000620D5
:1022800000F096F9C000210001F0F8FBC60908D063
:102290000E4B9E4216D87F2318400130340046086A
:1022A00000E001246C62AE62002200212800FFF7EA
:1022B000D1FF062000F07CF98000A101891901F00E
:1022C000DDFB70BD0026024CECE7C046FEFF0000BF
:1022D000FFFF000010B505394901013AD200114352
:1022E000002B09D002220A43012B07D00021114301
:1022F0006E22FFF7AFFF10BD0022F4E70421F6E7DE
:10230000002909D00A22064B9C46604443425841AA
:102310004000044BC252704780225200F3E7C0468F
:102320000080FCBF3413002070B505000C000620AF
:1023300000F03EF9061E27D0164B9D4226D0802283
:10234000D203154B1A60154B1A60154B9B68110090
:102350009943FAD100212800FFF7D2FF210028007D
:10236000FFF78AFF06000023012208212800FFF75B
:10237000B1FF2A002C3280239B01134310221A60E4
:10238000084B2B630323AB64300070BD8022120422
:10239000D7E7C0460080034000E0004000F0004066
:1023A00000C0004001030000F8B5DE4657464E4627
:1023B0004546E0B505000F0092460A9A934250D375
:1023C0001A0E91461E020A9A00233000494601F077
:1023D00093FB80466C006419A400304B9C46644417
:1023E0006368834200D260602B1FDBB29B46012BE7
:1023F0003DD9C0239B012343802212011A60AB0008
:10240000274A9958002907D0506901F037FB431C2F
:102410005800C0180338FDD253465A0123685A4069
:10242000E0231A4080235B0123431A605A46012AA5
:1024300028D980239B012343802212011A6043463E
:102440006360424600233000494601F055FBAD0071
:10245000134B58510120F0BCBB46B246A946A046DA
:10246000F8BD104B104A3321104800F059F9012FE4
:10247000BFD1C0239B01234303221A60A368DB075B
:10248000FCD5C9E72168794003220A401A60A26896
:102490000123BB401342FAD0CBE7C0460080004086
:1024A0008C0E0020806F0010F46F0010946F0010ED
:1024B00030B583B00C2000F011F9FEF777F9002851
:1024C0000DD0002304E099002D4A2E488850013396
:1024D000092BF8D92A4B2C4A5A6203B030BD2B4B3A
:1024E00000229A6700F002F9294B01221A60274B5B
:1024F0005B6C012BFBD1274B03221A60234B9B6B98
:10250000012BFBD1013300930433234A01212348DB
:1025100000F054F805230093214A0121214800F0DE
:102520004DF8214B0093002202210420FFF73CFFCD
:102530001E4D00952B00002201210520FFF734FFDE
:10254000104C00942300002200210720FFF72CFFED
:1025500000942300002200210820FFF725FF0A4BEA
:1025600000932300002200210920FFF71DFF0095A2
:102570002B00002200210620FFF716FFADE7C04622
:102580008C0E0020006CDC021BB7000000800040B5
:102590003CB0004030B00040002F6859008002403D
:1025A000008C864700C00240001BB70040597307EB
:1025B0008000014BC05870478C0E0020F0B5C64615
:1025C00000B504000E0017001D00374801F056FA50
:1025D0008046364BFA18364B9A4239D801003800FB
:1025E00001F04CFA0200103A98235B009A4235D869
:1025F0006B1E062B38D8069B013B062B34D83F09AF
:10260000474537D32D04069B1A0315432368002B37
:1026100036DB284B9C4244D080225201264B1A6064
:10262000264B1A60264B9B6811009943FAD126600D
:10263000A060231DC02292011A4321231360236846
:10264000002BFCDAE5600823136080BCB846F0BDBF
:102650001C4B1D4A11211D4800F062F81C4B1A4A00
:1026600019211A4800F05CF81A4B174A1C21174828
:1026700000F056F8184B144A2321144800F050F883
:1026800022683F231340B342C3D1A3681B051B0D2F
:102690008342BED1E368EE22D2021340AB42B8D1EE
:1026A000D3E780229201B9E7001BB70080E84BD343
:1026B00080F8A93200C0024000E0004000F0004075
:1026C00000C00040047000104471001064700010DD
:1026D000C0700010DC7000102871001080239B0077
:1026E0000343014AD362704700800540064BAA228B
:1026F00012011A602F22DA60044B054A1A60024B5D
:102700005B68002BFBDA704700400240006002402B
:1027100000B0FA0000BEFDE710B5FFF7FBFF0000B8
:1027200010B582B00C001900002A0CD0084B002A0A
:102730000BD00192009323000200064801F0FEFE38
:102740000120FFF7E7FF044BF1E7034AF1E7C0463A
:1027500050710010607100104064001070B52B4B78
:102760002B4A1A602B4B2C4A1A602C4B9A682A4B26
:102770009343FAD12A4C01E008CC9847294B9C425C
:10278000FAD3FFF795FE234B274A1A60234B9B6829
:10279000DB43DB01FAD1254B40229A675A671A675F
:1027A000DA66234C09E0234B234A87212348FFF7AD
:1027B000B7FF2000FEF7B6FB0834214B9C4209D23C
:1027C0002368002BF5D0012BEDD12000FEF7B7FBDD
:1027D0000834F2E71B4CA1681B4DC022280001F011
:1027E00055FDA560EFF30583002B00D000BEFEF77A
:1027F0003FF8FEF781FBFEF705FF144C01E008CC23
:102800009847134B9C42FAD370BDC04600E000408D
:10281000BFCDFBFE00F00040FE7F3C0000C000404A
:10282000D0080020E0080020FFFFFF0100F0014079
:10283000C00800209071001020720010B0710010CC
:10284000D008002000ED00E000000020E00800209B
:10285000E80800200FB400B583B0084801F03EFE40
:10286000049B002B07D005A90191180001F046FE3A
:10287000034801F033FE0120FFF74CFF10720010F7
:10288000A4640010704710B5002802D00B68496896
:10289000984710BD0100002007E083001B185B0073
:1028A000501C08601078C01830380A681378303B24
:1028B000DBB2092BF1D97047F0B5DE4657464E46DC
:1028C0004546E0B583B093461F000C9B9A460D9C8D
:1028D0000E9B99460F9B9B0703D0B8460F0006003E
:1028E00022E00192A34688464E46B9460700B4420C
:1028F00007D2551C4B4641462020B84701342A00D8
:10290000F5E73D004F465C46019B9B46B146464677
:10291000B84637002E0007E0013C551C5346185DB1
:1029200043463900B0472A00002CF5D135003E005F
:1029300047460F9B9B0707D4100003B0F0BCBB4673
:10294000B246A946A046F0BDB0464E46B9462F0055
:102950005D46531BB342EFD2541C4B4641462020E8
:10296000B8472200F5E7F0B5CE46474680B585B0BA
:10297000944698460C9D0D9C0EAB1B789946109A78
:10298000119B129EB7071CD4002B0CD0F7070AD559
:102990004F46002F02D10C37374204D0013B02E0F2
:1029A00030272F550134944201D21F2CF8D9F70754
:1029B00007D59C4205D21F2C03D830272F55013450
:1029C000F5E7F70615D5770505D4002C03D094421A
:1029D00024D09C4222D00F9A102A2BD00F9A102A72
:1029E00030D00F9A022A35D01F2C02D830222A5517
:1029F00001341F2C05D84A46002A31D02D222A55F1
:102A00000134039602930194009543466246FFF712
:102A100053FF05B0C0BCB946B046F0BD621E012CE4
:102A200006D00F9F102F01D01400D4E7023CD2E74C
:102A30001400D0E7B206D1D41F2CCFD878222A5563
:102A40000134D1E7B206CCD51F2CCAD858222A555A
:102A50000134C9E71F2CC7D860322A550134C3E7B7
:102A6000720703D52B222A550134CAE73207C8D58D
:102A700020222A550134C4E7F0B5DE4657464E46BB
:102A80004546E0B593B081468A46089209931CAB4F
:102A900010CB1B789B461E9D219B9846002C03D192
:102AA000102342469A4390468023DB0046461E4050
:102AB00042461A4212D0002C22D000260EE03033BB
:102AC000D9B2771C0AAB99552900200000F0D6FF37
:102AD000AC4216D31F2F14D83E000400290020005A
:102AE00000F0CCFFCBB2092BE9D94246920605D5BE
:102AF0004121C918C9B20A39C9B2E2E76121F8E730
:102B0000270043460693209B05931F9B0493039540
:102B10005B46029301970AAB0093099B089A5146C2
:102B20004846FFF720FF13B0F0BCBB46B246A946AB
:102B3000A046F0BDF0B5DE4657464E464546E0B5E8
:102B400095B0089009910A920B931E9E1F9C20AB92
:102B50001B789B46229B9946239D269B9A463300D1
:102B6000234303D1103352469A4392468023DB001D
:102B700057461F4052461A4219D0330023432DD0E6
:102B8000002714E03033DAB27B1C98460CABDA55E0
:102B90004A462B003000210000F0AEFFA5421FD8AE
:102BA00019D043461F2B1BD8474606000C004A4647
:102BB0002B003000210000F09FFFD3B2092BE1D998
:102BC0005246920605D54122D218D2B20A3AD2B262
:102BD000DAE76122F8E7B145E3D901E0002398463E
:102BE00053460693259B0593249B04934B460393DE
:102BF0005B460293434601930CAB00930B9B0A9AEE
:102C000009990898FFF7AFFE15B0F0BCBB46B24675
:102C1000A946A046F0BD0000F0B5DE4657464E4638
:102C20004546E0B591B083468A460C9298461A9C78
:102C300008941B9D099522002B002000290001F01B
:102C4000D6F9002800D0E5E001225242D74B2000FF
:102C5000290001F0C7F9002800D0DBE00122524230
:102C6000D34B2000290001F0A7F9002800D0D1E0C3
:102C700000220023089E3000099D290001F09CF9E4
:102C8000002800D0DDE0089809990690079180237C
:102C9000DB001E9A1A400D921E9A1A4201D1062399
:102CA0001C930698079904000D000A0006000243D1
:102CB00000D1D1E0080D4005400DBE4CA446604453
:102CC0000A03120BBC4B13431F0001F0A3F9BB4ACC
:102CD000BB4B01F032F9BB4ABB4B01F00FF90400CA
:102CE0000D000022B94B3000390001F002F9B84A5A
:102CF000B84B01F022F902000B002000290001F07E
:102D0000FDF801F09FF9814601F084F904000D00FF
:102D1000B14AB24B01F011F90022B14B01F0EEF8CB
:102D200001F090F90600AF4AAF4B2000290001F0F6
:102D300004F904000D00300001F06CF9AB4AAC4B13
:102D400001F0FBF802000B002000290001F0D1F88F
:102D500004000D0002000B0001F0EFF80A900B9147
:102D6000A44BF31800261F0522002B002000290089
:102D700001F0C4F80E900F9122002B00002080215A
:102D8000C90501F0B6F804000D0000229A4B0A981C
:102D90000B9901F0B8F80022984B01F0AFF802004F
:102DA0000B000A980B9901F0AEF80022944B01F049
:102DB000A5F802000B000A980B9901F0A4F8020094
:102DC0000B002000290001F099F802000B000E987A
:102DD0000F9901F098F80022774B01F08FF832003C
:102DE0003B0001F0AAF806000F0004000D00069A4F
:102DF000079B01F0F7F8002830D001235B429C4686
:102E0000E14400227D4B3000390001F07CF80400E1
:102E10000D0023E01E9B04931D9B03931C9B0293B8
:102E2000089A099B0092019343460C9A51465846D2
:102E300000F0FCF811B0F0BCBB46B246A946A04673
:102E4000F0BD0023002406930794069680231B06FA
:102E50009C46654407951AE7002399464B46633321
:102E6000C62B1ED804261E9B1B0526D52B002343EC
:102E70000FD0644A644B0698079901F0ABF800281C
:102E800079D00022614B0698079901F095F8002847
:102E900071D01C9B4B4506DD4A46981A431E1C9375
:102EA00003E00526DFE700231C938023DB001E9A46
:102EB0001A431E920026002399461D9B9E4264D20F
:102EC0009F1B02231E9A1A400A921E9A134202D096
:102ED000002E00D000274B46002B07D022002B00ED
:102EE0000698079901F00FF8069007910022002339
:102EF0000898099901F060F8002848D1444B1E9ABF
:102F00001340049303971C9B0293069B079C00931A
:102F1000019443460C9A5146584600F087F8002E1B
:102F200000D187E71E9B9B063DD54525441C4346A3
:102F3000020051462800D8474B46DA179B185340E9
:102F400005220592013E0496002203920A32029263
:102F50004A46D00F019000934346220051465846FE
:102F6000FFF78AFD0A9B002B00D163E702005F4652
:102F70000C9E1D9D54E01C9B002B9ED00D9B002B96
:102F80009BD01C9B013B1C9397E7002799E7069C6D
:102F9000079D2200290080200006844661440B0022
:102FA00006920793AAE76525C0E7C046FFFFEF7FBB
:102FB000FFFFEFFF01FCFFFF0000F03FFB799F5098
:102FC0001344D33FB3C8608B288AC63F0000F83F44
:102FD00061436F63A787D23F71A379094F930A407A
:102FE0000000E03F1655B5BBB16B0240EF39FAFE69
:102FF000422EE63FFF03000000002C40000024406A
:10300000000018402D431CEBE2361A3F80842E410D
:10301000FFF7FFFF541C434651462020B8472200CB
:10302000931BAB42F6D3100004E7C046F0B5DE4672
:1030300057464E464546E0B595B0069007919346F3
:103040009946209F1E9A1F9B1000190000F0CFFF89
:10305000002831D101225242BF4B1E981F9900F027
:10306000ABFF002837D101225242BC4B1E981F995A
:1030700000F0B8FF00283DD10022B94B1E981F99DF
:1030800000F0B0FF002850D10022B64B1E981F99C7
:1030900000F092FF002848D1002200231E981F99BB
:1030A00000F08AFF002850D100239846229B5B0540
:1030B00000D4B6E0002458E0229B0393219B0293A6
:1030C00003230193A84B00934B465A460799069851
:1030D000FFF7F2FB0EE1229B0393219B0293042353
:1030E0000193A24B00934B465A4607990698FFF767
:1030F000E3FBFFE00423229A1A4022990B4210D0EE
:103100009B4B002A0FD0042222990391219902910E
:10311000019200934B465A4607990698FFF7CCFB5D
:10312000E8E0944BEDE70322EEE7229B0493219B1A
:10313000039302971E9B1F9C009301944B465A4693
:1031400007990698FFF768FDD4E01E9A1F9B0020A0
:10315000002100F0CEFE1E901F9101239846A5E7A6
:103160000CAB30221A55013F01341F2C01D8092F16
:10317000F6D81E981F9900F065FF050000F04AFF81
:1031800002000B001E981F9900F0B3FEFA007A4B64
:103190009B181A685B680A920B9300F0CEFE0890A9
:1031A000099100F073FF060000F030FF02000B00F1
:1031B0000898099900F09DFE0890099100226F4B34
:1031C00000F010FF00282ED00136300000F01EFF66
:1031D00002000B000A980B9900F0F4FE002801D0C1
:1031E00001350026002F2CD1280000F013FF02002B
:1031F0000B001E981F9900F07CFE06000F000022B5
:103200005E4B00F0D9FE002846D100225B4B300017
:10321000390000F0E7FE00283ED1EB073CD5013530
:103220003AE0062746E70022544B0898099900F037
:10323000C3FE0028D6D1002E01D0F307D2D5013627
:10324000D0E7AA461F2C11D8013F0A21300000F018
:1032500015FC651C30310CAB19550A21300000F00B
:103260000DFC092E0ED906002C00EBE755461F2C4D
:103270000CD87B1E002F09D00CAA302111551F003D
:103280000134F4E72B0055461C00F0E71F2C03D84F
:103290000CAB2E221A5501341F2C10D80A212800FD
:1032A00000F0C4FB661C30310CAB19550A21280014
:1032B00000F0BCFB051E01D03400EDE73400032311
:1032C000229A1340012B1CD01F2C06D84346002BFA
:1032D00032D00CAB2D221A550134229B0393219B33
:1032E000029301940CAB00934B465A4607990698FB
:1032F000FFF7E2FA15B0F0BCBB46B246A946A046BD
:10330000F0BD219B002B13D04346002B02D10C3380
:1033100013420FD0219B013B2193190003E00CAB1A
:1033200030221A5501348C42CED21F2CF7D9CBE76C
:103330002199F8E72199F6E7229B5B0704D50CABAE
:103340002B221A550134C8E7229B1B07C5D50CABAD
:1033500020221A550134C0E7FFFFEFFFFFFFEF7F88
:1033600065CDCD4165CDCDC13C72001040720010DD
:103370003472001030720010287400100000E03F1A
:10338000F0B5DE4657464E464546E0B593B0824618
:103390008B4690461193002900D1EBE20027554659
:1033A000119B1878002800D1E7E2252809D07C1C61
:1033B00043463A005946A847119B01331193270011
:1033C000EEE7013311930024119A11780B00203B92
:1033D000D8B2102803D88300D048C3589F460B00AA
:1033E000303BDBB2092B2CD92A292FD000230A939A
:1033F000119B1A782E2A39D000239A46119A1378F5
:10340000683BD9B2122976D88B00C549CB589F4664
:1034100001231C4301321192D6E702231C430132DF
:103420001192D1E704231C4301321192CCE7082307
:103430001C4301321192C7E710231C430132119241
:10344000C2E711A8FFF726FA0A90D1E71C9B1A1DC4
:103450001C921868002804DB0A90119B0133119319
:10346000C6E702231C4343420A93F6E78022D200B8
:1034700014435A1C11925A781300303BDBB2092BCB
:1034800004D92A2A07D000239A46B7E711A8FFF7E4
:1034900001FA8246B2E71C9B1A1D1C92186800288C
:1034A00004DB8246119B01331193A7E70020F8E764
:1034B00080235B002343511C119152786C2A01D068
:1034C0001C0018E0C0239B001C430131119112E045
:1034D00080232343511C11915278682A01D01C008B
:1034E00009E0C0231C430131119104E080235B00FB
:1034F0001C4301321192119B18780300253BDAB26C
:10350000532A00D92CE29300864AD3589F46802341
:103510009B001C4301321192EDE780235B001C43AA
:1035200001321192E7E7782809D0582838D06F285F
:1035300038D0622838D010239C430A2600E0102699
:10354000582833D0692803D0642801D00C22944332
:10355000630501D50122944369282AD0642828D024
:10356000A30500D59FE0E30500D5B8E0630600D4CD
:10357000CAE01C9A111D1C911168FF220A40059493
:103580000A9B0493534603930296002301930092EF
:1035900043463A0059462800FFF76EFA070027E035
:1035A0001026CDE70826CBE70226C9E720221443E0
:1035B000C8E7A30520D4E30550D4630666D51C9A5A
:1035C000111D1C911168FF220A40D317D1185940D0
:1035D00005940A9B0493534603930296D20F0192DB
:1035E000009143463A0059462800FFF745FA070084
:1035F000119B01331193D3E61C9BDA1D07218A43EB
:10360000110008311C91116853689C46DB170C931C
:103610000D930C9A0D9B100048400E90624653404B
:103620000F930E980F990C9A0D9B801A99410E904A
:103630000F9108940A9B0793534606930496002320
:1036400005936346DA0F02920090019143463A00D7
:1036500059462800FFF76EFA0700C9E71C9A111DAA
:103660001C911268D317D118594005940A9B0493F2
:10367000534603930296D20F0192009143463A00BB
:1036800059462800FFF7F8F90700B1E7230605D5EA
:103690001C9A111D1C910023D25E96E71C9A111DE5
:1036A0001C91126891E71C9BDA1D07218A431100C7
:1036B00008311C9108940A9B07935346069304967D
:1036C00000230593029313685468009301944346C2
:1036D0003A0059462800FFF72DFA070088E71C9AA0
:1036E000111D1C9105940A9B049353460393029663
:1036F000002301931368009343463A00594628007B
:10370000FFF7BAF9070073E723060DD51C9A111DC0
:103710001C9112681204120C31E7C0464872001066
:103720008C720010D87200101C9A111D1C91126826
:1037300025E746281AD01C9B0733072293431A001B
:1037400008321C9204940A9A0392524602925C68D0
:103750001B680093019443463A0059462800FFF73E
:1037600065FC0700119B0133119319E620231C43CC
:10377000E1E7672801D0472802D180231B011C43C1
:10378000452801D0472801D120231C431C9B073327
:10379000072293431A0008321C9204940A9A039257
:1037A000524602925C681B680093019443463A00BB
:1037B00059462800FFF730FA0700119B0133119397
:1037C000EEE502231A002240924623421FD0012434
:1037D0001C9B1A1D1C927A1C9146187843463A008D
:1037E0005946A8475346002B16D1119B013311931C
:1037F0004F46D5E5561C434659462020B84723007E
:1038000032005C1C9D42F5D83D001700E0E7012323
:103810003A002F000A9DF4E74A46A9460A9D06E0B1
:10382000571C434659462020C84734003A00661CBE
:10383000A542F5D84D469146D7E71C9B1A1D1C9210
:103840001B6899465346002B00D1013B4E4601E0D0
:10385000013613003278002A02D05A1E002BF7D10D
:103860004B46F21A10928023DB0026001E401C42B9
:1038700003D0524501D95346109302231A00224027
:103880000B92234205D03A0037004C46A9465546D4
:1038900020E03A00109B5F46B3462E0006E0551C20
:1038A000434639002020B04723002A005C1C0A99B7
:1038B0009942F4D835005E46BB46109437004C461A
:1038C000A946554606E01D000134561C434659469C
:1038D000C84732002078002804D0002FF4D06B1E97
:1038E000002DF0D117004D460B9B002B03D1119BEF
:1038F0000133119354E50A9F109B06E0561C434682
:1039000059462020A847230032005C1C9F42F5D86E
:103910001700ECE721231C431C9B1A1D1C921B68FB
:1039200000930594082304935346039310230293B2
:103930000023019343463A0059462800FFF79CF8BC
:103940000700119B013311932AE57C1C43463A0082
:1039500059462520A847119B0133119327001FE5E5
:103960007C1C43463A005946A847119B01331193EA
:10397000270015E50A4B9A4610E5AA46474502D3AB
:1039800043465A1E00E03A00434659460020D047BD
:10399000380013B0F0BCBB46B246A946A046F0BD05
:1039A0008528001000B585B0029003910121009395
:1039B00013004A4202A90248FFF7E2FC05B000BD2D
:1039C0008728001001480421014B18476008002097
:1039D000F539001010B5010018231B881422108837
:1039E000984710BD10B5010018231B8816221088B7
:1039F000984710BDF0B5C64600B507000E0000257B
:103A00000123984600E00135B5420AD2AC003C19CA
:103A10002068FFF7DFFF20600028F4D100239846DC
:103A2000F1E7404680BCB846F0BD0000124A936FF3
:103A30009B0815D29066D166002905D0FFE7FFE705
:103A4000FFE7516F106F704704B580210906C21758
:103A50005140002800D0C84302F082FC002104BD80
:103A6000F0B5146E556E576F166FFFF7E3FF1466CF
:103A7000556657671667F0BD000000D0114A936F76
:103A80009B0813D210665166002905D0FFE7FFE7B7
:103A9000FFE7516F106F704704B5002801D0002078
:103AA000C04302F05DFC002104BDC046F0B5146EB9
:103AB000556E576F166FFFF7E5FF1466556657672B
:103AC0001667F0BD000000D094464A4A926F9208F3
:103AD000624601D228E0C046F0B5464E346E756E9F
:103AE000776F366F00F020F89446424A14665566A8
:103AF000576716676246F0BD94463E4A926F920839
:103B0000624601D254E0C046F0B53A4E346E756E4E
:103B1000776F366F00F04CF89446364A1466556657
:103B2000576716676246F0BD002B24DB11D00029D1
:103B30003EDA00B5C943404200D1013100F038F807
:103B4000C943404200D10131DB43524200D101332D
:103B500000BD002AEBD1002801D1002905D00020AA
:103B6000C90FC90701D1C043410800B502F0F0FBFD
:103B70000022002300BD00B500290ADBDB435242CE
:103B800000D1013300F014F8C943404200D10131A3
:103B900000BDC943404200D10131DB43524200D154
:103BA000013300F005F8DB43524200D1013300BD80
:103BB000002923D1002B18D1002A0CD0BC460D4F70
:103BC00038667A6600210023FFE7FFE7FFE77A6F98
:103BD000386F67467047002801D00748010000B5DC
:103BE00002F0B6FB0022002300BD02000B00002003
:103BF00000217047000000D0FFFFFFFF002B00D026
:103C0000BFE0130C28D1002AE7D080B4114F3966E9
:103C10007A66FFE7FFE730B4040C7B6F396F1B0453
:103C200023433B667A66FFE7FFE7FFE7C04684B2BF
:103C30007B6F3D6F1B0423433B667A66FFE7FFE71C
:103C4000C04600232C042D0C7A6F386F001969418F
:103C5000B0BC7047000000D0F0B594460025140EAB
:103C600001D112020835140F01D112010435940F4D
:103C700001D192000235D40F01D152000135D40B8D
:103C80000134254F7C66254C3C660E0C93B2FFE751
:103C9000FFE7FFE73C6F6643360C7703BE4673438E
:103CA000DF0B5B04C01AB941130C7343DB18C91A4C
:103CB000CE086643360CB64493B273431F0F1B0104
:103CC000C01AB941130C73431F0B1B05C01AB9412D
:103CD000860D8F023E436643360C092D24DB520AC3
:103CE0007243801A7703460A6643360C16235B1B21
:103CF000DE40DF40BF1964466643821B70460435D0
:103D000006330100D940A840C01900D30131A242B6
:103D100006D20023F0BD0000000000D0FFFFFFFF2F
:103D2000121B0130F3D3F1E709277F1BFE406446E5
:103D3000A2B27243801A00D20139220C7243130CD2
:103D40001204821A99410B007046043513370100A2
:103D5000F940A840801900D30131002B02D1A242C2
:103D60000AD2F0BD013000D30131121BFAD2013B5F
:103D7000F8D1A24200D2F0BD013000D30131121BB4
:103D8000F7E7F0B51C0C00D080E00CB400251C0A4D
:103D900004D11B02160E3343120208351C0B04D14A
:103DA0001B01160F3343120104359C0B04D19B00F9
:103DB000960F334392000235DC0B02D192185B411F
:103DC00001351C00971864410134464F7C66464C0F
:103DD0003C660E0CFFE7FFE7FFE7C0463C6F66431B
:103DE000360C7703BE4697B27743C01B00D2013929
:103DF000C01B00D201399FB27743C91BC91B170CE6
:103E000077437E04FF0B801BB941CE086643360C16
:103E10000C2D33DBB644120B1F053A431B0B97B234
:103E20007743C01B00D201399FB27743C91B170CDF
:103E300077433E043F0C801BB941860D8F023E4301
:103E4000664329277F1BFE400C3D7746AF40BF19D4
:103E500030BCA2B2ABB272437343801A9941220CB8
:103E60007243130C1204801A994102000B000137AF
:103E7000001BA941F9D2781E0021F0BD0C277F1B41
:103E8000FE4077467F0BAF40FF19E0E700245D1C42
:103E900007D0144F7D663966FFE7FFE7FFE7FFE7CE
:103EA0003C6F95B29EB265436643401BB141150C11
:103EB0001E0C6543664336042F0C3E432D04401B05
:103EC000B141994204D202000B0020000021F0BD54
:103ED00001D19042F7D3801A994101349942F2D32B
:103EE000F6E70000000000D0FFFFFFFF4840414020
:103EF000484018B4134B5B68019308BD18B4114BCC
:103F00001B68019308BD94460F4A926F920805D230
:103F1000624618B40B4BDB68019308BD0A4AF0B542
:103F2000146E556E576F166F6246FFF7F2FF064A22
:103F30001466556657671667F0BD18B4014B9B6849
:103F4000019308BD18110020000000D0FFB55040BB
:103F50004240504059404B40594000E0FFB5154F9A
:103F60004C00640D03D0BC4204D10C0314D80020D3
:103F7000090D09055C00640D03D0BC4204D11C038B
:103F80000AD800221B0D1B0501264B4009D44B40CB
:103F900003D58B4200D18242FFBD9942FCD19042B1
:103FA000FFBD0B43DB1803431343F5D0C943491846
:103FB000FFBD0000FF07000000B5FFF7CFFF804105
:103FC00000BDC04600B5FFF7C9FF01D9002000BD04
:103FD000012000BD00B5FFF7B9FF01D9002000BDE9
:103FE000012000BD00B5FFF7B1FF804100BD0120F9
:103FF00040054A00121804D85A00121801D80020AF
:104000007047012070470020704700000021002801
:1040100005D17047C1174840401AFAD0C90713B5F7
:10402000064B1B6898470CBC441CA2401005120BA1
:104030000349091B09051943114310BD181200203B
:104040001F04000010B54C00620D8023D218DB0065
:10405000D21A5B057E2A10DD9E3A13DACC170903CB
:10406000490819435242D140640001341532202AD4
:1040700005DAD0400843604310BD002010BD08465B
:10408000604310BDC80FC018013810BD18B4024BF2
:104090005B6A019308BD00001811002010B50148AB
:1040A000FEF7D8FB7874001070B513231C78012C30
:1040B00014D0012C14DC022C02DC1F4A1F4B9A6422
:1040C0001F48FFF787FC1F4B186070BD99001E4802
:1040D0001A4A885001331F2BF8D9EAE70023FAE780
:1040E0001A48FFF77FFC05001948FFF77BFC0238F0
:1040F00003789B007F2B19DD802229000F4800F0F8
:10410000C5F8022CD7D1134B1A88B5231B029A424B
:1041100009D1114B1A88114B9A4204D1104B1A88BD
:10412000104B9A42C7D00020FEF794FB0E4B0F4A6B
:1041300032210F48FEF7F4FA7541001018110020E3
:104140004C330000181200209D4000105344000022
:104150005346000054380000D8380000494600009B
:104160009C380000594600009074001048750010FB
:10417000E474001007B56046002800D100BE018835
:104180000A0A0230DF2AFAD1C9B2820804D30288AF
:1041900040880004104300E00068024A5050039039
:1041A00007BD00001811002051434343C9188C4635
:1041B000110C83B24B4310B4040C614392B280B231
:1041C000504362431C041B0C001910BC59411304DA
:1041D000120CC018514161447047000010B50148ED
:1041E000FEF738FB4064001070B513231E781848A2
:1041F000FFF7F8FB0500012E11D0012E09DDAB1EE3
:104200001B789B007F2B1DDD80222900114800F0C8
:104210003DF81148FFF7DEFB104B186070BD5422CB
:1042200001000C4800F032F8002300E001331F2B9E
:10423000E3D89A00074C1259002AF7D19A0008488F
:104240001051F3E7074B084A42210848FEF768FA85
:10425000534600001C1200204C33000018120020AE
:10426000DD4100105C750010F475001090750010B1
:1042700001480421014B184770080020F53900104F
:10428000014B1B681847000070080020014B5B6859
:10429000184700007008002010B503000800110046
:1042A0001B68984710BD0000F8B507000D00160008
:1042B000437D002B02D0002400200CE00368110095
:1042C000280098472DE03B7D10E0022115483B680F
:1042D0009847601C0134B44214DA002CF3DD2B192A
:1042E000013B1B780D3B5A425341DBB22A5D0A2A3F
:1042F000F0D1002BEED1A042E7DA211A28183B6852
:104300009847E2E7B04203DA311A28183B68984729
:10431000002E06DDAD19013D2B780D3B5A4253416D
:104320003B75F8BD9476001070B505000368002B4E
:1043300016D00C4B1C6805E0290004C92000FFF7CB
:10434000B3FF2469002C09D02368002BF9D0064B59
:104350001B68002BF0D0A342F3D1EDE700232B60C4
:1043600070BDC046F40E0020FC10002070B50500A2
:104370000C000B68802B05D021684B1C236064184F
:10438000257170BD0800FFF7CFFFF5E710B5FDF709
:10439000FDFB02000B1E0BDB0D48002112184B41E8
:1043A000002B0BDB002B0DDB0A4801F0F9FF10BDE1
:1043B000094B0A4A3F210A48FEF7B2F9012252424C
:1043C000084BEFE7044B054A3F210548FEF7A8F9E3
:1043D00040420F00C8080020586500107C7600108D
:1043E00074650010FFFFFF7F10B5024801F0A8FFC1
:1043F00010BDC046C8080020F0B5CE46474680B57F
:1044000083B006000D0090461C00FFF7BFFF8146F9
:104410006B1C05D0002C08D0194F1A4B1C6807E004
:10442000300001F05DFF0500F4E7174FF5E7246960
:10443000002C17D02368002BF9D0144B1B68002BDD
:1044400001D0A342F3D12A0031002000B8474346EF
:10445000002BECD06B46D91D0A230B7001222000E3
:10446000B847E4E74B46002B07D16B1E9D41E8B2ED
:1044700003B0C0BCB946B046F0BDFFF7B5FFF4E7E6
:1044800099420010F40E0020A9420010FC100020F8
:10449000094A01E010331A001368002B08D0834248
:1044A000F8D1002907D1036913600023036102E0FA
:1044B000002900D010607047F40E002010B5064BA4
:1044C0001C6801E098472469002C03D06368002B26
:1044D000F8D1F8E710BDC046F40E002070B5050015
:1044E00001F0FEFE04000023012201002800FFF776
:1044F00083FFFFF7E3FF200070BD000070B5A2B09E
:1045000004000E00FFF742FF050000230193330073
:10451000220001A90848FFF745FA040001A8FFF7A7
:1045200003FFFFF7CBFF002D02D1200022B070BDAA
:10453000FFF75AFFF9E7C0466D4300100FB400B50E
:1045400083B004A901C90191FFF7D8FF03B008BCEB
:1045500004B01847F0B583B005000E0000240FE04A
:104560006B46D91D0D230B700020002816D19369CE
:104570009B06FCD40B78136001300131F5E7013460
:10458000B44219DA0D4B1A682F5D0D4BD3185942FE
:104590004B415B000B495B5EBB42E1D06B46D91DD2
:1045A0000F7000200028EAD193699B06FCD40B7899
:1045B000136001300131F5E703B0F0BD3C1300207A
:1045C0000080FCBF34130020F0B583B006000F005C
:1045D000002504E06B4607331B782B702500BD4295
:1045E00015DA174B1A6893691024210019401C42F0
:1045F0000DD16C1C75196B46D81D0029EAD1936941
:10460000DB06FCD41368037001310130F5E70D4B74
:104610001B68002B0CD00A4B1A68502393631100BF
:104620003431536B38221A4080235B010B431A60EC
:10463000002D02D0280003B0F0BD033DFAE7C046CC
:104640003C130020800E002010B5064B1B68002B89
:1046500006D0054A126800219163044A1068984701
:1046600010BDC046800E00203C130020840E0020A8
:1046700070B504000E001C4B1B681C4A981842427F
:10468000504114300500002C03D0194A1268002A4A
:1046900006D0002C19D0164B1C60164B1E6070BD46
:1046A0001549FCF797F901212800FCF783F90E4B17
:1046B0001A685023936311003431536B38221A4027
:1046C00080235B010B431A60E5E7094A1268002A60
:1046D000E1D000229A6300212800FCF76BF906491B
:1046E0002800FCF7BBFAD6E73C1300200080FCBF93
:1046F000800E0020840E00204946001070B50D0089
:104700001C000D4B1860002A0BDA002C0EDA0A4B45
:1047100018682900FDF708FE01210848FFF7B8FED8
:1047200070BD02211000FCF729F8EEE702212000FD
:10473000FCF724F8EBE7C0463C130020800800207B
:1047400010B5002210E09A001249505812495050FA
:104750000133022BF7D911480021FDF737FA0E4B30
:1047600000221A6010BD0132022A08D893000A49BB
:10477000595808481B589942F5D00023E9E7064BE1
:1047800000221A600648FFF725F9030000210020E7
:104790009847C046BC760010E8080020400D030092
:1047A0005542000010B50548054B1860E121012372
:1047B00000224902FFF7A2FF10BDC046004003409F
:1047C000381300207047000030B505004B0613D0A9
:1047D000012200E001320F2A0CD85301074C1819AE
:1047E0001B5D002BF6D0437FAB42F3D183788B4225
:1047F000F0D100E0002030BD0048FCE7FC0E0020B6
:10480000012200200F2A09D85301054958185B5C82
:10481000002B01D00132F5E7511E81777047C04669
:10482000FC0E002010B5002807D11148114B836001
:10483000114B4360114BC36010BDFFF7E1FF00282F
:104840000FD0837FDA000E49511881600D498C46E4
:104850006244426002339B01084A94466344C36049
:10486000EAE72021084B094AFF310948FDF758FFC4
:10487000FC0E0020800010500001105080011050EC
:1048800088001050080010508C7700108C780010B1
:10489000DC76001070B500281DD100F053FA114CE1
:1048A0000C23A367104D29000520FCF7D7F9FF2240
:1048B00029000520FCF7B8F88022920000210B485F
:1048C000FFF7DEFC03232364094BE3649023094ACA
:1048D000E250012070BDC021074B084A490008483A
:1048E000FDF71EFF00001150A5030020FC0E002064
:1048F000008600207B04000090770010F078001004
:10490000DC76001010B5002800D110BDD121034B7A
:10491000034A49000348FDF703FFC04690770010A3
:10492000E0780010DC7600107047000010B5002819
:1049300008D1084B186DC0239B001840431E9841B6
:10494000C0B210BDB021044B044AFF310448FDF74A
:10495000E7FEC0460000115090770010C8780010A4
:10496000DC76001010B5002809D10B4B1A6D120A25
:1049700003231340012B0CD0022B07D110BDDB21E8
:10498000064B074A49000748FDF7CAFE0648FDF7EF
:1049900061FF1800F2E7C046000011509077001048
:1049A000B4780010DC7600109C770010F0B5D64685
:1049B0004F464646C0B504000F00994608A90D7839
:1049C00009A9097843689C46002B50D08368002BC6
:1049D00054D0C368002B58D07F2080460600164074
:1049E000B246D009A270677760704646164253D12E
:1049F0000122E2704A462283E5762C4A5A409B0601
:104A00004CD1AD061543A0231B061D43002902D03F
:104A1000013909040D4363461D6001232370244BB3
:104A20009C421FD053461D043D43002802D18023E1
:104A30009B041D430020FFF795FF0600380000F09F
:104A400027FB864202D08023DB041D43A37F9B000B
:104A5000184A944663445D60A27F0132012393406B
:104A6000154A5365E0BCBA46B146A846F0BD9B2145
:104A7000124B134A49001348FDF752FE3821124BDE
:104A80000F4AFF310F48FDF74BFE9C210F4B0C4A9C
:104A900049000C48FDF744FE0022AAE7A7210C4B71
:104AA000074A49000748FDF73BFEC046000010508A
:104AB000FC0E00200000115000201150AC770010B7
:104AC00078780010DC760010C4770010D8770010DA
:104AD000E8770010F8B50D1E26D0012400E001345F
:104AE0000F2C21D86001114BC018437FAB42F6D187
:104AF00063010E4A9B5C002BF1D016006701827F98
:104B00000132012393400A4A5365837F9B00094A7F
:104B10009446634400225A60BA5543681A60836819
:104B20001A6001F04DFCDAE7F8BDC046FC0E00202B
:104B3000003011500000115010B5002804D101219F
:104B40000520FBF737FF10BDEA21034B034AFF3175
:104B50000348FDF7E5FDC04690770010A4780010EB
:104B6000DC76001030B583B00D001400D0788007DB
:104B7000800FFFF757FE002812D0217963791B02BE
:104B80000B435B055B0DE1788907890FA278A47957
:104B9000019400912900FFF709FF012003B030BD07
:104BA0000020FBE7F0B5D6464F464646C0B582B07A
:104BB0000E0015009A460AAB1B8899467F271740BE
:104BC000D309984611003000FFF7FEFD041E4CD0BB
:104BD000837E002B1CD18378AB420AD0002F1ED1DC
:104BE000038B00220192C27E00922A003100FFF75F
:104BF000DDFE1F4B9C4218D04A465146200000F073
:104C0000C7F8012002B0E0BCBA46B146A846F0BDE4
:104C10008721184B184A89001848FDF781FD184B69
:104C2000154A18491548FDF77BFD4A4651462000B4
:104C300000F0AEF83B043343134A13604346002BA5
:104C40000FD0124D0020FFF78DFE0400300000F061
:104C50001FFA844207D040232B430B4AD364012020
:104C6000D0E70B4DEEE70023F6E70020CAE7C04689
:104C7000FC0E0020047800103C780010DC76001058
:104C80001078001021020000000011500986002059
:104C90000586002070B582B00D00002304E0D45CCE
:104CA0001E48C4540133DBB2072BF8D90020FFF7AC
:104CB000B9FD041E2FD0837E002B1ED1038B002252
:104CC000019200922900FFF771FE2678002E1AD07B
:104CD0000823A382073BA376114B1D600020FFF73A
:104CE00041FE0400280000F0D3F9844211D00D4A9F
:104CF0000B4BDA64300002B070BD0B4B0B4A0C4911
:104D00000C48FDF70DFD0C4B084A0C490948FDF70E
:104D100007FD0B4AECE70026ECE7C0460000105008
:104D20000000115043860020047800102C780010F9
:104D30004D020000DC7600101C78001051020000CB
:104D40000386002010B580235B040C4A13600C4AD4
:104D500013600C4B9A6880235B049343F9D10A4C8F
:104D60009C2200212000FFF78BFA802252010021B3
:104D70000648FFF785FA0923636710BD00E000408D
:104D800000F0004000C00040000011500000105032
:104D900070B504000D001600837E002B17D1A6828B
:104DA0000023E3820133A3762561200001F0E0FABD
:104DB000002804D0094A902380218902D150200084
:104DC00001F0E6FA002805D00123237770BD01F039
:104DD000F7FAE4E7200001F0EBFAF7E700201150C2
:104DE0004369C2781A707047002801D0012003E09F
:104DF000002001E00130C0B2002809D13622424330
:104E0000044B9B181B79DB07F4D40130C0B200E0DF
:104E100000207047680D002010B5040036220021E4
:104E2000FFF72EFA20000D300822FF21FFF728FAA5
:104E3000200015301022FF21FFF722FA10BD0000DC
:104E4000F8B5DE4657464E464546E0B582460C006C
:104E5000030001280DD1421E35335343304A914699
:104E60009944A278E7783F021743E719217864183C
:104E700016E000239946F4E7E37898462378E4188F
:104E80006378042B45D13A1B92B24146200001F0D1
:104E900026F9060008283ED90025002D08D0A419BF
:104EA000BC422FD263780B2BE6D001239846E7E76C
:104EB000AB005B199B001B4AD3185B689B464B46B3
:104EC0001878330022005146D847002802D1013516
:104ED000EDB2E2E72A0090450CD9A3789B18DBB22B
:104EE0004946C918497BFF2917D14B445D730132EC
:104EF000D2B2F0E72B00320021004846153001F015
:104F0000DBF8CCE70120F0BCBB46B246A946A04680
:104F1000F8BD0020F7E70020F5E70020F3E7C046E2
:104F2000680D0020387A0010F0B589B007000E0037
:104F300006AD144C2B00220003CA03C31822002123
:104F40006846FFF79DF96B461F70DE70E38A019398
:104F50000295A3680393E3680493236905930A4DBC
:104F600001214942286801F00BFA00236375286883
:104F700001F0E6F9049B002B01D06846984709B080
:104F8000F0BDC046140A0020A00D0020F0B5D646A2
:104F90004F464646C0B5070088469146002407E0C4
:104FA00036235343274AD2181379DB071FD42C002A
:104FB000002C42D12200234E36236343F1188A4647
:104FC000651CEDB29B5DBB42F1D14346002B03D083
:104FD00053465B784345EAD14B46002BE0D036215F
:104FE0005143184B5B189B784B45E0D1D8E7164BE3
:104FF000002B08D0280000E000BF04E0280000F0EB
:10500000EFFE0134E4B2002CF8D029003800FFF79D
:1050100061FD5046FFF700FF0C4B1B7DAB42C6D134
:105020000B4C01214942206801F0AAF9074B0022EC
:105030005A75206801F084F9B9E7E0BCBA46B14678
:10504000A846F0BD680D002000000000140A0020F2
:10505000A00D002010B5002313800B80012810D173
:10506000013836335843094B1B18002B0BD01C79E1
:105070006407E00F002C03DADC880C801B891380A6
:1050800010BD0020FCE70020FAE7C046680D0020B4
:10509000012808D10138362343430448C0180028AA
:1050A00001D0C07801E0024BD8787047680D00202D
:1050B0002C0A0020034B1878FF38431E9841C0B2D9
:1050C0007047C046A008002070B50500FFF7F2FF4A
:1050D000041E01D0200070BD204C20001430FBF7CE
:1050E00047FF200001F0B9F81D4B1C601D4C20004B
:1050F000FBF718FF1C4B1C60052200211B48FFF723
:10510000BFF8362200211A48FFF7BAF8182200210A
:105110001848FFF7B5F80024002C0DD00024002C0F
:1051200013D0154B1D702800FFF7B4FB041ED1D01F
:105130002800FFF701FDCDE7362363430C48C01874
:10514000FFF76AFE0134E4B2E6E7A3001B199B00F7
:105150000A4A9B5898470134E4B2E0E7A4080020CB
:10516000AC0D0020A40D0020A00D00202C0A002072
:10517000680D0020140A0020A0080020387A0010D2
:10518000012808D10138362343430448C0180028B9
:1051900001D0007801E0024B18787047680D0020BC
:1051A0002C0A002030B583B004000D000722002136
:1051B0006846FFF765F807236A461370023B537091
:1051C00095802000FFF7DCFF6A462100FFF7CAFC4C
:1051D00003B030BDF0B583B0040015001E00FFF72A
:1051E000CFFF0700002D0BD12A4B5A7DD3B2022AE4
:1051F00010D0032B48D0012B08D0002003B0F0BD05
:1052000029002000FFF790FE0120F7E7214BDB8803
:10521000002B1AD1B6B21F4DEE821F4E012149421A
:10522000306801F0ADF803236B75306801F088F841
:105230002B78DB0926D180225242D2B20023009380
:1052400021003800FFF7AEFCD8E7134E0121494298
:10525000306801F095F80F4D02236B75306801F04E
:105260006FF82B78DB090BD080225242D2B2094969
:105270008B68C988009121003800FFF793FCBDE7D7
:105280000022F3E70022D8E729002000FFF74CFEB8
:105290000120B3E7140A0020A00D00200048704749
:1052A000680C002010B5012813D101383623434380
:1052B0000A48C01800280ED07F220A40CB090849AE
:1052C00009685200D3182033C018053000F072FE70
:1052D00010BD0020FCE70020FAE7C046680D002062
:1052E000A00D002010B5012813D101383623434307
:1052F0000A48C01800280ED07F220A40CB0908496E
:1053000009685200D3182033C018053000F07AFE27
:1053100010BD0020FCE70020FAE7C046680D002021
:10532000A00D0020F0B5CE46474680B585B00500FB
:10533000039301283BD10138362444431E48041905
:10534000002C36D07F260E40CF0970002018C019DF
:1053500020304079C00705D5002005B0C0BCB94653
:10536000B046F0BD70002018C01920239946814432
:1053700048464079844601208046604643461843AB
:105380000300484643712078039B009313000A00F2
:105390002900FFF707FC0028DFD14F467B79012267
:1053A00093437B717B79033293437B71D5E7002074
:1053B000D3E70020D1E7C046680D002070B5040097
:1053C0000D00FFF765FE0100280000F039FE0028FF
:1053D00000D170BD2000FFF7D3FE2A002100FFF7A7
:1053E000C1FBF6E770B505000C00012807D1431E8C
:1053F00036225343104AD2180134E4B203E00022AB
:10540000FAE70134E4B2072C0CD813195B7BFF2BAD
:10541000F7D09A00D3189B00084AD3189B68210044
:1054200028009847082C00D070BD054B002BFBD0FE
:10543000280000E000BFF7E7680D0020387A001070
:105440000000000030B583B00400C378002B0FD0FB
:10545000504B1B78022B01D903B030BD01334D4AAC
:1054600013706420FCF7DEFA200000F053F9F3E734
:10547000484B00221A7005784369033B092BEBD88F
:105480009B00454AD3589F4608210020FFF78AFE1B
:105490000028E1D007230093404B08224049002018
:1054A00000F043FAD8E700F0A1F9D5E783689D78CA
:1054B000012DD1D16B1E362463433A4CE418002CE5
:1054C000CAD02379022213432371374B1878002165
:1054D000FFF700FB61792800FFF764FE0028BBD0CE
:1054E000092300932D4B12222D49280000F01DFAAC
:1054F000B2E7012DB0D16A1E36235A43294B9B18BF
:10550000002BA9D0264A1189D98051891981917B14
:105510009972D17BD972117C19730A2301931F4BA5
:10552000009309230021280000F011FA94E71C4B96
:105530005B8880225200934200D98DE7F53A0192B0
:10554000164A0092164A0021280000F000FA83E76C
:1055500013492800FFF774FC002800D17CE70C23D6
:105560000E4A0121280000F03CFA75E7012D00D019
:1055700072E76A1E36235A430A4B9B18002B00D150
:105580006AE71A7904210A431A71FF212800FFF7FC
:1055900029FF61E741130020107A001045540010E4
:1055A000680C0020680D00202C0A002010B586B081
:1055B00003000078144A1070197951705B79937068
:1055C000002902D0012006B010BDFFF79BF9FA2098
:1055D0004000FCF727FA0C4C2078FFF7A5F920785B
:1055E000FFF7A4F90028EDD0074C2078FFF7BAF9AF
:1055F000E07000236A461370D37003330593684646
:10560000FFF720FFDEE7C0462C0A0020F0B585B08A
:1056100000F0C9FC00280CD105B0F0BD032B08D167
:10562000029B002B05D00398984702E001A8FFF7E2
:10563000BDFF354B1C68210014316269EFF3108007
:1056400072B61368002BFCD0BFF35F8F486001A9CE
:10565000200000F0AFFD6269A369BFF35F8F0021F6
:10566000116083F310880028D6D001AB5B78022B41
:105670000BD0D3D8002BD9D0012BDAD101AB5A797A
:1056800019791878FFF782FCD3E701AA11797F23F3
:105690000B40CD099078002807D1002BBCD1130016
:1056A00052799B68FFF796FDC3E70128B4D1421EEB
:1056B00036245443154A1419002CADD05A00A218B0
:1056C0005219203256790127BE4356715679033755
:1056D000BE435671002B11D05B00E3185B195A7D55
:1056E000002A00D098E793009B189B00084AD31823
:1056F000DC6801AB5A79039BA0479AE701AB5A7962
:10570000039BFFF767FD94E7AC0D0020680D0020B8
:10571000387A0010F0B583B004004378002B57D1DD
:105720008368002B58D02E4B5B7D002B01D00025C9
:105730004FE006782B4B18680121494200F020FE0B
:10574000274B5B7DDFB2002B10D1254D01336B75EC
:105750002E750023EB820822A1682800FEF796FD33
:10576000E368AB602369EB6063692B611D4B1868CC
:1057700000F0E6FD002F31D13000FFF701FD236975
:10578000002B05D0164A3100FFF784FA050020E00F
:105790006B460422DA710733114A1361124BD3604E
:1057A0003100FFF777FA051E05D112E00120002134
:1057B0004042FFF72BFF6B4607331B78042BF5D0D5
:1057C0006B4607331B78E370054BDB8A636000E0B0
:1057D0000025280003B0F0BD0025FAE70025F8E712
:1057E000140A0020A00D0020E14D001010B588B073
:1057F000234B1879093843425841C0B2FFF7F4FAF5
:10580000031E3AD0012836D1421E35335A431D4B70
:105810009B181D4A117819705178597091789970B8
:10582000D278DA701A7901210A431A71144AD279AE
:105830005A7106AC23781F2293432370DBB24132A6
:1058400093432370DAB27F231340237005236370E0
:1058500060800023A380E380182200216846FEF7C1
:105860000FFD0294094B0493082305936846FFF744
:1058700051FF08B010BD0023CBE70020F9E7C04678
:10588000680C0020680D00202C0A002045540010F0
:10589000F0B5C64600B588B0050098460EA840C8C9
:1058A000078806AC20781F2398432070C0B241338C
:1058B00098432070C3B280204042184320700620D5
:1058C00060700902114361804346A380E78018227B
:1058D00000216846FEF7D4FC6B461D7002940396C7
:1058E000109B0493119B05936846FFF713FF109BD1
:1058F000002B03D008B080BCB846F0BD119B002B34
:10590000F8D06B46DB78119A1370F3E730B585B0A9
:1059100008AC24880A9D0395099D02950194009383
:105920000023FFF7B5FF05B030BD10B584B0141CDF
:10593000122A00D91224A4B2069A0292019300946A
:105940000B0000220121FFF7E1FF04B010BD10B5EC
:1059500084B0079C0294069C0194009313000A00F3
:105960000221FFF7D3FF04B010BDF0B589B00600E7
:105970000EA880C80088844606AC25781F20854381
:10598000012005432570E8B26025A8432070C5B208
:1059900080204042284320700620607012021A4383
:1059A0006280A1806346E380182200216846FEF7EA
:1059B00067FC6B461E7002940397109B0493119B27
:1059C00005936846FFF7A6FE109B002B01D009B097
:1059D000F0BD119B002BFAD06B46DB78119A137047
:1059E000F5E7F0B589B0070016001D0006AC237876
:1059F0001F2293432370DBB2413293432370DAB208
:105A00007F23134023700923637061800023A380E8
:105A1000E380182200216846FEF732FC6B461F70B7
:105A20000294049605956846FFF774FE09B0F0BD30
:105A3000F0B50600002001E00130C0B2032827D8ED
:105A4000721E04008C25454313019B185F01DB196E
:105A50009B18EB180F4DEB189B788B42ECD18C25E3
:105A6000454313019B18DB199B18EB18094DEB18E4
:105A7000DB78002B0DD18C335C4313019B18DB19B1
:105A80009A18A218034CA2181379002BD4D000E066
:105A9000FF20F0BD340A002070B504000020032868
:105AA0001CD8621E8C25454313019B185E019B196F
:105AB0009B18EB180A4DEB18DB788B420FD08C2526
:105AC000454313019B189B199B18EB18044AD318E4
:105AD0001B798B4203D00130C0B2E0E7FF2070BDDC
