:020000041000EA
:1000000000B5324B212058609868022188439860DF
:10001000D860186158612E4B002199600221596106
:100020000121F02299502B49196001219960352056
:1000300000F044F80222904214D00621196600F024
:1000400034F8196E01211966002018661A6600F04E
:100050002CF8196E196E196E052000F02FF8012189
:100060000842F9D1002199601B49196000215960AB
:100070001A491B48016001219960EB211966A021F2
:10008000196600F012F800219960164914480160C1
:100090000121996001BC002800D000471248134993
:1000A000086003C880F30888084703B5996A0420EC
:1000B0000142FBD001200142F8D103BD02B5186610
:1000C0001866FFF7F2FF186E186E02BD00000240BE
:1000D000000000180000070000035F00212200005C
:1000E000F4000018222000A00001001008ED00E03C
:1000F00000000000000000000000000074B24E7A12
:1001000000200420F7010010C3010010C5010010F9
:10011000C1010010C1010010C1010010C101001097
:10012000C1010010C1010010C1010010C701001081
:10013000C1010010C1010010C9010010CB01001065
:10014000CD010010CD010010CD010010CD01001037
:10015000CD010010CD010010CD010010CD01001027
:10016000CD010010CD010010CD010010CD01001017
:10017000CD010010CD010010CD010010CD01001007
:10018000CD010010CD010010CD010010CD010010F7
:10019000CD010010CD010010CD010010CD010010E7
:1001A000CD010010CD010010CD010010CD010010D7
:1001B000CD010010CD010010CD010010CD010010C7
:1001C00000BE00BE00BE00BE00BE00BEEFF3058054
:1001D000103800BEF2EB8871680105108801051027
:1001E0003402001090A31AE700201F49086006C8D7
:1001F00081F3088810471D48006800282FD10DA4FE
:100200000ECC002902D000F012F8F9E71849194A7B
:10021000002000E001C19142FCD1174988471749ED
:1002200088471749884700BEFDE701C901C29A42C5
:10023000FBD3704788010510C0000020100F00207C
:10024000D80F05100000042000000420D80F05106E
:10025000001004200010042000000000704709482E
:1002600000F0C8FD0047000008ED00E0000000D0ED
:10027000300F0020F4D6002011F500100503001007
:10028000CDF400105756000006005250ABB3605337
:1002900088FC041006005250861C030298FC0410CF
:1002A000060052505422A29DA4FC04100500525096
:1002B000DE65F468D80F0510F8B5C04610B5064CD9
:1002C0002378002B07D1054B002B02D0044800E017
:1002D00000BF0123237010BD881000200000000023
:1002E000103B0110044B10B5002B03D00349044808
:1002F00000E000BF10BDC046000000008C100020D0
:10030000103B011010B510F0DFFF0BF0C1FA002810
:100310001AD1104C104A114920000BF02BFA210081
:100320000F4810F0C5FF012100200BF079FAFA24E4
:100330006400200002F072F8002100200BF070FA37
:10034000200002F06BF8EEE7064810F081FF012074
:1003500010BDC046343B011004004000283B011092
:10036000443B0110103B011010B5064B8B4202D1EB
:1003700007F08CFE10BD044B044A182104480FF00E
:10038000A9F8C046C80D0020643B0110AC3C011028
:10039000843B0110F8B50400204B994212D101238F
:1003A0000B7207F09DFE0500431C11D11C4B186811
:1003B00059681C4B9860D96023685B691949200013
:1003C0009847F8BD184B194A1D2119480FF082F8BB
:1003D00002F0D8F806000F1E10DBFA22920000236C
:1003E0002800002110F09AFD36184F41002F0BDB3A
:1003F000002F0DDB0B4B9E60DF60DDE70D4B0E4ADF
:100400003F210E480FF066F8012676420C4FEFE7C9
:10041000084B094A3F2109480FF05CF8B80D00204D
:10042000084B0110C80D0020E43B0110C43C011032
:10043000843B0110143C0110943C0110303C01102D
:10044000FFFFFF7F10B50400094B1B78002B08D07D
:10045000084901230B722368DB69200098470120BB
:1004600010BD02F0C1FC024B01221A70F0E7C04639
:10047000E2D60020B80D002010B5040003689B6987
:100480000349984723681B6A02492000984710BD1A
:10049000C80D0020B80D00200020704770470000F4
:1004A00010B502F06FF8002906DB0BD0FA2292009B
:1004B000002310F0DBF910BD054B064A3F2106482A
:1004C0000FF008F8FA21890010F092F9F3E7C0461E
:1004D000143C0110943C0110303C0110083000E045
:1004E00018000368002B03D08B42F9D1002002E0F2
:1004F00001600B6001207047083000E018000368BD
:10050000002B05D08B42F9D10B680360012000E07D
:1005100000207047043000E018000368002B03D06F
:100520008B42F9D1002002E001600B60012070478E
:10053000043000E018000368002B05D08B42F9D18D
:100540000B680360012000E000207047F8B506004A
:100550008068002833D002F015F8002906DB04007B
:100560000D0008239C46B44400220CE0154B164AAB
:100570003F2116480EF0AEFF154B164A4221164891
:100580000EF0A8FF9C4663461B68002B12D020008B
:1005900029009E68DF68801BB9410029F2DB340026
:1005A0003D000E490A684968724079400A43E3D029
:1005B0006246E7E7002A03D0106803681360F8BDBD
:1005C0001000FCE7143C01106C3D0110303C0110A0
:1005D000D83C0110843D0110FC3C0110084B011077
:1005E000F0B583B0104B5C681B680093019483687E
:1005F00004E0DC689B68009301940B00002B0CD096
:100600001968009C019D9E68DF68A41BBD41002DF8
:10061000EFDCF2D1002CECD1EFE7009B019C0361F1
:10062000446103B0F0BDC046084B011070B5060030
:100630000D0002E04B68280098472800FFF786FF6E
:10064000011EF7D16C6800E02468002C09D0237AE1
:10065000002BF9D0002323722100280063689847FB
:10066000F2E72800FFF7BCFF2B696C693360746008
:10067000300070BD034B1B6802201840431E984198
:10068000C0B2704700C0064010B5104A104B121897
:100690004B419900900F0843990F504059400D4A23
:1006A0000D4B10F03BFC03004A01C00E1043CA0E74
:1006B00058405140094A0A4B10F030FC03004A00F0
:1006C000C00F1043CA0F5840514010BD157C4A7FDF
:1006D000B979379EB9E5E41C6D4758BFEB1131136A
:1006E000BB49D094F0B5C64600B584B002000B00FB
:1006F00013498C461BE0614601C900908C460021DD
:100700000191910E9F010F43960100980199801964
:10071000794102900391110C1D040D4314040298B9
:10072000039900196941801A994102000B0005499B
:100730008C45E0D91000190004B080BCB846F0BD6B
:10074000001C0420FF1F0420F0B5CE46474680B5AC
:1007500083B0804603684468009301940300806876
:10076000D96801E001F00EFF009C019D23002B439E
:1007700002D103000B43F5D0009C019DA60FAB00F6
:100780003343A2002E002500AD185E416B0E994642
:10079000F3019C464B46624613431F00730EEA0169
:1007A00013431E005B0F9C46FB0064462343F2008C
:1007B00092197B41009C019D60406940260A2F06EA
:1007C0003E432D0A009C24062C43444035004D40F6
:1007D000070C0E043E4307047C40754046463460D7
:1007E00075604C01C50E2C434001C90E0843B4602E
:1007F000F0601000190003B0C0BCB946B046F0BDAF
:10080000F0B5DE4657464E464546E0B583B001900A
:10081000574B9B69DB0410D5564BDA6BE023134032
:10082000402B0AD0EFF305839846019B002B0AD09A
:1008300000239946002400258AE04F4B4F4A81212E
:100840004F480EF047FE4F4B4C4A86214C480EF065
:1008500041FE4D4B1868596801F036FDEFF31086E4
:1008600072B64A4B1B68002BFBD0BFF35F8F464B21
:1008700019685A688A4516D0BFF35F8F434B002230
:100880001A6086F310885B46002B5ED13E4B1A68D7
:1008900092465F684346002BDBD03B4B1868596893
:1008A00001F07CFEDAE7BA42E6D120002900001907
:1008B00069412F4BDA690123134003431C000D00EB
:1008C00001F060FE02000B1E23DB0A20002112183B
:1008D0004B41002B23DB002B25DB2B490A604B60AF
:1008E00001994B1E4B452DD1294A20235B42CB1841
:1008F0001FD4116899400B00126801998A40224365
:100900002B4314001D00224B1C605D6001239B469D
:10091000B2E7204B204A3F2120480EF0DBFD0122A8
:1009200052421F4BD7E71B4B1B4A3F211B480EF07F
:10093000D1FD202301981B1A1168D94053688340C8
:100940000B43D9E701239B4696E701239C46E144EC
:10095000019B994502D200239B4697E7200029007E
:1009600003B0F0BCBB46B246A946A046F0BDC046A7
:100970000000064000800040B43D0110F83E011028
:100980007C3E01106C53011080100020300100D01B
:10099000280F0020143C0110E03E0110303C0110F3
:1009A000FFFFFF7F10B588B03B4C20686168FFF700
:1009B00099FE20606160FFF767FE049B5840059B2D
:1009C000019359400490059102A800F011F9029892
:1009D0000399FFF759FE069B01935840079B01932B
:1009E0005940069007914020FFF70AFFFFF74CFEA1
:1009F000049B5840059B019359400490059101F0D8
:100A0000C1FDFFF741FE069B01935840079B0193F0
:100A1000594006900791EFF3108472B61F4B1B6884
:100A2000002BFBD0BFF35F8F1D4B1B78002B24D115
:100A3000032B09D85A1CD2001A498C4662445268CA
:100A40001F2A03D00133F3E701235B425A1C1DD058
:100A5000DBB2154A13700133DB00124A944663443B
:100A600005225A6004A8FFF76FFE102204A90F4860
:100A700010F0C6FA0A4B01221A70BFF35F8F074BC2
:100A800000221A6084F3108808B010BD084B094A90
:100A9000E92109480EF01EFD100F0020300100D0A2
:100AA000ECD6002000000340DDD60020180F002007
:100AB000D43E0110183F01107C3E011070B586B085
:100AC0003E4B1B78002B00D16EE010223C4902A85F
:100AD00010F096FA3B4B1C78E4B201F053FDFFF79F
:100AE000D3FD029B5840039B019359400290039110
:100AF0000120FFF785FEFFF7C7FD049B01935840D7
:100B0000059B01935940049005912F4B1A78531C73
:100B1000DB002E4958582E4B984248D00021FFF751
:100B2000B3FD029B5840039B0193594002900391EF
:100B3000EFF3108672B6274B1B68002BFBD0BFF378
:100B40005F8F204B1B78DBB2A34213D01C4B029962
:100B50001A685140039A01925868424002910392E8
:100B60009A68DB68049901914A40059901914B40CC
:100B70000492059302A8FFF7E7FD05000C00102280
:100B800002A90F4810F03CFA0E4A13780133DBB289
:100B90001370BFF35F8F0F4B00221A6086F310882B
:100BA0002800210006B070BDFFF7FCFE8DE7013282
:100BB000D2000B000021D150B0E7C046ECD6002097
:100BC000180F0020DED60020DDD6002000000340F4
:100BD000FFFFFF00300100D010B5FFF76FFF10BD21
:100BE00010B5024800F03CF810BDC0465CD40020AF
:100BF00010B50822014910F003FA10BD5CD40020A2
:100C000010B5002901D000230AE0114B114A1F3111
:100C100011480EF05FFC00240DE03732C25401335E
:100C20004A1E9A420FD90F2B0DD85A080B4CA25CC2
:100C3000DC07F0D40424224114000F222240092AA8
:100C4000EBDC3032EAE7C0180023037010BDC04669
:100C5000283F0110943F0110303F01105CD4002068
:100C600070B588B0040004AD002604960922002166
:100C700005A810F0BFF900960922002101A810F084
:100C8000B9F94B232B700D226946280012F0B0FEF3
:100C9000002304E05A1D69468A5CE2540133072BA5
:100CA000F8DD08B070BD0000EFF3108072B6034BA2
:100CB0001B68002BFBD0BFF35F8F70472C0100D067
:100CC000BFF35F8F024B00221A6080F310887047D9
:100CD0002C0100D0F8B506000C001500FFF7E4FF6A
:100CE000E308F718F15C07222240012393400B42EE
:100CF00005D1DBB20B433B70FFF7E2FFF8BD2100EB
:100D000028000EF081FCF0B583B0060001911400BC
:100D10001F00FFF7C9FF00E00134BC420CD8E30814
:100D2000F518F35C0721214001228A401A42F3D1D1
:100D3000D2B21A432A7001E001246442FFF7C0FFD7
:100D4000002C02DB200003B0F0BD019B002BF9D08A
:100D500008980EF059FC000070B505000C00FFF774
:100D6000A3FFE308EE18EA5C07210C400123A3402F
:100D7000134204D09A433270FFF7A2FF70BD034BB9
:100D8000034A2C3103480EF0A5FBC0463C4101103C
:100D9000BC4101105C410110002307E0054A9A188C
:100DA0009200BFF35F8F0021116001331F2BF5D933
:100DB0007047C04640000034054A1078431CDBB23F
:100DC0001370172B02D9130010221A707047C046F7
:100DD000E00D002000B583B00100044B00931F23F9
:100DE00018220348FFF78FFF03B000BDCC4101106C
:100DF0002417002010B5010018231B881422108826
:100E0000984710BD10B5010018231B8816221088C2
:100E1000984710BDF0B5C64600B507000E00002586
:100E20000123984600E00135B5420AD2AC003C19D6
:100E30002068FFF7DFFF20600028F4D100239846E8
:100E4000F1E7404680BCB846F0BD0000F8B5DE468C
:100E500057464E464546E0B505000F0092460A9AB1
:100E6000934250D31A0E91461E020A9A0023300074
:100E700049460FF0FBFC80466C006419A400304B1F
:100E80009C4664446368834200D260602B1FDBB2DF
:100E90009B46012B3DD9C0239B0123438022120195
:100EA0001A60AB00274A9958002907D050690FF003
:100EB0009FFC431C5800C0180338FDD253465A010A
:100EC00023685A40E0231A4080235B0123431A60C1
:100ED0005A46012A28D980239B01234380221201EC
:100EE0001A604346636042460023300049460FF0D3
:100EF000BDFCAD00134B58510120F0BCBB46B246BF
:100F0000A946A046F8BD104B104A332110480EF0F8
:100F1000E1FA012FBFD1C0239B01234303221A60B2
:100F2000A368DB07FCD5C9E72168794003220A40A2
:100F30001A60A2680123BB401342FAD0CBE7C04637
:100F40000080004028170020E84101105C42011099
:100F5000FC41011030B583B00C2001F0BFFEFFF75B
:100F600089FB00280DD0002304E099002D4A2E486B
:100F700088500133092BF8D92A4B2C4A5A6203B006
:100F800030BD2B4B00229A6701F01AFF294B01223A
:100F90001A60274B5B6C012BFBD1274B03221A6095
:100FA000234B9B6B012BFBD1013300930433234A6A
:100FB0000121234801F002FE05230093214A01216B
:100FC000214801F0FBFD214B009300220221042067
:100FD000FFF73CFF1E4D00952B000022012105204C
:100FE000FFF734FF104C009423000022002107205B
:100FF000FFF72CFF00942300002200210820FFF7B8
:1010000025FF0A4B00932300002200210920FFF74F
:101010001DFF00952B00002200210620FFF716FF80
:10102000ADE7C04628170020006CDC021BB70000AB
:10103000008000403CB0004030B00040002F6859B4
:1010400000800240008C864700C00240001BB700B1
:10105000405973078000014BC05870472817002083
:1010600010B58300084A944663441C6840226240DD
:10107000C02414408022520113431C60C000034B63
:101080009C466044416010BD04C0014000400140E6
:1010900080000B4B9C46604400290DD00823002A99
:1010A0000CD004221343026853400C2213408022C8
:1010B00052011043036070470023F0E70022F1E77C
:1010C00004C00140002909D08000094B9C466044BF
:1010D00080239B0118430223036070478000044B68
:1010E0009C466044C0239B01184302230360F4E73D
:1010F00004C0014070B5D0231B061B689D00094C3D
:101100002C59204207D19B002043064C18510D203A
:1011100000F042F970BD044B044ACC2104480EF0A3
:10112000D9F9C04648D400206C4201104443011054
:101130009842011010B50400D0231B061B689B00C9
:101140000A4A9B5818420BD00D2000F03FFAD023DA
:101150001B061B6805499B005A58A2435A5010BDF4
:10116000034B044AD62104480EF0B4F948D40020B9
:10117000F44201102043011098420110072303405C
:101180009B00C00899403C308000014BC150704723
:1011900000400140F8B507000C0016001D00FFF7E5
:1011A000EDFFFB089B00ED180720384080008440CD
:1011B000002E04D080239B011D432C60F8BDC0236A
:1011C0009B011D432C60F9E710B5D0231B061B685B
:1011D000002B03D0024BFFF7DDFF10BD014BFAE7F8
:1011E000304101400041014010B501238340D0222D
:1011F0001206936293610521FFF732FF10BD0000D4
:10120000074B9B68103080001950BFF35F8FBFF30E
:101210005F8F044B0021196082F310887047C0462D
:1012200000ED00E0240100D01F23181A70470000D1
:1012300010B5091A081F0A4B9C466144094A91429D
:1012400008D8C30706D440104005400D064B18438C
:1012500080B210BD054B064AA32106480EF03AF9AC
:10126000FC070000FE0F000000E0FFFF78430110C4
:1012700004460110A843011010B5091A04394C089E
:10128000090B08D14905490D064A11430180064B57
:101290002343438010BD054B054AAB2105480EF0A2
:1012A00019F9C04600F0FFFF00F8FFFF04440110E9
:1012B000D8450110A843011001238340034A106858
:1012C0001840431E9841C0B27047C04600E100E09C
:1012D000002904D0034B1860034B18607047034B80
:1012E0001860FBE780E200E000E100E080E100E060
:1012F00010B5012383401800FFF7EAFF10BD00007E
:1013000001238340014A13607047C04600E200E0B9
:10131000024B9B6810308000C058704700ED00E021
:1013200010B5FFF7F5FF002805D0054BC01A2F2890
:1013300003D8012010BD0020FCE70020FAE7C046DA
:10134000E40D002070B504000D00EFF3108672B6B6
:101350000C4B1B68002BFBD0BFF35F8F2000FFF707
:10136000D7FF094B984201D0A84205D1320029008D
:101370002000FFF745FF70BD044B054A8621054854
:101380000EF0A8F8240100D0CD0100101444011083
:1013900038460110A8430110F0B5DE4657464E46C8
:1013A0004546E0B589B0814601911500EFF3108AFA
:1013B00072B6744B1B68002BFBD0BFF35F8F724B70
:1013C0000027DF57002F40DB7C00E419A4006F48A2
:1013D00024180622A2566C4B1A706D4B9A684B4625
:1013E00010339B00D35898461E001B1A2F2B38D958
:1013F000684B98452FD105AE674B33807B009B46E9
:10140000D8198000614B9846404402306349FFF789
:101410000FFF7080624BB380FF23B371F571019BA6
:1014200007935F44BF0047440ECE0EC701231C4301
:10143000A046524641464846FFF7E2FE09B0F0BCDE
:10144000BB46B246A946A046F0BD564B564AD721E8
:1014500056480EF03FF8564B534ADE2153480EF0E3
:1014600039F8C04340440C210FF0C2F9002912D1D1
:1014700001239E43B34633000026DA79AA4211D9EC
:101480000621595600290CDB4A00521892001E0012
:101490003E4B9B18F1E7474B434AEA2143480EF085
:1014A00019F81E00002E3AD005AB434A1A80813A43
:1014B0005A800623F3560293002B17DA3F4805ABF8
:1014C0009B469880029A9A71DD71019A0792301DAD
:1014D0002100FFF7ADFEB080B7717B00DB199B00E8
:1014E0002A4FFF185B4607CB07C7A2E77800C01951
:1014F0008000264BC0180430321DB388D90A1C293D
:1015000007D15B055915023149005118FFF790FECC
:10151000D5E72B4B2B4AB12124480DF0DBFF05AE5C
:101520001D4B33807B000293D8198000174A9046E8
:10153000020042440392901C1849FFF779FE708024
:10154000039A101D5946FFF773FEB0801E4B5A4692
:101550004146521A524153431B0DB371F571019A22
:101560000792029B9C466744BF0047440ECE0EC7BD
:10157000114B5A461380813B538001231C43A046E4
:1015800057E7C046240100D0E5D60020E40D002036
:1015900000ED00E0CD01001000A1FFFF140E0020BF
:1015A00001BDFFFF4C44011020460110A84301106B
:1015B000744401109C4401100148000001BD00006A
:1015C0001045011010460110AAAA0000F0B5CE4641
:1015D000474680B583B006000D00EFF3108872B661
:1015E000564B1B68002BFBD0BFF35F8F544B9A68A0
:1015F00034001034A300D758524B9F4207D0AF425B
:1016000000D198E00197504BFB1A2F2B09D9424685
:1016100039003000FFF7F4FD03B0C0BCB946B04656
:10162000F0BD3000FFF748FE814600213000FFF793
:101630005FFEBFF35F8FEFF30581002901D08C427D
:1016400011D10123019C9C430022A368AB4212D01C
:101650000622A256002A0DDB53009B189B00220095
:10166000394CE418F1E73621384B394AFF31394813
:101670000DF030FF2200AB4256D106256557002DF4
:1016800038DB6B005B199A002F4B9B189A68A2609D
:10169000DA79E27106229A56A2719B795BB2002B2D
:1016A0000FDA2D48A0806B005B199B00264AD318E7
:1016B0002A4A11789971157049463000FFF718FED3
:1016C000A5E7201D6B005B199B001F4A9B181A1D84
:1016D0009B88D90A1C2907D15B055B150233590089
:1016E0005118FFF7A5FDDDE71D4B1E4AB121194832
:1016F0000DF0F0FE002912D1002A0ED0FF239371C5
:10170000194B9380154A1378A371184B0E49641A2C
:10171000644163431B0D1370CEE70A4FF2E7201DAF
:101720001349FFF7A9FDC7E76A21124B084AFF31A9
:1017300008480DF0CFFE034F69E7C046240100D0F2
:1017400000ED00E0CD010010E40D0020284501105F
:10175000F0450110A843011001BD0000E5D60020AE
:10176000104501101046011001BDFFFFAAAA00009C
:101770001E0E00205C45011010B5032304009C439D
:10178000064A9446644422681840C000FC338340F3
:101790009A43130081400B43236010BD00E400E036
:1017A00070B5012101432E4BCB1A2F2B28D8EFF314
:1017B0000583002B2BD0EFF3108C72B6294A1268E8
:1017C000002AFBD0BFF35F8F274A0400244D641B1F
:1017D00064416243120D54B2244A92689B00D2586D
:1017E0008A421BD00022032A32D853009B189B0048
:1017F0001B49CB189B795BB2A3421FD00132F2E7A1
:10180000C7211B4B1B4A49001B480DF063FE922168
:101810001A4B184AFF3118480DF05CFE134A9268C3
:101820001749D150174B1A7882711C70BFF35F8F24
:101830000C4B00221A608CF3108870BD0D00530011
:10184000991889006918FF268E710F4A8A80E9E786
:10185000D1210E4B074A490007480DF03BFEC04618
:10186000E40D0020240100D0AAAA000000ED00E051
:1018700064450110BC450110A84301108C450110BE
:10188000CD010010E5D6002001BDFFFF98450110F5
:101890000022044B02E0044902C30132072AFAD9AC
:1018A0007047C04600E400E08080808010B5FFF7FC
:1018B000BBFC01000148FFF74FFA10BDF1D6002034
:1018C00000B583B00100064B0093052300220548B4
:1018D000FFF719FA002801DB1F23181A03B000BD17
:1018E000A0450110F1D6002070B504000E001500CF
:1018F000FFF762FA0100200000F006F8A680E580FC
:10190000BFF35F8F70BD0000024B9C4661448900AD
:10191000016070474000003410B50400FFF74CFA36
:1019200001002000FFF7F0FFFF232371BFF35F8F5B
:1019300010BD10B50400FFF73FFA01002000FFF7CB
:10194000E3FFFF23237100236371BFF35F8F10BD9B
:10195000034B9C46614489000160BFF35F8F704771
:101960004000003410B504000120FFF733FA0100F5
:101970002000FFF7EDFF10BD70B505000C0008005A
:1019800000F0DCFE0949200000F01CFEFFF714FA0D
:10199000074B9C466044800068602C75D0231B0672
:1019A0001B786B75A400034BE55070BDBD1C001087
:1019B000400000347CC400200A4B1A68EFF3108109
:1019C00072B61368002BFCD0BFF35F8F054B1B680A
:1019D000BFF35F8F00221A6081F3108840BF0020A0
:1019E000002170476CD6002010B5002922D0036872
:1019F0001B7B99421ED8174B9C46614409018368A2
:101A00009C4661440C684968002A19D003681B7B16
:101A10009A4215D883680F488446624412019A1886
:101A200010685368020001208B4201D80ED00020BC
:101A3000C0B210BD084B094A3C2109480DF04AFDCF
:101A4000054B064A3C2106480DF044FDA242EFD862
:101A5000EDE7C046FFFFFF0FF4470110744A011085
:101A6000A047011010B500291ED0037B99421BD856
:101A70004B005B18033B0468A4466344002919D05B
:101A8000002A1DD0914221D0002A25D0047BA242F9
:101A900022D8046850008018033820188170197803
:101AA00000291FD11A7010BD104B114A682111482E
:101AB0000DF010FD104B114A6F310E480DF00AFD6C
:101AC0000F4B0E4A70210B480DF004FD0D4B0B4AD5
:101AD000712108480DF0FEFC044B054A68210548B9
:101AE0000DF0F8FC41701A70DDE7C046184801108F
:101AF000E04A0110344801109C480110BC4A011012
:101B0000A8480110B448011070B506000D0014007B
:101B1000002914D0002A14D08068736898470028E0
:101B200006D0220029003000FFF79CFF280007E0C4
:101B30002A0021003000FFF795FF200000E0100090
:101B400070BD0800FCE70000F0B583B0050000920E
:101B500001930AAB1C780BAB1F78002C26D00368CE
:101B60005A7B944207D10123002B19D1002C3BD181
:101B7000200003B0F0BD002C0CD01A7B944209D891
:101B80001A6863001B19033BD3189B78002BEBD01A
:101B90000123E9E73E4B3F4A68213F480DF09AFC9C
:101BA0003E4B3F4A67213F480DF094FC03689C7B05
:101BB000002CDBD012D01A7B94420FD8620012198D
:101BC000033A19688C46624451789973002900D110
:101BD000D9730023937053701370C7E72C4B2D4AB1
:101BE00068212D480DF076FC002C3AD02B681B7B29
:101BF0009C4236D82C4BE3181B01AA6894466344D8
:101C0000009A1A60019A5A60089A9A60099ADA60F2
:101C10002E68002C2BD030D0337B9C422DD8630013
:101C20001B19033B32689446634400229A705A7031
:101C30001A70717B22003000FFF766FF70738442D8
:101C400000D095E7287D009A019B00F003FD061E59
:101C500001D0002F17D00C9B002B00D188E71E70FD
:101C600086E7124B124A3C210E480DF033FC114B13
:101C7000114AA52108480DF02DFC054B054A6821A5
:101C800005480DF027FC2868210000F01BFFE2E763
:101C900018480110E04A011034480110CC480110E6
:101CA000EC4A0110A0470110FFFFFF0FF44701109D
:101CB000744A01109C470110D04A0110F0B5DE466D
:101CC00057464E464546E0B58BB009900023089331
:101CD0008200B54BD658370052E0B44BB44A3F218E
:101CE000B4480DF0F7FBB44BB44A3C21B4480DF0B6
:101CF000F1FB002901D1002869D10021404600F004
:101D0000D7FEA04219D12A686B6806920793AB6888
:101D10009846EB689A464346002B14D0002C18D006
:101D20003B681B7B9C4214D8631EFA68D35C089303
:101D30001B0218433861002015E0A24BA24A8E21F5
:101D40009F480DF0C7FBA14B9F4A92219C480DF084
:101D5000C1FB994B9E4A412199480DF0BBFB0023E2
:101D60009A46984600207B68BFF35F8F00221A6076
:101D700086F310884346002B32D1002800D10CE1B5
:101D800000F000FC02000B1EA7DB002000210690E3
:101D900007917868EFF3108672B601680029FCD0CD
:101DA000BFF35F8F396888464C7B002CD7D09AD020
:101DB000097B8C4297D8874965182D01B9688C46F4
:101DC000654428686968801A9941002991DD2A686C
:101DD0006B68099800F03EFC00239A469846C2E7DB
:101DE000089B1B022343994651461800C047050033
:101DF0000E007A68EFF3108B72B6136859424B41AC
:101E0000D9B2002BF9D1BFF35F8F002E1EDB002E5D
:101E100046DD3B69002B47D04B456DD100F0B2FB4E
:101E200002000B1E6EDB52197341002B70DB002B7E
:101E300072DB00210491013103910294514601911A
:101E4000414600913800FFF77FFE4CE03B69002BD4
:101E5000DDD04B4514D1069A079B521BB341002B92
:101E600014DB002B16DB0021049101310391029455
:101E700051460191414600913800FFF765FE32E07E
:101E8000554B514AA1214E480DF024FB01225242EC
:101E9000524BE6E7454B464A3F2146480DF01AFBB8
:101EA000002E01D1002DB4D13B68002C50D05A7BBC
:101EB000944237D1012100294AD1DA7B002A4DD141
:101EC0009A7B002A03D1DA7B002A5AD19C73DC73F7
:101ED000002C5CD03B681B7B9C4258D8FA68013CC4
:101EE000135D0133135500233B617A68BFF35F8FA5
:101EF00013608BF3108843E7374B334AA4213048F3
:101F00000DF0E8FA294B2A4A3F212A480DF0E2FA5F
:101F100001225242314B8AE7244B254A3F21254872
:101F20000DF0D8FA002C0DD01A7B94420AD862002A
:101F30001219033A1868844662449278002ABAD08B
:101F40000121B8E7264B274A682127480DF0C2FA3D
:101F5000264B274AF62124480DF0BCFA002A0AD065
:101F6000197B8A4207D851008A18033A19688C46AF
:101F700062445470A4E71A4B1A4A68211A480DF0BB
:101F8000A9FA1C4B1A4AFB2117480DF0A3FA0A4B79
:101F90000F4A41210A480DF09DFA0BB0F0BCBB4638
:101FA000B246A946A046F0BD7CC40020143C0110F6
:101FB000404A0110303C0110F4470110744A0110EE
:101FC000A0470110F4480110584A01100C490110B3
:101FD000984A0110FFFFFF0F18490110FFFFFF7F14
:101FE00018480110E04A011034480110544901100A
:101FF000AC4A01107849011010B50C4B5B68002BFE
:1020000004D00A210A48FFF77FFC10BD074C2300CB
:10201000084A1021206800F05BFC032000F0A6FABB
:1020200003212000FFF7A8FCEBE7C0462C0E0020A0
:102030006CD60020E919001010B5064B5B68002B28
:1020400001D0044810BD044B044A5E2104480DF041
:1020500041FAC0462C0E00208C490110804A011024
:10206000A0470110F0B5DE4657464E464546E0B55E
:102070008BB0804616001F00149B9A46159B99460C
:1020800016AB1B789B461F2302AA9446634400228A
:102090001A702BE0002809D042461268127B904249
:1020A00004D8421E4146C9688A5C41E0404B414A1F
:1020B000412141480DF00EFA07984CE0361BAF4124
:1020C000002F07DB002F11DA3C4B3D4A3F213D48F2
:1020D0000DF000FA012676423B4FF3E7374B384AC2
:1020E0003F2138480DF0F6F9002F4FDB43465A6880
:1020F000EFF3108472B6136859424B41D9B207917D
:10210000002BF8D1BFF35F8F1F3302AA94466344BC
:1021100004930023039302934B4601935346009389
:1021200032003B004046FFF70FFD031EB2D1020014
:1021300041464968BFF35F8F00250D6084F3108826
:10214000002B29D01F2302A98C4663441B78002B47
:10215000B2D112021043002B20D05B46002B1DD0C1
:102160004946D04704000D0003000B431DD0002951
:10217000A4DB00F007FA06000F1EAFDB36196F4133
:10218000002FB1DA012676420F4FADE70B4B0C4A18
:102190003F210C480DF09EF9012040420BB0F0BCED
:1021A000BB46B246A946A046F0BD0798F6E7C04632
:1021B000F4470110984A0110A0470110143C011087
:1021C000404A0110303C0110FFFFFF7FF8B50400CA
:1021D000002900D162E04268EFF3108572B61368FF
:1021E00058424341D8B2002BF9D1BFF35F8FCBB235
:1021F0002268567BB3421BD10120002848D02069B9
:1022000088422BD0090AC9B2002B2ED02068007B4F
:1022100083422AD8581EE668305C88422BD00020C2
:102220006368BFF35F8F00221A6085F31088F8BDE2
:10223000002B0DD0167BB3420AD85E00F618033E81
:102240001768BC466644B678002ED6D00120D4E785
:10225000134B144A682114480DF03CF92C21134B00
:10226000134AFF3113480DF035F9134B134A41213E
:1022700010480DF02FF91900100000F023FC002881
:10228000CED199210E4B0A4A49000A480DF022F995
:1022900023698B42C4D100232361C1E70020C6E734
:1022A00018480110E04A011034480110B0490110EB
:1022B000284A0110A0470110F4470110984A011064
:1022C000D4490110407D7047F0B587B006000F007B
:1022D000EFF30583002B1FD106246442E517A419F0
:1022E0007D418D4202D803D1844201D900240025CA
:1022F000002D14DB0494059500F044F902000B1E38
:1023000013DBA41A9D41002D17DC14D030003900D6
:1023100000F044F907B0F0BD23480DF075F9234BE8
:10232000234A3F2123480DF0D5F8204B204A3F2176
:1023300020480DF0CFF8002CE8D0FFF77DFE0023F9
:10234000029301931C4B0093049A059BFFF78AFEAE
:10235000002818DADAE7002300E00023002BD5D1AB
:10236000164B1A68EFF3108172B61368002BFCD07D
:10237000BFF35F8F114B1B68BFF35F8F00221A60A2
:1023800081F3108820BF0499059A0D4B5B6A9A422D
:10239000E3D80B48806A884203D29A42DBD00123FB
:1023A000DCE70123DAE7C046D8490110143C0110EC
:1023B000404A0110303C0110B91900106CD60020C1
:1023C0000040054070B504000D0000F0DBF802008D
:1023D0000B1E0ADB200029008018594100290ADB66
:1023E00000290CDBFFF770FF70BD084B084A3F2146
:1023F00008480DF06FF8012040420749F0E7034B11
:10240000034A3F2103480DF065F8C046143C011013
:10241000404A0110303C0110FFFFFF7F10B5FA2247
:102420009200002300210EF079FDFFF7CBFF10BDD5
:1024300070B584B005000C00EFF30583002B1ED1AE
:10244000FFF7FAFD002302930193224B00932A0029
:102450002300FFF707FE061E23DD20BFFFF7ECFD7C
:102460003100FFF7B3FE1C4B5B6A9C422DD81A4A21
:10247000926AAA422CD29C4225D0012026E0164B1B
:102480005B6A994209D8144A926A824207D29942F9
:1024900001D001201AE0002018E0002016E0012001
:1024A00014E00D4B5B6A9C4209D80B4A926AAA421F
:1024B00007D29C4201D0012008E0002006E0002065
:1024C00004E0012002E0002000E0002004B070BD24
:1024D0000120FBE7B91900100040054070B5EFF38B
:1024E00005801038EFF3108C72B61A4B1B68002B66
:1024F000FBD0BFF35F8F01221300834016494B636B
:1025000016490B60164909780C00C440224214D0C9
:10251000114A546A8200134D5259944206D38200E4
:10252000114C125999430E4B197007E00A4A031DCA
:102530009B0099589950002200E00022BFF35F8F62
:10254000044B002119608CF31088002A00D09047BA
:1025500070BDC046280100D0004005403C700540D9
:10256000F0D6002078D60020F414002010B5010029
:10257000024A0348FEF7AEFB10BDC046104B0110E7
:10258000DFD60020044B5B6A034A906A1900536A45
:102590009942F9D17047C04600400540084B5B6A3C
:1025A00001E0074B5B6A8B42FBD301E0044B5B6AA3
:1025B0008B4203D1024B9B6A8342F7D37047C046DC
:1025C0000040054070B504000D00EFF3108672B6B0
:1025D0001B4B1B68002BFBD0BFF35F8F002D1CD063
:1025E0002000FEF795FE174B83420BD01900200008
:1025F000FEF7A8FE01212000FEF77AFE0123A3408A
:10260000114A1360A400114BE550BFF35F8F0C4BD0
:1026100000221A6086F3108870BDA2000B4B0021C7
:10262000D1500122A2400A490B7893430B7005490F
:102630002000FEF7CBFF00212000FEF759FEE4E763
:10264000280100D0DD24001038600540F41400207B
:10265000F0D60020F0B5DE4600B584B004001500C9
:1026600001921E000293FFF78DFF03958E4202D860
:102670004ED185424CD9EFF3108B72B6274B1B68B5
:10268000002BFBD0BFF35F8F254A17780125A540AB
:10269000EBB23B431370234B5D63221D9200019903
:1026A000D150A2002049029850501B6A2B4212D1EF
:1026B0001C4B1B6C2B4208D00020BFF35F8F174BC5
:1026C00000221A608BF3108823E0184B184AC521AA
:1026D00018480CF0FFFEFFF755FF8E4214D802D1C8
:1026E000039B834210D80E4B1B78BB420ED00D4B80
:1026F0001D625D631F2004400123A3400E4A136046
:10270000074B1F701E38D8E70020D6E70120D4E71A
:10271000012004B080BCBB46F0BDC046280100D0FB
:10272000F0D600200040054078D60020344B011040
:10273000B84B0110584B011080E200E0EFF3108C11
:1027400072B60B4B1B68002BFBD0BFF35F8F0123CE
:102750008340084A136208490A789A430A70BFF313
:102760005F8F034B00221A608CF310887047C046BD
:10277000280100D000400540F0D6002010B5002907
:102780001ED0037B99421BD84B005B18033B0468A7
:10279000A4466344002919D0002A1DD0914221D0BB
:1027A000002A25D0047BA24222D804685000801859
:1027B000033820188170197800291FD11A7010BDB4
:1027C000104B114A682111480CF084FE104B114A3D
:1027D0006F310E480CF07EFE0F4B0E4A70210B48F5
:1027E0000CF078FE0D4B0B4A712108480CF072FE7C
:1027F000044B054A682105480CF06CFE41701A70C4
:10280000DDE7C04618480110DC4C011034480110C7
:102810009C480110C84C0110A8480110B448011090
:1028200070B506000D001400002914D0002A14D041
:10283000806873689847002806D02200290030007D
:10284000FFF79CFF280007E02A0021003000FFF777
:1028500095FF200000E0100070BD0800FCE70000BC
:1028600010B50023437301338373037BC3730123C8
:10287000027B9A4214D9002B0CD0027B934209D8D8
:102880005A00D218033A01688C4662440133DBB225
:102890005370EDE70B4B0C4A68210C480CF01AFE04
:1028A000002A09D0924207D8016853009A18033AC7
:1028B0008A180023537010BD024B034A6821034855
:1028C0000CF008FE18480110DC4C011034480110CF
:1028D00010B5017342608360FFF7C2FF10BD0000B6
:1028E00070B50400081E00D170BD002934D0237BD0
:1028F000994231D84B005B18033B226894466344ED
:102900005A78002AF0D02DD0237B9A422AD853003F
:102910009B18033B21688C4663445D780021597005
:10292000002825D0237B984222D843001B18033B64
:1029300021688C4663440021597001002000FFF794
:102940006FFF060029002000FFF7CAFF02003100D8
:102950002000FFF765FFC7E7084B094A68210948CF
:102960000CF0B8FD054B064A682106480CF0B2FD94
:10297000024B034A682103480CF0ACFD18480110D3
:10298000DC4C01103448011070B505000C00160035
:1029900000292FD034D0037B994231D84B005B18EB
:1029A000033B0268944663445A78002A2ED19A78F1
:1029B000002A31D11978FFF793FF0300002E0AD0C7
:1029C000EA7B002A2ED1AA7B002A03D1EA7B002AC7
:1029D0003BD1AC73EC73002B3DD1002C4FD02B7B43
:1029E0009C424CD82B6861000C19033C1C19002335
:1029F000637070BD254B264A382126480CF06AFDCD
:102A0000254B264A682126480CF064FD254B204AB8
:102A10003A2120480CF05EFD234B1D4A3B211D4806
:102A20000CF058FD002A0AD0297B8A4207D85100B1
:102A30008A18033A29688C4662445470C3E7164BDF
:102A4000164A682116480CF045FD184B104A4221E1
:102A500010480CF03FFD002B0BD02A7B934208D886
:102A600043001B18033B2A689446634400229A7073
:102A7000B3E7094B094A682109480CF02BFD064BC6
:102A8000064A682106480CF025FDC046D44B0110CB
:102A9000B44C0110DC4B011018480110DC4C011043
:102AA00034480110304C0110584C01107849011085
:102AB00070B504000A00457B2900FFF765FF6073CD
:102AC000280070BD70B50400002967D0437B8B429D
:102AD0000ED0002911D0037B99420ED84B005B1811
:102AE000033B0268D0188378002B0CD1002056E0FD
:102AF0000121FFF7DDFF012051E0294B294A682120
:102B000029480CF0E7FC002B20D0227B93421DD8F3
:102B10005A00D318033B2268D2182568EB5C8B421D
:102B20001AD0002B1BD0227B934218D85A00D318FE
:102B3000033B2268D21853788B4216D0002BF0D179
:102B40001A4B1B4A6B211B480CF0C4FC144B154A52
:102B5000682115480CF0BEFC4378137007E0104B59
:102B6000104A682110480CF0B5FC437853700023DC
:102B70008370437001222000FFF706FF0200617B93
:102B8000814205D02000FFF74BFE6073012006E074
:102B9000094B074A712107480CF09CFC002070BDCE
:102BA00018480110DC4C0110344801109845011000
:102BB0009C4C0110DC4B01107C4C0110F0B5C6465A
:102BC00000B504000E0017001D0037480DF010FE80
:102BD0008046364BFA18364B9A4239D801003800F5
:102BE0000DF006FE0200103A98235B009A4235D899
:102BF0006B1E062B38D8069B013B062B34D83F09A9
:102C0000474537D32D04069B1A0315432368002B31
:102C100036DB284B9C4244D080225201264B1A605E
:102C2000264B1A60264B9B6811009943FAD1266007
:102C3000A060231DC02292011A4321231360236840
:102C4000002BFCDAE5600823136080BCB846F0BDB9
:102C50001C4B1D4A11211D480CF03CFC1C4B1A4A10
:102C600019211A480CF036FC1A4B174A1C21174838
:102C70000CF030FC184B144A232114480CF02AFCA9
:102C800022683F231340B342C3D1A3681B051B0D29
:102C90008342BED1E368EE22D2021340AB42B8D1E8
:102CA000D3E780229201B9E7001BB70080E84BD33D
:102CB00080F8A93200C0024000E0004000F000406F
:102CC00000C00040E84C0110284E0110484D011092
:102CD000A44D0110C04D01100C4E011080239B002B
:102CE0000343014AD362704700800540024B1A68D3
:102CF000024B5A607047C046642A0020008005409D
:102D000010B50200164B8020C0051860154B164800
:102D1000186000290AD0154BE021C9041960002A67
:102D200009D1124B802212061A6010BD0C4BE02113
:102D3000C9041960F3E753019B1A98008018000139
:102D40000B4B186080235B04984202D3084B094A5E
:102D50001A60FFF7CBFF054B8022D2051A60E4E72B
:102D600000B0054008200140FCFF010000A0054024
:102D7000642A0020FFFFFF0010B5030010000C4A7A
:102D80008024E4051460002B0DD001221343094A6E
:102D9000094CD461094C5C40146251629362002179
:102DA000FFF7AEFF10BD034B0022DA61F7E7C04624
:102DB00000B0054000800540D3C007B02D3FF84F5C
:102DC000064BAA2212011A602F22DA60044B054A30
:102DD0001A60024B5B68002BFBDA70470040024030
:102DE0000060024000B0FA0010B501F053FC00F0A2
:102DF000C5FB00F09DFD00F041FE05F0FDF901F07E
:102E0000D3FC00F018FA05F02FF910BD0302000AF8
:102E1000184380B2704703060202FF2109040A40EA
:102E20001343020AFF2109020A401343000E18430C
:102E30007047000000280AD0C07A002809D1431C3E
:102E40009B00054A9B58002B04D0012002E0002083
:102E500000E000207047C046E021002010B5FDF7DB
:102E6000BBFE80B2002301E00133DBB2032B0FD89D
:102E70001A01D218120107498A18927A022AF3D14C
:102E80001A01D21812018A1812898242ECD1E6E79F
:102E900010BDC046E8210020F0B5D6464F46464654
:102EA000C0B506008846002401E00134E4B2032CDA
:102EB00023D8250063001B199B00314A9F58002F1F
:102EC000F3D063001B199B00D3181B7AB342ECD1DB
:102ED00030018019000110302A4BC018924663005F
:102EE00099461B199B0053445A684146B8474D44C4
:102EF000AD0000235246AB50D7E7002301E0013379
:102F0000DBB2032B1BD8B342F9D01A01D21812013D
:102F10001C498A18927A022AF1D11A01D218120198
:102F20008A18D07B3201921912018A18D27B904202
:102F3000E5D133019B191B01CB180422DA7333014D
:102F40009B191B010F4AD318DB7B032B04D9E0BC70
:102F5000BA46B146A846F0BD0B4C9B00185905F087
:102F600049FC084A300183191B01D318DB7B9B0005
:102F7000002119518019000110180423C373E6E7DA
:102F8000B0210020E8210020A0210020F0B5D64685
:102F90004F464646C0B584B08046030143441B01FA
:102FA000534AD318DB7A012B34D89B00514A9B58E3
:102FB000002B32D004014444240110344C4BE4185B
:102FC000200010F0A1FCA022123081B29200362025
:102FD00000F0E8FF8146002800D185E001AD0C2219
:102FE000002128000EF006F843461B0143441B0154
:102FF0003F4AD3181889FFF709FF28800123AB70D7
:10300000FF33AB800C222900484601F0F3F9661E1D
:103010000C2737E038480CF0F7FA0021FFF73CFFA7
:103020004346180140440701314BDF190023BB72AE
:103030000024200004B0E0BCBA46B146A846F0BD6A
:103040000134E4B2013633782E2B01D0002BF7D1B6
:10305000731B9BB29A463B19284A934216DC220006
:103060003900484601F060FA7B1C9BB252462900A9
:10307000484601F00BFA3C19A5B26F1CBFB2337879
:10308000002B09D0013635000024DCE7484600F06B
:103090004BFF06246442CCE700223900484601F089
:1030A00043FA0235ABB28022520069460A804A8058
:1030B000FC3A484601F0EAF90D4943461B014246F5
:1030C0009A1812018A18D07BD37A9B00094AD21829
:1030D00080000B4940583523494605F003FB0400A6
:1030E000484600F021FFA4E701246442A1E7C0465E
:1030F000E8210020E0210020344E0110FEFF0000F6
:10310000A021002070B50400000100190001414B0E
:10311000C018032C20D823011B191B013D4AD318CA
:103120009B7A022B34D01AD8002B14D0012B00D05C
:103130006CE0FFF793FE3749220113191B01CB18EE
:103140001881022098720020D87201251D735873CF
:103150002000FFF71BFF70BD2F480CF055FA032B22
:1031600054D123011B191B012A4A9B58002B07D05D
:10317000013B22011219120126495350002BEAD1BA
:10318000200104192401234804190023A372E2E753
:1031900023011B191B011F4AD218137B013BDBB211
:1031A0001373002BD7D123011B191B01194AD21805
:1031B000537B0133DBB25373042B09D02201121964
:1031C000120114498A1813732000FFF7DFFEC2E7CB
:1031D000FFF730FE00280DD00E49220113191B0104
:1031E000CB18D87A0130D872012018731A00002346
:1031F0005373E9E700212000FFF74EFE2001041978
:103200002401044B1C190023A372A4E703480CF00B
:10321000FBF9C046E82100204C4E0110684E011019
:1032200010B5002404E02000FFF76CFF0134E4B285
:10323000032CF8D910BD7047012800D97047002928
:1032400004D080000A68044BC250F7E78000034BAB
:103250001A68014BC250F1E7E021002040710110D3
:1032600010B5FFF7DDFF10BD30B583B06B4600220F
:10327000DA8001231D000540184206D0002904DD34
:1032800002786B46DA7101390130032213000340E2
:10329000104209D0012903DD03880239023003E01E
:1032A000002301E00839200007290CDD0268D2184C
:1032B000934200D901320400083443689B189A42B3
:1032C000F0D90133EEE71A0C1B041B0CD31803E0F2
:1032D00002889B18023902300129F9DC002902DD3D
:1032E00001786A4691716A4606321288D318180C22
:1032F0001B041B0CC318180C1B041B0CC018002D3E
:1033000005D003061B0C020AFF201040184380B2B0
:1033100003B030BDF0B583B00600019115001C006C
:10332000002700E03668002E15D071897068FFF71D
:103330009BFF0019040C0004000C24187389DB07A0
:10334000F0D57B425F41FFB22206120C230AFF2414
:103350001C401443E6E7002F05D02206120C230A76
:10336000FF241C4014436B469888FFF74FFD241838
:103370002800FFF74BFD2018030C0004000C181860
:10338000030C0004000C1818C04380B203B0F0BD59
:1033900070B51C6825042D0C230C5B19049C246853
:1033A00025042D0CED18230C5B191C0C1B041B0CA5
:1033B000E3181C0C1B041B0CE318FFF7ABFF70BDDC
:1033C00010B582B0049C0094FFF7E2FF02B010BD7C
:1033D00010B5FFF749FFC04380B210BD70B50500BE
:1033E0000026002400E02D68002D15D0698968684A
:1033F000FFF73AFF0019040C0004000C24186B8935
:10340000DB07F0D573425E41F6B223061B0C240A9B
:10341000FF2004401C43E6E7002E05D023061B0CCA
:10342000240AFF2004401C43E04380B270BD00002A
:10343000014B1B68181870478CC40020024B1B6896
:10344000C01A80B27047C0468CC40020F8B5040092
:10345000FFF7F4FF050027883800FFF7E9FF0600B3
:1034600064882000FFF7E4FFFA231B019F420FD876
:103470009C420FD8AC4202D00388AB420CD1094B1E
:103480001B68B3420AD07388AB4209D1012000E027
:103490000020F8BD0020FCE70020FAE70120F8E753
:1034A0000020F6E790C4002070B504002C4B1B6888
:1034B000834242D82B4B1D68854241D90379002BAA
:1034C00041D10088FA231B0198423FD8FFF7B0FF93
:1034D000844216D00379002B13D1854211D0224BA0
:1034E0001B68834235D0038823800088FA231B01A0
:1034F000984206D0FFF79CFF05002000FFF79EFFD3
:1035000068806088FFF794FF0500844214D0037937
:10351000002B11D1144B1B68A3421DD023882B8094
:103520002088FA231B01984206D0FFF781FF040090
:103530002800FFF783FF608070BD0C480CF064F832
:103540000B480CF061F80B480CF05EF80A480CF0E0
:103550005BF8054B1C60C6E7034B1860DEE7C0460E
:103560008CC4002090C40020602A0020884E0110E6
:10357000A04E0110BC4E0110D84E011070B50C4C7D
:10358000033403239C430B4B1C60FA252D0125803B
:103590000023638023712800FFF74AFF064B186061
:1035A0000123037105804580044B1C6070BDC0463B
:1035B00094C400208CC4002090C40020602A002005
:1035C00070B5041E23D0830722D10500083D164B99
:1035D0001B68AB421FD803000C33144A1268934295
:1035E00019D80300083B1B79002B17D02800FFF7E0
:1035F0002DFF002815D0083C002323710C4B1B68BD
:10360000AB4201D90A4B1D602800FFF74DFF70BD8A
:1036100008480BF0F9FF08480BF0F6FF07480BF0DD
:10362000F3FF07480BF0F0FF8CC4002090C400208B
:10363000602A0020044F0110284F0110444F011050
:103640006C4F0110F0B5C64600B50500CC1CA4B205
:1036500003239C430B2C05D9FA231B019C4202D95E
:1036600000253FE00C248C4200D277E03C4B1B68E5
:10367000AB423BD83B4B1B68AB4237D92F00083FCE
:103680003800FFF7DBFE06003F883B1A9BB2083B81
:103690009BB298469C422CD824D03800FFF7C8FE35
:1036A0000379002B31D1FA231B019F4224D00788D4
:1036B000A419A4B20834A4B22B4B1B6883421ED0B9
:1036C0002000FFF7B5FE00230371078046802B0022
:1036D000083B1C800088FA231B01984202D0FFF7A8
:1036E000A7FE4480280080BCB846F0BD1F480BF000
:1036F0008BFF1F480BF088FF1E480BF085FF200052
:10370000FFF796FE184B1860DAE7230014334345A1
:10371000E8D8A419A4B20834A4B2FA231B019F422A
:1037200019D02000FFF784FE0F4B1B68834201D99C
:103730000D4B1860002303712B00083B1A88028090
:1037400046801C800088FA231B019842CAD0FFF7EC
:103750006FFE4480C6E707480BF056FF0025C1E71F
:103760008CC4002090C40020602A0020A04F0110CB
:10377000B84F0110D84F0110F0B5CE4600B582B059
:10378000002800D182E0C51CADB2032295430B2D69
:1037900005D9FA231B019D4202D9002072E00C25B5
:1037A000854200D274E03B4B1B6899461800FFF736
:1037B00045FE070032E038480BF026FF0123037175
:1037C000A14510D0019BE5180835344B1B689D427C
:1037D0001DD8A3071ED12000083053E04B4618889F
:1037E000FFF726FE81464B461B79002B03D02B4A60
:1037F00012684A45F2D1274A49461160274A1268A1
:103800004A45DFD0002BDDD025480BF0FDFE2548D2
:103810000BF0FAFE24480BF0F7FE27883E000195D6
:10382000FA231B015B1B9F422BD23800FFF700FEDF
:1038300004000379002BF0D103889E1B083E019BF6
:103840009E42EAD314339E42B8D37E19B6B20836EC
:10385000B6B2FA231B019E42ADD03000FFF7E8FD5F
:10386000002303712388038047802680012323716E
:103870000088FA231B019842A2D0FFF7D9FD4680A9
:103880009EE7002002B080BCB946F0BD0020F9E7F9
:103890000020F7E7602A0020D84F011090C40020D4
:1038A000EC4F0110085001103850011010B5040001
:1038B000FCF7F2FDE3681C68002C0AD022681A604D
:1038C000A30703D1FCF7EAFD200010BD02480BF06E
:1038D0009BFEFCF7E3FDF7E76850011070B50500AB
:1038E0000C008B0709D1FCF7D7FDEB681B68236040
:1038F000EB681C60FCF7D2FD70BD01480BF084FE44
:103900008C500110C36800221A60836803330332AD
:103910009343002207E0C16809681960C1680B6021
:1039200081885B180132C1889142F4DC7047000045
:1039300010B5002406E0A200044BD058FFF7E2FFC8
:103940000134A4B2082CF6D910BDC046DC510110D8
:1039500010B5082805D88000044BC058FFF7A6FF13
:1039600010BD03480DF0A4FC0020F9E7DC51011064
:10397000AC50011010B5082807D8002904D08000E9
:10398000044BC058FFF7AAFF10BD03480DF090FC90
:10399000FAE7C046DC510110CC5001100B68826878
:1039A000934206D0002902D0836001207047002393
:1039B000FAE70020FAE70B68C268934206D00029B4
:1039C00002D0C360012070470023FAE70020FAE725
:1039D0000C204042704770B504000D0001F02CF936
:1039E0002900200004F036FF2900200000F036FEF8
:1039F00070BD000010B500280DD03923C25C343BE7
:103A00001340052B06D1CB0704D54368002B01D00A
:103A1000130703D410BD03480BF0F6FD011D06F09B
:103A200001FBF7E70052011030B583B005000C0030
:103A30001000002908D0002A09D06B680A689A4251
:103A400008D1002003B030BD0B480BF0DDFD0A4863
:103A50000BF0DAFD0192036001A9FFF7BCFF2368B8
:103A60006B6001212800FFF7C5FFEB69002B01D037
:103A7000280098470120E5E7245201107047000014
:103A8000F0B5C64600B582B005000C0017001E0058
:103A9000002920D0002F20D0002E20D0002C02D0D2
:103AA0002368002B1DD101AA21002800FFF7BCFFCD
:103AB00001239846002239002800FFF76FFF0022FB
:103AC00031002800FFF777FF4346002B0CD002B0EF
:103AD00080BCB846F0BD074CDCE7064FDCE7054E7E
:103AE000DCE700239846E5E701AA21002800FFF75C
:103AF0009BFFECE740710110F0B5C64600B504002D
:103B00000E0017009846002832D0079B002B34D0B7
:103B1000002937D0002F37D04346002B36D0002560
:103B20006560A560E560354B636125860022392319
:103B3000E25420002830042200210DF05BFAE561F8
:103B40002562069B63622E4B1A783C23E254089B45
:103B5000236143463A0031002000FFF791FF200027
:103B6000079B9847002823D0002080BCB846F0BDB2
:103B700024480DF09DFB2000F7E723480DF098FB4B
:103B80000020F2E7214EC5E7204FC5E71F4B9846BE
:103B9000C5E7C33B0022E2540EE01D480BF034FDA4
:103BA0001C480BF031FD01313C22A154002B15D0F3
:103BB0003C23E35CFF2BECD0174B1D682B0000224D
:103BC000002BF3D09C42E8D00132FF2AE8DC3C21F4
:103BD000585C615C8842E6D01B68F1E73C33E35CEB
:103BE000FE2B07D00133064A137025600A4B1C6078
:103BF0002000BAE7024B00221A70F6E7D139001014
:103C0000E8D60020345201105052011040710110CA
:103C1000745201108852011068C40020014B1860D2
:103C20007047C04664C4002010B5041E10D039236C
:103C3000C35CDA070BD40122134339228354C369CE
:103C4000002B00D0984703212000FFF7D3FE10BDC2
:103C500001480DF02DFBFAE7B852011010B5041E13
:103C60000FD03923C35CDA070AD5012293433832D7
:103C700083541B0709D4E369002B01D02000984727
:103C800010BD03480DF014FBFAE706F01DF9F2E74A
:103C9000D452011010B5041E28D04368002B12D155
:103CA0003923E35CDB0713D4114B1B68A34213D009
:103CB000104B1B68A34213D0002B17D01A68A242E6
:103CC00012D01300F8E704300021FFF784FEE7E785
:103CD0002000FFF7C3FFE7E70020FFF79FFFE7E7BC
:103CE0002268044B1A6001E022681A6010BDC046C9
:103CF00064C4002068C4002010B5041E04D0392319
:103D0000C35C5A0704D510BD09480DF0D1FAFAE793
:103D1000042213433922835405F0E0FC03212000E0
:103D2000FFF768FE236A002BEDD020009847EAE7F2
:103D3000F452011010B500280CD03923C35C5A0787
:103D400007D50422934335328354036A002B00D0F5
:103D5000984710BD01480DF0ABFAFAE7185301106F
:103D6000021E0BD0064B1868002808D03C23C35C09
:103D70000133DBB2934202D00068F5E700207047C0
:103D800068C4002030B504AC25780024046041608C
:103D90000281438103AB1B78037345730123837353
:103DA000C47330BD02E0C91A89B20068002802D08D
:103DB00043898B42F7D9002A00D011807047000058
:103DC00010B5FCF769FB034B01221A70FCF766FB88
:103DD00010BDC046EAD6002070B500281AD0802356
:103DE0005B02994221D2002921D08CB203891B1990
:103DF0009BB2A3421DD30C254557002D0DDB002A95
:103E000019D04268511A41604289141944810381D2
:103E100000200BE009480BF0F7FB4268511A020042
:103E200010328A42EFD9012000E0012070BD00204D
:103E3000FCE70120FAE70120F8E7C046986A011084
:103E400010B5FCF729FB084B00221A70FCF726FB83
:103E5000064B186800E0C068002804D0436F002BB0
:103E6000F9D000F075FD10BDEAD6002088D60020FC
:103E7000F0B583B007000E001500412A01D0012AD9
:103E80000FD10720FFF764FD041E07D00023019324
:103E90000095330032003900FFF774FF200003B0B3
:103EA000F0BD01480BF0B0FB3C53011010B50022EF
:103EB000FFF792FF10BD000010B5002814D080233A
:103EC0005B02994218D2002918D08AB243899342E2
:103ED0000DD34468A446614441609B1A4381038921
:103EE0009A1A0281002010BD05480BF08DFB054891
:103EF0000DF0DEF90120F6E70120F4E70020F2E7FB
:103F0000986A01105053011010B5002902DBFFF729
:103F100063FF10BD4942FFF7CFFFFAE710B501225A
:103F2000FFF7F2FF10BD000070B5051E01D000269E
:103F30000CE019480BF068FB18480BF065FB2900F2
:103F40000820FFF717FD0136F6B22500002D21D01D
:103F5000FCF7A2FAAC7B002CEED0013CE4B2AC73CF
:103F6000FCF79CFA002C15D12C682A7B0F231340F8
:103F7000022BE4D0012B05D0002B08D12800FFF73D
:103F80001FFBE0E729000720FFF7F4FCDBE704480C
:103F90000BF03AFB300070BD986A011070530110AD
:103FA00088530110F0B5D6464F464646C0B582B09C
:103FB00005000F00904684B2C1235B009A4241D0B5
:103FC00011D8012A02D0412A00D07DE042463900B2
:103FD0000020FFF74DFF8146484602B0E0BCBA46DC
:103FE000B146A846F0BDA0239B009A426CD1E31CC9
:103FF00003218B439BB2FA1C94B28C431B199BB2D6
:104000001800103080B28A43934260D3824261D854
:10401000FFF7B2FB81460028DED029001031494469
:1040200003310324A14300230193434600933B0043
:104030003A00FFF7A7FE4B465B682342CCD02748E7
:104040000BF0E2FA00250023994626E0FFF7B8FEC0
:104050004B46002B02D04846FFF766FFA946BBE758
:10406000B6B221001031691803310324A1430023A3
:1040700001934346009333003A002800FFF782FE85
:104080006B6823421BD14B46002B1BD053461D604F
:10409000BF1BBFB20024002F9ED0AA460820FFF706
:1040A00057FC051ED2D0E31C032293439AB20C4B5B
:1040B0009B1A9BB21E1CBB42D2D93E1CD0E70948BA
:1040C0000BF0A2FAA946E3E707480BF09DFA00239C
:1040D000994681E7002399467EE7C04600540110C7
:1040E000EC0500009C5301102C54011070B5041E07
:1040F00012D00089884220D90D006389AB420ED2CC
:10410000ED1AADB223890A1A9B1823812468002C6A
:10411000F3D113480BF078FA12480BF075FA227BB2
:10412000120701D1AB4209D16581258120680028A1
:1041300001D0FFF7F9FE0023236070BD6368191BEF
:10414000691889B22000FFF77DFA002804D0844264
:10415000EAD005480BF058FA04480BF055FAC0466F
:104160006054011048540110945401107854011007
:104170000300002002E0013080B21B68002BFAD15E
:104180007047000010B5041E09D0FCF785F9A37B29
:104190000133A373FCF782F9A37B002B00D010BD81
:1041A00001480BF031FAC046B054011010B5002898
:1041B00001D0002908D10C480DF07AF80FE00389EE
:1041C0000C891B19038110000268002AF7D10389AA
:1041D0004289934204D10A899B180381016010BD72
:1041E00002480BF011FAC046C4540110FC540110EF
:1041F00010B50C00FFF7DAFF2000FFF7C3FF10BD7A
:10420000F8B5CE46474680B506000D1E9146984645
:104210000AD00A894A4507D300280BD002894B44AB
:104220009A4207DB002726E03D480DF041F81020B8
:10423000404270E03B480DF03BF8102040426AE0FD
:1042400039480BF0E1F939480BF0DEF94B46002B09
:1042500036D10027424539D0002D03D06A892B89F9
:104260009A4245D0002E03D0728933899A4248D0B1
:104270004B46002B4ED0738942469B1A6A89D21B4B
:10428000934200D313004C46994500D91C00706836
:1042900040446B68D91922000CF0B2FEA0443F19CB
:1042A0004B461C1BA3B2994672894245C8D36B8901
:1042B000BB42C8D3CED82D68002DC7D00027C9E790
:1042C0001B480CF0F5FF1020404224E03668002E19
:1042D00002D000239846BFE74B46002B02D10023B3
:1042E0009846B9E713480CF0E3FF1020404212E073
:1042F0002B68002BB6D010480CF0DAFF06204042A5
:1043000009E03368002BB3D00B480CF0D1FF062036
:10431000404200E00020C0BCB946B046F8BDC046EF
:104320002C5501106055011090550110A855011031
:10433000C4550110D4550110E455011010B50029E1
:1043400004D00A890023FFF75BFF10BD02480CF080
:10435000AFFF10204042F8E71C560110F8B5CE46DA
:10436000474680B50500884691461900002805D0CB
:104370004346002B0BD00027002625E019480CF0FF
:1043800097FF00273800C0BCB946B046F8BD1648B4
:104390000CF08EFF0027F5E76C89641AA4B2A145E2
:1043A00000D24C46434698196B689C4661442200F3
:1043B0000CF026FEE719BFB23619B6B24B461C1BED
:1043C000A3B2994600212D684B46002BDAD0002D70
:1043D000D8D00029E0D06B898B42DDD8C91A89B2C8
:1043E000F1E7C046385601105856011010B5FFF7D6
:1043F000D9FC10BDF8B5CE46474680B505008846C5
:1044000016009146002806D000290AD0038993425D
:104410000DD300271DE018480CF04AFF1020404241
:1044200023E016480CF044FF102040421DE01448E1
:104430000CF03EFF0120404217E012480BF0E4F878
:104440004346D919220068680CF0DAFD361B3F1983
:104450002D68002E06D0002DEFD06C89B442EFD32A
:104460003400EDE74F4504D10020C0BCB946B0464A
:10447000F8BD05480BF0C8F87C56011094560110A1
:10448000B0560110D0560110E8560110F0B583B0B7
:104490000F00140019006B469A1DFFF7A7FF061EB8
:1044A00024D002896B46D88803199A4221DB73898C
:1044B000984212D21A1A944212DD95B273689C4641
:1044C00060442A0039000CF09BFD621B92B27919FE
:1044D000002A07D1002003B0F0BD07480BF094F884
:1044E0002500EBE73068FFF785FFF4E70120404245
:1044F000F1E701204042EEE70057011070B50B00D4
:10450000150011891A00FFF74DFD041E04D0290083
:10451000FFF714FF002801D1200070BD01480BF007
:1045200073F8C0461857011010B582B014006B46DE
:104530009A1DFFF75BFF002807D042896B460633C0
:104540001B889A4201D94268D45402B010BD0000C1
:1045500010B5027A002A07D0134B5C683C23E35C59
:104560000133DBB29A4213D1002906D0002811D0C2
:104570000368002B10D000200BE000280ED0036849
:10458000002B0DD0084A526993420BD0080000E07E
:10459000002010BD0120FCE70120FAE70120F8E728
:1045A0000120F6E70120F4E7482A0020F0B5D646BE
:1045B0004F4680B583B00500244B1968586907F051
:1045C00006F807006B685E7A214B1C680023994649
:1045D000019313E063699A46002B0DD06B689946EE
:1045E0001C4B2A002100A069D04700281AD16B6813
:1045F0004B4528D1022399460194E468002C1CD035
:10460000237C9E42F8D139002000FFF7A1FF00284B
:10461000F2D0637CDB07DDD50C4B1B6962689A42E4
:10462000EAD1D7E7019B002B05D0E268DA60084B9E
:104630001A68E2601C6001239946484603B0C0BC7A
:10464000BA46B146F0BD04480AF0DEFF482A002011
:1046500050D40020582A00202C57011010B50028F3
:1046600014D00368002B11D000290FD00B68002B49
:104670000CD0074B1B6800E0DB68002B06D01A68E3
:104680000468A242F8D10A681A60F5E710BDC04676
:1046900050D400207047000010B5002903D106480F
:1046A0000AF0B2FFC068002805D0C36F8B42F9D171
:1046B0000023C367F6E710BD7857011070B5051EDB
:1046C00004D0037D012B04D101240DE008480AF039
:1046D0009BFF08480AF098FFA200074BD3581868C0
:1046E0002900FFF7D9FF0134032CF5D970BDC0466E
:1046F000A0570110AC5701107C5C011010B50100EF
:10470000037D012B03D00320FFF734F910BD0148CE
:104710000AF07AFFC457011070B5041E09D0037D5A
:10472000042B19D0072B1ED0032B05D00025280001
:1047300070BD12480AF068FF03F014F8051E01D19D
:1047400005232375002D15D06B1CF0D1638B082237
:10475000134363830025EAE703F004F8051EF1D153
:1047600005232375EEE702F0FDFF051EEAD10923BC
:104770002375E7E7200003F06DF9D8E7A057011093
:1047800010B5084B186800E02000002809D0C46864
:10479000438B1A07F8D5082293434383FFF7BCFFE6
:1047A000F2E710BD88D6002010B5FCF715FA80049A
:1047B000800C034B9C466044024B188010BDC046E1
:1047C00000C0FFFF580E002010B50100037D012B33
:1047D00003D00220FFF7CEF810BD01480AF014FF05
:1047E000E0570110F8B5002816D0456A068DA919C2
:1047F000C26A448E231C0E4FBC4200D93B1C9BB2A4
:10480000D318CB1A0BD5521B0CD480235B029A42CF
:104810000BD242850020F8BD06480AF0F5FE468519
:10482000881AF8E700234385F4E703480AF0ECFE12
:10483000D0160000F45701101858011010B5041ECE
:1048400013D0037D012B14D0038D591889B20F4A60
:10485000914201D88B420FD90C4B23852000FFF7E2
:10486000C1FF0B4B984209D810BD0A480CF020FD3F
:10487000FAE709480AF0C8FE0185EFE7638B0222D8
:1048800013436383200003F0E5F8EDE7A02D00005B
:10489000670B0000345801104C58011010B5041E6D
:1048A00008D04068002801D0FFF73EFB210004201B
:1048B000FFF760F810BD10B503E00468FFF7EEFFE6
:1048C00020000028F9D110BD70B5051E0DD00420C0
:1048D000FFF73EF8041E06D0142229000CF090FBCE
:1048E0006068FFF74FFC200070BD01480AF08CFEA5
:1048F0007458011010B5002807D0054B054A106800
:104900001A6894466044186010BD03480AF07CFEA3
:10491000540E002098D600209058011010B5002A9F
:104920000ED000290BD00B8E002B08D0282B0AD9D3
:10493000283B9BB21A1C834200D9021C90B210BDC6
:1049400002480AF061FE0023F4E7C046AC580110AB
:1049500010B50400406F002803D0FFF7ACFF002320
:10496000636710BD10B5041E22D0037D002B1ED03E
:104970000A2B1CD0012B1AD0806F002803D0FFF720
:10498000D3FA0023A367636F002B02D02000FFF748
:10499000DFFF01235B422386E06EFFF78CFF206F71
:1049A000FFF789FF0023E36623676822A35210BD47
:1049B00001480CF07DFCFAE7D458011010B50C1E2C
:1049C0000BD000280CD003688B420CD0002B0FD0EA
:1049D000DA68A2420AD01300F8E71C480AF014FE75
:1049E0001B480AF011FEDB68036001E0E268DA6050
:1049F0000023E3602000FFF7B5FF237D0A2B04D0DE
:104A0000012B02D0638BDA070FD4237D012B08D052
:104A1000E36E002B10D1236F002B10D1636F002B9E
:104A200010D100232375E38210BD02221343638358
:104A3000200003F00FF8E8E706480AF0E5FD064815
:104A40000AF0E2FD05480AF0DFFDC046F05801100B
:104A50000C5901102C5901104459011060590110D2
:104A6000F0B5D6464F464646C0B584B004000D00AA
:104A700000281CD0037D012B1DD00A2B1ED0026DF7
:104A80009046426A9146902286580769002B47D18A
:104A9000C38A9A46002B4DD02E4B1B68834215D0FB
:104AA000002B19D0DA68A24214D01300F8E72A4884
:104AB0000CF0FEFB2EE029480AF0A6FD0100284874
:104AC000FFF77CFF2000FFF77FFE23E0DA68214B31
:104AD0001A6001E0E268DA600023E3609A4600258C
:104AE000206F002801D0FFF7E6FEE06E002801D01D
:104AF000FFF7E1FE606F002801D0FFF7DCFE002D1C
:104B00001AD12000FFF760FE002E03D00D2149428C
:104B10003800B04704B0E0BCBA46B146A846F0BD84
:104B2000C38A9A4601000F48FFF748FF0E4B012247
:104B30001A70D5E70025D3E7231D228B0292524637
:104B40000192009323004A464146200002F01AFFDA
:104B5000D7E7C0468CD6002078590110945901102F
:104B60009CD6002088D60020EDD6002010B501216B
:104B7000FFF776FF10BD000010B50B4B1B6800213E
:104B8000002000E0DB68002B08D0084A12681C6A8D
:104B9000121B8A42F6D311001800F3E7002801D057
:104BA000FFF7E4FF10BDC0469CD6002098D6002039
:104BB00070B543B2002B02DB002801D11FE07F203B
:104BC0000138C2B20E4B1B680024002006E00D4ADB
:104BD00014681A6AA41A0A001800DB68002B0AD0AD
:104BE000597D9142F3D3F8D1064D2D681E6AAD1B55
:104BF000A542F2D3EBE7002801D0FFF7B7FF70BD65
:104C000088D6002098D6002070B504000800002C3B
:104C100006D108480AF0F8FCC568FFF7A7FF28008E
:104C2000002805D0036822689342F5D0C068F7E7F2
:104C300070BDC046C859011070B504000D000028B1
:104C400002D00368002B00D170BD0D4B1968FFF72F
:104C5000DBFF0C4B19682000FFF7D6FF002DF3D0C7
:104C60002B68002BF0D0084B1B6800E0DB68002BA2
:104C7000EAD01A6821688A42F8D12A681A60F5E7F2
:104C800088D600208CD6002094D6002070B5010074
:104C90000300083BDBB2012B04D80E4B1B68002439
:104CA000002003E00C480AF0AFFCDB68002B0BD0BF
:104CB0001A7D8A42F9D1094A12681D6A521BA24222
:104CC000F3D314001800F0E7002802D00021FFF70A
:104CD000C7FE70BD88D60020FC59011098D6002070
:104CE00070B505000220FEF733FE041E30D0002C04
:104CF0002CD0A422002120000CF07CF96575254BF6
:104D00006422A352638523859B32E2721A32FF32FA
:104D10006286062240216252E287073A22864932A1
:104D20003F39A1521C4A126822621C4A1278A277AB
:104D30004A22A35284231A4AE2501033194AE250FD
:104D40000433194AE25004330922E250200070BDB6
:104D5000FFF716FDFFF710FF0220FEF7F9FD041E16
:104D6000C5D10920FFF792FF0220FEF7F1FD041ED6
:104D7000BDD10820FFF78AFF0220FEF7E9FD041EDF
:104D8000B5D12800FFF714FF0220FEF7E1FD040073
:104D9000ADE7C046A02D000098D60020EFD6002039
:104DA000154F001000DD6D00F824010010B584B02F
:104DB000041E13D0002904D0037D042B11D0072B2F
:104DC0000FD0237D012B00D166E0022B00D16FE0D4
:104DD000002B46D02000FFF79FFC3DE03A480AF048
:104DE00013FCA36F002B1CD0638BDB061ED5231D89
:104DF000228B0292E28A019200932300626A216D63
:104E0000200002F0BFFD2000FFF7ACFD2F4B1B6818
:104E1000A3420ED0002B12D0DA68A2420DD01300AC
:104E2000F8E7228D2A4B9A42DED1CAE729480AF0D8
:104E3000EBFBDA68254B1A6001E0E268DA600023D8
:104E4000E360254B01221A70244B1B68A34205D056
:104E50002000FFF7B9FC002004B010BD02F06EF88E
:104E6000F9E7E38A002B12D01D4B1B68A34206D042
:104E7000002B0AD0DA68A24205D01300F8E7DA68FE
:104E8000174B1A6001E0E268DA600023E36020005B
:104E9000FFF79AFC0020DFE72000FFF70FFC21005E
:104EA0001048FFF78BFD2000FFF728FC0020D3E718
:104EB00021000648FFF782FD074B01221A702000EF
:104EC000FFF782FC0020C7E70C5A011088D60020AB
:104ED000A02D00002C5A0110EDD6002090D6002005
:104EE0008CD6002094D6002010B500280AD0037D6F
:104EF000012B03D0438B1022134343830121FFF77F
:104F000055FF10BD02480CF0D3F910204042F8E7DD
:104F1000485A011010B508001400002909D0002AD1
:104F20000DD01189FFF78AFC2000FEF7FDFF00205D
:104F300010BD06480CF0BCF910204042F8E7002BE9
:104F400001D00020F4E7FFF7CFFFF1E7605A01102E
:104F5000F8B5041E25D0866F777B002383678433E2
:104F6000C558002D23D00023320001000069A84756
:104F70000500002D23D1BB0627D5238D144A93426B
:104F800001D0013323858423E658002E1DD02069EB
:104F9000002300222100B04703000D3315D1050086
:104FA00013E00C480CF084F910256D420DE000234D
:104FB000320001000020FFF7ADFF0500D9E72B000C
:104FC0000D3302D0A66705256D422800F8BDC04606
:104FD000A02D00007C5A011070B51C4A13780133D3
:104FE00013701B4B1C6813E00222134363832000E1
:104FF00002F030FD638B03229343638313E00822A6
:10500000934363832000FFF787FB0FE0E5682C00E4
:10501000002C19D0A27F0D4B1B789A42F6D0A377B3
:10502000638BDA07E0D4638B1A07E8D4E568A36FD3
:10503000002BECD0074E002333702000FFF788FFD1
:105040003378002BE3D0CCE770BDC046EFD600200C
:1050500088D60020EDD60020F0B5CE46474680B574
:1050600085B0BA4A136801331360B94A1378013323
:105070001370B84B1C68002686E1B7480AF0C4FAE2
:10508000B6480AF0C1FAB6480AF0BEFA2600E4684B
:105090007AE14033E35C052B00D88BE101256FE01A
:1050A000B0480AF0B1FAB0480AF0AEFA200002F0B7
:1050B000CFF900280CD0A0230022E2540133E35C96
:1050C000062B00D9A3E00133A132A354002557E0F9
:1050D000200002F0BFFC0028EDD1002550E0238E17
:1050E000A24A934201D8013323863023E25E402353
:1050F000E35E9A4244DB200002F068FB002805D002
:10510000236F002B3CD1E36E002B39D0237D022B83
:1051100015D04223E25C131C0C2A00D90C23DAB20E
:105120003C21635EDB103E20215E5B1890498A5C67
:1051300093408E4A934220DC1BB24022A3520023AC
:1051400023866033E25A183BE15A131C8A4200D985
:105150000B1C9BB25B084A22A352618E4A0092B29A
:10516000934201D24A23E2524823E15222330022E1
:10517000E252200002F00AFE02E07E4BDDE701254C
:10518000217D062945D0637A082217001F401A4264
:1051900004D0042949D0072947D00027636F002B8A
:1051A0000AD06A4B1A68236AD21A4023E15E4B0088
:1051B0005B185B009A426AD2237D032B6BD0092BCC
:1051C00072D0002D79D1E568237F0133DBB22377DC
:1051D000627F934200D2D5E000232377664A1370A2
:1051E0008C33E358002B00D1A7E0210020699847B9
:1051F000614B1B78002B00D03BE7002800D19EE0DC
:1052000026002C00C0E00125BAE70025B8E70025FC
:10521000B6E7638BDB06B6D54C4B1B68226A9B1A3C
:10522000282BB0D90135EDB2ADE7484B1F68236A92
:10523000FF1A9423E35898469C23E058043BE35814
:10524000994658434044FA2149000BF0D1FA87426D
:1052500003D90135EDB20127A0E7A323E05C4B465B
:1052600058434044FA2149000BF0C2FA874201D862
:10527000002793E7200002F0ADFD002805D1A3220E
:10528000A35C0133A354002788E7002786E72000AA
:10529000FFF75EFB90E72D4A1268216A521A282A0E
:1052A0008DD90135EDB28AE7284B1B68226A9B1A1B
:1052B000F02B86D90135EDB283E79023E558200025
:1052C000FFF750FB002E20D0224B1B689C4219D0C8
:1052D000E368F360002F23D123699846E768200034
:1052E000FFF772FA244B00221A70002D03D00D2113
:1052F00049424046A847204B1B78002B00D0B8E617
:105300003C0041E01D480AF07FF9124B1B689C42AB
:1053100003D1104BE2681A60DCE719480AF074F90F
:10532000231D626A216D208B0290E08A0190009318
:105330002300200002F026FBCEE7002058E72000E3
:1053400002F088FB26002C001EE0C04698D6002004
:10535000EFD6002088D60020A45A0110D05A0110A0
:10536000FC5A0110285B01105C5B0110FE7F0000FD
:105370006C5C0110FF7F0000EDD60020945B0110F3
:10538000C05B011026002C00002C46D0237D002B92
:1053900000D172E6012B00D172E60A2B00D172E631
:1053A000A17F394A1278914200D16FE6A277022B91
:1053B00000D16EE64223E35C0B2B00D9DFE6A1238C
:1053C000E55C002D00D18AE6236F002B00D067E654
:1053D000E36E002B00D166E6A223E35C0B2B00D921
:1053E00011E7013D294B5A5DA023E35C934202D2B1
:1053F0000133A0216354A023E35C934200D204E76D
:105400006023E15A002900D050E6200002F006FD9A
:10541000002800D14FE60025B2E61D4B1D6812E0C2
:105420001C480AF0F1F82800FFF79CFA002C1BD06A
:10543000174B1B689D4214D0EB68E360EE682800B0
:10544000FFF7C2F93500002D19D02B7D0A2BE7D1CB
:10545000114B1B682A6A9B1AF02BE4D82C00ED68CC
:10546000F1E70E480AF0D0F8094B1B689D4203D1C2
:10547000074BEA681A60E1E709480AF0C5F805B089
:10548000C0BCB946B046F0BDEFD600208C5C011020
:105490009CD60020EC5B011098D600201C5C01100B
:1054A000445C011010B5FFF797FD054A13780133EE
:1054B000DBB21370DB0700D410BDFFF7CDFDFBE7B7
:1054C000EED600200B4A1388591C11800A4A116835
:1054D000002903D0094A1288934204D2084A12686C
:1054E000D318187D7047DBB2D2B29B1ADBB2C85C0E
:1054F000F8E7C046D2D60020A4D60020D4D600209B
:10550000A0D6002070B5041E1FD0204B1B88002B96
:105510003AD01F4B00221A801D4B1A881B4B1B8848
:105520009A4231D2FFF7CEFF0128F5D002280FD0E2
:10553000002829D0FFF7C6FF0300012824D9144A08
:105540001088C01802381080E6E712480AF05CF8AC
:10555000FFF7B8FF042817D10D4B1B8801330B4A06
:105560001288934210DAFFF7ADFF85B22D02ADB27B
:10557000FFF7A8FF80B205436B1E9BB2064A934219
:1055800000D9064D6586C7E770BDC046D6D6002057
:10559000D2D60020945C0110B3050000B4050000D1
:1055A00010B5041E05D00E4B1B78DB0604D400207A
:1055B00010BD0C480AF028F8438BDB0607D4902373
:1055C000C358002B03D00F2149420069984721009E
:1055D0000548FFF7F3F92000FFF7F6F80120E7E7A9
:1055E000EBD60020B05C011088D6002070B584B0E6
:1055F0001E4B1B785A072FD4002821D09A0722D59A
:105600001B4B1A68436AD11A22D4018D5B189B1A6E
:105610001ED4184B1D68184B184909888A18184958
:1056200009682E786C78240234430294AE78EC78C2
:105630002402344301941C1F009402F0A3F90BE0F0
:10564000104809F0E1FFDB0702D50F4B1B6803622E
:105650000A4B1B88002B01D104B070BD438B022282
:105660001343438302F0F6F9F6E7C046E4D6002080
:1056700064D50020A0D600205C2A0020D8D60020C7
:10568000F0140020D85C011098D60020F0B585B049
:1056900004004A4B1B785A0705D4002805D0DA06C7
:1056A00006D49B0720D405B0F0BD454809F0ACFFF7
:1056B000444B1E68444B454A1188454A12688A1873
:1056C000444909681D00143D6868377874782402DD
:1056D0003C430294B778F47824023C43019410359B
:1056E000009502F068F9DEE7407DFFF7F9FA051E44
:1056F00050D0394B5A6902601B694360E38AC38208
:10570000304E3268117853781B020B430383032316
:1057100003752F4F3B6801334362C362FFF7EAF81A
:10572000A86528656864E8653B68013B6B6523698B
:105730002B61EC67627A0C2313406B72237A2B7215
:10574000264B1A68EA601D6002F050FC244B0122CF
:105750001A702800FFF7D6FE3268917BD37B1B02BC
:105760000B436022AB520232AB526E8E2C1D2000D6
:1057700005F0A6FC010022003000FFF7CFF8688694
:105780001221280001F060FF002812D1280002F049
:1057900061F988E7134984228B5A01338B52A3693C
:1057A000002B00D17FE7833A2069524200219847BD
:1057B00079E700212800FFF753F974E7E4D60020C9
:1057C000F85C0110A0D600205C2A0020D8D600206A
:1057D00064D50020F0140020482A002088D600203C
:1057E000EDD60020682A0020F8B5CE46474680B5A1
:1057F00007000C0099460BE0274809F005FF4B46CF
:10580000002B01D02C0003E0244809F0FDFE2C0001
:10581000002C3BD0224B1E68216908794B791B0272
:1058200003438A7912041343C87900061843FDF72D
:10583000F2FA05002389984623691A7B587B0002F7
:105840001043FDF7E3FA83071ED0012040442D18D2
:10585000761B1BD425686068FEF78AFC6623FB5A1A
:105860009842C9D81B1A6626BB5323890D4A118852
:105870005B1813802000FFF711F8BB5B002BC6D02C
:10588000002DBCD02C00C3E70020DFE72000C0BC07
:10589000B946B046F8BDC046185D0110405D011024
:1058A000F0140020D0D6002070B506000D000028AE
:1058B0000DD003691A7B587B00021043FDF7A6FA4E
:1058C000C3070CD52800FEF7F6FF002548E029485D
:1058D00009F09AFE2C682800FEF7E0FF2500002D55
:1058E0002BD03189244B1B68C9182C692379607926
:1058F00000021843A27912041043E3791B06034304
:105900002A899B18CB1A18D4237B607B000218438A
:10591000FDF77CFAC307DDD533691C7B5B7B1B027B
:105920001C430120FDF772FA3269204383B2FF2144
:10593000084010731B0A5373CCE7002D10D0286960
:105940000379417909021943827912041143C37919
:105950001B060B4332890849096852189A1A01D468
:10596000356070BD591A89B231817068FEF7BEFB8F
:10597000F6E7C046605D011064D50020F0B583B045
:10598000041E65D0037D032B65D9B04B1B78DB0665
:1059900000D434E16023C05AA36DC518616DAC4AD0
:1059A00012688E1A0DD4914258D0AA4909688B42C8
:1059B00019D1A94B19688E7BCB7B1B0233439842CC
:1059C00011D2A54B1968887BCB7B1B020343602156
:1059D00063520231615A8B4201D96221635262657E
:1059E0009C4B1B68A365626C9A4B1B68D11A3FD411
:1059F0009A490988002900D0F9E06031615AA06D08
:105A000084466144A94200D0F1E03020215E0029A3
:105A100000DAECE09A4200D0E9E04323E35CFF2B9C
:105A200002D001334322A3544323E35C032B08D960
:105A30004822A15A628E8A1892B2914213D8482104
:105A40006252022B00D8D2E0200001F067FFCEE0C6
:105A5000834809F0D9FD834809F0D6FD7D490968DE
:105A6000591AA2D5ADE7482201214942A152E8E7DF
:105A7000991A012900D5B7E0216DC91A00D5B3E004
:105A8000618B480709D50420814361834A21605A0C
:105A900002396052223100206052002542216554B3
:105AA0003C21605EE18FC01009184020215299B25C
:105AB00092B28A1A92B24321655463644823E05A31
:105AC0000233E35A98424FD2638B1B0545D54239C6
:105AD000638E594389B20B1C914200D9131C9BB2AF
